{
  "_format": "hh-sol-artifact-1",
  "contractName": "SocialNetwork",
  "sourceName": "contracts/SocialNetwork.sol",
  "abi": [
    {
      "inputs": [],
      "name": "_postID",
      "outputs": [
        {
          "internalType": "uint256",
          "name": "",
          "type": "uint256"
        }
      ],
      "stateMutability": "view",
      "type": "function"
    },
    {
      "inputs": [],
      "name": "_userID",
      "outputs": [
        {
          "internalType": "uint256",
          "name": "",
          "type": "uint256"
        }
      ],
      "stateMutability": "view",
      "type": "function"
    },
    {
      "inputs": [
        {
          "internalType": "string",
          "name": "_comment",
          "type": "string"
        },
        {
          "internalType": "uint256",
          "name": "_postID",
          "type": "uint256"
        }
      ],
      "name": "addComment",
      "outputs": [],
      "stateMutability": "nonpayable",
      "type": "function"
    },
    {
      "inputs": [],
      "name": "admin",
      "outputs": [
        {
          "internalType": "address",
          "name": "",
          "type": "address"
        }
      ],
      "stateMutability": "view",
      "type": "function"
    },
    {
      "inputs": [
        {
          "internalType": "string",
          "name": "_type",
          "type": "string"
        },
        {
          "internalType": "string",
          "name": "_description",
          "type": "string"
        },
        {
          "internalType": "string",
          "name": "_postURL",
          "type": "string"
        }
      ],
      "name": "createPost",
      "outputs": [],
      "stateMutability": "nonpayable",
      "type": "function"
    },
    {
      "inputs": [
        {
          "internalType": "string",
          "name": "_name",
          "type": "string"
        }
      ],
      "name": "createProfile",
      "outputs": [],
      "stateMutability": "nonpayable",
      "type": "function"
    },
    {
      "inputs": [
        {
          "internalType": "uint256",
          "name": "id",
          "type": "uint256"
        }
      ],
      "name": "deletePost",
      "outputs": [],
      "stateMutability": "nonpayable",
      "type": "function"
    },
    {
      "inputs": [
        {
          "internalType": "uint256",
          "name": "_postID",
          "type": "uint256"
        },
        {
          "internalType": "string",
          "name": "_description",
          "type": "string"
        }
      ],
      "name": "editPost",
      "outputs": [],
      "stateMutability": "nonpayable",
      "type": "function"
    },
    {
      "inputs": [
        {
          "internalType": "address",
          "name": "_address",
          "type": "address"
        }
      ],
      "name": "follow",
      "outputs": [],
      "stateMutability": "nonpayable",
      "type": "function"
    },
    {
      "inputs": [],
      "name": "getAddresses",
      "outputs": [
        {
          "internalType": "address[]",
          "name": "",
          "type": "address[]"
        }
      ],
      "stateMutability": "view",
      "type": "function"
    },
    {
      "inputs": [],
      "name": "getAllAppUser",
      "outputs": [
        {
          "components": [
            {
              "internalType": "address",
              "name": "owner",
              "type": "address"
            },
            {
              "internalType": "string",
              "name": "name",
              "type": "string"
            },
            {
              "internalType": "uint256",
              "name": "timeCreated",
              "type": "uint256"
            },
            {
              "internalType": "uint256",
              "name": "id",
              "type": "uint256"
            },
            {
              "internalType": "uint256",
              "name": "postCount",
              "type": "uint256"
            },
            {
              "internalType": "uint256",
              "name": "followerCount",
              "type": "uint256"
            },
            {
              "internalType": "uint256",
              "name": "followingCount",
              "type": "uint256"
            }
          ],
          "internalType": "struct SocialNetwork.AllUserStruck[]",
          "name": "",
          "type": "tuple[]"
        }
      ],
      "stateMutability": "view",
      "type": "function"
    },
    {
      "inputs": [],
      "name": "getAllPosts",
      "outputs": [
        {
          "components": [
            {
              "internalType": "address",
              "name": "author",
              "type": "address"
            },
            {
              "internalType": "string",
              "name": "postType",
              "type": "string"
            },
            {
              "internalType": "string",
              "name": "postDescription",
              "type": "string"
            },
            {
              "internalType": "string",
              "name": "postURL",
              "type": "string"
            },
            {
              "internalType": "uint256",
              "name": "timeCreated",
              "type": "uint256"
            },
            {
              "internalType": "uint256",
              "name": "postID",
              "type": "uint256"
            },
            {
              "internalType": "uint256",
              "name": "likes",
              "type": "uint256"
            },
            {
              "internalType": "string[]",
              "name": "comments",
              "type": "string[]"
            }
          ],
          "internalType": "struct SocialNetwork.Post[]",
          "name": "",
          "type": "tuple[]"
        }
      ],
      "stateMutability": "view",
      "type": "function"
    },
    {
      "inputs": [
        {
          "internalType": "address",
          "name": "_address",
          "type": "address"
        }
      ],
      "name": "getFollowers",
      "outputs": [
        {
          "internalType": "address[]",
          "name": "",
          "type": "address[]"
        }
      ],
      "stateMutability": "view",
      "type": "function"
    },
    {
      "inputs": [
        {
          "internalType": "address",
          "name": "_address",
          "type": "address"
        }
      ],
      "name": "getFollowing",
      "outputs": [
        {
          "internalType": "address[]",
          "name": "",
          "type": "address[]"
        }
      ],
      "stateMutability": "view",
      "type": "function"
    },
    {
      "inputs": [
        {
          "internalType": "address",
          "name": "_address",
          "type": "address"
        }
      ],
      "name": "getPosts",
      "outputs": [
        {
          "components": [
            {
              "internalType": "address",
              "name": "author",
              "type": "address"
            },
            {
              "internalType": "string",
              "name": "postType",
              "type": "string"
            },
            {
              "internalType": "string",
              "name": "postDescription",
              "type": "string"
            },
            {
              "internalType": "string",
              "name": "postURL",
              "type": "string"
            },
            {
              "internalType": "uint256",
              "name": "timeCreated",
              "type": "uint256"
            },
            {
              "internalType": "uint256",
              "name": "postID",
              "type": "uint256"
            },
            {
              "internalType": "uint256",
              "name": "likes",
              "type": "uint256"
            },
            {
              "internalType": "string[]",
              "name": "comments",
              "type": "string[]"
            }
          ],
          "internalType": "struct SocialNetwork.Post[]",
          "name": "",
          "type": "tuple[]"
        }
      ],
      "stateMutability": "view",
      "type": "function"
    },
    {
      "inputs": [
        {
          "internalType": "uint256",
          "name": "_postID",
          "type": "uint256"
        }
      ],
      "name": "getSinglePost",
      "outputs": [
        {
          "internalType": "address",
          "name": "",
          "type": "address"
        },
        {
          "internalType": "string",
          "name": "",
          "type": "string"
        },
        {
          "internalType": "string",
          "name": "",
          "type": "string"
        },
        {
          "internalType": "string",
          "name": "",
          "type": "string"
        },
        {
          "internalType": "uint256",
          "name": "",
          "type": "uint256"
        },
        {
          "internalType": "uint256",
          "name": "",
          "type": "uint256"
        },
        {
          "internalType": "uint256",
          "name": "",
          "type": "uint256"
        },
        {
          "internalType": "string[]",
          "name": "",
          "type": "string[]"
        }
      ],
      "stateMutability": "view",
      "type": "function"
    },
    {
      "inputs": [],
      "name": "getUserCount",
      "outputs": [
        {
          "internalType": "uint256",
          "name": "",
          "type": "uint256"
        }
      ],
      "stateMutability": "view",
      "type": "function"
    },
    {
      "inputs": [
        {
          "internalType": "uint256",
          "name": "_postID",
          "type": "uint256"
        }
      ],
      "name": "likePost",
      "outputs": [],
      "stateMutability": "nonpayable",
      "type": "function"
    },
    {
      "inputs": [
        {
          "internalType": "address",
          "name": "",
          "type": "address"
        }
      ],
      "name": "profiles",
      "outputs": [
        {
          "internalType": "address",
          "name": "owner",
          "type": "address"
        },
        {
          "internalType": "string",
          "name": "name",
          "type": "string"
        },
        {
          "internalType": "uint256",
          "name": "timeCreated",
          "type": "uint256"
        },
        {
          "internalType": "uint256",
          "name": "id",
          "type": "uint256"
        },
        {
          "internalType": "uint256",
          "name": "postCount",
          "type": "uint256"
        },
        {
          "internalType": "uint256",
          "name": "followerCount",
          "type": "uint256"
        },
        {
          "internalType": "uint256",
          "name": "followingCount",
          "type": "uint256"
        }
      ],
      "stateMutability": "view",
      "type": "function"
    },
    {
      "inputs": [
        {
          "internalType": "address",
          "name": "friend_key",
          "type": "address"
        }
      ],
      "name": "readMessage",
      "outputs": [
        {
          "components": [
            {
              "internalType": "address",
              "name": "sender",
              "type": "address"
            },
            {
              "internalType": "uint256",
              "name": "timestamp",
              "type": "uint256"
            },
            {
              "internalType": "string",
              "name": "msg",
              "type": "string"
            }
          ],
          "internalType": "struct SocialNetwork.message[]",
          "name": "",
          "type": "tuple[]"
        }
      ],
      "stateMutability": "view",
      "type": "function"
    },
    {
      "inputs": [
        {
          "internalType": "address",
          "name": "friend_key",
          "type": "address"
        },
        {
          "internalType": "string",
          "name": "_msg",
          "type": "string"
        }
      ],
      "name": "sendMessage",
      "outputs": [],
      "stateMutability": "nonpayable",
      "type": "function"
    },
    {
      "inputs": [
        {
          "internalType": "address",
          "name": "_address",
          "type": "address"
        }
      ],
      "name": "unfollow",
      "outputs": [],
      "stateMutability": "nonpayable",
      "type": "function"
    },
    {
      "inputs": [
        {
          "internalType": "uint256",
          "name": "_postID",
          "type": "uint256"
        }
      ],
      "name": "unlikePost",
      "outputs": [],
      "stateMutability": "nonpayable",
      "type": "function"
    }
  ],
  "bytecode": "0x608060405234801561001057600080fd5b50613b17806100206000396000f3fe608060405234801561001057600080fd5b506004361061014d5760003560e01c8063a39fac12116100c3578063de6f24bb1161007c578063de6f24bb146102d3578063e8a4a1eb146102e6578063eea3ae91146102f9578063f851a44014610302578063fa188de91461032d578063fa99654a1461034057600080fd5b8063a39fac1214610243578063b5cb15f714610258578063b86e6f0914610260578063bbe1562714610287578063c2fe2022146102ad578063d8236dff146102c057600080fd5b80634caf9d0b116101155780634caf9d0b146101cb5780634dbf27cc146101de578063725009d3146101f15780638865fb751461020457806396a3d8d71461021b578063a24d41de1461022e57600080fd5b8063015a4ead14610152578063094cd5ee14610167578063255e9c111461017a57806330561100146101a3578063334c3f0e146101b8575b600080fd5b610165610160366004613055565b610353565b005b610165610175366004613077565b610765565b61018d610188366004613055565b6108d0565b60405161019a91906130d6565b60405180910390f35b6101ab610a03565b60405161019a91906131b3565b6101656101c63660046132df565b610ee5565b6101ab6101d9366004613055565b611389565b6101656101ec366004613055565b6116f4565b6101656101ff366004613077565b611a27565b61020d60085481565b60405190815260200161019a565b610165610229366004613321565b611bb2565b610236611d11565b60405161019a919061336d565b61024b611e4a565b60405161019a9190613413565b60015461020d565b61027361026e366004613077565b611eac565b60405161019a989796959493929190613460565b61029a610295366004613055565b612539565b60405161019a9796959493929190613527565b61024b6102bb366004613055565b612606565b61024b6102ce366004613055565b6126ba565b6101656102e1366004613575565b612733565b6101656102f43660046135c8565b61280e565b61020d60075481565b600054610315906001600160a01b031681565b6040516001600160a01b03909116815260200161019a565b61016561033b366004613077565b612af4565b61016561034e366004613662565b612c7b565b336000908152600360205260409020546001600160a01b03166103915760405162461bcd60e51b815260040161038890613695565b60405180910390fd5b6001600160a01b038082166000908152600360205260409020548291166103ca5760405162461bcd60e51b8152600401610388906136ea565b816001600160a01b03811633036103f35760405162461bcd60e51b815260040161038890613721565b3360009081526005602090815260408083206001600160a01b0387811685529252909120541661047d5760405162461bcd60e51b815260206004820152602f60248201527f4552524f523a203c596f7520616c726561647920646f206e6f7420666f6c6c6f60448201526e3b903a3434b990383937b334b6329f60891b6064820152608401610388565b6001600160a01b0383166000908152600460209081526040808320338452909152812080546001600160a01b0319168155906104bc6001830182612e97565b600282016000905560038201600090556004820160009055600582016000905560068201600090556007820160006104f49190612ed4565b610502600883016000612ed4565b50503360009081526005602090815260408083206001600160a01b0387168452909152812080546001600160a01b0319168155906105436001830182612e97565b6002820160009055600382016000905560048201600090556005820160009055600682016000905560078201600061057b9190612ed4565b610589600883016000612ed4565b505060005b6001600160a01b038416600090815260036020526040902060050154811015610682576001600160a01b03841660009081526003602052604090206007018054339190839081106105e1576105e161376b565b6000918252602090912001546001600160a01b031603610670576001600160a01b03841660009081526003602052604090206007018054829081106106285761062861376b565b6000918252602080832090910180546001600160a01b03191690556001600160a01b0386168252600390526040812060050180549161066683613797565b9190505550610682565b8061067a816137ae565b91505061058e565b5060005b3360009081526003602052604090206006015481101561075f5733600090815260036020526040902060080180546001600160a01b0386169190839081106106d0576106d061376b565b6000918252602090912001546001600160a01b03160361074d5733600090815260036020526040902060080180548290811061070e5761070e61376b565b6000918252602080832090910180546001600160a01b0319169055338252600390526040812060060180549161074383613797565b919050555061075f565b80610757816137ae565b915050610686565b50505050565b336000908152600360205260409020546001600160a01b031661079a5760405162461bcd60e51b815260040161038890613695565b3360009081526006602052604081208054839081106107bb576107bb61376b565b60009182526020909120600890910201546001600160a01b0316036108185760405162461bcd60e51b8152602060048201526013602482015272141bdcdd08191bd95cc81b9bdd08195e1a5cdd606a1b6044820152606401610388565b3360009081526006602052604090208054829081106108395761083961376b565b60009182526020822060089091020180546001600160a01b0319168155906108646001830182612e97565b610872600283016000612e97565b610880600383016000612e97565b6004820160009055600582016000905560068201600090556007820160006108a89190612ef2565b50503360009081526003602052604081206004018054916108c883613797565b919050555050565b606060006108de3384612e00565b905060096000828152602001908152602001600020805480602002602001604051908101604052809291908181526020016000905b828210156109f7576000848152602090819020604080516060810182526003860290920180546001600160a01b0316835260018101549383019390935260028301805492939291840191610966906137c7565b80601f0160208091040260200160405190810160405280929190818152602001828054610992906137c7565b80156109df5780601f106109b4576101008083540402835291602001916109df565b820191906000526020600020905b8154815290600101906020018083116109c257829003601f168201915b50505050508152505081526020019060010190610913565b50505050915050919050565b60606000805b600154811015610a6d576006600060018381548110610a2a57610a2a61376b565b60009182526020808320909101546001600160a01b03168352820192909252604001902054610a5990836137fb565b915080610a65816137ae565b915050610a09565b5060008167ffffffffffffffff811115610a8957610a8961380e565b604051908082528060200260200182016040528015610b0b57816020015b610af860405180610100016040528060006001600160a01b03168152602001606081526020016060815260200160608152602001600081526020016000815260200160008152602001606081525090565b815260200190600190039081610aa75790505b5090506000805b600154811015610edc5760005b6006600060018481548110610b3657610b3661376b565b60009182526020808320909101546001600160a01b03168352820192909252604001902054811015610ec9576006600060018481548110610b7957610b7961376b565b60009182526020808320909101546001600160a01b031683528201929092526040019020805482908110610baf57610baf61376b565b600091825260209182902060408051610100810190915260089092020180546001600160a01b031682526001810180549293919291840191610bf0906137c7565b80601f0160208091040260200160405190810160405280929190818152602001828054610c1c906137c7565b8015610c695780601f10610c3e57610100808354040283529160200191610c69565b820191906000526020600020905b815481529060010190602001808311610c4c57829003601f168201915b50505050508152602001600282018054610c82906137c7565b80601f0160208091040260200160405190810160405280929190818152602001828054610cae906137c7565b8015610cfb5780601f10610cd057610100808354040283529160200191610cfb565b820191906000526020600020905b815481529060010190602001808311610cde57829003601f168201915b50505050508152602001600382018054610d14906137c7565b80601f0160208091040260200160405190810160405280929190818152602001828054610d40906137c7565b8015610d8d5780601f10610d6257610100808354040283529160200191610d8d565b820191906000526020600020905b815481529060010190602001808311610d7057829003601f168201915b5050505050815260200160048201548152602001600582015481526020016006820154815260200160078201805480602002602001604051908101604052809291908181526020016000905b82821015610e85578382906000526020600020018054610df8906137c7565b80601f0160208091040260200160405190810160405280929190818152602001828054610e24906137c7565b8015610e715780601f10610e4657610100808354040283529160200191610e71565b820191906000526020600020905b815481529060010190602001808311610e5457829003601f168201915b505050505081526020019060010190610dd9565b5050505081525050848481518110610e9f57610e9f61376b565b6020908102919091010152610eb56001846137fb565b925080610ec1816137ae565b915050610b1f565b5080610ed4816137ae565b915050610b12565b50909392505050565b6040805160008152602081018083528151902084928492610f0a918591859101613824565b6040516020818303038152906040528051906020012003610f6d5760405162461bcd60e51b815260206004820152601e60248201527f4552524f523a203c496e7075742063616e6e6f7420626520656d7074793e00006044820152606401610388565b336000908152600360205260409020546001600160a01b031615610fe75760405162461bcd60e51b815260206004820152602b60248201527f4552524f523a203c596f75206861766520616c7265616479206372656174656460448201526a103090383937b334b6329f60a91b6064820152608401610388565b60006001600160a01b031660028585604051611004929190613824565b908152604051908190036020019020546001600160a01b03161461106a5760405162461bcd60e51b815260206004820152601760248201527f4552524f523a203c557365726e616d652074616b656e3e0000000000000000006044820152606401610388565b6008805490600061107a836137ae565b909155505060085460405133906002906110979088908890613824565b908152602001604051809103902060006101000a8154816001600160a01b0302191690836001600160a01b03160217905550604051806101200160405280336001600160a01b0316815260200186868080601f016020809104026020016040519081016040528093929190818152602001838380828437600092018290525093855250504260208401525060408201849052606082018190526080820181905260a0820181905260c09091019060405190808252806020026020018201604052801561116d578160200160208202803683370190505b508152602001600060405190808252806020026020018201604052801561119e578160200160208202803683370190505b509052336000908152600360209081526040909120825181546001600160a01b0319166001600160a01b039091161781559082015160018201906111e29082613898565b5060408201516002820155606082015160038201556080820151600482015560a0820151600582015560c0820151600682015560e08201518051611230916007840191602090910190612f10565b50610100820151805161124d916008840191602090910190612f10565b50506001805480820182556000919091527fb10e2d527612073b26eecdfd717e6a320cf44b4afac2b0732d9fcbe2b7fa0cf60180546001600160a01b031916339081179091556040805160e08101825291825280516020601f8901819004810282018101909252878152600a9350828201918990899081908401838280828437600092018290525093855250504260208085019190915260408401879052606084018390526080840183905260a09093018290525083546001808201865594825290829020835160079092020180546001600160a01b0319166001600160a01b0390921691909117815590820151919290919082019061134d9082613898565b5060408201518160020155606082015181600301556080820151816004015560a0820151816005015560c0820151816006015550505050505050565b6001600160a01b038082166000908152600360205260409020546060918391166113c55760405162461bcd60e51b8152600401610388906136ea565b6001600160a01b038316600090815260066020908152604080832080548251818502810185019093528083529193909284015b828210156109f75760008481526020908190206040805161010081019091526008850290910180546001600160a01b031682526001810180549293919291840191611442906137c7565b80601f016020809104026020016040519081016040528092919081815260200182805461146e906137c7565b80156114bb5780601f10611490576101008083540402835291602001916114bb565b820191906000526020600020905b81548152906001019060200180831161149e57829003601f168201915b505050505081526020016002820180546114d4906137c7565b80601f0160208091040260200160405190810160405280929190818152602001828054611500906137c7565b801561154d5780601f106115225761010080835404028352916020019161154d565b820191906000526020600020905b81548152906001019060200180831161153057829003601f168201915b50505050508152602001600382018054611566906137c7565b80601f0160208091040260200160405190810160405280929190818152602001828054611592906137c7565b80156115df5780601f106115b4576101008083540402835291602001916115df565b820191906000526020600020905b8154815290600101906020018083116115c257829003601f168201915b5050505050815260200160048201548152602001600582015481526020016006820154815260200160078201805480602002602001604051908101604052809291908181526020016000905b828210156116d757838290600052602060002001805461164a906137c7565b80601f0160208091040260200160405190810160405280929190818152602001828054611676906137c7565b80156116c35780601f10611698576101008083540402835291602001916116c3565b820191906000526020600020905b8154815290600101906020018083116116a657829003601f168201915b50505050508152602001906001019061162b565b5050505081525050815260200190600101906113f8565b50919050565b336000908152600360205260409020546001600160a01b03166117295760405162461bcd60e51b815260040161038890613695565b6001600160a01b038082166000908152600360205260409020548291166117625760405162461bcd60e51b8152600401610388906136ea565b816001600160a01b038116330361178b5760405162461bcd60e51b815260040161038890613721565b3360009081526005602090815260408083206001600160a01b038781168552925290912054161561180f5760405162461bcd60e51b815260206004820152602860248201527f4552524f523a203c596f7520616c726561647920666f6c6c6f77207468697320604482015267383937b334b6329f60c11b6064820152608401610388565b3360008181526003602090815260408083206001600160a01b0388811685526004845282852095855294909252909120815481546001600160a01b03191693169290921782559060018082019061186890840182613952565b50600282015481600201556003820154816003015560048201548160040155600582015481600501556006820154816006015560078201816007019080546118b1929190612f75565b50600882810180546118c69284019190612f75565b5050506001600160a01b03808416600081815260036020908152604080832033845260058352818420948452939091529020815481546001600160a01b03191693169290921782559060018082019061192190840182613952565b506002820154816002015560038201548160030155600482015481600401556005820154816005015560068201548160060155600782018160070190805461196a929190612f75565b506008828101805461197f9284019190612f75565b5050506001600160a01b038316600081815260036020908152604080832060078101805460018082018355918652848620018054336001600160a01b0319918216811790925590865292852060080180549182018155855292842090920180549091168417905591815260059091018054916119fa836137ae565b9091555050336000908152600360205260408120600601805491611a1d836137ae565b9190505550505050565b336000908152600360205260409020546001600160a01b0316611a5c5760405162461bcd60e51b815260040161038890613695565b60005b600154811015611bae5760005b6006600060018481548110611a8357611a8361376b565b60009182526020808320909101546001600160a01b03168352820192909252604001902054811015611b9b57826006600060018581548110611ac757611ac761376b565b60009182526020808320909101546001600160a01b031683528201929092526040019020805483908110611afd57611afd61376b565b90600052602060002090600802016005015403611b89576006600060018481548110611b2b57611b2b61376b565b60009182526020808320909101546001600160a01b031683528201929092526040019020805482908110611b6157611b6161376b565b600091825260208220600660089092020101805491611b7f836137ae565b9190505550611b9b565b80611b93816137ae565b915050611a6c565b5080611ba6816137ae565b915050611a5f565b5050565b60005b60015481101561075f5760005b6006600060018481548110611bd957611bd961376b565b60009182526020808320909101546001600160a01b03168352820192909252604001902054811015611cfe57826006600060018581548110611c1d57611c1d61376b565b60009182526020808320909101546001600160a01b031683528201929092526040019020805483908110611c5357611c5361376b565b90600052602060002090600802016005015403611cec576006600060018481548110611c8157611c8161376b565b60009182526020808320909101546001600160a01b031683528201929092526040019020805482908110611cb757611cb761376b565b600091825260208083206007600890930201919091018054600181018255908352912001611ce6858783613a27565b50611cfe565b80611cf6816137ae565b915050611bc2565b5080611d09816137ae565b915050611bb5565b6060600a805480602002602001604051908101604052809291908181526020016000905b82821015611e415760008481526020908190206040805160e081019091526007850290910180546001600160a01b031682526001810180549293919291840191611d7e906137c7565b80601f0160208091040260200160405190810160405280929190818152602001828054611daa906137c7565b8015611df75780601f10611dcc57610100808354040283529160200191611df7565b820191906000526020600020905b815481529060010190602001808311611dda57829003601f168201915b505050505081526020016002820154815260200160038201548152602001600482015481526020016005820154815260200160068201548152505081526020019060010190611d35565b50505050905090565b60606001805480602002602001604051908101604052809291908181526020018280548015611ea257602002820191906000526020600020905b81546001600160a01b03168152600190910190602001808311611e84575b5050505050905090565b600060608060606000806000606060005b60015481101561252c5760005b6006600060018481548110611ee157611ee161376b565b60009182526020808320909101546001600160a01b03168352820192909252604001902054811015612519578a6006600060018581548110611f2557611f2561376b565b60009182526020808320909101546001600160a01b031683528201929092526040019020805483908110611f5b57611f5b61376b565b90600052602060002090600802016005015403612507576006600060018481548110611f8957611f8961376b565b60009182526020808320909101546001600160a01b031683528201929092526040019020805482908110611fbf57611fbf61376b565b906000526020600020906008020160000160009054906101000a90046001600160a01b03166006600060018581548110611ffb57611ffb61376b565b60009182526020808320909101546001600160a01b0316835282019290925260400190208054839081106120315761203161376b565b906000526020600020906008020160010160066000600186815481106120595761205961376b565b60009182526020808320909101546001600160a01b03168352820192909252604001902080548490811061208f5761208f61376b565b906000526020600020906008020160020160066000600187815481106120b7576120b761376b565b60009182526020808320909101546001600160a01b0316835282019290925260400190208054859081106120ed576120ed61376b565b906000526020600020906008020160030160066000600188815481106121155761211561376b565b60009182526020808320909101546001600160a01b03168352820192909252604001902080548690811061214b5761214b61376b565b90600052602060002090600802016004015460066000600189815481106121745761217461376b565b60009182526020808320909101546001600160a01b0316835282019290925260400190208054879081106121aa576121aa61376b565b9060005260206000209060080201600501546006600060018a815481106121d3576121d361376b565b60009182526020808320909101546001600160a01b0316835282019290925260400190208054889081106122095761220961376b565b9060005260206000209060080201600601546006600060018b815481106122325761223261376b565b60009182526020808320909101546001600160a01b0316835282019290925260400190208054899081106122685761226861376b565b9060005260206000209060080201600701868054612285906137c7565b80601f01602080910402602001604051908101604052809291908181526020018280546122b1906137c7565b80156122fe5780601f106122d3576101008083540402835291602001916122fe565b820191906000526020600020905b8154815290600101906020018083116122e157829003601f168201915b50505050509650858054612311906137c7565b80601f016020809104026020016040519081016040528092919081815260200182805461233d906137c7565b801561238a5780601f1061235f5761010080835404028352916020019161238a565b820191906000526020600020905b81548152906001019060200180831161236d57829003601f168201915b5050505050955084805461239d906137c7565b80601f01602080910402602001604051908101604052809291908181526020018280546123c9906137c7565b80156124165780601f106123eb57610100808354040283529160200191612416565b820191906000526020600020905b8154815290600101906020018083116123f957829003601f168201915b5050505050945080805480602002602001604051908101604052809291908181526020016000905b828210156124ea57838290600052602060002001805461245d906137c7565b80601f0160208091040260200160405190810160405280929190818152602001828054612489906137c7565b80156124d65780601f106124ab576101008083540402835291602001916124d6565b820191906000526020600020905b8154815290600101906020018083116124b957829003601f168201915b50505050508152602001906001019061243e565b50505050905099509950995099509950995099509950505061252e565b80612511816137ae565b915050611eca565b5080612524816137ae565b915050611ebd565b505b919395975091939597565b600360205260009081526040902080546001820180546001600160a01b039092169291612565906137c7565b80601f0160208091040260200160405190810160405280929190818152602001828054612591906137c7565b80156125de5780601f106125b3576101008083540402835291602001916125de565b820191906000526020600020905b8154815290600101906020018083116125c157829003601f168201915b5050505050908060020154908060030154908060040154908060050154908060060154905087565b6001600160a01b038082166000908152600360205260409020546060918391166126425760405162461bcd60e51b8152600401610388906136ea565b6001600160a01b038316600090815260036020908152604091829020600701805483518184028101840190945280845290918301828280156126ad57602002820191906000526020600020905b81546001600160a01b0316815260019091019060200180831161268f575b5050505050915050919050565b6001600160a01b03811660009081526003602090815260409182902060080180548351818402810184019094528084526060939283018282801561272757602002820191906000526020600020905b81546001600160a01b03168152600190910190602001808311612709575b50505050509050919050565b600061273f3385612e00565b905060006040518060600160405280336001600160a01b0316815260200142815260200185858080601f016020809104026020016040519081016040528093929190818152602001838380828437600092018290525093909452505084815260096020908152604080832080546001808201835591855293839020865160039095020180546001600160a01b0319166001600160a01b039095169490941784559185015191830191909155830151929350839290915060028201906128049082613898565b5050505050505050565b336000908152600360205260409020546001600160a01b03166128435760405162461bcd60e51b815260040161038890613695565b6040805160008152602081018083528151902088928892612868918591859101613824565b60405160208183030381529060405280519060200120036128cb5760405162461bcd60e51b815260206004820152601e60248201527f4552524f523a203c496e7075742063616e6e6f7420626520656d7074793e00006044820152606401610388565b600780549060006128db836137ae565b9091555050600754604080516101008101825233815281516020601f8c018190048102820181019093528a815260009280830191908d908d9081908401838280828437600092019190915250505090825250604080516020601f8c018190048102820181019092528a815291810191908b908b9081908401838280828437600092019190915250505090825250604080516020601f8a0181900481028201810190925288815291810191908990899081908401838280828437600092018290525093855250504260208401525060408201859052606082018190526080909101906040519080825280602002602001820160405280156129ef57816020015b60608152602001906001900390816129da5790505b50905280516001600160a01b039081166000908152600660209081526040822080546001808201835591845292829020855160089094020180546001600160a01b03191693909416929092178355830151929350839290820190612a539082613898565b5060408201516002820190612a689082613898565b5060608201516003820190612a7d9082613898565b506080820151600482015560a0820151600582015560c0820151600682015560e08201518051612ab7916007840191602090910190612fb5565b505081516001600160a01b031660009081526003602052604081206004018054925090612ae3836137ae565b919050555050505050505050505050565b336000908152600360205260409020546001600160a01b0316612b295760405162461bcd60e51b815260040161038890613695565b60005b600154811015611bae5760005b6006600060018481548110612b5057612b5061376b565b60009182526020808320909101546001600160a01b03168352820192909252604001902054811015612c6857826006600060018581548110612b9457612b9461376b565b60009182526020808320909101546001600160a01b031683528201929092526040019020805483908110612bca57612bca61376b565b90600052602060002090600802016005015403612c56576006600060018481548110612bf857612bf861376b565b60009182526020808320909101546001600160a01b031683528201929092526040019020805482908110612c2e57612c2e61376b565b600091825260208220600660089092020101805491612c4c83613797565b9190505550612c68565b80612c60816137ae565b915050612b39565b5080612c73816137ae565b915050612b2c565b336000908152600360205260409020546001600160a01b0316612cb05760405162461bcd60e51b815260040161038890613695565b60005b60015481101561075f5760005b6006600060018481548110612cd757612cd761376b565b60009182526020808320909101546001600160a01b03168352820192909252604001902054811015612ded57846006600060018581548110612d1b57612d1b61376b565b60009182526020808320909101546001600160a01b031683528201929092526040019020805483908110612d5157612d5161376b565b90600052602060002090600802016005015403612ddb5783836006600060018681548110612d8157612d8161376b565b60009182526020808320909101546001600160a01b031683528201929092526040019020805484908110612db757612db761376b565b90600052602060002090600802016002019182612dd5929190613a27565b50612ded565b80612de5816137ae565b915050612cc0565b5080612df8816137ae565b915050612cb3565b6000816001600160a01b0316836001600160a01b03161015612e63576040516bffffffffffffffffffffffff19606085811b8216602084015284901b1660348201526048015b604051602081830303815290604052805190602001209050612e91565b6040516bffffffffffffffffffffffff19606084811b8216602084015285901b166034820152604801612e46565b92915050565b508054612ea3906137c7565b6000825580601f10612eb3575050565b601f016020900490600052602060002090810190612ed19190613007565b50565b5080546000825590600052602060002090810190612ed19190613007565b5080546000825590600052602060002090810190612ed1919061301c565b828054828255906000526020600020908101928215612f65579160200282015b82811115612f6557825182546001600160a01b0319166001600160a01b03909116178255602090920191600190910190612f30565b50612f71929150613007565b5090565b828054828255906000526020600020908101928215612f655760005260206000209182015b82811115612f65578254825591600101919060010190612f9a565b828054828255906000526020600020908101928215612ffb579160200282015b82811115612ffb5782518290612feb9082613898565b5091602001919060010190612fd5565b50612f7192915061301c565b5b80821115612f715760008155600101613008565b80821115612f715760006130308282612e97565b5060010161301c565b80356001600160a01b038116811461305057600080fd5b919050565b60006020828403121561306757600080fd5b61307082613039565b9392505050565b60006020828403121561308957600080fd5b5035919050565b6000815180845260005b818110156130b65760208185018101518683018201520161309a565b506000602082860101526020601f19601f83011685010191505092915050565b60006020808301818452808551808352604092508286019150828160051b87010184880160005b8381101561315057888303603f19018552815180516001600160a01b031684528781015188850152860151606087850181905261313c81860183613090565b9689019694505050908601906001016130fd565b509098975050505050505050565b600081518084526020808501808196508360051b8101915082860160005b858110156131a6578284038952613194848351613090565b9885019893509084019060010161317c565b5091979650505050505050565b60006020808301818452808551808352604092508286019150828160051b87010184880160005b8381101561315057888303603f19018552815180516001600160a01b0316845261010088820151818a87015261321282870182613090565b915050878201518582038987015261322a8282613090565b915050606080830151868303828801526132448382613090565b6080858101519089015260a0808601519089015260c0808601519089015260e09485015188820395890195909552925061328291508290508361315e565b9689019694505050908601906001016131da565b60008083601f8401126132a857600080fd5b50813567ffffffffffffffff8111156132c057600080fd5b6020830191508360208285010111156132d857600080fd5b9250929050565b600080602083850312156132f257600080fd5b823567ffffffffffffffff81111561330957600080fd5b61331585828601613296565b90969095509350505050565b60008060006040848603121561333657600080fd5b833567ffffffffffffffff81111561334d57600080fd5b61335986828701613296565b909790965060209590950135949350505050565b60006020808301818452808551808352604092508286019150828160051b87010184880160005b8381101561315057888303603f19018552815180516001600160a01b031684528781015160e0898601819052906133cd82870182613090565b838a0151878b0152606080850151908801526080808501519088015260a0808501519088015260c093840151939096019290925250509386019390860190600101613394565b6020808252825182820181905260009190848201906040850190845b818110156134545783516001600160a01b03168352928401929184019160010161342f565b50909695505050505050565b6001600160a01b03891681526101006020808301829052600091906134878483018c613090565b9150838203604085015261349b828b613090565b915083820360608501526134af828a613090565b91508760808501528660a08501528560c085015283820360e08501528185518084528284019150828160051b85010183880160005b8381101561351257601f19878403018552613500838351613090565b948601949250908501906001016134e4565b50909f9e505050505050505050505050505050565b6001600160a01b038816815260e06020820181905260009061354b90830189613090565b6040830197909752506060810194909452608084019290925260a083015260c09091015292915050565b60008060006040848603121561358a57600080fd5b61359384613039565b9250602084013567ffffffffffffffff8111156135af57600080fd5b6135bb86828701613296565b9497909650939450505050565b600080600080600080606087890312156135e157600080fd5b863567ffffffffffffffff808211156135f957600080fd5b6136058a838b01613296565b9098509650602089013591508082111561361e57600080fd5b61362a8a838b01613296565b9096509450604089013591508082111561364357600080fd5b5061365089828a01613296565b979a9699509497509295939492505050565b60008060006040848603121561367757600080fd5b83359250602084013567ffffffffffffffff8111156135af57600080fd5b60208082526035908201527f4552524f523a203c4d7573742063726561746520612070726f66696c6520746f604082015274103832b93337b936903a3434b99030b1ba34b7b71f60591b606082015260800190565b6020808252601f908201527f4552524f523a203c50726f66696c6520646f6573206e6f742065786973743e00604082015260600190565b6020808252602a908201527f4552524f52203c596f752063616e6e6f7420666f6c6c6f772f756e666f6c6c6f6040820152693b903cb7bab939b2b63360b11b606082015260800190565b634e487b7160e01b600052603260045260246000fd5b634e487b7160e01b600052601160045260246000fd5b6000816137a6576137a6613781565b506000190190565b6000600182016137c0576137c0613781565b5060010190565b600181811c908216806137db57607f821691505b6020821081036116ee57634e487b7160e01b600052602260045260246000fd5b80820180821115612e9157612e91613781565b634e487b7160e01b600052604160045260246000fd5b8183823760009101908152919050565b601f82111561387e57600081815260208120601f850160051c8101602086101561385b5750805b601f850160051c820191505b8181101561387a57828155600101613867565b5050505b505050565b600019600383901b1c191660019190911b1790565b815167ffffffffffffffff8111156138b2576138b261380e565b6138c6816138c084546137c7565b84613834565b602080601f8311600181146138f557600084156138e35750858301515b6138ed8582613883565b86555061387a565b600085815260208120601f198616915b8281101561392457888601518255948401946001909101908401613905565b50858210156139425787850151600019600388901b60f8161c191681555b5050505050600190811b01905550565b81810361395d575050565b61396782546137c7565b67ffffffffffffffff81111561397f5761397f61380e565b61398d816138c084546137c7565b6000601f8211600181146139bb57600083156139a95750848201545b6139b38482613883565b855550613a20565b600085815260209020601f19841690600086815260209020845b838110156139f557828601548255600195860195909101906020016139d5565b5085831015613a135781850154600019600388901b60f8161c191681555b50505060018360011b0184555b5050505050565b67ffffffffffffffff831115613a3f57613a3f61380e565b613a5383613a4d83546137c7565b83613834565b6000601f841160018114613a815760008515613a6f5750838201355b613a798682613883565b845550613a20565b600083815260209020601f19861690835b82811015613ab25786850135825560209485019460019092019101613a92565b5086821015613acf5760001960f88860031b161c19848701351681555b505060018560011b018355505050505056fea2646970667358221220162c5426cda366063caa485d885ff30c39071252f4de903e5bc5a40cbd5e364564736f6c63430008140033",
  "linkReferences": {},
  "deployedLinkReferences": {}
}