{
  "_format": "hh-sol-artifact-1",
  "contractName": "SocialNetwork",
  "sourceName": "contracts/SocialNetwork.sol",
  "abi": [
    {
      "inputs": [],
      "stateMutability": "nonpayable",
      "type": "constructor"
    },
    {
      "inputs": [
        {
          "internalType": "address",
          "name": "owner",
          "type": "address"
        }
      ],
      "name": "OwnableInvalidOwner",
      "type": "error"
    },
    {
      "inputs": [
        {
          "internalType": "address",
          "name": "account",
          "type": "address"
        }
      ],
      "name": "OwnableUnauthorizedAccount",
      "type": "error"
    },
    {
      "anonymous": false,
      "inputs": [
        {
          "indexed": true,
          "internalType": "address",
          "name": "owner",
          "type": "address"
        },
        {
          "indexed": false,
          "internalType": "uint256",
          "name": "amount",
          "type": "uint256"
        },
        {
          "indexed": false,
          "internalType": "uint256",
          "name": "timestamp",
          "type": "uint256"
        }
      ],
      "name": "EtherWithdrawn",
      "type": "event"
    },
    {
      "anonymous": false,
      "inputs": [
        {
          "indexed": true,
          "internalType": "address",
          "name": "previousOwner",
          "type": "address"
        },
        {
          "indexed": true,
          "internalType": "address",
          "name": "newOwner",
          "type": "address"
        }
      ],
      "name": "OwnershipTransferred",
      "type": "event"
    },
    {
      "anonymous": false,
      "inputs": [
        {
          "indexed": true,
          "internalType": "address",
          "name": "updater",
          "type": "address"
        },
        {
          "indexed": false,
          "internalType": "string",
          "name": "newMessage",
          "type": "string"
        },
        {
          "indexed": false,
          "internalType": "bool",
          "name": "premiumUser",
          "type": "bool"
        },
        {
          "indexed": false,
          "internalType": "uint256",
          "name": "value",
          "type": "uint256"
        },
        {
          "indexed": false,
          "internalType": "uint256",
          "name": "timestamp",
          "type": "uint256"
        }
      ],
      "name": "PlatformMessageUpdated",
      "type": "event"
    },
    {
      "anonymous": false,
      "inputs": [
        {
          "indexed": true,
          "internalType": "address",
          "name": "userAddress",
          "type": "address"
        },
        {
          "indexed": false,
          "internalType": "string",
          "name": "content",
          "type": "string"
        },
        {
          "indexed": false,
          "internalType": "uint256",
          "name": "timestamp",
          "type": "uint256"
        }
      ],
      "name": "UserPostCreated",
      "type": "event"
    },
    {
      "anonymous": false,
      "inputs": [
        {
          "indexed": true,
          "internalType": "address",
          "name": "userAddress",
          "type": "address"
        },
        {
          "indexed": false,
          "internalType": "string",
          "name": "username",
          "type": "string"
        },
        {
          "indexed": false,
          "internalType": "string",
          "name": "bio",
          "type": "string"
        },
        {
          "indexed": false,
          "internalType": "uint256",
          "name": "timestamp",
          "type": "uint256"
        }
      ],
      "name": "UserProfileCreated",
      "type": "event"
    },
    {
      "inputs": [
        {
          "internalType": "string",
          "name": "_content",
          "type": "string"
        }
      ],
      "name": "createUserPost",
      "outputs": [],
      "stateMutability": "nonpayable",
      "type": "function"
    },
    {
      "inputs": [
        {
          "internalType": "string",
          "name": "_username",
          "type": "string"
        },
        {
          "internalType": "string",
          "name": "_bio",
          "type": "string"
        }
      ],
      "name": "createUserProfile",
      "outputs": [],
      "stateMutability": "nonpayable",
      "type": "function"
    },
    {
      "inputs": [
        {
          "internalType": "address",
          "name": "_userAddress",
          "type": "address"
        }
      ],
      "name": "getUserPosts",
      "outputs": [
        {
          "components": [
            {
              "internalType": "address",
              "name": "userAddress",
              "type": "address"
            },
            {
              "internalType": "string",
              "name": "content",
              "type": "string"
            },
            {
              "internalType": "uint256",
              "name": "timestamp",
              "type": "uint256"
            }
          ],
          "internalType": "struct SocialNetwork.UserPost[]",
          "name": "",
          "type": "tuple[]"
        }
      ],
      "stateMutability": "view",
      "type": "function"
    },
    {
      "inputs": [
        {
          "internalType": "address",
          "name": "_userAddress",
          "type": "address"
        }
      ],
      "name": "getUserProfile",
      "outputs": [
        {
          "components": [
            {
              "internalType": "address",
              "name": "userAddress",
              "type": "address"
            },
            {
              "internalType": "string",
              "name": "username",
              "type": "string"
            },
            {
              "internalType": "string",
              "name": "bio",
              "type": "string"
            },
            {
              "internalType": "uint256",
              "name": "createdAt",
              "type": "uint256"
            }
          ],
          "internalType": "struct SocialNetwork.UserProfile",
          "name": "",
          "type": "tuple"
        }
      ],
      "stateMutability": "view",
      "type": "function"
    },
    {
      "inputs": [],
      "name": "interactionCounter",
      "outputs": [
        {
          "internalType": "uint256",
          "name": "",
          "type": "uint256"
        }
      ],
      "stateMutability": "view",
      "type": "function"
    },
    {
      "inputs": [],
      "name": "owner",
      "outputs": [
        {
          "internalType": "address",
          "name": "",
          "type": "address"
        }
      ],
      "stateMutability": "view",
      "type": "function"
    },
    {
      "inputs": [],
      "name": "platformMessage",
      "outputs": [
        {
          "internalType": "string",
          "name": "",
          "type": "string"
        }
      ],
      "stateMutability": "view",
      "type": "function"
    },
    {
      "inputs": [],
      "name": "premiumUser",
      "outputs": [
        {
          "internalType": "bool",
          "name": "",
          "type": "bool"
        }
      ],
      "stateMutability": "view",
      "type": "function"
    },
    {
      "inputs": [],
      "name": "renounceOwnership",
      "outputs": [],
      "stateMutability": "nonpayable",
      "type": "function"
    },
    {
      "inputs": [
        {
          "internalType": "address",
          "name": "newOwner",
          "type": "address"
        }
      ],
      "name": "transferOwnership",
      "outputs": [],
      "stateMutability": "nonpayable",
      "type": "function"
    },
    {
      "inputs": [
        {
          "internalType": "string",
          "name": "_newMessage",
          "type": "string"
        }
      ],
      "name": "updatePlatformMessage",
      "outputs": [],
      "stateMutability": "payable",
      "type": "function"
    },
    {
      "inputs": [
        {
          "internalType": "address",
          "name": "",
          "type": "address"
        }
      ],
      "name": "userInteractionCounter",
      "outputs": [
        {
          "internalType": "uint256",
          "name": "",
          "type": "uint256"
        }
      ],
      "stateMutability": "view",
      "type": "function"
    },
    {
      "inputs": [
        {
          "internalType": "uint256",
          "name": "",
          "type": "uint256"
        }
      ],
      "name": "userPosts",
      "outputs": [
        {
          "internalType": "address",
          "name": "userAddress",
          "type": "address"
        },
        {
          "internalType": "string",
          "name": "content",
          "type": "string"
        },
        {
          "internalType": "uint256",
          "name": "timestamp",
          "type": "uint256"
        }
      ],
      "stateMutability": "view",
      "type": "function"
    },
    {
      "inputs": [
        {
          "internalType": "uint256",
          "name": "",
          "type": "uint256"
        }
      ],
      "name": "userProfiles",
      "outputs": [
        {
          "internalType": "address",
          "name": "userAddress",
          "type": "address"
        },
        {
          "internalType": "string",
          "name": "username",
          "type": "string"
        },
        {
          "internalType": "string",
          "name": "bio",
          "type": "string"
        },
        {
          "internalType": "uint256",
          "name": "createdAt",
          "type": "uint256"
        }
      ],
      "stateMutability": "view",
      "type": "function"
    },
    {
      "inputs": [],
      "name": "withdrawEther",
      "outputs": [],
      "stateMutability": "nonpayable",
      "type": "function"
    },
    {
      "stateMutability": "payable",
      "type": "receive"
    }
  ],
  "bytecode": "0x60e0604052602c608081815290620017e960a039600190620000229082620001ef565b506002805460ff1916905560006003553480156200003f57600080fd5b5033806200006857604051631e4fbdf760e01b8152600060048201526024015b60405180910390fd5b620000738162000085565b506200007f33620000d5565b620002bb565b600080546001600160a01b038381166001600160a01b0319831681178455604051919092169283917f8be0079c531659141344cd1fd0a4f28419497f9722a3daafe3b4186f6b6457e09190a35050565b620000df62000119565b6001600160a01b0381166200010b57604051631e4fbdf760e01b8152600060048201526024016200005f565b620001168162000085565b50565b6000546001600160a01b03163314620001485760405163118cdaa760e01b81523360048201526024016200005f565b565b634e487b7160e01b600052604160045260246000fd5b600181811c908216806200017557607f821691505b6020821081036200019657634e487b7160e01b600052602260045260246000fd5b50919050565b601f821115620001ea57600081815260208120601f850160051c81016020861015620001c55750805b601f850160051c820191505b81811015620001e657828155600101620001d1565b5050505b505050565b81516001600160401b038111156200020b576200020b6200014a565b62000223816200021c845462000160565b846200019c565b602080601f8311600181146200025b5760008415620002425750858301515b600019600386901b1c1916600185901b178555620001e6565b600085815260208120601f198616915b828110156200028c578886015182559484019460019091019084016200026b565b5085821015620002ab5787850151600019600388901b60f8161c191681555b5050505050600190811b01905550565b61151e80620002cb6000396000f3fe6080604052600436106100ec5760003560e01c80638da5cb5b1161008a578063b439a03711610059578063b439a03714610282578063dcc2179b146102af578063f2fde38b146102cf578063fdd6ea71146102ef57600080fd5b80638da5cb5b146101d65780638e529855146101fe578063987ee156146102285780639a2194a91461025557600080fd5b80635cf10d88116100c65780635cf10d8814610168578063715018a6146101885780637362377b1461019d5780637dde8dae146101b257600080fd5b806318d4a12d146100f857806344c7c85e14610131578063570fa5061461015357600080fd5b366100f357005b600080fd5b34801561010457600080fd5b50610118610113366004610f6a565b61031e565b6040516101289493929190610fc9565b60405180910390f35b34801561013d57600080fd5b50610146610474565b6040516101289190611011565b6101666101613660046110ce565b610502565b005b34801561017457600080fd5b506101666101833660046110ce565b6105a4565b34801561019457600080fd5b506101666106ee565b3480156101a957600080fd5b50610166610702565b3480156101be57600080fd5b506101c860035481565b604051908152602001610128565b3480156101e257600080fd5b506000546040516001600160a01b039091168152602001610128565b34801561020a57600080fd5b506002546102189060ff1681565b6040519015158152602001610128565b34801561023457600080fd5b5061024861024336600461110b565b6107fa565b6040516101289190611134565b34801561026157600080fd5b5061027561027036600461110b565b610a44565b6040516101289190611196565b34801561028e57600080fd5b506101c861029d36600461110b565b60046020526000908152604090205481565b3480156102bb57600080fd5b506101666102ca366004611222565b610c36565b3480156102db57600080fd5b506101666102ea36600461110b565b610de7565b3480156102fb57600080fd5b5061030f61030a366004610f6a565b610e25565b60405161012893929190611286565b6005818154811061032e57600080fd5b6000918252602090912060049091020180546001820180546001600160a01b0390921693509061035d906112ba565b80601f0160208091040260200160405190810160405280929190818152602001828054610389906112ba565b80156103d65780601f106103ab576101008083540402835291602001916103d6565b820191906000526020600020905b8154815290600101906020018083116103b957829003601f168201915b5050505050908060020180546103eb906112ba565b80601f0160208091040260200160405190810160405280929190818152602001828054610417906112ba565b80156104645780601f1061043957610100808354040283529160200191610464565b820191906000526020600020905b81548152906001019060200180831161044757829003601f168201915b5050505050908060030154905084565b60018054610481906112ba565b80601f01602080910402602001604051908101604052809291908181526020018280546104ad906112ba565b80156104fa5780601f106104cf576101008083540402835291602001916104fa565b820191906000526020600020905b8154815290600101906020018083116104dd57829003601f168201915b505050505081565b600161050e8282611343565b506001600360008282546105229190611419565b9091555050336000908152600460205260408120805460019290610547908490611419565b90915550506002805460ff19163480151591821790925560405133927f9162d6b6c588b8575b805c5b6a18dbd33f5bca63d5fdd64616be57c1320518a59261059992869260ff90921691904290611432565b60405180910390a250565b60008151116105fa5760405162461bcd60e51b815260206004820152601760248201527f436f6e74656e742063616e6e6f7420626520656d70747900000000000000000060448201526064015b60405180910390fd5b604080516060810182523381526020810183815242928201929092526006805460018101825560009190915281517ff652222313e28459528d920b65115c16c04f3efc82aaedc97be59f3f377c0d3f600390920291820180546001600160a01b0319166001600160a01b0390921691909117815592519192839290917ff652222313e28459528d920b65115c16c04f3efc82aaedc97be59f3f377c0d4001906106a39082611343565b506040918201516002909101555133907f0582b2cc9f79067ae3ab4542438bffd12793c90bdf82c749da53095ceee81e8b906106e29085904290611461565b60405180910390a25050565b6106f6610eed565b6107006000610f1a565b565b61070a610eed565b47600061071f6000546001600160a01b031690565b6001600160a01b03168260405160006040518083038185875af1925050503d8060008114610769576040519150601f19603f3d011682016040523d82523d6000602084013e61076e565b606091505b50509050806107b65760405162461bcd60e51b81526020600482015260146024820152732330b4b632b2103a379039b2b7321022ba3432b960611b60448201526064016105f1565b600054604080518481524260208201526001600160a01b03909216917fd5ca65e1ec4f4864fea7b9c5cb1ec3087a0dbf9c74641db3f6458edf445c405191016106e2565b61082e604051806080016040528060006001600160a01b031681526020016060815260200160608152602001600081525090565b60005b600554811015610a0257826001600160a01b03166005828154811061085857610858611483565b60009182526020909120600490910201546001600160a01b0316036109f0576005818154811061088a5761088a611483565b6000918252602091829020604080516080810190915260049092020180546001600160a01b0316825260018101805492939192918401916108ca906112ba565b80601f01602080910402602001604051908101604052809291908181526020018280546108f6906112ba565b80156109435780601f1061091857610100808354040283529160200191610943565b820191906000526020600020905b81548152906001019060200180831161092657829003601f168201915b5050505050815260200160028201805461095c906112ba565b80601f0160208091040260200160405190810160405280929190818152602001828054610988906112ba565b80156109d55780601f106109aa576101008083540402835291602001916109d5565b820191906000526020600020905b8154815290600101906020018083116109b857829003601f168201915b50505050508152602001600382015481525050915050919050565b806109fa81611499565b915050610831565b5060405162461bcd60e51b8152602060048201526016602482015275155cd95c881c1c9bd99a5b19481b9bdd08199bdd5b9960521b60448201526064016105f1565b60065460609060009067ffffffffffffffff811115610a6557610a6561102b565b604051908082528060200260200182016040528015610ac357816020015b610ab0604051806060016040528060006001600160a01b0316815260200160608152602001600081525090565b815260200190600190039081610a835790505b5090506000805b600654811015610c2d57846001600160a01b031660068281548110610af157610af1611483565b60009182526020909120600390910201546001600160a01b031603610c1b5760068181548110610b2357610b23611483565b6000918252602091829020604080516060810190915260039092020180546001600160a01b031682526001810180549293919291840191610b63906112ba565b80601f0160208091040260200160405190810160405280929190818152602001828054610b8f906112ba565b8015610bdc5780601f10610bb157610100808354040283529160200191610bdc565b820191906000526020600020905b815481529060010190602001808311610bbf57829003601f168201915b50505050508152602001600282015481525050838381518110610c0157610c01611483565b60200260200101819052508180610c1790611499565b9250505b80610c2581611499565b915050610aca565b50909392505050565b6000825111610c875760405162461bcd60e51b815260206004820152601860248201527f557365726e616d652063616e6e6f7420626520656d707479000000000000000060448201526064016105f1565b6000815111610cce5760405162461bcd60e51b815260206004820152601360248201527242696f2063616e6e6f7420626520656d70747960681b60448201526064016105f1565b60408051608081018252338152602081018481529181018390524260608201526005805460018101825560009190915281517f036b6384b5eca791c62761152d0c79bb0604c104a5fb6f4eb0703f3154bb3db0600490920291820180546001600160a01b0319166001600160a01b0390921691909117815592519192839290917f036b6384b5eca791c62761152d0c79bb0604c104a5fb6f4eb0703f3154bb3db10190610d7b9082611343565b5060408201516002820190610d909082611343565b50606082015181600301555050336001600160a01b03167fedd2b109112c6076587898e8db8e57a2e0f710071c6244a847d093b235cc0ff7848442604051610dda939291906114b2565b60405180910390a2505050565b610def610eed565b6001600160a01b038116610e1957604051631e4fbdf760e01b8152600060048201526024016105f1565b610e2281610f1a565b50565b60068181548110610e3557600080fd5b6000918252602090912060039091020180546001820180546001600160a01b03909216935090610e64906112ba565b80601f0160208091040260200160405190810160405280929190818152602001828054610e90906112ba565b8015610edd5780601f10610eb257610100808354040283529160200191610edd565b820191906000526020600020905b815481529060010190602001808311610ec057829003601f168201915b5050505050908060020154905083565b6000546001600160a01b031633146107005760405163118cdaa760e01b81523360048201526024016105f1565b600080546001600160a01b038381166001600160a01b0319831681178455604051919092169283917f8be0079c531659141344cd1fd0a4f28419497f9722a3daafe3b4186f6b6457e09190a35050565b600060208284031215610f7c57600080fd5b5035919050565b6000815180845260005b81811015610fa957602081850181015186830182015201610f8d565b506000602082860101526020601f19601f83011685010191505092915050565b6001600160a01b0385168152608060208201819052600090610fed90830186610f83565b8281036040840152610fff8186610f83565b91505082606083015295945050505050565b6020815260006110246020830184610f83565b9392505050565b634e487b7160e01b600052604160045260246000fd5b600082601f83011261105257600080fd5b813567ffffffffffffffff8082111561106d5761106d61102b565b604051601f8301601f19908116603f011681019082821181831017156110955761109561102b565b816040528381528660208588010111156110ae57600080fd5b836020870160208301376000602085830101528094505050505092915050565b6000602082840312156110e057600080fd5b813567ffffffffffffffff8111156110f757600080fd5b61110384828501611041565b949350505050565b60006020828403121561111d57600080fd5b81356001600160a01b038116811461102457600080fd5b602080825282516001600160a01b0316828201528201516080604083015260009061116260a0840182610f83565b90506040840151601f1984830301606085015261117f8282610f83565b915050606084015160808401528091505092915050565b60006020808301818452808551808352604092508286019150828160051b87010184880160005b8381101561121457888303603f19018552815180516001600160a01b03168452878101516060898601819052906111f682870182610f83565b928901519589019590955250948701949250908601906001016111bd565b509098975050505050505050565b6000806040838503121561123557600080fd5b823567ffffffffffffffff8082111561124d57600080fd5b61125986838701611041565b9350602085013591508082111561126f57600080fd5b5061127c85828601611041565b9150509250929050565b6001600160a01b03841681526060602082018190526000906112aa90830185610f83565b9050826040830152949350505050565b600181811c908216806112ce57607f821691505b6020821081036112ee57634e487b7160e01b600052602260045260246000fd5b50919050565b601f82111561133e57600081815260208120601f850160051c8101602086101561131b5750805b601f850160051c820191505b8181101561133a57828155600101611327565b5050505b505050565b815167ffffffffffffffff81111561135d5761135d61102b565b6113718161136b84546112ba565b846112f4565b602080601f8311600181146113a6576000841561138e5750858301515b600019600386901b1c1916600185901b17855561133a565b600085815260208120601f198616915b828110156113d5578886015182559484019460019091019084016113b6565b50858210156113f35787850151600019600388901b60f8161c191681555b5050505050600190811b01905550565b634e487b7160e01b600052601160045260246000fd5b8082018082111561142c5761142c611403565b92915050565b6080815260006114456080830187610f83565b9415156020830152506040810192909252606090910152919050565b6040815260006114746040830185610f83565b90508260208301529392505050565b634e487b7160e01b600052603260045260246000fd5b6000600182016114ab576114ab611403565b5060010190565b6060815260006114c56060830186610f83565b82810360208401526114d78186610f83565b91505082604083015294935050505056fea264697066735822122074d8c4e8c8b9fcccc7fa29fc14707ddeb0bf2cc7c4c82ee37c723433cfcdf7bb64736f6c6343000814003357656c636f6d6520746f2074686520446563656e7472616c697a656420536f6369616c204e6574776f726b21",
  "linkReferences": {},
  "deployedLinkReferences": {}
}