{
  "_format": "hh-sol-artifact-1",
  "contractName": "SocialNetwork",
  "sourceName": "contracts/SocialNetwork.sol",
  "abi": [
    {
      "inputs": [],
      "stateMutability": "nonpayable",
      "type": "constructor"
    },
    {
      "inputs": [
        {
          "internalType": "address",
          "name": "owner",
          "type": "address"
        }
      ],
      "name": "OwnableInvalidOwner",
      "type": "error"
    },
    {
      "inputs": [
        {
          "internalType": "address",
          "name": "account",
          "type": "address"
        }
      ],
      "name": "OwnableUnauthorizedAccount",
      "type": "error"
    },
    {
      "anonymous": false,
      "inputs": [
        {
          "indexed": true,
          "internalType": "address",
          "name": "owner",
          "type": "address"
        },
        {
          "indexed": false,
          "internalType": "uint256",
          "name": "amount",
          "type": "uint256"
        },
        {
          "indexed": false,
          "internalType": "uint256",
          "name": "timestamp",
          "type": "uint256"
        }
      ],
      "name": "EtherWithdrawn",
      "type": "event"
    },
    {
      "anonymous": false,
      "inputs": [
        {
          "indexed": true,
          "internalType": "address",
          "name": "previousOwner",
          "type": "address"
        },
        {
          "indexed": true,
          "internalType": "address",
          "name": "newOwner",
          "type": "address"
        }
      ],
      "name": "OwnershipTransferred",
      "type": "event"
    },
    {
      "anonymous": false,
      "inputs": [
        {
          "indexed": true,
          "internalType": "address",
          "name": "updater",
          "type": "address"
        },
        {
          "indexed": false,
          "internalType": "string",
          "name": "newMessage",
          "type": "string"
        },
        {
          "indexed": false,
          "internalType": "bool",
          "name": "premiumUser",
          "type": "bool"
        },
        {
          "indexed": false,
          "internalType": "uint256",
          "name": "value",
          "type": "uint256"
        },
        {
          "indexed": false,
          "internalType": "uint256",
          "name": "timestamp",
          "type": "uint256"
        }
      ],
      "name": "PlatformMessageUpdated",
      "type": "event"
    },
    {
      "anonymous": false,
      "inputs": [
        {
          "indexed": true,
          "internalType": "address",
          "name": "userAddress",
          "type": "address"
        },
        {
          "indexed": false,
          "internalType": "string",
          "name": "content",
          "type": "string"
        },
        {
          "indexed": false,
          "internalType": "uint256",
          "name": "timestamp",
          "type": "uint256"
        }
      ],
      "name": "UserPostCreated",
      "type": "event"
    },
    {
      "anonymous": false,
      "inputs": [
        {
          "indexed": true,
          "internalType": "address",
          "name": "userAddress",
          "type": "address"
        },
        {
          "indexed": false,
          "internalType": "string",
          "name": "username",
          "type": "string"
        },
        {
          "indexed": false,
          "internalType": "string",
          "name": "bio",
          "type": "string"
        },
        {
          "indexed": false,
          "internalType": "uint256",
          "name": "timestamp",
          "type": "uint256"
        }
      ],
      "name": "UserProfileCreated",
      "type": "event"
    },
    {
      "inputs": [
        {
          "internalType": "string",
          "name": "_content",
          "type": "string"
        }
      ],
      "name": "createUserPost",
      "outputs": [],
      "stateMutability": "nonpayable",
      "type": "function"
    },
    {
      "inputs": [
        {
          "internalType": "string",
          "name": "_username",
          "type": "string"
        },
        {
          "internalType": "string",
          "name": "_bio",
          "type": "string"
        }
      ],
      "name": "createUserProfile",
      "outputs": [],
      "stateMutability": "nonpayable",
      "type": "function"
    },
    {
      "inputs": [
        {
          "internalType": "address",
          "name": "_userAddress",
          "type": "address"
        }
      ],
      "name": "getUserPosts",
      "outputs": [
        {
          "components": [
            {
              "internalType": "address",
              "name": "userAddress",
              "type": "address"
            },
            {
              "internalType": "string",
              "name": "content",
              "type": "string"
            },
            {
              "internalType": "uint256",
              "name": "timestamp",
              "type": "uint256"
            }
          ],
          "internalType": "struct SocialNetwork.UserPost[]",
          "name": "",
          "type": "tuple[]"
        }
      ],
      "stateMutability": "view",
      "type": "function"
    },
    {
      "inputs": [
        {
          "internalType": "address",
          "name": "_userAddress",
          "type": "address"
        }
      ],
      "name": "getUserProfile",
      "outputs": [
        {
          "components": [
            {
              "internalType": "address",
              "name": "userAddress",
              "type": "address"
            },
            {
              "internalType": "string",
              "name": "username",
              "type": "string"
            },
            {
              "internalType": "string",
              "name": "bio",
              "type": "string"
            },
            {
              "internalType": "uint256",
              "name": "createdAt",
              "type": "uint256"
            }
          ],
          "internalType": "struct SocialNetwork.UserProfile",
          "name": "",
          "type": "tuple"
        }
      ],
      "stateMutability": "view",
      "type": "function"
    },
    {
      "inputs": [],
      "name": "interactionCounter",
      "outputs": [
        {
          "internalType": "uint256",
          "name": "",
          "type": "uint256"
        }
      ],
      "stateMutability": "view",
      "type": "function"
    },
    {
      "inputs": [],
      "name": "owner",
      "outputs": [
        {
          "internalType": "address",
          "name": "",
          "type": "address"
        }
      ],
      "stateMutability": "view",
      "type": "function"
    },
    {
      "inputs": [],
      "name": "platformMessage",
      "outputs": [
        {
          "internalType": "string",
          "name": "",
          "type": "string"
        }
      ],
      "stateMutability": "view",
      "type": "function"
    },
    {
      "inputs": [],
      "name": "premiumUser",
      "outputs": [
        {
          "internalType": "bool",
          "name": "",
          "type": "bool"
        }
      ],
      "stateMutability": "view",
      "type": "function"
    },
    {
      "inputs": [],
      "name": "renounceOwnership",
      "outputs": [],
      "stateMutability": "nonpayable",
      "type": "function"
    },
    {
      "inputs": [
        {
          "internalType": "address",
          "name": "newOwner",
          "type": "address"
        }
      ],
      "name": "transferOwnership",
      "outputs": [],
      "stateMutability": "nonpayable",
      "type": "function"
    },
    {
      "inputs": [
        {
          "internalType": "string",
          "name": "_newMessage",
          "type": "string"
        }
      ],
      "name": "updatePlatformMessage",
      "outputs": [],
      "stateMutability": "payable",
      "type": "function"
    },
    {
      "inputs": [
        {
          "internalType": "address",
          "name": "",
          "type": "address"
        }
      ],
      "name": "userInteractionCounter",
      "outputs": [
        {
          "internalType": "uint256",
          "name": "",
          "type": "uint256"
        }
      ],
      "stateMutability": "view",
      "type": "function"
    },
    {
      "inputs": [
        {
          "internalType": "uint256",
          "name": "",
          "type": "uint256"
        }
      ],
      "name": "userPosts",
      "outputs": [
        {
          "internalType": "address",
          "name": "userAddress",
          "type": "address"
        },
        {
          "internalType": "string",
          "name": "content",
          "type": "string"
        },
        {
          "internalType": "uint256",
          "name": "timestamp",
          "type": "uint256"
        }
      ],
      "stateMutability": "view",
      "type": "function"
    },
    {
      "inputs": [
        {
          "internalType": "uint256",
          "name": "",
          "type": "uint256"
        }
      ],
      "name": "userProfiles",
      "outputs": [
        {
          "internalType": "address",
          "name": "userAddress",
          "type": "address"
        },
        {
          "internalType": "string",
          "name": "username",
          "type": "string"
        },
        {
          "internalType": "string",
          "name": "bio",
          "type": "string"
        },
        {
          "internalType": "uint256",
          "name": "createdAt",
          "type": "uint256"
        }
      ],
      "stateMutability": "view",
      "type": "function"
    },
    {
      "inputs": [],
      "name": "withdrawEther",
      "outputs": [],
      "stateMutability": "nonpayable",
      "type": "function"
    },
    {
      "stateMutability": "payable",
      "type": "receive"
    }
  ],
  "bytecode": "0x60806040526040518060600160405280602c815260200162002896602c9139600190816200002e9190620005a6565b506000600260006101000a81548160ff02191690831515021790555060006003553480156200005c57600080fd5b5033600073ffffffffffffffffffffffffffffffffffffffff168173ffffffffffffffffffffffffffffffffffffffff1603620000d35760006040517f1e4fbdf7000000000000000000000000000000000000000000000000000000008152600401620000ca9190620006d2565b60405180910390fd5b620000e481620000fc60201b60201c565b50620000f633620001c060201b60201c565b620006ef565b60008060009054906101000a900473ffffffffffffffffffffffffffffffffffffffff169050816000806101000a81548173ffffffffffffffffffffffffffffffffffffffff021916908373ffffffffffffffffffffffffffffffffffffffff1602179055508173ffffffffffffffffffffffffffffffffffffffff168173ffffffffffffffffffffffffffffffffffffffff167f8be0079c531659141344cd1fd0a4f28419497f9722a3daafe3b4186f6b6457e060405160405180910390a35050565b620001d06200025960201b60201c565b600073ffffffffffffffffffffffffffffffffffffffff168173ffffffffffffffffffffffffffffffffffffffff1603620002455760006040517f1e4fbdf70000000000000000000000000000000000000000000000000000000081526004016200023c9190620006d2565b60405180910390fd5b6200025681620000fc60201b60201c565b50565b62000269620002fb60201b60201c565b73ffffffffffffffffffffffffffffffffffffffff166200028f6200030360201b60201c565b73ffffffffffffffffffffffffffffffffffffffff1614620002f957620002bb620002fb60201b60201c565b6040517f118cdaa7000000000000000000000000000000000000000000000000000000008152600401620002f09190620006d2565b60405180910390fd5b565b600033905090565b60008060009054906101000a900473ffffffffffffffffffffffffffffffffffffffff16905090565b600081519050919050565b7f4e487b7100000000000000000000000000000000000000000000000000000000600052604160045260246000fd5b7f4e487b7100000000000000000000000000000000000000000000000000000000600052602260045260246000fd5b60006002820490506001821680620003ae57607f821691505b602082108103620003c457620003c362000366565b5b50919050565b60008190508160005260206000209050919050565b60006020601f8301049050919050565b600082821b905092915050565b6000600883026200042e7fffffffffffffffffffffffffffffffffffffffffffffffffffffffffffffffff82620003ef565b6200043a8683620003ef565b95508019841693508086168417925050509392505050565b6000819050919050565b6000819050919050565b600062000487620004816200047b8462000452565b6200045c565b62000452565b9050919050565b6000819050919050565b620004a38362000466565b620004bb620004b2826200048e565b848454620003fc565b825550505050565b600090565b620004d2620004c3565b620004df81848462000498565b505050565b5b818110156200050757620004fb600082620004c8565b600181019050620004e5565b5050565b601f82111562000556576200052081620003ca565b6200052b84620003df565b810160208510156200053b578190505b620005536200054a85620003df565b830182620004e4565b50505b505050565b600082821c905092915050565b60006200057b600019846008026200055b565b1980831691505092915050565b600062000596838362000568565b9150826002028217905092915050565b620005b1826200032c565b67ffffffffffffffff811115620005cd57620005cc62000337565b5b620005d9825462000395565b620005e68282856200050b565b600060209050601f8311600181146200061e576000841562000609578287015190505b62000615858262000588565b86555062000685565b601f1984166200062e86620003ca565b60005b82811015620006585784890151825560018201915060208501945060208101905062000631565b8683101562000678578489015162000674601f89168262000568565b8355505b6001600288020188555050505b505050505050565b600073ffffffffffffffffffffffffffffffffffffffff82169050919050565b6000620006ba826200068d565b9050919050565b620006cc81620006ad565b82525050565b6000602082019050620006e96000830184620006c1565b92915050565b61219780620006ff6000396000f3fe6080604052600436106100ec5760003560e01c80638da5cb5b1161008a578063b439a03711610059578063b439a037146102d1578063dcc2179b1461030e578063f2fde38b14610337578063fdd6ea7114610360576100f3565b80638da5cb5b146102015780638e5298551461022c578063987ee156146102575780639a2194a914610294576100f3565b80635cf10d88116100c65780635cf10d881461017f578063715018a6146101a85780637362377b146101bf5780637dde8dae146101d6576100f3565b806318d4a12d146100f857806344c7c85e14610138578063570fa50614610163576100f3565b366100f357005b600080fd5b34801561010457600080fd5b5061011f600480360381019061011a91906113ba565b61039f565b60405161012f94939291906114c7565b60405180910390f35b34801561014457600080fd5b5061014d61050f565b60405161015a919061151a565b60405180910390f35b61017d60048036038101906101789190611671565b61059d565b005b34801561018b57600080fd5b506101a660048036038101906101a19190611671565b6106a1565b005b3480156101b457600080fd5b506101bd610803565b005b3480156101cb57600080fd5b506101d4610817565b005b3480156101e257600080fd5b506101eb610932565b6040516101f891906116ba565b60405180910390f35b34801561020d57600080fd5b50610216610938565b60405161022391906116d5565b60405180910390f35b34801561023857600080fd5b50610241610961565b60405161024e919061170b565b60405180910390f35b34801561026357600080fd5b5061027e60048036038101906102799190611752565b610974565b60405161028b9190611851565b60405180910390f35b3480156102a057600080fd5b506102bb60048036038101906102b69190611752565b610c11565b6040516102c89190611985565b60405180910390f35b3480156102dd57600080fd5b506102f860048036038101906102f39190611752565b610e63565b60405161030591906116ba565b60405180910390f35b34801561031a57600080fd5b50610335600480360381019061033091906119a7565b610e7b565b005b34801561034357600080fd5b5061035e60048036038101906103599190611752565b611040565b005b34801561036c57600080fd5b50610387600480360381019061038291906113ba565b6110c6565b60405161039693929190611a1f565b60405180910390f35b600581815481106103af57600080fd5b90600052602060002090600402016000915090508060000160009054906101000a900473ffffffffffffffffffffffffffffffffffffffff16908060010180546103f890611a8c565b80601f016020809104026020016040519081016040528092919081815260200182805461042490611a8c565b80156104715780601f1061044657610100808354040283529160200191610471565b820191906000526020600020905b81548152906001019060200180831161045457829003601f168201915b50505050509080600201805461048690611a8c565b80601f01602080910402602001604051908101604052809291908181526020018280546104b290611a8c565b80156104ff5780601f106104d4576101008083540402835291602001916104ff565b820191906000526020600020905b8154815290600101906020018083116104e257829003601f168201915b5050505050908060030154905084565b6001805461051c90611a8c565b80601f016020809104026020016040519081016040528092919081815260200182805461054890611a8c565b80156105955780601f1061056a57610100808354040283529160200191610595565b820191906000526020600020905b81548152906001019060200180831161057857829003601f168201915b505050505081565b80600190816105ac9190611c69565b506001600360008282546105c09190611d6a565b925050819055506001600460003373ffffffffffffffffffffffffffffffffffffffff1673ffffffffffffffffffffffffffffffffffffffff16815260200190815260200160002060008282546106179190611d6a565b9250508190555060003411600260006101000a81548160ff0219169083151502179055503373ffffffffffffffffffffffffffffffffffffffff167f9162d6b6c588b8575b805c5b6a18dbd33f5bca63d5fdd64616be57c1320518a582600260009054906101000a900460ff1634426040516106969493929190611d9e565b60405180910390a250565b60008151116106e5576040517f08c379a00000000000000000000000000000000000000000000000000000000081526004016106dc90611e36565b60405180910390fd5b600060405180606001604052803373ffffffffffffffffffffffffffffffffffffffff168152602001838152602001428152509050600681908060018154018082558091505060019003906000526020600020906003020160009091909190915060008201518160000160006101000a81548173ffffffffffffffffffffffffffffffffffffffff021916908373ffffffffffffffffffffffffffffffffffffffff16021790555060208201518160010190816107a29190611c69565b506040820151816002015550503373ffffffffffffffffffffffffffffffffffffffff167f0582b2cc9f79067ae3ab4542438bffd12793c90bdf82c749da53095ceee81e8b83426040516107f7929190611e56565b60405180910390a25050565b61080b6111a8565b610815600061122f565b565b61081f6111a8565b6000479050600061082e610938565b73ffffffffffffffffffffffffffffffffffffffff168260405161085190611eb7565b60006040518083038185875af1925050503d806000811461088e576040519150601f19603f3d011682016040523d82523d6000602084013e610893565b606091505b50509050806108d7576040517f08c379a00000000000000000000000000000000000000000000000000000000081526004016108ce90611f18565b60405180910390fd5b6108df610938565b73ffffffffffffffffffffffffffffffffffffffff167fd5ca65e1ec4f4864fea7b9c5cb1ec3087a0dbf9c74641db3f6458edf445c40518342604051610926929190611f38565b60405180910390a25050565b60035481565b60008060009054906101000a900473ffffffffffffffffffffffffffffffffffffffff16905090565b600260009054906101000a900460ff1681565b61097c6112fb565b60005b600580549050811015610bd0578273ffffffffffffffffffffffffffffffffffffffff16600582815481106109b7576109b6611f61565b5b906000526020600020906004020160000160009054906101000a900473ffffffffffffffffffffffffffffffffffffffff1673ffffffffffffffffffffffffffffffffffffffff1603610bbd5760058181548110610a1857610a17611f61565b5b90600052602060002090600402016040518060800160405290816000820160009054906101000a900473ffffffffffffffffffffffffffffffffffffffff1673ffffffffffffffffffffffffffffffffffffffff1673ffffffffffffffffffffffffffffffffffffffff168152602001600182018054610a9790611a8c565b80601f0160208091040260200160405190810160405280929190818152602001828054610ac390611a8c565b8015610b105780601f10610ae557610100808354040283529160200191610b10565b820191906000526020600020905b815481529060010190602001808311610af357829003601f168201915b50505050508152602001600282018054610b2990611a8c565b80601f0160208091040260200160405190810160405280929190818152602001828054610b5590611a8c565b8015610ba25780601f10610b7757610100808354040283529160200191610ba2565b820191906000526020600020905b815481529060010190602001808311610b8557829003601f168201915b50505050508152602001600382015481525050915050610c0c565b8080610bc890611f90565b91505061097f565b506040517f08c379a0000000000000000000000000000000000000000000000000000000008152600401610c0390612024565b60405180910390fd5b919050565b6060600060068054905067ffffffffffffffff811115610c3457610c33611546565b5b604051908082528060200260200182016040528015610c6d57816020015b610c5a611339565b815260200190600190039081610c525790505b5090506000805b600680549050811015610e58578473ffffffffffffffffffffffffffffffffffffffff1660068281548110610cac57610cab611f61565b5b906000526020600020906003020160000160009054906101000a900473ffffffffffffffffffffffffffffffffffffffff1673ffffffffffffffffffffffffffffffffffffffff1603610e455760068181548110610d0d57610d0c611f61565b5b90600052602060002090600302016040518060600160405290816000820160009054906101000a900473ffffffffffffffffffffffffffffffffffffffff1673ffffffffffffffffffffffffffffffffffffffff1673ffffffffffffffffffffffffffffffffffffffff168152602001600182018054610d8c90611a8c565b80601f0160208091040260200160405190810160405280929190818152602001828054610db890611a8c565b8015610e055780601f10610dda57610100808354040283529160200191610e05565b820191906000526020600020905b815481529060010190602001808311610de857829003601f168201915b50505050508152602001600282015481525050838381518110610e2b57610e2a611f61565b5b60200260200101819052508180610e4190611f90565b9250505b8080610e5090611f90565b915050610c74565b508192505050919050565b60046020528060005260406000206000915090505481565b6000825111610ebf576040517f08c379a0000000000000000000000000000000000000000000000000000000008152600401610eb690612090565b60405180910390fd5b6000815111610f03576040517f08c379a0000000000000000000000000000000000000000000000000000000008152600401610efa906120fc565b60405180910390fd5b600060405180608001604052803373ffffffffffffffffffffffffffffffffffffffff168152602001848152602001838152602001428152509050600581908060018154018082558091505060019003906000526020600020906004020160009091909190915060008201518160000160006101000a81548173ffffffffffffffffffffffffffffffffffffffff021916908373ffffffffffffffffffffffffffffffffffffffff1602179055506020820151816001019081610fc69190611c69565b506040820151816002019081610fdc9190611c69565b506060820151816003015550503373ffffffffffffffffffffffffffffffffffffffff167fedd2b109112c6076587898e8db8e57a2e0f710071c6244a847d093b235cc0ff78484426040516110339392919061211c565b60405180910390a2505050565b6110486111a8565b600073ffffffffffffffffffffffffffffffffffffffff168173ffffffffffffffffffffffffffffffffffffffff16036110ba5760006040517f1e4fbdf70000000000000000000000000000000000000000000000000000000081526004016110b191906116d5565b60405180910390fd5b6110c38161122f565b50565b600681815481106110d657600080fd5b90600052602060002090600302016000915090508060000160009054906101000a900473ffffffffffffffffffffffffffffffffffffffff169080600101805461111f90611a8c565b80601f016020809104026020016040519081016040528092919081815260200182805461114b90611a8c565b80156111985780601f1061116d57610100808354040283529160200191611198565b820191906000526020600020905b81548152906001019060200180831161117b57829003601f168201915b5050505050908060020154905083565b6111b06112f3565b73ffffffffffffffffffffffffffffffffffffffff166111ce610938565b73ffffffffffffffffffffffffffffffffffffffff161461122d576111f16112f3565b6040517f118cdaa700000000000000000000000000000000000000000000000000000000815260040161122491906116d5565b60405180910390fd5b565b60008060009054906101000a900473ffffffffffffffffffffffffffffffffffffffff169050816000806101000a81548173ffffffffffffffffffffffffffffffffffffffff021916908373ffffffffffffffffffffffffffffffffffffffff1602179055508173ffffffffffffffffffffffffffffffffffffffff168173ffffffffffffffffffffffffffffffffffffffff167f8be0079c531659141344cd1fd0a4f28419497f9722a3daafe3b4186f6b6457e060405160405180910390a35050565b600033905090565b6040518060800160405280600073ffffffffffffffffffffffffffffffffffffffff1681526020016060815260200160608152602001600081525090565b6040518060600160405280600073ffffffffffffffffffffffffffffffffffffffff16815260200160608152602001600081525090565b6000604051905090565b600080fd5b600080fd5b6000819050919050565b61139781611384565b81146113a257600080fd5b50565b6000813590506113b48161138e565b92915050565b6000602082840312156113d0576113cf61137a565b5b60006113de848285016113a5565b91505092915050565b600073ffffffffffffffffffffffffffffffffffffffff82169050919050565b6000611412826113e7565b9050919050565b61142281611407565b82525050565b600081519050919050565b600082825260208201905092915050565b60005b83811015611462578082015181840152602081019050611447565b60008484015250505050565b6000601f19601f8301169050919050565b600061148a82611428565b6114948185611433565b93506114a4818560208601611444565b6114ad8161146e565b840191505092915050565b6114c181611384565b82525050565b60006080820190506114dc6000830187611419565b81810360208301526114ee818661147f565b90508181036040830152611502818561147f565b905061151160608301846114b8565b95945050505050565b60006020820190508181036000830152611534818461147f565b905092915050565b600080fd5b600080fd5b7f4e487b7100000000000000000000000000000000000000000000000000000000600052604160045260246000fd5b61157e8261146e565b810181811067ffffffffffffffff8211171561159d5761159c611546565b5b80604052505050565b60006115b0611370565b90506115bc8282611575565b919050565b600067ffffffffffffffff8211156115dc576115db611546565b5b6115e58261146e565b9050602081019050919050565b82818337600083830152505050565b600061161461160f846115c1565b6115a6565b9050828152602081018484840111156116305761162f611541565b5b61163b8482856115f2565b509392505050565b600082601f8301126116585761165761153c565b5b8135611668848260208601611601565b91505092915050565b6000602082840312156116875761168661137a565b5b600082013567ffffffffffffffff8111156116a5576116a461137f565b5b6116b184828501611643565b91505092915050565b60006020820190506116cf60008301846114b8565b92915050565b60006020820190506116ea6000830184611419565b92915050565b60008115159050919050565b611705816116f0565b82525050565b600060208201905061172060008301846116fc565b92915050565b61172f81611407565b811461173a57600080fd5b50565b60008135905061174c81611726565b92915050565b6000602082840312156117685761176761137a565b5b60006117768482850161173d565b91505092915050565b61178881611407565b82525050565b600082825260208201905092915050565b60006117aa82611428565b6117b4818561178e565b93506117c4818560208601611444565b6117cd8161146e565b840191505092915050565b6117e181611384565b82525050565b60006080830160008301516117ff600086018261177f565b5060208301518482036020860152611817828261179f565b91505060408301518482036040860152611831828261179f565b915050606083015161184660608601826117d8565b508091505092915050565b6000602082019050818103600083015261186b81846117e7565b905092915050565b600081519050919050565b600082825260208201905092915050565b6000819050602082019050919050565b60006060830160008301516118b7600086018261177f565b50602083015184820360208601526118cf828261179f565b91505060408301516118e460408601826117d8565b508091505092915050565b60006118fb838361189f565b905092915050565b6000602082019050919050565b600061191b82611873565b611925818561187e565b9350836020820285016119378561188f565b8060005b85811015611973578484038952815161195485826118ef565b945061195f83611903565b925060208a0199505060018101905061193b565b50829750879550505050505092915050565b6000602082019050818103600083015261199f8184611910565b905092915050565b600080604083850312156119be576119bd61137a565b5b600083013567ffffffffffffffff8111156119dc576119db61137f565b5b6119e885828601611643565b925050602083013567ffffffffffffffff811115611a0957611a0861137f565b5b611a1585828601611643565b9150509250929050565b6000606082019050611a346000830186611419565b8181036020830152611a46818561147f565b9050611a5560408301846114b8565b949350505050565b7f4e487b7100000000000000000000000000000000000000000000000000000000600052602260045260246000fd5b60006002820490506001821680611aa457607f821691505b602082108103611ab757611ab6611a5d565b5b50919050565b60008190508160005260206000209050919050565b60006020601f8301049050919050565b600082821b905092915050565b600060088302611b1f7fffffffffffffffffffffffffffffffffffffffffffffffffffffffffffffffff82611ae2565b611b298683611ae2565b95508019841693508086168417925050509392505050565b6000819050919050565b6000611b66611b61611b5c84611384565b611b41565b611384565b9050919050565b6000819050919050565b611b8083611b4b565b611b94611b8c82611b6d565b848454611aef565b825550505050565b600090565b611ba9611b9c565b611bb4818484611b77565b505050565b5b81811015611bd857611bcd600082611ba1565b600181019050611bba565b5050565b601f821115611c1d57611bee81611abd565b611bf784611ad2565b81016020851015611c06578190505b611c1a611c1285611ad2565b830182611bb9565b50505b505050565b600082821c905092915050565b6000611c4060001984600802611c22565b1980831691505092915050565b6000611c598383611c2f565b9150826002028217905092915050565b611c7282611428565b67ffffffffffffffff811115611c8b57611c8a611546565b5b611c958254611a8c565b611ca0828285611bdc565b600060209050601f831160018114611cd35760008415611cc1578287015190505b611ccb8582611c4d565b865550611d33565b601f198416611ce186611abd565b60005b82811015611d0957848901518255600182019150602085019450602081019050611ce4565b86831015611d265784890151611d22601f891682611c2f565b8355505b6001600288020188555050505b505050505050565b7f4e487b7100000000000000000000000000000000000000000000000000000000600052601160045260246000fd5b6000611d7582611384565b9150611d8083611384565b9250828201905080821115611d9857611d97611d3b565b5b92915050565b60006080820190508181036000830152611db8818761147f565b9050611dc760208301866116fc565b611dd460408301856114b8565b611de160608301846114b8565b95945050505050565b7f436f6e74656e742063616e6e6f7420626520656d707479000000000000000000600082015250565b6000611e20601783611433565b9150611e2b82611dea565b602082019050919050565b60006020820190508181036000830152611e4f81611e13565b9050919050565b60006040820190508181036000830152611e70818561147f565b9050611e7f60208301846114b8565b9392505050565b600081905092915050565b50565b6000611ea1600083611e86565b9150611eac82611e91565b600082019050919050565b6000611ec282611e94565b9150819050919050565b7f4661696c656420746f2073656e64204574686572000000000000000000000000600082015250565b6000611f02601483611433565b9150611f0d82611ecc565b602082019050919050565b60006020820190508181036000830152611f3181611ef5565b9050919050565b6000604082019050611f4d60008301856114b8565b611f5a60208301846114b8565b9392505050565b7f4e487b7100000000000000000000000000000000000000000000000000000000600052603260045260246000fd5b6000611f9b82611384565b91507fffffffffffffffffffffffffffffffffffffffffffffffffffffffffffffffff8203611fcd57611fcc611d3b565b5b600182019050919050565b7f557365722070726f66696c65206e6f7420666f756e6400000000000000000000600082015250565b600061200e601683611433565b915061201982611fd8565b602082019050919050565b6000602082019050818103600083015261203d81612001565b9050919050565b7f557365726e616d652063616e6e6f7420626520656d7074790000000000000000600082015250565b600061207a601883611433565b915061208582612044565b602082019050919050565b600060208201905081810360008301526120a98161206d565b9050919050565b7f42696f2063616e6e6f7420626520656d70747900000000000000000000000000600082015250565b60006120e6601383611433565b91506120f1826120b0565b602082019050919050565b60006020820190508181036000830152612115816120d9565b9050919050565b60006060820190508181036000830152612136818661147f565b9050818103602083015261214a818561147f565b905061215960408301846114b8565b94935050505056fea2646970667358221220d05f0a57b6330ceeb0118b4c6437aac3fc94306c66160804221a18be361d21a164736f6c6343000814003357656c636f6d6520746f2074686520446563656e7472616c697a656420536f6369616c204e6574776f726b21",
  "linkReferences": {},
  "deployedLinkReferences": {}
}