{
  "_format": "hh-sol-artifact-1",
  "contractName": "SocialNetwork",
  "sourceName": "contracts/SocialNetwork.sol",
  "abi": [
    {
      "inputs": [],
      "stateMutability": "nonpayable",
      "type": "constructor"
    },
    {
      "inputs": [
        {
          "internalType": "address",
          "name": "owner",
          "type": "address"
        }
      ],
      "name": "OwnableInvalidOwner",
      "type": "error"
    },
    {
      "inputs": [
        {
          "internalType": "address",
          "name": "account",
          "type": "address"
        }
      ],
      "name": "OwnableUnauthorizedAccount",
      "type": "error"
    },
    {
      "anonymous": false,
      "inputs": [
        {
          "indexed": true,
          "internalType": "address",
          "name": "owner",
          "type": "address"
        },
        {
          "indexed": false,
          "internalType": "uint256",
          "name": "amount",
          "type": "uint256"
        },
        {
          "indexed": false,
          "internalType": "uint256",
          "name": "timestamp",
          "type": "uint256"
        }
      ],
      "name": "EtherWithdrawn",
      "type": "event"
    },
    {
      "anonymous": false,
      "inputs": [
        {
          "indexed": true,
          "internalType": "address",
          "name": "previousOwner",
          "type": "address"
        },
        {
          "indexed": true,
          "internalType": "address",
          "name": "newOwner",
          "type": "address"
        }
      ],
      "name": "OwnershipTransferred",
      "type": "event"
    },
    {
      "anonymous": false,
      "inputs": [
        {
          "indexed": true,
          "internalType": "address",
          "name": "updater",
          "type": "address"
        },
        {
          "indexed": false,
          "internalType": "string",
          "name": "newMessage",
          "type": "string"
        },
        {
          "indexed": false,
          "internalType": "bool",
          "name": "premiumUser",
          "type": "bool"
        },
        {
          "indexed": false,
          "internalType": "uint256",
          "name": "value",
          "type": "uint256"
        },
        {
          "indexed": false,
          "internalType": "uint256",
          "name": "timestamp",
          "type": "uint256"
        }
      ],
      "name": "PlatformMessageUpdated",
      "type": "event"
    },
    {
      "anonymous": false,
      "inputs": [
        {
          "indexed": true,
          "internalType": "address",
          "name": "userAddress",
          "type": "address"
        },
        {
          "indexed": false,
          "internalType": "uint256",
          "name": "postId",
          "type": "uint256"
        },
        {
          "indexed": false,
          "internalType": "string",
          "name": "content",
          "type": "string"
        },
        {
          "indexed": false,
          "internalType": "uint256",
          "name": "timestamp",
          "type": "uint256"
        }
      ],
      "name": "PostCommented",
      "type": "event"
    },
    {
      "anonymous": false,
      "inputs": [
        {
          "indexed": true,
          "internalType": "address",
          "name": "userAddress",
          "type": "address"
        },
        {
          "indexed": false,
          "internalType": "uint256",
          "name": "postId",
          "type": "uint256"
        },
        {
          "indexed": false,
          "internalType": "uint256",
          "name": "timestamp",
          "type": "uint256"
        }
      ],
      "name": "PostLiked",
      "type": "event"
    },
    {
      "anonymous": false,
      "inputs": [
        {
          "indexed": true,
          "internalType": "address",
          "name": "follower",
          "type": "address"
        },
        {
          "indexed": true,
          "internalType": "address",
          "name": "followee",
          "type": "address"
        },
        {
          "indexed": false,
          "internalType": "uint256",
          "name": "timestamp",
          "type": "uint256"
        }
      ],
      "name": "UserFollowed",
      "type": "event"
    },
    {
      "anonymous": false,
      "inputs": [
        {
          "indexed": true,
          "internalType": "address",
          "name": "userAddress",
          "type": "address"
        },
        {
          "indexed": false,
          "internalType": "string",
          "name": "content",
          "type": "string"
        },
        {
          "indexed": false,
          "internalType": "uint256",
          "name": "timestamp",
          "type": "uint256"
        }
      ],
      "name": "UserPostCreated",
      "type": "event"
    },
    {
      "anonymous": false,
      "inputs": [
        {
          "indexed": true,
          "internalType": "address",
          "name": "userAddress",
          "type": "address"
        },
        {
          "indexed": false,
          "internalType": "string",
          "name": "username",
          "type": "string"
        },
        {
          "indexed": false,
          "internalType": "string",
          "name": "bio",
          "type": "string"
        },
        {
          "indexed": false,
          "internalType": "string",
          "name": "avatarUrl",
          "type": "string"
        },
        {
          "indexed": false,
          "internalType": "uint256",
          "name": "timestamp",
          "type": "uint256"
        }
      ],
      "name": "UserProfileCreated",
      "type": "event"
    },
    {
      "inputs": [
        {
          "internalType": "address",
          "name": "_userAddress",
          "type": "address"
        },
        {
          "internalType": "uint256",
          "name": "_postId",
          "type": "uint256"
        },
        {
          "internalType": "string",
          "name": "_content",
          "type": "string"
        }
      ],
      "name": "commentOnPost",
      "outputs": [],
      "stateMutability": "nonpayable",
      "type": "function"
    },
    {
      "inputs": [
        {
          "internalType": "string",
          "name": "_content",
          "type": "string"
        }
      ],
      "name": "createUserPost",
      "outputs": [],
      "stateMutability": "nonpayable",
      "type": "function"
    },
    {
      "inputs": [
        {
          "internalType": "string",
          "name": "_username",
          "type": "string"
        },
        {
          "internalType": "string",
          "name": "_bio",
          "type": "string"
        },
        {
          "internalType": "string",
          "name": "_avatarUrl",
          "type": "string"
        }
      ],
      "name": "createUserProfile",
      "outputs": [],
      "stateMutability": "nonpayable",
      "type": "function"
    },
    {
      "inputs": [
        {
          "internalType": "address",
          "name": "_userAddress",
          "type": "address"
        }
      ],
      "name": "followUser",
      "outputs": [],
      "stateMutability": "nonpayable",
      "type": "function"
    },
    {
      "inputs": [
        {
          "internalType": "uint256",
          "name": "_postId",
          "type": "uint256"
        }
      ],
      "name": "getPostComments",
      "outputs": [
        {
          "components": [
            {
              "internalType": "address",
              "name": "userAddress",
              "type": "address"
            },
            {
              "internalType": "string",
              "name": "content",
              "type": "string"
            },
            {
              "internalType": "uint256",
              "name": "timestamp",
              "type": "uint256"
            }
          ],
          "internalType": "struct SocialNetwork.PostComment[]",
          "name": "",
          "type": "tuple[]"
        }
      ],
      "stateMutability": "view",
      "type": "function"
    },
    {
      "inputs": [
        {
          "internalType": "address",
          "name": "_userAddress",
          "type": "address"
        }
      ],
      "name": "getUserPosts",
      "outputs": [
        {
          "components": [
            {
              "internalType": "address",
              "name": "userAddress",
              "type": "address"
            },
            {
              "internalType": "string",
              "name": "content",
              "type": "string"
            },
            {
              "internalType": "uint256",
              "name": "timestamp",
              "type": "uint256"
            },
            {
              "internalType": "uint256",
              "name": "likesCount",
              "type": "uint256"
            }
          ],
          "internalType": "struct SocialNetwork.UserPost[]",
          "name": "",
          "type": "tuple[]"
        }
      ],
      "stateMutability": "view",
      "type": "function"
    },
    {
      "inputs": [
        {
          "internalType": "address",
          "name": "_userAddress",
          "type": "address"
        }
      ],
      "name": "getUserProfile",
      "outputs": [
        {
          "components": [
            {
              "internalType": "address",
              "name": "userAddress",
              "type": "address"
            },
            {
              "internalType": "string",
              "name": "username",
              "type": "string"
            },
            {
              "internalType": "string",
              "name": "bio",
              "type": "string"
            },
            {
              "internalType": "string",
              "name": "avatarUrl",
              "type": "string"
            },
            {
              "internalType": "uint256",
              "name": "createdAt",
              "type": "uint256"
            },
            {
              "internalType": "uint256",
              "name": "followersCount",
              "type": "uint256"
            }
          ],
          "internalType": "struct SocialNetwork.UserProfile",
          "name": "",
          "type": "tuple"
        }
      ],
      "stateMutability": "view",
      "type": "function"
    },
    {
      "inputs": [],
      "name": "interactionCounter",
      "outputs": [
        {
          "internalType": "uint256",
          "name": "",
          "type": "uint256"
        }
      ],
      "stateMutability": "view",
      "type": "function"
    },
    {
      "inputs": [
        {
          "internalType": "address",
          "name": "_userAddress",
          "type": "address"
        },
        {
          "internalType": "uint256",
          "name": "_postId",
          "type": "uint256"
        }
      ],
      "name": "likePost",
      "outputs": [],
      "stateMutability": "nonpayable",
      "type": "function"
    },
    {
      "inputs": [],
      "name": "owner",
      "outputs": [
        {
          "internalType": "address",
          "name": "",
          "type": "address"
        }
      ],
      "stateMutability": "view",
      "type": "function"
    },
    {
      "inputs": [],
      "name": "platformMessage",
      "outputs": [
        {
          "internalType": "string",
          "name": "",
          "type": "string"
        }
      ],
      "stateMutability": "view",
      "type": "function"
    },
    {
      "inputs": [],
      "name": "premiumUser",
      "outputs": [
        {
          "internalType": "bool",
          "name": "",
          "type": "bool"
        }
      ],
      "stateMutability": "view",
      "type": "function"
    },
    {
      "inputs": [],
      "name": "renounceOwnership",
      "outputs": [],
      "stateMutability": "nonpayable",
      "type": "function"
    },
    {
      "inputs": [
        {
          "internalType": "address",
          "name": "newOwner",
          "type": "address"
        }
      ],
      "name": "transferOwnership",
      "outputs": [],
      "stateMutability": "nonpayable",
      "type": "function"
    },
    {
      "inputs": [
        {
          "internalType": "string",
          "name": "_newMessage",
          "type": "string"
        }
      ],
      "name": "updatePlatformMessage",
      "outputs": [],
      "stateMutability": "payable",
      "type": "function"
    },
    {
      "inputs": [
        {
          "internalType": "address",
          "name": "",
          "type": "address"
        }
      ],
      "name": "userInteractionCounter",
      "outputs": [
        {
          "internalType": "uint256",
          "name": "",
          "type": "uint256"
        }
      ],
      "stateMutability": "view",
      "type": "function"
    },
    {
      "inputs": [],
      "name": "withdrawEther",
      "outputs": [],
      "stateMutability": "nonpayable",
      "type": "function"
    },
    {
      "stateMutability": "payable",
      "type": "receive"
    }
  ],
  "bytecode": "0x60e0604052602c60808181529062001b8760a039600190620000229082620001ef565b506002805460ff1916905560006003553480156200003f57600080fd5b5033806200006857604051631e4fbdf760e01b8152600060048201526024015b60405180910390fd5b620000738162000085565b506200007f33620000d5565b620002bb565b600080546001600160a01b038381166001600160a01b0319831681178455604051919092169283917f8be0079c531659141344cd1fd0a4f28419497f9722a3daafe3b4186f6b6457e09190a35050565b620000df62000119565b6001600160a01b0381166200010b57604051631e4fbdf760e01b8152600060048201526024016200005f565b620001168162000085565b50565b6000546001600160a01b03163314620001485760405163118cdaa760e01b81523360048201526024016200005f565b565b634e487b7160e01b600052604160045260246000fd5b600181811c908216806200017557607f821691505b6020821081036200019657634e487b7160e01b600052602260045260246000fd5b50919050565b601f821115620001ea57600081815260208120601f850160051c81016020861015620001c55750805b601f850160051c820191505b81811015620001e657828155600101620001d1565b5050505b505050565b81516001600160401b038111156200020b576200020b6200014a565b62000223816200021c845462000160565b846200019c565b602080601f8311600181146200025b5760008415620002425750858301515b600019600386901b1c1916600185901b178555620001e6565b600085815260208120601f198616915b828110156200028c578886015182559484019460019091019084016200026b565b5085821015620002ab5787850151600019600388901b60f8161c191681555b5050505050600190811b01905550565b6118bc80620002cb6000396000f3fe6080604052600436106101025760003560e01c80638da5cb5b11610095578063a70806f711610064578063a70806f7146102a8578063b439a037146102c8578063d524ff76146102f5578063f2fde38b14610322578063feb81fbe1461034257600080fd5b80638da5cb5b146101fc5780638e52985514610224578063987ee1561461024e5780639a2194a91461027b57600080fd5b80635cf10d88116100d15780635cf10d881461018e578063715018a6146101ae5780637362377b146101c35780637dde8dae146101d857600080fd5b8063012d18b91461010e57806344c7c85e14610130578063483515291461015b578063570fa5061461017b57600080fd5b3661010957005b600080fd5b34801561011a57600080fd5b5061012e6101293660046112d2565b610362565b005b34801561013c57600080fd5b506101456104d2565b604051610152919061136f565b60405180910390f35b34801561016757600080fd5b5061012e610176366004611389565b610560565b61012e6101893660046113b3565b61064f565b34801561019a57600080fd5b5061012e6101a93660046113b3565b6106f1565b3480156101ba57600080fd5b5061012e610869565b3480156101cf57600080fd5b5061012e61087d565b3480156101e457600080fd5b506101ee60035481565b604051908152602001610152565b34801561020857600080fd5b506000546040516001600160a01b039091168152602001610152565b34801561023057600080fd5b5060025461023e9060ff1681565b6040519015158152602001610152565b34801561025a57600080fd5b5061026e6102693660046113f0565b610975565b604051610152919061140b565b34801561028757600080fd5b5061029b6102963660046113f0565b610c0f565b6040516101529190611496565b3480156102b457600080fd5b5061012e6102c33660046113f0565b610d40565b3480156102d457600080fd5b506101ee6102e33660046113f0565b60046020526000908152604090205481565b34801561030157600080fd5b5061031561031036600461152c565b610e11565b6040516101529190611545565b34801561032e57600080fd5b5061012e61033d3660046113f0565b610f2a565b34801561034e57600080fd5b5061012e61035d3660046115c3565b610f68565b60008151116103b85760405162461bcd60e51b815260206004820152601760248201527f436f6d6d656e742063616e6e6f7420626520656d70747900000000000000000060448201526064015b60405180910390fd5b6001600160a01b03831660009081526006602052604090205482106104155760405162461bcd60e51b8152602060048201526013602482015272141bdcdd08191bd95cc81b9bdd08195e1a5cdd606a1b60448201526064016103af565b60008281526007602090815260408083208151606081018352338152808401868152429382019390935281546001808201845592865293909420845160039094020180546001600160a01b0319166001600160a01b0390941693909317835590519082019061048490826116ca565b506040918201516002909101555133907f2253e781e411162df90e2f4c6a15b808363e67e0071ca39046a5921cdfd80b4f906104c59085908590429061178a565b60405180910390a2505050565b600180546104df90611641565b80601f016020809104026020016040519081016040528092919081815260200182805461050b90611641565b80156105585780601f1061052d57610100808354040283529160200191610558565b820191906000526020600020905b81548152906001019060200180831161053b57829003601f168201915b505050505081565b6001600160a01b03821660009081526006602052604090205481106105bd5760405162461bcd60e51b8152602060048201526013602482015272141bdcdd08191bd95cc81b9bdd08195e1a5cdd606a1b60448201526064016103af565b6001600160a01b0382166000908152600660205260409020805460019190839081106105eb576105eb6117b3565b9060005260206000209060040201600301600082825461060b91906117c9565b90915550506040805182815242602082015233917f29ad17d6120e01123e3509137edf8444825cedb1d294738da797e42b35d4157a91015b60405180910390a25050565b600161065b82826116ca565b5060016003600082825461066f91906117c9565b90915550503360009081526004602052604081208054600192906106949084906117c9565b90915550506002805460ff19163480151591821790925560405133927f9162d6b6c588b8575b805c5b6a18dbd33f5bca63d5fdd64616be57c1320518a5926106e692869260ff909216919042906117ea565b60405180910390a250565b60008151116107425760405162461bcd60e51b815260206004820152601760248201527f436f6e74656e742063616e6e6f7420626520656d70747900000000000000000060448201526064016103af565b336000908152600560205260409020546001600160a01b03166107a05760405162461bcd60e51b8152602060048201526016602482015275141c9bd99a5b1948191bd95cc81b9bdd08195e1a5cdd60521b60448201526064016103af565b336000818152600660209081526040808320815160808101835294855284830186815242928601929092526060850184905280546001808201835591855292909320845160049093020180546001600160a01b0319166001600160a01b0390931692909217825551909182019061081790826116ca565b5060408201518160020155606082015181600301555050336001600160a01b03167f0582b2cc9f79067ae3ab4542438bffd12793c90bdf82c749da53095ceee81e8b82426040516106e6929190611819565b610871611196565b61087b60006111c3565b565b610885611196565b47600061089a6000546001600160a01b031690565b6001600160a01b03168260405160006040518083038185875af1925050503d80600081146108e4576040519150601f19603f3d011682016040523d82523d6000602084013e6108e9565b606091505b50509050806109315760405162461bcd60e51b81526020600482015260146024820152732330b4b632b2103a379039b2b7321022ba3432b960611b60448201526064016103af565b600054604080518481524260208201526001600160a01b03909216917fd5ca65e1ec4f4864fea7b9c5cb1ec3087a0dbf9c74641db3f6458edf445c40519101610643565b6109b76040518060c0016040528060006001600160a01b0316815260200160608152602001606081526020016060815260200160008152602001600081525090565b6001600160a01b038083166000908152600560209081526040808320815160c08101909252805490941681526001840180549394919391928401916109fb90611641565b80601f0160208091040260200160405190810160405280929190818152602001828054610a2790611641565b8015610a745780601f10610a4957610100808354040283529160200191610a74565b820191906000526020600020905b815481529060010190602001808311610a5757829003601f168201915b50505050508152602001600282018054610a8d90611641565b80601f0160208091040260200160405190810160405280929190818152602001828054610ab990611641565b8015610b065780601f10610adb57610100808354040283529160200191610b06565b820191906000526020600020905b815481529060010190602001808311610ae957829003601f168201915b50505050508152602001600382018054610b1f90611641565b80601f0160208091040260200160405190810160405280929190818152602001828054610b4b90611641565b8015610b985780601f10610b6d57610100808354040283529160200191610b98565b820191906000526020600020905b815481529060010190602001808311610b7b57829003601f168201915b50505091835250506004820154602082015260059091015460409091015280519091506001600160a01b0316610c095760405162461bcd60e51b8152602060048201526016602482015275155cd95c881c1c9bd99a5b19481b9bdd08199bdd5b9960521b60448201526064016103af565b92915050565b6001600160a01b0381166000908152600660209081526040808320805482518185028101850190935280835260609492939192909184015b82821015610d3557600084815260209081902060408051608081019091526004850290910180546001600160a01b031682526001810180549293919291840191610c9090611641565b80601f0160208091040260200160405190810160405280929190818152602001828054610cbc90611641565b8015610d095780601f10610cde57610100808354040283529160200191610d09565b820191906000526020600020905b815481529060010190602001808311610cec57829003601f168201915b505050505081526020016002820154815260200160038201548152505081526020019060010190610c47565b505050509050919050565b6001600160a01b0381811660009081526005602052604090205416610d9d5760405162461bcd60e51b8152602060048201526013602482015272155cd95c88191bd95cc81b9bdd08195e1a5cdd606a1b60448201526064016103af565b6001600160a01b0381166000908152600560208190526040822001805460019290610dc99084906117c9565b90915550506040514281526001600160a01b0382169033907f53e62c84b456cda6228f6c0acd671088271c8bb9627a72d3f8c3d631c84737249060200160405180910390a350565b606060076000838152602001908152602001600020805480602002602001604051908101604052809291908181526020016000905b82821015610d3557600084815260209081902060408051606081019091526003850290910180546001600160a01b031682526001810180549293919291840191610e8f90611641565b80601f0160208091040260200160405190810160405280929190818152602001828054610ebb90611641565b8015610f085780601f10610edd57610100808354040283529160200191610f08565b820191906000526020600020905b815481529060010190602001808311610eeb57829003601f168201915b5050505050815260200160028201548152505081526020019060010190610e46565b610f32611196565b6001600160a01b038116610f5c57604051631e4fbdf760e01b8152600060048201526024016103af565b610f65816111c3565b50565b6000835111610fb95760405162461bcd60e51b815260206004820152601860248201527f557365726e616d652063616e6e6f7420626520656d707479000000000000000060448201526064016103af565b60008251116110005760405162461bcd60e51b815260206004820152601360248201527242696f2063616e6e6f7420626520656d70747960681b60448201526064016103af565b60008151116110515760405162461bcd60e51b815260206004820152601a60248201527f4176617461722055524c2063616e6e6f7420626520656d70747900000000000060448201526064016103af565b336000908152600560205260409020546001600160a01b0316156110b05760405162461bcd60e51b815260206004820152601660248201527550726f66696c6520616c72656164792065786973747360501b60448201526064016103af565b6040805160c08101825233808252602080830187815283850187905260608401869052426080850152600060a085018190529283526005909152929020815181546001600160a01b0319166001600160a01b039091161781559151909190600182019061111d90826116ca565b506040820151600282019061113290826116ca565b506060820151600382019061114790826116ca565b506080820151600482015560a09091015160059091015560405133907f68c8094cd66468f8f50a72ce66c4a57d01a859a1e6270e6ef2d7c07b70443f6d906104c590869086908690429061183b565b6000546001600160a01b0316331461087b5760405163118cdaa760e01b81523360048201526024016103af565b600080546001600160a01b038381166001600160a01b0319831681178455604051919092169283917f8be0079c531659141344cd1fd0a4f28419497f9722a3daafe3b4186f6b6457e09190a35050565b80356001600160a01b038116811461122a57600080fd5b919050565b634e487b7160e01b600052604160045260246000fd5b600082601f83011261125657600080fd5b813567ffffffffffffffff808211156112715761127161122f565b604051601f8301601f19908116603f011681019082821181831017156112995761129961122f565b816040528381528660208588010111156112b257600080fd5b836020870160208301376000602085830101528094505050505092915050565b6000806000606084860312156112e757600080fd5b6112f084611213565b925060208401359150604084013567ffffffffffffffff81111561131357600080fd5b61131f86828701611245565b9150509250925092565b6000815180845260005b8181101561134f57602081850181015186830182015201611333565b506000602082860101526020601f19601f83011685010191505092915050565b6020815260006113826020830184611329565b9392505050565b6000806040838503121561139c57600080fd5b6113a583611213565b946020939093013593505050565b6000602082840312156113c557600080fd5b813567ffffffffffffffff8111156113dc57600080fd5b6113e884828501611245565b949350505050565b60006020828403121561140257600080fd5b61138282611213565b602080825282516001600160a01b03168282015282015160c0604083015260009061143960e0840182611329565b90506040840151601f19808584030160608601526114578383611329565b92506060860151915080858403016080860152506114758282611329565b915050608084015160a084015260a084015160c08401528091505092915050565b60006020808301818452808551808352604092508286019150828160051b87010184880160005b8381101561151e57888303603f19018552815180516001600160a01b03168452878101516080898601819052906114f682870182611329565b838a0151878b01526060938401519390960192909252505093860193908601906001016114bd565b509098975050505050505050565b60006020828403121561153e57600080fd5b5035919050565b60006020808301818452808551808352604092508286019150828160051b87010184880160005b8381101561151e57888303603f19018552815180516001600160a01b03168452878101516060898601819052906115a582870182611329565b9289015195890195909552509487019492509086019060010161156c565b6000806000606084860312156115d857600080fd5b833567ffffffffffffffff808211156115f057600080fd5b6115fc87838801611245565b9450602086013591508082111561161257600080fd5b61161e87838801611245565b9350604086013591508082111561163457600080fd5b5061131f86828701611245565b600181811c9082168061165557607f821691505b60208210810361167557634e487b7160e01b600052602260045260246000fd5b50919050565b601f8211156116c557600081815260208120601f850160051c810160208610156116a25750805b601f850160051c820191505b818110156116c1578281556001016116ae565b5050505b505050565b815167ffffffffffffffff8111156116e4576116e461122f565b6116f8816116f28454611641565b8461167b565b602080601f83116001811461172d57600084156117155750858301515b600019600386901b1c1916600185901b1785556116c1565b600085815260208120601f198616915b8281101561175c5788860151825594840194600190910190840161173d565b508582101561177a5787850151600019600388901b60f8161c191681555b5050505050600190811b01905550565b8381526060602082015260006117a36060830185611329565b9050826040830152949350505050565b634e487b7160e01b600052603260045260246000fd5b80820180821115610c0957634e487b7160e01b600052601160045260246000fd5b6080815260006117fd6080830187611329565b9415156020830152506040810192909252606090910152919050565b60408152600061182c6040830185611329565b90508260208301529392505050565b60808152600061184e6080830187611329565b82810360208401526118608187611329565b905082810360408401526118748186611329565b9150508260608301529594505050505056fea2646970667358221220f6f068cb39ceb70ce8647c6f34f6112ef96df576a2490d8c07b924e8124546fc64736f6c6343000814003357656c636f6d6520746f2074686520446563656e7472616c697a656420536f6369616c204e6574776f726b21",
  "linkReferences": {},
  "deployedLinkReferences": {}
}