{"contracts/SocialNetwork.sol":{"SocialNetwork":{"abi":[{"inputs":[],"name":"_postID","outputs":[{"internalType":"uint256","name":"","type":"uint256"}],"stateMutability":"view","type":"function"},{"inputs":[],"name":"_userID","outputs":[{"internalType":"uint256","name":"","type":"uint256"}],"stateMutability":"view","type":"function"},{"inputs":[{"internalType":"string","name":"_comment","type":"string"},{"internalType":"uint256","name":"_postID","type":"uint256"}],"name":"addComment","outputs":[],"stateMutability":"nonpayable","type":"function"},{"inputs":[],"name":"admin","outputs":[{"internalType":"address","name":"","type":"address"}],"stateMutability":"view","type":"function"},{"inputs":[{"internalType":"string","name":"_type","type":"string"},{"internalType":"string","name":"_description","type":"string"},{"internalType":"string","name":"_postURL","type":"string"}],"name":"createPost","outputs":[],"stateMutability":"nonpayable","type":"function"},{"inputs":[{"internalType":"string","name":"_name","type":"string"}],"name":"createProfile","outputs":[],"stateMutability":"nonpayable","type":"function"},{"inputs":[{"internalType":"uint256","name":"id","type":"uint256"}],"name":"deletePost","outputs":[],"stateMutability":"nonpayable","type":"function"},{"inputs":[{"internalType":"uint256","name":"_postID","type":"uint256"},{"internalType":"string","name":"_description","type":"string"}],"name":"editPost","outputs":[],"stateMutability":"nonpayable","type":"function"},{"inputs":[{"internalType":"address","name":"_address","type":"address"}],"name":"follow","outputs":[],"stateMutability":"nonpayable","type":"function"},{"inputs":[],"name":"getAddresses","outputs":[{"internalType":"address[]","name":"","type":"address[]"}],"stateMutability":"view","type":"function"},{"inputs":[],"name":"getAllAppUser","outputs":[{"components":[{"internalType":"address","name":"owner","type":"address"},{"internalType":"string","name":"name","type":"string"},{"internalType":"uint256","name":"timeCreated","type":"uint256"},{"internalType":"uint256","name":"id","type":"uint256"},{"internalType":"uint256","name":"postCount","type":"uint256"},{"internalType":"uint256","name":"followerCount","type":"uint256"},{"internalType":"uint256","name":"followingCount","type":"uint256"}],"internalType":"struct SocialNetwork.AllUserStruck[]","name":"","type":"tuple[]"}],"stateMutability":"view","type":"function"},{"inputs":[],"name":"getAllPosts","outputs":[{"components":[{"internalType":"address","name":"author","type":"address"},{"internalType":"string","name":"postType","type":"string"},{"internalType":"string","name":"postDescription","type":"string"},{"internalType":"string","name":"postURL","type":"string"},{"internalType":"uint256","name":"timeCreated","type":"uint256"},{"internalType":"uint256","name":"postID","type":"uint256"},{"internalType":"uint256","name":"likes","type":"uint256"},{"internalType":"string[]","name":"comments","type":"string[]"}],"internalType":"struct SocialNetwork.Post[]","name":"","type":"tuple[]"}],"stateMutability":"view","type":"function"},{"inputs":[{"internalType":"address","name":"_address","type":"address"}],"name":"getFollowers","outputs":[{"internalType":"address[]","name":"","type":"address[]"}],"stateMutability":"view","type":"function"},{"inputs":[{"internalType":"address","name":"_address","type":"address"}],"name":"getFollowing","outputs":[{"internalType":"address[]","name":"","type":"address[]"}],"stateMutability":"view","type":"function"},{"inputs":[{"internalType":"address","name":"_address","type":"address"}],"name":"getPosts","outputs":[{"components":[{"internalType":"address","name":"author","type":"address"},{"internalType":"string","name":"postType","type":"string"},{"internalType":"string","name":"postDescription","type":"string"},{"internalType":"string","name":"postURL","type":"string"},{"internalType":"uint256","name":"timeCreated","type":"uint256"},{"internalType":"uint256","name":"postID","type":"uint256"},{"internalType":"uint256","name":"likes","type":"uint256"},{"internalType":"string[]","name":"comments","type":"string[]"}],"internalType":"struct SocialNetwork.Post[]","name":"","type":"tuple[]"}],"stateMutability":"view","type":"function"},{"inputs":[{"internalType":"uint256","name":"_postID","type":"uint256"}],"name":"getSinglePost","outputs":[{"internalType":"address","name":"","type":"address"},{"internalType":"string","name":"","type":"string"},{"internalType":"string","name":"","type":"string"},{"internalType":"string","name":"","type":"string"},{"internalType":"uint256","name":"","type":"uint256"},{"internalType":"uint256","name":"","type":"uint256"},{"internalType":"uint256","name":"","type":"uint256"},{"internalType":"string[]","name":"","type":"string[]"}],"stateMutability":"view","type":"function"},{"inputs":[],"name":"getUserCount","outputs":[{"internalType":"uint256","name":"","type":"uint256"}],"stateMutability":"view","type":"function"},{"inputs":[{"internalType":"uint256","name":"_postID","type":"uint256"}],"name":"likePost","outputs":[],"stateMutability":"nonpayable","type":"function"},{"inputs":[{"internalType":"address","name":"","type":"address"}],"name":"profiles","outputs":[{"internalType":"address","name":"owner","type":"address"},{"internalType":"string","name":"name","type":"string"},{"internalType":"uint256","name":"timeCreated","type":"uint256"},{"internalType":"uint256","name":"id","type":"uint256"},{"internalType":"uint256","name":"postCount","type":"uint256"},{"internalType":"uint256","name":"followerCount","type":"uint256"},{"internalType":"uint256","name":"followingCount","type":"uint256"}],"stateMutability":"view","type":"function"},{"inputs":[{"internalType":"address","name":"friend_key","type":"address"}],"name":"readMessage","outputs":[{"components":[{"internalType":"address","name":"sender","type":"address"},{"internalType":"uint256","name":"timestamp","type":"uint256"},{"internalType":"string","name":"msg","type":"string"}],"internalType":"struct SocialNetwork.message[]","name":"","type":"tuple[]"}],"stateMutability":"view","type":"function"},{"inputs":[{"internalType":"address","name":"friend_key","type":"address"},{"internalType":"string","name":"_msg","type":"string"}],"name":"sendMessage","outputs":[],"stateMutability":"nonpayable","type":"function"},{"inputs":[{"internalType":"address","name":"_address","type":"address"}],"name":"unfollow","outputs":[],"stateMutability":"nonpayable","type":"function"},{"inputs":[{"internalType":"uint256","name":"_postID","type":"uint256"}],"name":"unlikePost","outputs":[],"stateMutability":"nonpayable","type":"function"}],"evm":{"bytecode":{"linkReferences":{},"object":"608060405234801561001057600080fd5b50613b17806100206000396000f3fe608060405234801561001057600080fd5b506004361061014d5760003560e01c8063a39fac12116100c3578063de6f24bb1161007c578063de6f24bb146102d3578063e8a4a1eb146102e6578063eea3ae91146102f9578063f851a44014610302578063fa188de91461032d578063fa99654a1461034057600080fd5b8063a39fac1214610243578063b5cb15f714610258578063b86e6f0914610260578063bbe1562714610287578063c2fe2022146102ad578063d8236dff146102c057600080fd5b80634caf9d0b116101155780634caf9d0b146101cb5780634dbf27cc146101de578063725009d3146101f15780638865fb751461020457806396a3d8d71461021b578063a24d41de1461022e57600080fd5b8063015a4ead14610152578063094cd5ee14610167578063255e9c111461017a57806330561100146101a3578063334c3f0e146101b8575b600080fd5b610165610160366004613055565b610353565b005b610165610175366004613077565b610765565b61018d610188366004613055565b6108d0565b60405161019a91906130d6565b60405180910390f35b6101ab610a03565b60405161019a91906131b3565b6101656101c63660046132df565b610ee5565b6101ab6101d9366004613055565b611389565b6101656101ec366004613055565b6116f4565b6101656101ff366004613077565b611a27565b61020d60085481565b60405190815260200161019a565b610165610229366004613321565b611bb2565b610236611d11565b60405161019a919061336d565b61024b611e4a565b60405161019a9190613413565b60015461020d565b61027361026e366004613077565b611eac565b60405161019a989796959493929190613460565b61029a610295366004613055565b612539565b60405161019a9796959493929190613527565b61024b6102bb366004613055565b612606565b61024b6102ce366004613055565b6126ba565b6101656102e1366004613575565b612733565b6101656102f43660046135c8565b61280e565b61020d60075481565b600054610315906001600160a01b031681565b6040516001600160a01b03909116815260200161019a565b61016561033b366004613077565b612af4565b61016561034e366004613662565b612c7b565b336000908152600360205260409020546001600160a01b03166103915760405162461bcd60e51b815260040161038890613695565b60405180910390fd5b6001600160a01b038082166000908152600360205260409020548291166103ca5760405162461bcd60e51b8152600401610388906136ea565b816001600160a01b03811633036103f35760405162461bcd60e51b815260040161038890613721565b3360009081526005602090815260408083206001600160a01b0387811685529252909120541661047d5760405162461bcd60e51b815260206004820152602f60248201527f4552524f523a203c596f7520616c726561647920646f206e6f7420666f6c6c6f60448201526e3b903a3434b990383937b334b6329f60891b6064820152608401610388565b6001600160a01b0383166000908152600460209081526040808320338452909152812080546001600160a01b0319168155906104bc6001830182612e97565b600282016000905560038201600090556004820160009055600582016000905560068201600090556007820160006104f49190612ed4565b610502600883016000612ed4565b50503360009081526005602090815260408083206001600160a01b0387168452909152812080546001600160a01b0319168155906105436001830182612e97565b6002820160009055600382016000905560048201600090556005820160009055600682016000905560078201600061057b9190612ed4565b610589600883016000612ed4565b505060005b6001600160a01b038416600090815260036020526040902060050154811015610682576001600160a01b03841660009081526003602052604090206007018054339190839081106105e1576105e161376b565b6000918252602090912001546001600160a01b031603610670576001600160a01b03841660009081526003602052604090206007018054829081106106285761062861376b565b6000918252602080832090910180546001600160a01b03191690556001600160a01b0386168252600390526040812060050180549161066683613797565b9190505550610682565b8061067a816137ae565b91505061058e565b5060005b3360009081526003602052604090206006015481101561075f5733600090815260036020526040902060080180546001600160a01b0386169190839081106106d0576106d061376b565b6000918252602090912001546001600160a01b03160361074d5733600090815260036020526040902060080180548290811061070e5761070e61376b565b6000918252602080832090910180546001600160a01b0319169055338252600390526040812060060180549161074383613797565b919050555061075f565b80610757816137ae565b915050610686565b50505050565b336000908152600360205260409020546001600160a01b031661079a5760405162461bcd60e51b815260040161038890613695565b3360009081526006602052604081208054839081106107bb576107bb61376b565b60009182526020909120600890910201546001600160a01b0316036108185760405162461bcd60e51b8152602060048201526013602482015272141bdcdd08191bd95cc81b9bdd08195e1a5cdd606a1b6044820152606401610388565b3360009081526006602052604090208054829081106108395761083961376b565b60009182526020822060089091020180546001600160a01b0319168155906108646001830182612e97565b610872600283016000612e97565b610880600383016000612e97565b6004820160009055600582016000905560068201600090556007820160006108a89190612ef2565b50503360009081526003602052604081206004018054916108c883613797565b919050555050565b606060006108de3384612e00565b905060096000828152602001908152602001600020805480602002602001604051908101604052809291908181526020016000905b828210156109f7576000848152602090819020604080516060810182526003860290920180546001600160a01b0316835260018101549383019390935260028301805492939291840191610966906137c7565b80601f0160208091040260200160405190810160405280929190818152602001828054610992906137c7565b80156109df5780601f106109b4576101008083540402835291602001916109df565b820191906000526020600020905b8154815290600101906020018083116109c257829003601f168201915b50505050508152505081526020019060010190610913565b50505050915050919050565b60606000805b600154811015610a6d576006600060018381548110610a2a57610a2a61376b565b60009182526020808320909101546001600160a01b03168352820192909252604001902054610a5990836137fb565b915080610a65816137ae565b915050610a09565b5060008167ffffffffffffffff811115610a8957610a8961380e565b604051908082528060200260200182016040528015610b0b57816020015b610af860405180610100016040528060006001600160a01b03168152602001606081526020016060815260200160608152602001600081526020016000815260200160008152602001606081525090565b815260200190600190039081610aa75790505b5090506000805b600154811015610edc5760005b6006600060018481548110610b3657610b3661376b565b60009182526020808320909101546001600160a01b03168352820192909252604001902054811015610ec9576006600060018481548110610b7957610b7961376b565b60009182526020808320909101546001600160a01b031683528201929092526040019020805482908110610baf57610baf61376b565b600091825260209182902060408051610100810190915260089092020180546001600160a01b031682526001810180549293919291840191610bf0906137c7565b80601f0160208091040260200160405190810160405280929190818152602001828054610c1c906137c7565b8015610c695780601f10610c3e57610100808354040283529160200191610c69565b820191906000526020600020905b815481529060010190602001808311610c4c57829003601f168201915b50505050508152602001600282018054610c82906137c7565b80601f0160208091040260200160405190810160405280929190818152602001828054610cae906137c7565b8015610cfb5780601f10610cd057610100808354040283529160200191610cfb565b820191906000526020600020905b815481529060010190602001808311610cde57829003601f168201915b50505050508152602001600382018054610d14906137c7565b80601f0160208091040260200160405190810160405280929190818152602001828054610d40906137c7565b8015610d8d5780601f10610d6257610100808354040283529160200191610d8d565b820191906000526020600020905b815481529060010190602001808311610d7057829003601f168201915b5050505050815260200160048201548152602001600582015481526020016006820154815260200160078201805480602002602001604051908101604052809291908181526020016000905b82821015610e85578382906000526020600020018054610df8906137c7565b80601f0160208091040260200160405190810160405280929190818152602001828054610e24906137c7565b8015610e715780601f10610e4657610100808354040283529160200191610e71565b820191906000526020600020905b815481529060010190602001808311610e5457829003601f168201915b505050505081526020019060010190610dd9565b5050505081525050848481518110610e9f57610e9f61376b565b6020908102919091010152610eb56001846137fb565b925080610ec1816137ae565b915050610b1f565b5080610ed4816137ae565b915050610b12565b50909392505050565b6040805160008152602081018083528151902084928492610f0a918591859101613824565b6040516020818303038152906040528051906020012003610f6d5760405162461bcd60e51b815260206004820152601e60248201527f4552524f523a203c496e7075742063616e6e6f7420626520656d7074793e00006044820152606401610388565b336000908152600360205260409020546001600160a01b031615610fe75760405162461bcd60e51b815260206004820152602b60248201527f4552524f523a203c596f75206861766520616c7265616479206372656174656460448201526a103090383937b334b6329f60a91b6064820152608401610388565b60006001600160a01b031660028585604051611004929190613824565b908152604051908190036020019020546001600160a01b03161461106a5760405162461bcd60e51b815260206004820152601760248201527f4552524f523a203c557365726e616d652074616b656e3e0000000000000000006044820152606401610388565b6008805490600061107a836137ae565b909155505060085460405133906002906110979088908890613824565b908152602001604051809103902060006101000a8154816001600160a01b0302191690836001600160a01b03160217905550604051806101200160405280336001600160a01b0316815260200186868080601f016020809104026020016040519081016040528093929190818152602001838380828437600092018290525093855250504260208401525060408201849052606082018190526080820181905260a0820181905260c09091019060405190808252806020026020018201604052801561116d578160200160208202803683370190505b508152602001600060405190808252806020026020018201604052801561119e578160200160208202803683370190505b509052336000908152600360209081526040909120825181546001600160a01b0319166001600160a01b039091161781559082015160018201906111e29082613898565b5060408201516002820155606082015160038201556080820151600482015560a0820151600582015560c0820151600682015560e08201518051611230916007840191602090910190612f10565b50610100820151805161124d916008840191602090910190612f10565b50506001805480820182556000919091527fb10e2d527612073b26eecdfd717e6a320cf44b4afac2b0732d9fcbe2b7fa0cf60180546001600160a01b031916339081179091556040805160e08101825291825280516020601f8901819004810282018101909252878152600a9350828201918990899081908401838280828437600092018290525093855250504260208085019190915260408401879052606084018390526080840183905260a09093018290525083546001808201865594825290829020835160079092020180546001600160a01b0319166001600160a01b0390921691909117815590820151919290919082019061134d9082613898565b5060408201518160020155606082015181600301556080820151816004015560a0820151816005015560c0820151816006015550505050505050565b6001600160a01b038082166000908152600360205260409020546060918391166113c55760405162461bcd60e51b8152600401610388906136ea565b6001600160a01b038316600090815260066020908152604080832080548251818502810185019093528083529193909284015b828210156109f75760008481526020908190206040805161010081019091526008850290910180546001600160a01b031682526001810180549293919291840191611442906137c7565b80601f016020809104026020016040519081016040528092919081815260200182805461146e906137c7565b80156114bb5780601f10611490576101008083540402835291602001916114bb565b820191906000526020600020905b81548152906001019060200180831161149e57829003601f168201915b505050505081526020016002820180546114d4906137c7565b80601f0160208091040260200160405190810160405280929190818152602001828054611500906137c7565b801561154d5780601f106115225761010080835404028352916020019161154d565b820191906000526020600020905b81548152906001019060200180831161153057829003601f168201915b50505050508152602001600382018054611566906137c7565b80601f0160208091040260200160405190810160405280929190818152602001828054611592906137c7565b80156115df5780601f106115b4576101008083540402835291602001916115df565b820191906000526020600020905b8154815290600101906020018083116115c257829003601f168201915b5050505050815260200160048201548152602001600582015481526020016006820154815260200160078201805480602002602001604051908101604052809291908181526020016000905b828210156116d757838290600052602060002001805461164a906137c7565b80601f0160208091040260200160405190810160405280929190818152602001828054611676906137c7565b80156116c35780601f10611698576101008083540402835291602001916116c3565b820191906000526020600020905b8154815290600101906020018083116116a657829003601f168201915b50505050508152602001906001019061162b565b5050505081525050815260200190600101906113f8565b50919050565b336000908152600360205260409020546001600160a01b03166117295760405162461bcd60e51b815260040161038890613695565b6001600160a01b038082166000908152600360205260409020548291166117625760405162461bcd60e51b8152600401610388906136ea565b816001600160a01b038116330361178b5760405162461bcd60e51b815260040161038890613721565b3360009081526005602090815260408083206001600160a01b038781168552925290912054161561180f5760405162461bcd60e51b815260206004820152602860248201527f4552524f523a203c596f7520616c726561647920666f6c6c6f77207468697320604482015267383937b334b6329f60c11b6064820152608401610388565b3360008181526003602090815260408083206001600160a01b0388811685526004845282852095855294909252909120815481546001600160a01b03191693169290921782559060018082019061186890840182613952565b50600282015481600201556003820154816003015560048201548160040155600582015481600501556006820154816006015560078201816007019080546118b1929190612f75565b50600882810180546118c69284019190612f75565b5050506001600160a01b03808416600081815260036020908152604080832033845260058352818420948452939091529020815481546001600160a01b03191693169290921782559060018082019061192190840182613952565b506002820154816002015560038201548160030155600482015481600401556005820154816005015560068201548160060155600782018160070190805461196a929190612f75565b506008828101805461197f9284019190612f75565b5050506001600160a01b038316600081815260036020908152604080832060078101805460018082018355918652848620018054336001600160a01b0319918216811790925590865292852060080180549182018155855292842090920180549091168417905591815260059091018054916119fa836137ae565b9091555050336000908152600360205260408120600601805491611a1d836137ae565b9190505550505050565b336000908152600360205260409020546001600160a01b0316611a5c5760405162461bcd60e51b815260040161038890613695565b60005b600154811015611bae5760005b6006600060018481548110611a8357611a8361376b565b60009182526020808320909101546001600160a01b03168352820192909252604001902054811015611b9b57826006600060018581548110611ac757611ac761376b565b60009182526020808320909101546001600160a01b031683528201929092526040019020805483908110611afd57611afd61376b565b90600052602060002090600802016005015403611b89576006600060018481548110611b2b57611b2b61376b565b60009182526020808320909101546001600160a01b031683528201929092526040019020805482908110611b6157611b6161376b565b600091825260208220600660089092020101805491611b7f836137ae565b9190505550611b9b565b80611b93816137ae565b915050611a6c565b5080611ba6816137ae565b915050611a5f565b5050565b60005b60015481101561075f5760005b6006600060018481548110611bd957611bd961376b565b60009182526020808320909101546001600160a01b03168352820192909252604001902054811015611cfe57826006600060018581548110611c1d57611c1d61376b565b60009182526020808320909101546001600160a01b031683528201929092526040019020805483908110611c5357611c5361376b565b90600052602060002090600802016005015403611cec576006600060018481548110611c8157611c8161376b565b60009182526020808320909101546001600160a01b031683528201929092526040019020805482908110611cb757611cb761376b565b600091825260208083206007600890930201919091018054600181018255908352912001611ce6858783613a27565b50611cfe565b80611cf6816137ae565b915050611bc2565b5080611d09816137ae565b915050611bb5565b6060600a805480602002602001604051908101604052809291908181526020016000905b82821015611e415760008481526020908190206040805160e081019091526007850290910180546001600160a01b031682526001810180549293919291840191611d7e906137c7565b80601f0160208091040260200160405190810160405280929190818152602001828054611daa906137c7565b8015611df75780601f10611dcc57610100808354040283529160200191611df7565b820191906000526020600020905b815481529060010190602001808311611dda57829003601f168201915b505050505081526020016002820154815260200160038201548152602001600482015481526020016005820154815260200160068201548152505081526020019060010190611d35565b50505050905090565b60606001805480602002602001604051908101604052809291908181526020018280548015611ea257602002820191906000526020600020905b81546001600160a01b03168152600190910190602001808311611e84575b5050505050905090565b600060608060606000806000606060005b60015481101561252c5760005b6006600060018481548110611ee157611ee161376b565b60009182526020808320909101546001600160a01b03168352820192909252604001902054811015612519578a6006600060018581548110611f2557611f2561376b565b60009182526020808320909101546001600160a01b031683528201929092526040019020805483908110611f5b57611f5b61376b565b90600052602060002090600802016005015403612507576006600060018481548110611f8957611f8961376b565b60009182526020808320909101546001600160a01b031683528201929092526040019020805482908110611fbf57611fbf61376b565b906000526020600020906008020160000160009054906101000a90046001600160a01b03166006600060018581548110611ffb57611ffb61376b565b60009182526020808320909101546001600160a01b0316835282019290925260400190208054839081106120315761203161376b565b906000526020600020906008020160010160066000600186815481106120595761205961376b565b60009182526020808320909101546001600160a01b03168352820192909252604001902080548490811061208f5761208f61376b565b906000526020600020906008020160020160066000600187815481106120b7576120b761376b565b60009182526020808320909101546001600160a01b0316835282019290925260400190208054859081106120ed576120ed61376b565b906000526020600020906008020160030160066000600188815481106121155761211561376b565b60009182526020808320909101546001600160a01b03168352820192909252604001902080548690811061214b5761214b61376b565b90600052602060002090600802016004015460066000600189815481106121745761217461376b565b60009182526020808320909101546001600160a01b0316835282019290925260400190208054879081106121aa576121aa61376b565b9060005260206000209060080201600501546006600060018a815481106121d3576121d361376b565b60009182526020808320909101546001600160a01b0316835282019290925260400190208054889081106122095761220961376b565b9060005260206000209060080201600601546006600060018b815481106122325761223261376b565b60009182526020808320909101546001600160a01b0316835282019290925260400190208054899081106122685761226861376b565b9060005260206000209060080201600701868054612285906137c7565b80601f01602080910402602001604051908101604052809291908181526020018280546122b1906137c7565b80156122fe5780601f106122d3576101008083540402835291602001916122fe565b820191906000526020600020905b8154815290600101906020018083116122e157829003601f168201915b50505050509650858054612311906137c7565b80601f016020809104026020016040519081016040528092919081815260200182805461233d906137c7565b801561238a5780601f1061235f5761010080835404028352916020019161238a565b820191906000526020600020905b81548152906001019060200180831161236d57829003601f168201915b5050505050955084805461239d906137c7565b80601f01602080910402602001604051908101604052809291908181526020018280546123c9906137c7565b80156124165780601f106123eb57610100808354040283529160200191612416565b820191906000526020600020905b8154815290600101906020018083116123f957829003601f168201915b5050505050945080805480602002602001604051908101604052809291908181526020016000905b828210156124ea57838290600052602060002001805461245d906137c7565b80601f0160208091040260200160405190810160405280929190818152602001828054612489906137c7565b80156124d65780601f106124ab576101008083540402835291602001916124d6565b820191906000526020600020905b8154815290600101906020018083116124b957829003601f168201915b50505050508152602001906001019061243e565b50505050905099509950995099509950995099509950505061252e565b80612511816137ae565b915050611eca565b5080612524816137ae565b915050611ebd565b505b919395975091939597565b600360205260009081526040902080546001820180546001600160a01b039092169291612565906137c7565b80601f0160208091040260200160405190810160405280929190818152602001828054612591906137c7565b80156125de5780601f106125b3576101008083540402835291602001916125de565b820191906000526020600020905b8154815290600101906020018083116125c157829003601f168201915b5050505050908060020154908060030154908060040154908060050154908060060154905087565b6001600160a01b038082166000908152600360205260409020546060918391166126425760405162461bcd60e51b8152600401610388906136ea565b6001600160a01b038316600090815260036020908152604091829020600701805483518184028101840190945280845290918301828280156126ad57602002820191906000526020600020905b81546001600160a01b0316815260019091019060200180831161268f575b5050505050915050919050565b6001600160a01b03811660009081526003602090815260409182902060080180548351818402810184019094528084526060939283018282801561272757602002820191906000526020600020905b81546001600160a01b03168152600190910190602001808311612709575b50505050509050919050565b600061273f3385612e00565b905060006040518060600160405280336001600160a01b0316815260200142815260200185858080601f016020809104026020016040519081016040528093929190818152602001838380828437600092018290525093909452505084815260096020908152604080832080546001808201835591855293839020865160039095020180546001600160a01b0319166001600160a01b039095169490941784559185015191830191909155830151929350839290915060028201906128049082613898565b5050505050505050565b336000908152600360205260409020546001600160a01b03166128435760405162461bcd60e51b815260040161038890613695565b6040805160008152602081018083528151902088928892612868918591859101613824565b60405160208183030381529060405280519060200120036128cb5760405162461bcd60e51b815260206004820152601e60248201527f4552524f523a203c496e7075742063616e6e6f7420626520656d7074793e00006044820152606401610388565b600780549060006128db836137ae565b9091555050600754604080516101008101825233815281516020601f8c018190048102820181019093528a815260009280830191908d908d9081908401838280828437600092019190915250505090825250604080516020601f8c018190048102820181019092528a815291810191908b908b9081908401838280828437600092019190915250505090825250604080516020601f8a0181900481028201810190925288815291810191908990899081908401838280828437600092018290525093855250504260208401525060408201859052606082018190526080909101906040519080825280602002602001820160405280156129ef57816020015b60608152602001906001900390816129da5790505b50905280516001600160a01b039081166000908152600660209081526040822080546001808201835591845292829020855160089094020180546001600160a01b03191693909416929092178355830151929350839290820190612a539082613898565b5060408201516002820190612a689082613898565b5060608201516003820190612a7d9082613898565b506080820151600482015560a0820151600582015560c0820151600682015560e08201518051612ab7916007840191602090910190612fb5565b505081516001600160a01b031660009081526003602052604081206004018054925090612ae3836137ae565b919050555050505050505050505050565b336000908152600360205260409020546001600160a01b0316612b295760405162461bcd60e51b815260040161038890613695565b60005b600154811015611bae5760005b6006600060018481548110612b5057612b5061376b565b60009182526020808320909101546001600160a01b03168352820192909252604001902054811015612c6857826006600060018581548110612b9457612b9461376b565b60009182526020808320909101546001600160a01b031683528201929092526040019020805483908110612bca57612bca61376b565b90600052602060002090600802016005015403612c56576006600060018481548110612bf857612bf861376b565b60009182526020808320909101546001600160a01b031683528201929092526040019020805482908110612c2e57612c2e61376b565b600091825260208220600660089092020101805491612c4c83613797565b9190505550612c68565b80612c60816137ae565b915050612b39565b5080612c73816137ae565b915050612b2c565b336000908152600360205260409020546001600160a01b0316612cb05760405162461bcd60e51b815260040161038890613695565b60005b60015481101561075f5760005b6006600060018481548110612cd757612cd761376b565b60009182526020808320909101546001600160a01b03168352820192909252604001902054811015612ded57846006600060018581548110612d1b57612d1b61376b565b60009182526020808320909101546001600160a01b031683528201929092526040019020805483908110612d5157612d5161376b565b90600052602060002090600802016005015403612ddb5783836006600060018681548110612d8157612d8161376b565b60009182526020808320909101546001600160a01b031683528201929092526040019020805484908110612db757612db761376b565b90600052602060002090600802016002019182612dd5929190613a27565b50612ded565b80612de5816137ae565b915050612cc0565b5080612df8816137ae565b915050612cb3565b6000816001600160a01b0316836001600160a01b03161015612e63576040516bffffffffffffffffffffffff19606085811b8216602084015284901b1660348201526048015b604051602081830303815290604052805190602001209050612e91565b6040516bffffffffffffffffffffffff19606084811b8216602084015285901b166034820152604801612e46565b92915050565b508054612ea3906137c7565b6000825580601f10612eb3575050565b601f016020900490600052602060002090810190612ed19190613007565b50565b5080546000825590600052602060002090810190612ed19190613007565b5080546000825590600052602060002090810190612ed1919061301c565b828054828255906000526020600020908101928215612f65579160200282015b82811115612f6557825182546001600160a01b0319166001600160a01b03909116178255602090920191600190910190612f30565b50612f71929150613007565b5090565b828054828255906000526020600020908101928215612f655760005260206000209182015b82811115612f65578254825591600101919060010190612f9a565b828054828255906000526020600020908101928215612ffb579160200282015b82811115612ffb5782518290612feb9082613898565b5091602001919060010190612fd5565b50612f7192915061301c565b5b80821115612f715760008155600101613008565b80821115612f715760006130308282612e97565b5060010161301c565b80356001600160a01b038116811461305057600080fd5b919050565b60006020828403121561306757600080fd5b61307082613039565b9392505050565b60006020828403121561308957600080fd5b5035919050565b6000815180845260005b818110156130b65760208185018101518683018201520161309a565b506000602082860101526020601f19601f83011685010191505092915050565b60006020808301818452808551808352604092508286019150828160051b87010184880160005b8381101561315057888303603f19018552815180516001600160a01b031684528781015188850152860151606087850181905261313c81860183613090565b9689019694505050908601906001016130fd565b509098975050505050505050565b600081518084526020808501808196508360051b8101915082860160005b858110156131a6578284038952613194848351613090565b9885019893509084019060010161317c565b5091979650505050505050565b60006020808301818452808551808352604092508286019150828160051b87010184880160005b8381101561315057888303603f19018552815180516001600160a01b0316845261010088820151818a87015261321282870182613090565b915050878201518582038987015261322a8282613090565b915050606080830151868303828801526132448382613090565b6080858101519089015260a0808601519089015260c0808601519089015260e09485015188820395890195909552925061328291508290508361315e565b9689019694505050908601906001016131da565b60008083601f8401126132a857600080fd5b50813567ffffffffffffffff8111156132c057600080fd5b6020830191508360208285010111156132d857600080fd5b9250929050565b600080602083850312156132f257600080fd5b823567ffffffffffffffff81111561330957600080fd5b61331585828601613296565b90969095509350505050565b60008060006040848603121561333657600080fd5b833567ffffffffffffffff81111561334d57600080fd5b61335986828701613296565b909790965060209590950135949350505050565b60006020808301818452808551808352604092508286019150828160051b87010184880160005b8381101561315057888303603f19018552815180516001600160a01b031684528781015160e0898601819052906133cd82870182613090565b838a0151878b0152606080850151908801526080808501519088015260a0808501519088015260c093840151939096019290925250509386019390860190600101613394565b6020808252825182820181905260009190848201906040850190845b818110156134545783516001600160a01b03168352928401929184019160010161342f565b50909695505050505050565b6001600160a01b03891681526101006020808301829052600091906134878483018c613090565b9150838203604085015261349b828b613090565b915083820360608501526134af828a613090565b91508760808501528660a08501528560c085015283820360e08501528185518084528284019150828160051b85010183880160005b8381101561351257601f19878403018552613500838351613090565b948601949250908501906001016134e4565b50909f9e505050505050505050505050505050565b6001600160a01b038816815260e06020820181905260009061354b90830189613090565b6040830197909752506060810194909452608084019290925260a083015260c09091015292915050565b60008060006040848603121561358a57600080fd5b61359384613039565b9250602084013567ffffffffffffffff8111156135af57600080fd5b6135bb86828701613296565b9497909650939450505050565b600080600080600080606087890312156135e157600080fd5b863567ffffffffffffffff808211156135f957600080fd5b6136058a838b01613296565b9098509650602089013591508082111561361e57600080fd5b61362a8a838b01613296565b9096509450604089013591508082111561364357600080fd5b5061365089828a01613296565b979a9699509497509295939492505050565b60008060006040848603121561367757600080fd5b83359250602084013567ffffffffffffffff8111156135af57600080fd5b60208082526035908201527f4552524f523a203c4d7573742063726561746520612070726f66696c6520746f604082015274103832b93337b936903a3434b99030b1ba34b7b71f60591b606082015260800190565b6020808252601f908201527f4552524f523a203c50726f66696c6520646f6573206e6f742065786973743e00604082015260600190565b6020808252602a908201527f4552524f52203c596f752063616e6e6f7420666f6c6c6f772f756e666f6c6c6f6040820152693b903cb7bab939b2b63360b11b606082015260800190565b634e487b7160e01b600052603260045260246000fd5b634e487b7160e01b600052601160045260246000fd5b6000816137a6576137a6613781565b506000190190565b6000600182016137c0576137c0613781565b5060010190565b600181811c908216806137db57607f821691505b6020821081036116ee57634e487b7160e01b600052602260045260246000fd5b80820180821115612e9157612e91613781565b634e487b7160e01b600052604160045260246000fd5b8183823760009101908152919050565b601f82111561387e57600081815260208120601f850160051c8101602086101561385b5750805b601f850160051c820191505b8181101561387a57828155600101613867565b5050505b505050565b600019600383901b1c191660019190911b1790565b815167ffffffffffffffff8111156138b2576138b261380e565b6138c6816138c084546137c7565b84613834565b602080601f8311600181146138f557600084156138e35750858301515b6138ed8582613883565b86555061387a565b600085815260208120601f198616915b8281101561392457888601518255948401946001909101908401613905565b50858210156139425787850151600019600388901b60f8161c191681555b5050505050600190811b01905550565b81810361395d575050565b61396782546137c7565b67ffffffffffffffff81111561397f5761397f61380e565b61398d816138c084546137c7565b6000601f8211600181146139bb57600083156139a95750848201545b6139b38482613883565b855550613a20565b600085815260209020601f19841690600086815260209020845b838110156139f557828601548255600195860195909101906020016139d5565b5085831015613a135781850154600019600388901b60f8161c191681555b50505060018360011b0184555b5050505050565b67ffffffffffffffff831115613a3f57613a3f61380e565b613a5383613a4d83546137c7565b83613834565b6000601f841160018114613a815760008515613a6f5750838201355b613a798682613883565b845550613a20565b600083815260209020601f19861690835b82811015613ab25786850135825560209485019460019092019101613a92565b5086821015613acf5760001960f88860031b161c19848701351681555b505060018560011b018355505050505056fea2646970667358221220162c5426cda366063caa485d885ff30c39071252f4de903e5bc5a40cbd5e364564736f6c63430008140033","opcodes":"PUSH1 0x80 PUSH1 0x40 MSTORE CALLVALUE DUP1 ISZERO PUSH2 0x10 JUMPI PUSH1 0x0 DUP1 REVERT JUMPDEST POP PUSH2 0x3B17 DUP1 PUSH2 0x20 PUSH1 0x0 CODECOPY PUSH1 0x0 RETURN INVALID PUSH1 0x80 PUSH1 0x40 MSTORE CALLVALUE DUP1 ISZERO PUSH2 0x10 JUMPI PUSH1 0x0 DUP1 REVERT JUMPDEST POP PUSH1 0x4 CALLDATASIZE LT PUSH2 0x14D JUMPI PUSH1 0x0 CALLDATALOAD PUSH1 0xE0 SHR DUP1 PUSH4 0xA39FAC12 GT PUSH2 0xC3 JUMPI DUP1 PUSH4 0xDE6F24BB GT PUSH2 0x7C JUMPI DUP1 PUSH4 0xDE6F24BB EQ PUSH2 0x2D3 JUMPI DUP1 PUSH4 0xE8A4A1EB EQ PUSH2 0x2E6 JUMPI DUP1 PUSH4 0xEEA3AE91 EQ PUSH2 0x2F9 JUMPI DUP1 PUSH4 0xF851A440 EQ PUSH2 0x302 JUMPI DUP1 PUSH4 0xFA188DE9 EQ PUSH2 0x32D JUMPI DUP1 PUSH4 0xFA99654A EQ PUSH2 0x340 JUMPI PUSH1 0x0 DUP1 REVERT JUMPDEST DUP1 PUSH4 0xA39FAC12 EQ PUSH2 0x243 JUMPI DUP1 PUSH4 0xB5CB15F7 EQ PUSH2 0x258 JUMPI DUP1 PUSH4 0xB86E6F09 EQ PUSH2 0x260 JUMPI DUP1 PUSH4 0xBBE15627 EQ PUSH2 0x287 JUMPI DUP1 PUSH4 0xC2FE2022 EQ PUSH2 0x2AD JUMPI DUP1 PUSH4 0xD8236DFF EQ PUSH2 0x2C0 JUMPI PUSH1 0x0 DUP1 REVERT JUMPDEST DUP1 PUSH4 0x4CAF9D0B GT PUSH2 0x115 JUMPI DUP1 PUSH4 0x4CAF9D0B EQ PUSH2 0x1CB JUMPI DUP1 PUSH4 0x4DBF27CC EQ PUSH2 0x1DE JUMPI DUP1 PUSH4 0x725009D3 EQ PUSH2 0x1F1 JUMPI DUP1 PUSH4 0x8865FB75 EQ PUSH2 0x204 JUMPI DUP1 PUSH4 0x96A3D8D7 EQ PUSH2 0x21B JUMPI DUP1 PUSH4 0xA24D41DE EQ PUSH2 0x22E JUMPI PUSH1 0x0 DUP1 REVERT JUMPDEST DUP1 PUSH4 0x15A4EAD EQ PUSH2 0x152 JUMPI DUP1 PUSH4 0x94CD5EE EQ PUSH2 0x167 JUMPI DUP1 PUSH4 0x255E9C11 EQ PUSH2 0x17A JUMPI DUP1 PUSH4 0x30561100 EQ PUSH2 0x1A3 JUMPI DUP1 PUSH4 0x334C3F0E EQ PUSH2 0x1B8 JUMPI JUMPDEST PUSH1 0x0 DUP1 REVERT JUMPDEST PUSH2 0x165 PUSH2 0x160 CALLDATASIZE PUSH1 0x4 PUSH2 0x3055 JUMP JUMPDEST PUSH2 0x353 JUMP JUMPDEST STOP JUMPDEST PUSH2 0x165 PUSH2 0x175 CALLDATASIZE PUSH1 0x4 PUSH2 0x3077 JUMP JUMPDEST PUSH2 0x765 JUMP JUMPDEST PUSH2 0x18D PUSH2 0x188 CALLDATASIZE PUSH1 0x4 PUSH2 0x3055 JUMP JUMPDEST PUSH2 0x8D0 JUMP JUMPDEST PUSH1 0x40 MLOAD PUSH2 0x19A SWAP2 SWAP1 PUSH2 0x30D6 JUMP JUMPDEST PUSH1 0x40 MLOAD DUP1 SWAP2 SUB SWAP1 RETURN JUMPDEST PUSH2 0x1AB PUSH2 0xA03 JUMP JUMPDEST PUSH1 0x40 MLOAD PUSH2 0x19A SWAP2 SWAP1 PUSH2 0x31B3 JUMP JUMPDEST PUSH2 0x165 PUSH2 0x1C6 CALLDATASIZE PUSH1 0x4 PUSH2 0x32DF JUMP JUMPDEST PUSH2 0xEE5 JUMP JUMPDEST PUSH2 0x1AB PUSH2 0x1D9 CALLDATASIZE PUSH1 0x4 PUSH2 0x3055 JUMP JUMPDEST PUSH2 0x1389 JUMP JUMPDEST PUSH2 0x165 PUSH2 0x1EC CALLDATASIZE PUSH1 0x4 PUSH2 0x3055 JUMP JUMPDEST PUSH2 0x16F4 JUMP JUMPDEST PUSH2 0x165 PUSH2 0x1FF CALLDATASIZE PUSH1 0x4 PUSH2 0x3077 JUMP JUMPDEST PUSH2 0x1A27 JUMP JUMPDEST PUSH2 0x20D PUSH1 0x8 SLOAD DUP2 JUMP JUMPDEST PUSH1 0x40 MLOAD SWAP1 DUP2 MSTORE PUSH1 0x20 ADD PUSH2 0x19A JUMP JUMPDEST PUSH2 0x165 PUSH2 0x229 CALLDATASIZE PUSH1 0x4 PUSH2 0x3321 JUMP JUMPDEST PUSH2 0x1BB2 JUMP JUMPDEST PUSH2 0x236 PUSH2 0x1D11 JUMP JUMPDEST PUSH1 0x40 MLOAD PUSH2 0x19A SWAP2 SWAP1 PUSH2 0x336D JUMP JUMPDEST PUSH2 0x24B PUSH2 0x1E4A JUMP JUMPDEST PUSH1 0x40 MLOAD PUSH2 0x19A SWAP2 SWAP1 PUSH2 0x3413 JUMP JUMPDEST PUSH1 0x1 SLOAD PUSH2 0x20D JUMP JUMPDEST PUSH2 0x273 PUSH2 0x26E CALLDATASIZE PUSH1 0x4 PUSH2 0x3077 JUMP JUMPDEST PUSH2 0x1EAC JUMP JUMPDEST PUSH1 0x40 MLOAD PUSH2 0x19A SWAP9 SWAP8 SWAP7 SWAP6 SWAP5 SWAP4 SWAP3 SWAP2 SWAP1 PUSH2 0x3460 JUMP JUMPDEST PUSH2 0x29A PUSH2 0x295 CALLDATASIZE PUSH1 0x4 PUSH2 0x3055 JUMP JUMPDEST PUSH2 0x2539 JUMP JUMPDEST PUSH1 0x40 MLOAD PUSH2 0x19A SWAP8 SWAP7 SWAP6 SWAP5 SWAP4 SWAP3 SWAP2 SWAP1 PUSH2 0x3527 JUMP JUMPDEST PUSH2 0x24B PUSH2 0x2BB CALLDATASIZE PUSH1 0x4 PUSH2 0x3055 JUMP JUMPDEST PUSH2 0x2606 JUMP JUMPDEST PUSH2 0x24B PUSH2 0x2CE CALLDATASIZE PUSH1 0x4 PUSH2 0x3055 JUMP JUMPDEST PUSH2 0x26BA JUMP JUMPDEST PUSH2 0x165 PUSH2 0x2E1 CALLDATASIZE PUSH1 0x4 PUSH2 0x3575 JUMP JUMPDEST PUSH2 0x2733 JUMP JUMPDEST PUSH2 0x165 PUSH2 0x2F4 CALLDATASIZE PUSH1 0x4 PUSH2 0x35C8 JUMP JUMPDEST PUSH2 0x280E JUMP JUMPDEST PUSH2 0x20D PUSH1 0x7 SLOAD DUP2 JUMP JUMPDEST PUSH1 0x0 SLOAD PUSH2 0x315 SWAP1 PUSH1 0x1 PUSH1 0x1 PUSH1 0xA0 SHL SUB AND DUP2 JUMP JUMPDEST PUSH1 0x40 MLOAD PUSH1 0x1 PUSH1 0x1 PUSH1 0xA0 SHL SUB SWAP1 SWAP2 AND DUP2 MSTORE PUSH1 0x20 ADD PUSH2 0x19A JUMP JUMPDEST PUSH2 0x165 PUSH2 0x33B CALLDATASIZE PUSH1 0x4 PUSH2 0x3077 JUMP JUMPDEST PUSH2 0x2AF4 JUMP JUMPDEST PUSH2 0x165 PUSH2 0x34E CALLDATASIZE PUSH1 0x4 PUSH2 0x3662 JUMP JUMPDEST PUSH2 0x2C7B JUMP JUMPDEST CALLER PUSH1 0x0 SWAP1 DUP2 MSTORE PUSH1 0x3 PUSH1 0x20 MSTORE PUSH1 0x40 SWAP1 KECCAK256 SLOAD PUSH1 0x1 PUSH1 0x1 PUSH1 0xA0 SHL SUB AND PUSH2 0x391 JUMPI PUSH1 0x40 MLOAD PUSH3 0x461BCD PUSH1 0xE5 SHL DUP2 MSTORE PUSH1 0x4 ADD PUSH2 0x388 SWAP1 PUSH2 0x3695 JUMP JUMPDEST PUSH1 0x40 MLOAD DUP1 SWAP2 SUB SWAP1 REVERT JUMPDEST PUSH1 0x1 PUSH1 0x1 PUSH1 0xA0 SHL SUB DUP1 DUP3 AND PUSH1 0x0 SWAP1 DUP2 MSTORE PUSH1 0x3 PUSH1 0x20 MSTORE PUSH1 0x40 SWAP1 KECCAK256 SLOAD DUP3 SWAP2 AND PUSH2 0x3CA JUMPI PUSH1 0x40 MLOAD PUSH3 0x461BCD PUSH1 0xE5 SHL DUP2 MSTORE PUSH1 0x4 ADD PUSH2 0x388 SWAP1 PUSH2 0x36EA JUMP JUMPDEST DUP2 PUSH1 0x1 PUSH1 0x1 PUSH1 0xA0 SHL SUB DUP2 AND CALLER SUB PUSH2 0x3F3 JUMPI PUSH1 0x40 MLOAD PUSH3 0x461BCD PUSH1 0xE5 SHL DUP2 MSTORE PUSH1 0x4 ADD PUSH2 0x388 SWAP1 PUSH2 0x3721 JUMP JUMPDEST CALLER PUSH1 0x0 SWAP1 DUP2 MSTORE PUSH1 0x5 PUSH1 0x20 SWAP1 DUP2 MSTORE PUSH1 0x40 DUP1 DUP4 KECCAK256 PUSH1 0x1 PUSH1 0x1 PUSH1 0xA0 SHL SUB DUP8 DUP2 AND DUP6 MSTORE SWAP3 MSTORE SWAP1 SWAP2 KECCAK256 SLOAD AND PUSH2 0x47D JUMPI PUSH1 0x40 MLOAD PUSH3 0x461BCD PUSH1 0xE5 SHL DUP2 MSTORE PUSH1 0x20 PUSH1 0x4 DUP3 ADD MSTORE PUSH1 0x2F PUSH1 0x24 DUP3 ADD MSTORE PUSH32 0x4552524F523A203C596F7520616C726561647920646F206E6F7420666F6C6C6F PUSH1 0x44 DUP3 ADD MSTORE PUSH15 0x3B903A3434B990383937B334B6329F PUSH1 0x89 SHL PUSH1 0x64 DUP3 ADD MSTORE PUSH1 0x84 ADD PUSH2 0x388 JUMP JUMPDEST PUSH1 0x1 PUSH1 0x1 PUSH1 0xA0 SHL SUB DUP4 AND PUSH1 0x0 SWAP1 DUP2 MSTORE PUSH1 0x4 PUSH1 0x20 SWAP1 DUP2 MSTORE PUSH1 0x40 DUP1 DUP4 KECCAK256 CALLER DUP5 MSTORE SWAP1 SWAP2 MSTORE DUP2 KECCAK256 DUP1 SLOAD PUSH1 0x1 PUSH1 0x1 PUSH1 0xA0 SHL SUB NOT AND DUP2 SSTORE SWAP1 PUSH2 0x4BC PUSH1 0x1 DUP4 ADD DUP3 PUSH2 0x2E97 JUMP JUMPDEST PUSH1 0x2 DUP3 ADD PUSH1 0x0 SWAP1 SSTORE PUSH1 0x3 DUP3 ADD PUSH1 0x0 SWAP1 SSTORE PUSH1 0x4 DUP3 ADD PUSH1 0x0 SWAP1 SSTORE PUSH1 0x5 DUP3 ADD PUSH1 0x0 SWAP1 SSTORE PUSH1 0x6 DUP3 ADD PUSH1 0x0 SWAP1 SSTORE PUSH1 0x7 DUP3 ADD PUSH1 0x0 PUSH2 0x4F4 SWAP2 SWAP1 PUSH2 0x2ED4 JUMP JUMPDEST PUSH2 0x502 PUSH1 0x8 DUP4 ADD PUSH1 0x0 PUSH2 0x2ED4 JUMP JUMPDEST POP POP CALLER PUSH1 0x0 SWAP1 DUP2 MSTORE PUSH1 0x5 PUSH1 0x20 SWAP1 DUP2 MSTORE PUSH1 0x40 DUP1 DUP4 KECCAK256 PUSH1 0x1 PUSH1 0x1 PUSH1 0xA0 SHL SUB DUP8 AND DUP5 MSTORE SWAP1 SWAP2 MSTORE DUP2 KECCAK256 DUP1 SLOAD PUSH1 0x1 PUSH1 0x1 PUSH1 0xA0 SHL SUB NOT AND DUP2 SSTORE SWAP1 PUSH2 0x543 PUSH1 0x1 DUP4 ADD DUP3 PUSH2 0x2E97 JUMP JUMPDEST PUSH1 0x2 DUP3 ADD PUSH1 0x0 SWAP1 SSTORE PUSH1 0x3 DUP3 ADD PUSH1 0x0 SWAP1 SSTORE PUSH1 0x4 DUP3 ADD PUSH1 0x0 SWAP1 SSTORE PUSH1 0x5 DUP3 ADD PUSH1 0x0 SWAP1 SSTORE PUSH1 0x6 DUP3 ADD PUSH1 0x0 SWAP1 SSTORE PUSH1 0x7 DUP3 ADD PUSH1 0x0 PUSH2 0x57B SWAP2 SWAP1 PUSH2 0x2ED4 JUMP JUMPDEST PUSH2 0x589 PUSH1 0x8 DUP4 ADD PUSH1 0x0 PUSH2 0x2ED4 JUMP JUMPDEST POP POP PUSH1 0x0 JUMPDEST PUSH1 0x1 PUSH1 0x1 PUSH1 0xA0 SHL SUB DUP5 AND PUSH1 0x0 SWAP1 DUP2 MSTORE PUSH1 0x3 PUSH1 0x20 MSTORE PUSH1 0x40 SWAP1 KECCAK256 PUSH1 0x5 ADD SLOAD DUP2 LT ISZERO PUSH2 0x682 JUMPI PUSH1 0x1 PUSH1 0x1 PUSH1 0xA0 SHL SUB DUP5 AND PUSH1 0x0 SWAP1 DUP2 MSTORE PUSH1 0x3 PUSH1 0x20 MSTORE PUSH1 0x40 SWAP1 KECCAK256 PUSH1 0x7 ADD DUP1 SLOAD CALLER SWAP2 SWAP1 DUP4 SWAP1 DUP2 LT PUSH2 0x5E1 JUMPI PUSH2 0x5E1 PUSH2 0x376B JUMP JUMPDEST PUSH1 0x0 SWAP2 DUP3 MSTORE PUSH1 0x20 SWAP1 SWAP2 KECCAK256 ADD SLOAD PUSH1 0x1 PUSH1 0x1 PUSH1 0xA0 SHL SUB AND SUB PUSH2 0x670 JUMPI PUSH1 0x1 PUSH1 0x1 PUSH1 0xA0 SHL SUB DUP5 AND PUSH1 0x0 SWAP1 DUP2 MSTORE PUSH1 0x3 PUSH1 0x20 MSTORE PUSH1 0x40 SWAP1 KECCAK256 PUSH1 0x7 ADD DUP1 SLOAD DUP3 SWAP1 DUP2 LT PUSH2 0x628 JUMPI PUSH2 0x628 PUSH2 0x376B JUMP JUMPDEST PUSH1 0x0 SWAP2 DUP3 MSTORE PUSH1 0x20 DUP1 DUP4 KECCAK256 SWAP1 SWAP2 ADD DUP1 SLOAD PUSH1 0x1 PUSH1 0x1 PUSH1 0xA0 SHL SUB NOT AND SWAP1 SSTORE PUSH1 0x1 PUSH1 0x1 PUSH1 0xA0 SHL SUB DUP7 AND DUP3 MSTORE PUSH1 0x3 SWAP1 MSTORE PUSH1 0x40 DUP2 KECCAK256 PUSH1 0x5 ADD DUP1 SLOAD SWAP2 PUSH2 0x666 DUP4 PUSH2 0x3797 JUMP JUMPDEST SWAP2 SWAP1 POP SSTORE POP PUSH2 0x682 JUMP JUMPDEST DUP1 PUSH2 0x67A DUP2 PUSH2 0x37AE JUMP JUMPDEST SWAP2 POP POP PUSH2 0x58E JUMP JUMPDEST POP PUSH1 0x0 JUMPDEST CALLER PUSH1 0x0 SWAP1 DUP2 MSTORE PUSH1 0x3 PUSH1 0x20 MSTORE PUSH1 0x40 SWAP1 KECCAK256 PUSH1 0x6 ADD SLOAD DUP2 LT ISZERO PUSH2 0x75F JUMPI CALLER PUSH1 0x0 SWAP1 DUP2 MSTORE PUSH1 0x3 PUSH1 0x20 MSTORE PUSH1 0x40 SWAP1 KECCAK256 PUSH1 0x8 ADD DUP1 SLOAD PUSH1 0x1 PUSH1 0x1 PUSH1 0xA0 SHL SUB DUP7 AND SWAP2 SWAP1 DUP4 SWAP1 DUP2 LT PUSH2 0x6D0 JUMPI PUSH2 0x6D0 PUSH2 0x376B JUMP JUMPDEST PUSH1 0x0 SWAP2 DUP3 MSTORE PUSH1 0x20 SWAP1 SWAP2 KECCAK256 ADD SLOAD PUSH1 0x1 PUSH1 0x1 PUSH1 0xA0 SHL SUB AND SUB PUSH2 0x74D JUMPI CALLER PUSH1 0x0 SWAP1 DUP2 MSTORE PUSH1 0x3 PUSH1 0x20 MSTORE PUSH1 0x40 SWAP1 KECCAK256 PUSH1 0x8 ADD DUP1 SLOAD DUP3 SWAP1 DUP2 LT PUSH2 0x70E JUMPI PUSH2 0x70E PUSH2 0x376B JUMP JUMPDEST PUSH1 0x0 SWAP2 DUP3 MSTORE PUSH1 0x20 DUP1 DUP4 KECCAK256 SWAP1 SWAP2 ADD DUP1 SLOAD PUSH1 0x1 PUSH1 0x1 PUSH1 0xA0 SHL SUB NOT AND SWAP1 SSTORE CALLER DUP3 MSTORE PUSH1 0x3 SWAP1 MSTORE PUSH1 0x40 DUP2 KECCAK256 PUSH1 0x6 ADD DUP1 SLOAD SWAP2 PUSH2 0x743 DUP4 PUSH2 0x3797 JUMP JUMPDEST SWAP2 SWAP1 POP SSTORE POP PUSH2 0x75F JUMP JUMPDEST DUP1 PUSH2 0x757 DUP2 PUSH2 0x37AE JUMP JUMPDEST SWAP2 POP POP PUSH2 0x686 JUMP JUMPDEST POP POP POP POP JUMP JUMPDEST CALLER PUSH1 0x0 SWAP1 DUP2 MSTORE PUSH1 0x3 PUSH1 0x20 MSTORE PUSH1 0x40 SWAP1 KECCAK256 SLOAD PUSH1 0x1 PUSH1 0x1 PUSH1 0xA0 SHL SUB AND PUSH2 0x79A JUMPI PUSH1 0x40 MLOAD PUSH3 0x461BCD PUSH1 0xE5 SHL DUP2 MSTORE PUSH1 0x4 ADD PUSH2 0x388 SWAP1 PUSH2 0x3695 JUMP JUMPDEST CALLER PUSH1 0x0 SWAP1 DUP2 MSTORE PUSH1 0x6 PUSH1 0x20 MSTORE PUSH1 0x40 DUP2 KECCAK256 DUP1 SLOAD DUP4 SWAP1 DUP2 LT PUSH2 0x7BB JUMPI PUSH2 0x7BB PUSH2 0x376B JUMP JUMPDEST PUSH1 0x0 SWAP2 DUP3 MSTORE PUSH1 0x20 SWAP1 SWAP2 KECCAK256 PUSH1 0x8 SWAP1 SWAP2 MUL ADD SLOAD PUSH1 0x1 PUSH1 0x1 PUSH1 0xA0 SHL SUB AND SUB PUSH2 0x818 JUMPI PUSH1 0x40 MLOAD PUSH3 0x461BCD PUSH1 0xE5 SHL DUP2 MSTORE PUSH1 0x20 PUSH1 0x4 DUP3 ADD MSTORE PUSH1 0x13 PUSH1 0x24 DUP3 ADD MSTORE PUSH19 0x141BDCDD08191BD95CC81B9BDD08195E1A5CDD PUSH1 0x6A SHL PUSH1 0x44 DUP3 ADD MSTORE PUSH1 0x64 ADD PUSH2 0x388 JUMP JUMPDEST CALLER PUSH1 0x0 SWAP1 DUP2 MSTORE PUSH1 0x6 PUSH1 0x20 MSTORE PUSH1 0x40 SWAP1 KECCAK256 DUP1 SLOAD DUP3 SWAP1 DUP2 LT PUSH2 0x839 JUMPI PUSH2 0x839 PUSH2 0x376B JUMP JUMPDEST PUSH1 0x0 SWAP2 DUP3 MSTORE PUSH1 0x20 DUP3 KECCAK256 PUSH1 0x8 SWAP1 SWAP2 MUL ADD DUP1 SLOAD PUSH1 0x1 PUSH1 0x1 PUSH1 0xA0 SHL SUB NOT AND DUP2 SSTORE SWAP1 PUSH2 0x864 PUSH1 0x1 DUP4 ADD DUP3 PUSH2 0x2E97 JUMP JUMPDEST PUSH2 0x872 PUSH1 0x2 DUP4 ADD PUSH1 0x0 PUSH2 0x2E97 JUMP JUMPDEST PUSH2 0x880 PUSH1 0x3 DUP4 ADD PUSH1 0x0 PUSH2 0x2E97 JUMP JUMPDEST PUSH1 0x4 DUP3 ADD PUSH1 0x0 SWAP1 SSTORE PUSH1 0x5 DUP3 ADD PUSH1 0x0 SWAP1 SSTORE PUSH1 0x6 DUP3 ADD PUSH1 0x0 SWAP1 SSTORE PUSH1 0x7 DUP3 ADD PUSH1 0x0 PUSH2 0x8A8 SWAP2 SWAP1 PUSH2 0x2EF2 JUMP JUMPDEST POP POP CALLER PUSH1 0x0 SWAP1 DUP2 MSTORE PUSH1 0x3 PUSH1 0x20 MSTORE PUSH1 0x40 DUP2 KECCAK256 PUSH1 0x4 ADD DUP1 SLOAD SWAP2 PUSH2 0x8C8 DUP4 PUSH2 0x3797 JUMP JUMPDEST SWAP2 SWAP1 POP SSTORE POP POP JUMP JUMPDEST PUSH1 0x60 PUSH1 0x0 PUSH2 0x8DE CALLER DUP5 PUSH2 0x2E00 JUMP JUMPDEST SWAP1 POP PUSH1 0x9 PUSH1 0x0 DUP3 DUP2 MSTORE PUSH1 0x20 ADD SWAP1 DUP2 MSTORE PUSH1 0x20 ADD PUSH1 0x0 KECCAK256 DUP1 SLOAD DUP1 PUSH1 0x20 MUL PUSH1 0x20 ADD PUSH1 0x40 MLOAD SWAP1 DUP2 ADD PUSH1 0x40 MSTORE DUP1 SWAP3 SWAP2 SWAP1 DUP2 DUP2 MSTORE PUSH1 0x20 ADD PUSH1 0x0 SWAP1 JUMPDEST DUP3 DUP3 LT ISZERO PUSH2 0x9F7 JUMPI PUSH1 0x0 DUP5 DUP2 MSTORE PUSH1 0x20 SWAP1 DUP2 SWAP1 KECCAK256 PUSH1 0x40 DUP1 MLOAD PUSH1 0x60 DUP2 ADD DUP3 MSTORE PUSH1 0x3 DUP7 MUL SWAP1 SWAP3 ADD DUP1 SLOAD PUSH1 0x1 PUSH1 0x1 PUSH1 0xA0 SHL SUB AND DUP4 MSTORE PUSH1 0x1 DUP2 ADD SLOAD SWAP4 DUP4 ADD SWAP4 SWAP1 SWAP4 MSTORE PUSH1 0x2 DUP4 ADD DUP1 SLOAD SWAP3 SWAP4 SWAP3 SWAP2 DUP5 ADD SWAP2 PUSH2 0x966 SWAP1 PUSH2 0x37C7 JUMP JUMPDEST DUP1 PUSH1 0x1F ADD PUSH1 0x20 DUP1 SWAP2 DIV MUL PUSH1 0x20 ADD PUSH1 0x40 MLOAD SWAP1 DUP2 ADD PUSH1 0x40 MSTORE DUP1 SWAP3 SWAP2 SWAP1 DUP2 DUP2 MSTORE PUSH1 0x20 ADD DUP3 DUP1 SLOAD PUSH2 0x992 SWAP1 PUSH2 0x37C7 JUMP JUMPDEST DUP1 ISZERO PUSH2 0x9DF JUMPI DUP1 PUSH1 0x1F LT PUSH2 0x9B4 JUMPI PUSH2 0x100 DUP1 DUP4 SLOAD DIV MUL DUP4 MSTORE SWAP2 PUSH1 0x20 ADD SWAP2 PUSH2 0x9DF JUMP JUMPDEST DUP3 ADD SWAP2 SWAP1 PUSH1 0x0 MSTORE PUSH1 0x20 PUSH1 0x0 KECCAK256 SWAP1 JUMPDEST DUP2 SLOAD DUP2 MSTORE SWAP1 PUSH1 0x1 ADD SWAP1 PUSH1 0x20 ADD DUP1 DUP4 GT PUSH2 0x9C2 JUMPI DUP3 SWAP1 SUB PUSH1 0x1F AND DUP3 ADD SWAP2 JUMPDEST POP POP POP POP POP DUP2 MSTORE POP POP DUP2 MSTORE PUSH1 0x20 ADD SWAP1 PUSH1 0x1 ADD SWAP1 PUSH2 0x913 JUMP JUMPDEST POP POP POP POP SWAP2 POP POP SWAP2 SWAP1 POP JUMP JUMPDEST PUSH1 0x60 PUSH1 0x0 DUP1 JUMPDEST PUSH1 0x1 SLOAD DUP2 LT ISZERO PUSH2 0xA6D JUMPI PUSH1 0x6 PUSH1 0x0 PUSH1 0x1 DUP4 DUP2 SLOAD DUP2 LT PUSH2 0xA2A JUMPI PUSH2 0xA2A PUSH2 0x376B JUMP JUMPDEST PUSH1 0x0 SWAP2 DUP3 MSTORE PUSH1 0x20 DUP1 DUP4 KECCAK256 SWAP1 SWAP2 ADD SLOAD PUSH1 0x1 PUSH1 0x1 PUSH1 0xA0 SHL SUB AND DUP4 MSTORE DUP3 ADD SWAP3 SWAP1 SWAP3 MSTORE PUSH1 0x40 ADD SWAP1 KECCAK256 SLOAD PUSH2 0xA59 SWAP1 DUP4 PUSH2 0x37FB JUMP JUMPDEST SWAP2 POP DUP1 PUSH2 0xA65 DUP2 PUSH2 0x37AE JUMP JUMPDEST SWAP2 POP POP PUSH2 0xA09 JUMP JUMPDEST POP PUSH1 0x0 DUP2 PUSH8 0xFFFFFFFFFFFFFFFF DUP2 GT ISZERO PUSH2 0xA89 JUMPI PUSH2 0xA89 PUSH2 0x380E JUMP JUMPDEST PUSH1 0x40 MLOAD SWAP1 DUP1 DUP3 MSTORE DUP1 PUSH1 0x20 MUL PUSH1 0x20 ADD DUP3 ADD PUSH1 0x40 MSTORE DUP1 ISZERO PUSH2 0xB0B JUMPI DUP2 PUSH1 0x20 ADD JUMPDEST PUSH2 0xAF8 PUSH1 0x40 MLOAD DUP1 PUSH2 0x100 ADD PUSH1 0x40 MSTORE DUP1 PUSH1 0x0 PUSH1 0x1 PUSH1 0x1 PUSH1 0xA0 SHL SUB AND DUP2 MSTORE PUSH1 0x20 ADD PUSH1 0x60 DUP2 MSTORE PUSH1 0x20 ADD PUSH1 0x60 DUP2 MSTORE PUSH1 0x20 ADD PUSH1 0x60 DUP2 MSTORE PUSH1 0x20 ADD PUSH1 0x0 DUP2 MSTORE PUSH1 0x20 ADD PUSH1 0x0 DUP2 MSTORE PUSH1 0x20 ADD PUSH1 0x0 DUP2 MSTORE PUSH1 0x20 ADD PUSH1 0x60 DUP2 MSTORE POP SWAP1 JUMP JUMPDEST DUP2 MSTORE PUSH1 0x20 ADD SWAP1 PUSH1 0x1 SWAP1 SUB SWAP1 DUP2 PUSH2 0xAA7 JUMPI SWAP1 POP JUMPDEST POP SWAP1 POP PUSH1 0x0 DUP1 JUMPDEST PUSH1 0x1 SLOAD DUP2 LT ISZERO PUSH2 0xEDC JUMPI PUSH1 0x0 JUMPDEST PUSH1 0x6 PUSH1 0x0 PUSH1 0x1 DUP5 DUP2 SLOAD DUP2 LT PUSH2 0xB36 JUMPI PUSH2 0xB36 PUSH2 0x376B JUMP JUMPDEST PUSH1 0x0 SWAP2 DUP3 MSTORE PUSH1 0x20 DUP1 DUP4 KECCAK256 SWAP1 SWAP2 ADD SLOAD PUSH1 0x1 PUSH1 0x1 PUSH1 0xA0 SHL SUB AND DUP4 MSTORE DUP3 ADD SWAP3 SWAP1 SWAP3 MSTORE PUSH1 0x40 ADD SWAP1 KECCAK256 SLOAD DUP2 LT ISZERO PUSH2 0xEC9 JUMPI PUSH1 0x6 PUSH1 0x0 PUSH1 0x1 DUP5 DUP2 SLOAD DUP2 LT PUSH2 0xB79 JUMPI PUSH2 0xB79 PUSH2 0x376B JUMP JUMPDEST PUSH1 0x0 SWAP2 DUP3 MSTORE PUSH1 0x20 DUP1 DUP4 KECCAK256 SWAP1 SWAP2 ADD SLOAD PUSH1 0x1 PUSH1 0x1 PUSH1 0xA0 SHL SUB AND DUP4 MSTORE DUP3 ADD SWAP3 SWAP1 SWAP3 MSTORE PUSH1 0x40 ADD SWAP1 KECCAK256 DUP1 SLOAD DUP3 SWAP1 DUP2 LT PUSH2 0xBAF JUMPI PUSH2 0xBAF PUSH2 0x376B JUMP JUMPDEST PUSH1 0x0 SWAP2 DUP3 MSTORE PUSH1 0x20 SWAP2 DUP3 SWAP1 KECCAK256 PUSH1 0x40 DUP1 MLOAD PUSH2 0x100 DUP2 ADD SWAP1 SWAP2 MSTORE PUSH1 0x8 SWAP1 SWAP3 MUL ADD DUP1 SLOAD PUSH1 0x1 PUSH1 0x1 PUSH1 0xA0 SHL SUB AND DUP3 MSTORE PUSH1 0x1 DUP2 ADD DUP1 SLOAD SWAP3 SWAP4 SWAP2 SWAP3 SWAP2 DUP5 ADD SWAP2 PUSH2 0xBF0 SWAP1 PUSH2 0x37C7 JUMP JUMPDEST DUP1 PUSH1 0x1F ADD PUSH1 0x20 DUP1 SWAP2 DIV MUL PUSH1 0x20 ADD PUSH1 0x40 MLOAD SWAP1 DUP2 ADD PUSH1 0x40 MSTORE DUP1 SWAP3 SWAP2 SWAP1 DUP2 DUP2 MSTORE PUSH1 0x20 ADD DUP3 DUP1 SLOAD PUSH2 0xC1C SWAP1 PUSH2 0x37C7 JUMP JUMPDEST DUP1 ISZERO PUSH2 0xC69 JUMPI DUP1 PUSH1 0x1F LT PUSH2 0xC3E JUMPI PUSH2 0x100 DUP1 DUP4 SLOAD DIV MUL DUP4 MSTORE SWAP2 PUSH1 0x20 ADD SWAP2 PUSH2 0xC69 JUMP JUMPDEST DUP3 ADD SWAP2 SWAP1 PUSH1 0x0 MSTORE PUSH1 0x20 PUSH1 0x0 KECCAK256 SWAP1 JUMPDEST DUP2 SLOAD DUP2 MSTORE SWAP1 PUSH1 0x1 ADD SWAP1 PUSH1 0x20 ADD DUP1 DUP4 GT PUSH2 0xC4C JUMPI DUP3 SWAP1 SUB PUSH1 0x1F AND DUP3 ADD SWAP2 JUMPDEST POP POP POP POP POP DUP2 MSTORE PUSH1 0x20 ADD PUSH1 0x2 DUP3 ADD DUP1 SLOAD PUSH2 0xC82 SWAP1 PUSH2 0x37C7 JUMP JUMPDEST DUP1 PUSH1 0x1F ADD PUSH1 0x20 DUP1 SWAP2 DIV MUL PUSH1 0x20 ADD PUSH1 0x40 MLOAD SWAP1 DUP2 ADD PUSH1 0x40 MSTORE DUP1 SWAP3 SWAP2 SWAP1 DUP2 DUP2 MSTORE PUSH1 0x20 ADD DUP3 DUP1 SLOAD PUSH2 0xCAE SWAP1 PUSH2 0x37C7 JUMP JUMPDEST DUP1 ISZERO PUSH2 0xCFB JUMPI DUP1 PUSH1 0x1F LT PUSH2 0xCD0 JUMPI PUSH2 0x100 DUP1 DUP4 SLOAD DIV MUL DUP4 MSTORE SWAP2 PUSH1 0x20 ADD SWAP2 PUSH2 0xCFB JUMP JUMPDEST DUP3 ADD SWAP2 SWAP1 PUSH1 0x0 MSTORE PUSH1 0x20 PUSH1 0x0 KECCAK256 SWAP1 JUMPDEST DUP2 SLOAD DUP2 MSTORE SWAP1 PUSH1 0x1 ADD SWAP1 PUSH1 0x20 ADD DUP1 DUP4 GT PUSH2 0xCDE JUMPI DUP3 SWAP1 SUB PUSH1 0x1F AND DUP3 ADD SWAP2 JUMPDEST POP POP POP POP POP DUP2 MSTORE PUSH1 0x20 ADD PUSH1 0x3 DUP3 ADD DUP1 SLOAD PUSH2 0xD14 SWAP1 PUSH2 0x37C7 JUMP JUMPDEST DUP1 PUSH1 0x1F ADD PUSH1 0x20 DUP1 SWAP2 DIV MUL PUSH1 0x20 ADD PUSH1 0x40 MLOAD SWAP1 DUP2 ADD PUSH1 0x40 MSTORE DUP1 SWAP3 SWAP2 SWAP1 DUP2 DUP2 MSTORE PUSH1 0x20 ADD DUP3 DUP1 SLOAD PUSH2 0xD40 SWAP1 PUSH2 0x37C7 JUMP JUMPDEST DUP1 ISZERO PUSH2 0xD8D JUMPI DUP1 PUSH1 0x1F LT PUSH2 0xD62 JUMPI PUSH2 0x100 DUP1 DUP4 SLOAD DIV MUL DUP4 MSTORE SWAP2 PUSH1 0x20 ADD SWAP2 PUSH2 0xD8D JUMP JUMPDEST DUP3 ADD SWAP2 SWAP1 PUSH1 0x0 MSTORE PUSH1 0x20 PUSH1 0x0 KECCAK256 SWAP1 JUMPDEST DUP2 SLOAD DUP2 MSTORE SWAP1 PUSH1 0x1 ADD SWAP1 PUSH1 0x20 ADD DUP1 DUP4 GT PUSH2 0xD70 JUMPI DUP3 SWAP1 SUB PUSH1 0x1F AND DUP3 ADD SWAP2 JUMPDEST POP POP POP POP POP DUP2 MSTORE PUSH1 0x20 ADD PUSH1 0x4 DUP3 ADD SLOAD DUP2 MSTORE PUSH1 0x20 ADD PUSH1 0x5 DUP3 ADD SLOAD DUP2 MSTORE PUSH1 0x20 ADD PUSH1 0x6 DUP3 ADD SLOAD DUP2 MSTORE PUSH1 0x20 ADD PUSH1 0x7 DUP3 ADD DUP1 SLOAD DUP1 PUSH1 0x20 MUL PUSH1 0x20 ADD PUSH1 0x40 MLOAD SWAP1 DUP2 ADD PUSH1 0x40 MSTORE DUP1 SWAP3 SWAP2 SWAP1 DUP2 DUP2 MSTORE PUSH1 0x20 ADD PUSH1 0x0 SWAP1 JUMPDEST DUP3 DUP3 LT ISZERO PUSH2 0xE85 JUMPI DUP4 DUP3 SWAP1 PUSH1 0x0 MSTORE PUSH1 0x20 PUSH1 0x0 KECCAK256 ADD DUP1 SLOAD PUSH2 0xDF8 SWAP1 PUSH2 0x37C7 JUMP JUMPDEST DUP1 PUSH1 0x1F ADD PUSH1 0x20 DUP1 SWAP2 DIV MUL PUSH1 0x20 ADD PUSH1 0x40 MLOAD SWAP1 DUP2 ADD PUSH1 0x40 MSTORE DUP1 SWAP3 SWAP2 SWAP1 DUP2 DUP2 MSTORE PUSH1 0x20 ADD DUP3 DUP1 SLOAD PUSH2 0xE24 SWAP1 PUSH2 0x37C7 JUMP JUMPDEST DUP1 ISZERO PUSH2 0xE71 JUMPI DUP1 PUSH1 0x1F LT PUSH2 0xE46 JUMPI PUSH2 0x100 DUP1 DUP4 SLOAD DIV MUL DUP4 MSTORE SWAP2 PUSH1 0x20 ADD SWAP2 PUSH2 0xE71 JUMP JUMPDEST DUP3 ADD SWAP2 SWAP1 PUSH1 0x0 MSTORE PUSH1 0x20 PUSH1 0x0 KECCAK256 SWAP1 JUMPDEST DUP2 SLOAD DUP2 MSTORE SWAP1 PUSH1 0x1 ADD SWAP1 PUSH1 0x20 ADD DUP1 DUP4 GT PUSH2 0xE54 JUMPI DUP3 SWAP1 SUB PUSH1 0x1F AND DUP3 ADD SWAP2 JUMPDEST POP POP POP POP POP DUP2 MSTORE PUSH1 0x20 ADD SWAP1 PUSH1 0x1 ADD SWAP1 PUSH2 0xDD9 JUMP JUMPDEST POP POP POP POP DUP2 MSTORE POP POP DUP5 DUP5 DUP2 MLOAD DUP2 LT PUSH2 0xE9F JUMPI PUSH2 0xE9F PUSH2 0x376B JUMP JUMPDEST PUSH1 0x20 SWAP1 DUP2 MUL SWAP2 SWAP1 SWAP2 ADD ADD MSTORE PUSH2 0xEB5 PUSH1 0x1 DUP5 PUSH2 0x37FB JUMP JUMPDEST SWAP3 POP DUP1 PUSH2 0xEC1 DUP2 PUSH2 0x37AE JUMP JUMPDEST SWAP2 POP POP PUSH2 0xB1F JUMP JUMPDEST POP DUP1 PUSH2 0xED4 DUP2 PUSH2 0x37AE JUMP JUMPDEST SWAP2 POP POP PUSH2 0xB12 JUMP JUMPDEST POP SWAP1 SWAP4 SWAP3 POP POP POP JUMP JUMPDEST PUSH1 0x40 DUP1 MLOAD PUSH1 0x0 DUP2 MSTORE PUSH1 0x20 DUP2 ADD DUP1 DUP4 MSTORE DUP2 MLOAD SWAP1 KECCAK256 DUP5 SWAP3 DUP5 SWAP3 PUSH2 0xF0A SWAP2 DUP6 SWAP2 DUP6 SWAP2 ADD PUSH2 0x3824 JUMP JUMPDEST PUSH1 0x40 MLOAD PUSH1 0x20 DUP2 DUP4 SUB SUB DUP2 MSTORE SWAP1 PUSH1 0x40 MSTORE DUP1 MLOAD SWAP1 PUSH1 0x20 ADD KECCAK256 SUB PUSH2 0xF6D JUMPI PUSH1 0x40 MLOAD PUSH3 0x461BCD PUSH1 0xE5 SHL DUP2 MSTORE PUSH1 0x20 PUSH1 0x4 DUP3 ADD MSTORE PUSH1 0x1E PUSH1 0x24 DUP3 ADD MSTORE PUSH32 0x4552524F523A203C496E7075742063616E6E6F7420626520656D7074793E0000 PUSH1 0x44 DUP3 ADD MSTORE PUSH1 0x64 ADD PUSH2 0x388 JUMP JUMPDEST CALLER PUSH1 0x0 SWAP1 DUP2 MSTORE PUSH1 0x3 PUSH1 0x20 MSTORE PUSH1 0x40 SWAP1 KECCAK256 SLOAD PUSH1 0x1 PUSH1 0x1 PUSH1 0xA0 SHL SUB AND ISZERO PUSH2 0xFE7 JUMPI PUSH1 0x40 MLOAD PUSH3 0x461BCD PUSH1 0xE5 SHL DUP2 MSTORE PUSH1 0x20 PUSH1 0x4 DUP3 ADD MSTORE PUSH1 0x2B PUSH1 0x24 DUP3 ADD MSTORE PUSH32 0x4552524F523A203C596F75206861766520616C72656164792063726561746564 PUSH1 0x44 DUP3 ADD MSTORE PUSH11 0x103090383937B334B6329F PUSH1 0xA9 SHL PUSH1 0x64 DUP3 ADD MSTORE PUSH1 0x84 ADD PUSH2 0x388 JUMP JUMPDEST PUSH1 0x0 PUSH1 0x1 PUSH1 0x1 PUSH1 0xA0 SHL SUB AND PUSH1 0x2 DUP6 DUP6 PUSH1 0x40 MLOAD PUSH2 0x1004 SWAP3 SWAP2 SWAP1 PUSH2 0x3824 JUMP JUMPDEST SWAP1 DUP2 MSTORE PUSH1 0x40 MLOAD SWAP1 DUP2 SWAP1 SUB PUSH1 0x20 ADD SWAP1 KECCAK256 SLOAD PUSH1 0x1 PUSH1 0x1 PUSH1 0xA0 SHL SUB AND EQ PUSH2 0x106A JUMPI PUSH1 0x40 MLOAD PUSH3 0x461BCD PUSH1 0xE5 SHL DUP2 MSTORE PUSH1 0x20 PUSH1 0x4 DUP3 ADD MSTORE PUSH1 0x17 PUSH1 0x24 DUP3 ADD MSTORE PUSH32 0x4552524F523A203C557365726E616D652074616B656E3E000000000000000000 PUSH1 0x44 DUP3 ADD MSTORE PUSH1 0x64 ADD PUSH2 0x388 JUMP JUMPDEST PUSH1 0x8 DUP1 SLOAD SWAP1 PUSH1 0x0 PUSH2 0x107A DUP4 PUSH2 0x37AE JUMP JUMPDEST SWAP1 SWAP2 SSTORE POP POP PUSH1 0x8 SLOAD PUSH1 0x40 MLOAD CALLER SWAP1 PUSH1 0x2 SWAP1 PUSH2 0x1097 SWAP1 DUP9 SWAP1 DUP9 SWAP1 PUSH2 0x3824 JUMP JUMPDEST SWAP1 DUP2 MSTORE PUSH1 0x20 ADD PUSH1 0x40 MLOAD DUP1 SWAP2 SUB SWAP1 KECCAK256 PUSH1 0x0 PUSH2 0x100 EXP DUP2 SLOAD DUP2 PUSH1 0x1 PUSH1 0x1 PUSH1 0xA0 SHL SUB MUL NOT AND SWAP1 DUP4 PUSH1 0x1 PUSH1 0x1 PUSH1 0xA0 SHL SUB AND MUL OR SWAP1 SSTORE POP PUSH1 0x40 MLOAD DUP1 PUSH2 0x120 ADD PUSH1 0x40 MSTORE DUP1 CALLER PUSH1 0x1 PUSH1 0x1 PUSH1 0xA0 SHL SUB AND DUP2 MSTORE PUSH1 0x20 ADD DUP7 DUP7 DUP1 DUP1 PUSH1 0x1F ADD PUSH1 0x20 DUP1 SWAP2 DIV MUL PUSH1 0x20 ADD PUSH1 0x40 MLOAD SWAP1 DUP2 ADD PUSH1 0x40 MSTORE DUP1 SWAP4 SWAP3 SWAP2 SWAP1 DUP2 DUP2 MSTORE PUSH1 0x20 ADD DUP4 DUP4 DUP1 DUP3 DUP5 CALLDATACOPY PUSH1 0x0 SWAP3 ADD DUP3 SWAP1 MSTORE POP SWAP4 DUP6 MSTORE POP POP TIMESTAMP PUSH1 0x20 DUP5 ADD MSTORE POP PUSH1 0x40 DUP3 ADD DUP5 SWAP1 MSTORE PUSH1 0x60 DUP3 ADD DUP2 SWAP1 MSTORE PUSH1 0x80 DUP3 ADD DUP2 SWAP1 MSTORE PUSH1 0xA0 DUP3 ADD DUP2 SWAP1 MSTORE PUSH1 0xC0 SWAP1 SWAP2 ADD SWAP1 PUSH1 0x40 MLOAD SWAP1 DUP1 DUP3 MSTORE DUP1 PUSH1 0x20 MUL PUSH1 0x20 ADD DUP3 ADD PUSH1 0x40 MSTORE DUP1 ISZERO PUSH2 0x116D JUMPI DUP2 PUSH1 0x20 ADD PUSH1 0x20 DUP3 MUL DUP1 CALLDATASIZE DUP4 CALLDATACOPY ADD SWAP1 POP JUMPDEST POP DUP2 MSTORE PUSH1 0x20 ADD PUSH1 0x0 PUSH1 0x40 MLOAD SWAP1 DUP1 DUP3 MSTORE DUP1 PUSH1 0x20 MUL PUSH1 0x20 ADD DUP3 ADD PUSH1 0x40 MSTORE DUP1 ISZERO PUSH2 0x119E JUMPI DUP2 PUSH1 0x20 ADD PUSH1 0x20 DUP3 MUL DUP1 CALLDATASIZE DUP4 CALLDATACOPY ADD SWAP1 POP JUMPDEST POP SWAP1 MSTORE CALLER PUSH1 0x0 SWAP1 DUP2 MSTORE PUSH1 0x3 PUSH1 0x20 SWAP1 DUP2 MSTORE PUSH1 0x40 SWAP1 SWAP2 KECCAK256 DUP3 MLOAD DUP2 SLOAD PUSH1 0x1 PUSH1 0x1 PUSH1 0xA0 SHL SUB NOT AND PUSH1 0x1 PUSH1 0x1 PUSH1 0xA0 SHL SUB SWAP1 SWAP2 AND OR DUP2 SSTORE SWAP1 DUP3 ADD MLOAD PUSH1 0x1 DUP3 ADD SWAP1 PUSH2 0x11E2 SWAP1 DUP3 PUSH2 0x3898 JUMP JUMPDEST POP PUSH1 0x40 DUP3 ADD MLOAD PUSH1 0x2 DUP3 ADD SSTORE PUSH1 0x60 DUP3 ADD MLOAD PUSH1 0x3 DUP3 ADD SSTORE PUSH1 0x80 DUP3 ADD MLOAD PUSH1 0x4 DUP3 ADD SSTORE PUSH1 0xA0 DUP3 ADD MLOAD PUSH1 0x5 DUP3 ADD SSTORE PUSH1 0xC0 DUP3 ADD MLOAD PUSH1 0x6 DUP3 ADD SSTORE PUSH1 0xE0 DUP3 ADD MLOAD DUP1 MLOAD PUSH2 0x1230 SWAP2 PUSH1 0x7 DUP5 ADD SWAP2 PUSH1 0x20 SWAP1 SWAP2 ADD SWAP1 PUSH2 0x2F10 JUMP JUMPDEST POP PUSH2 0x100 DUP3 ADD MLOAD DUP1 MLOAD PUSH2 0x124D SWAP2 PUSH1 0x8 DUP5 ADD SWAP2 PUSH1 0x20 SWAP1 SWAP2 ADD SWAP1 PUSH2 0x2F10 JUMP JUMPDEST POP POP PUSH1 0x1 DUP1 SLOAD DUP1 DUP3 ADD DUP3 SSTORE PUSH1 0x0 SWAP2 SWAP1 SWAP2 MSTORE PUSH32 0xB10E2D527612073B26EECDFD717E6A320CF44B4AFAC2B0732D9FCBE2B7FA0CF6 ADD DUP1 SLOAD PUSH1 0x1 PUSH1 0x1 PUSH1 0xA0 SHL SUB NOT AND CALLER SWAP1 DUP2 OR SWAP1 SWAP2 SSTORE PUSH1 0x40 DUP1 MLOAD PUSH1 0xE0 DUP2 ADD DUP3 MSTORE SWAP2 DUP3 MSTORE DUP1 MLOAD PUSH1 0x20 PUSH1 0x1F DUP10 ADD DUP2 SWAP1 DIV DUP2 MUL DUP3 ADD DUP2 ADD SWAP1 SWAP3 MSTORE DUP8 DUP2 MSTORE PUSH1 0xA SWAP4 POP DUP3 DUP3 ADD SWAP2 DUP10 SWAP1 DUP10 SWAP1 DUP2 SWAP1 DUP5 ADD DUP4 DUP3 DUP1 DUP3 DUP5 CALLDATACOPY PUSH1 0x0 SWAP3 ADD DUP3 SWAP1 MSTORE POP SWAP4 DUP6 MSTORE POP POP TIMESTAMP PUSH1 0x20 DUP1 DUP6 ADD SWAP2 SWAP1 SWAP2 MSTORE PUSH1 0x40 DUP5 ADD DUP8 SWAP1 MSTORE PUSH1 0x60 DUP5 ADD DUP4 SWAP1 MSTORE PUSH1 0x80 DUP5 ADD DUP4 SWAP1 MSTORE PUSH1 0xA0 SWAP1 SWAP4 ADD DUP3 SWAP1 MSTORE POP DUP4 SLOAD PUSH1 0x1 DUP1 DUP3 ADD DUP7 SSTORE SWAP5 DUP3 MSTORE SWAP1 DUP3 SWAP1 KECCAK256 DUP4 MLOAD PUSH1 0x7 SWAP1 SWAP3 MUL ADD DUP1 SLOAD PUSH1 0x1 PUSH1 0x1 PUSH1 0xA0 SHL SUB NOT AND PUSH1 0x1 PUSH1 0x1 PUSH1 0xA0 SHL SUB SWAP1 SWAP3 AND SWAP2 SWAP1 SWAP2 OR DUP2 SSTORE SWAP1 DUP3 ADD MLOAD SWAP2 SWAP3 SWAP1 SWAP2 SWAP1 DUP3 ADD SWAP1 PUSH2 0x134D SWAP1 DUP3 PUSH2 0x3898 JUMP JUMPDEST POP PUSH1 0x40 DUP3 ADD MLOAD DUP2 PUSH1 0x2 ADD SSTORE PUSH1 0x60 DUP3 ADD MLOAD DUP2 PUSH1 0x3 ADD SSTORE PUSH1 0x80 DUP3 ADD MLOAD DUP2 PUSH1 0x4 ADD SSTORE PUSH1 0xA0 DUP3 ADD MLOAD DUP2 PUSH1 0x5 ADD SSTORE PUSH1 0xC0 DUP3 ADD MLOAD DUP2 PUSH1 0x6 ADD SSTORE POP POP POP POP POP POP POP JUMP JUMPDEST PUSH1 0x1 PUSH1 0x1 PUSH1 0xA0 SHL SUB DUP1 DUP3 AND PUSH1 0x0 SWAP1 DUP2 MSTORE PUSH1 0x3 PUSH1 0x20 MSTORE PUSH1 0x40 SWAP1 KECCAK256 SLOAD PUSH1 0x60 SWAP2 DUP4 SWAP2 AND PUSH2 0x13C5 JUMPI PUSH1 0x40 MLOAD PUSH3 0x461BCD PUSH1 0xE5 SHL DUP2 MSTORE PUSH1 0x4 ADD PUSH2 0x388 SWAP1 PUSH2 0x36EA JUMP JUMPDEST PUSH1 0x1 PUSH1 0x1 PUSH1 0xA0 SHL SUB DUP4 AND PUSH1 0x0 SWAP1 DUP2 MSTORE PUSH1 0x6 PUSH1 0x20 SWAP1 DUP2 MSTORE PUSH1 0x40 DUP1 DUP4 KECCAK256 DUP1 SLOAD DUP3 MLOAD DUP2 DUP6 MUL DUP2 ADD DUP6 ADD SWAP1 SWAP4 MSTORE DUP1 DUP4 MSTORE SWAP2 SWAP4 SWAP1 SWAP3 DUP5 ADD JUMPDEST DUP3 DUP3 LT ISZERO PUSH2 0x9F7 JUMPI PUSH1 0x0 DUP5 DUP2 MSTORE PUSH1 0x20 SWAP1 DUP2 SWAP1 KECCAK256 PUSH1 0x40 DUP1 MLOAD PUSH2 0x100 DUP2 ADD SWAP1 SWAP2 MSTORE PUSH1 0x8 DUP6 MUL SWAP1 SWAP2 ADD DUP1 SLOAD PUSH1 0x1 PUSH1 0x1 PUSH1 0xA0 SHL SUB AND DUP3 MSTORE PUSH1 0x1 DUP2 ADD DUP1 SLOAD SWAP3 SWAP4 SWAP2 SWAP3 SWAP2 DUP5 ADD SWAP2 PUSH2 0x1442 SWAP1 PUSH2 0x37C7 JUMP JUMPDEST DUP1 PUSH1 0x1F ADD PUSH1 0x20 DUP1 SWAP2 DIV MUL PUSH1 0x20 ADD PUSH1 0x40 MLOAD SWAP1 DUP2 ADD PUSH1 0x40 MSTORE DUP1 SWAP3 SWAP2 SWAP1 DUP2 DUP2 MSTORE PUSH1 0x20 ADD DUP3 DUP1 SLOAD PUSH2 0x146E SWAP1 PUSH2 0x37C7 JUMP JUMPDEST DUP1 ISZERO PUSH2 0x14BB JUMPI DUP1 PUSH1 0x1F LT PUSH2 0x1490 JUMPI PUSH2 0x100 DUP1 DUP4 SLOAD DIV MUL DUP4 MSTORE SWAP2 PUSH1 0x20 ADD SWAP2 PUSH2 0x14BB JUMP JUMPDEST DUP3 ADD SWAP2 SWAP1 PUSH1 0x0 MSTORE PUSH1 0x20 PUSH1 0x0 KECCAK256 SWAP1 JUMPDEST DUP2 SLOAD DUP2 MSTORE SWAP1 PUSH1 0x1 ADD SWAP1 PUSH1 0x20 ADD DUP1 DUP4 GT PUSH2 0x149E JUMPI DUP3 SWAP1 SUB PUSH1 0x1F AND DUP3 ADD SWAP2 JUMPDEST POP POP POP POP POP DUP2 MSTORE PUSH1 0x20 ADD PUSH1 0x2 DUP3 ADD DUP1 SLOAD PUSH2 0x14D4 SWAP1 PUSH2 0x37C7 JUMP JUMPDEST DUP1 PUSH1 0x1F ADD PUSH1 0x20 DUP1 SWAP2 DIV MUL PUSH1 0x20 ADD PUSH1 0x40 MLOAD SWAP1 DUP2 ADD PUSH1 0x40 MSTORE DUP1 SWAP3 SWAP2 SWAP1 DUP2 DUP2 MSTORE PUSH1 0x20 ADD DUP3 DUP1 SLOAD PUSH2 0x1500 SWAP1 PUSH2 0x37C7 JUMP JUMPDEST DUP1 ISZERO PUSH2 0x154D JUMPI DUP1 PUSH1 0x1F LT PUSH2 0x1522 JUMPI PUSH2 0x100 DUP1 DUP4 SLOAD DIV MUL DUP4 MSTORE SWAP2 PUSH1 0x20 ADD SWAP2 PUSH2 0x154D JUMP JUMPDEST DUP3 ADD SWAP2 SWAP1 PUSH1 0x0 MSTORE PUSH1 0x20 PUSH1 0x0 KECCAK256 SWAP1 JUMPDEST DUP2 SLOAD DUP2 MSTORE SWAP1 PUSH1 0x1 ADD SWAP1 PUSH1 0x20 ADD DUP1 DUP4 GT PUSH2 0x1530 JUMPI DUP3 SWAP1 SUB PUSH1 0x1F AND DUP3 ADD SWAP2 JUMPDEST POP POP POP POP POP DUP2 MSTORE PUSH1 0x20 ADD PUSH1 0x3 DUP3 ADD DUP1 SLOAD PUSH2 0x1566 SWAP1 PUSH2 0x37C7 JUMP JUMPDEST DUP1 PUSH1 0x1F ADD PUSH1 0x20 DUP1 SWAP2 DIV MUL PUSH1 0x20 ADD PUSH1 0x40 MLOAD SWAP1 DUP2 ADD PUSH1 0x40 MSTORE DUP1 SWAP3 SWAP2 SWAP1 DUP2 DUP2 MSTORE PUSH1 0x20 ADD DUP3 DUP1 SLOAD PUSH2 0x1592 SWAP1 PUSH2 0x37C7 JUMP JUMPDEST DUP1 ISZERO PUSH2 0x15DF JUMPI DUP1 PUSH1 0x1F LT PUSH2 0x15B4 JUMPI PUSH2 0x100 DUP1 DUP4 SLOAD DIV MUL DUP4 MSTORE SWAP2 PUSH1 0x20 ADD SWAP2 PUSH2 0x15DF JUMP JUMPDEST DUP3 ADD SWAP2 SWAP1 PUSH1 0x0 MSTORE PUSH1 0x20 PUSH1 0x0 KECCAK256 SWAP1 JUMPDEST DUP2 SLOAD DUP2 MSTORE SWAP1 PUSH1 0x1 ADD SWAP1 PUSH1 0x20 ADD DUP1 DUP4 GT PUSH2 0x15C2 JUMPI DUP3 SWAP1 SUB PUSH1 0x1F AND DUP3 ADD SWAP2 JUMPDEST POP POP POP POP POP DUP2 MSTORE PUSH1 0x20 ADD PUSH1 0x4 DUP3 ADD SLOAD DUP2 MSTORE PUSH1 0x20 ADD PUSH1 0x5 DUP3 ADD SLOAD DUP2 MSTORE PUSH1 0x20 ADD PUSH1 0x6 DUP3 ADD SLOAD DUP2 MSTORE PUSH1 0x20 ADD PUSH1 0x7 DUP3 ADD DUP1 SLOAD DUP1 PUSH1 0x20 MUL PUSH1 0x20 ADD PUSH1 0x40 MLOAD SWAP1 DUP2 ADD PUSH1 0x40 MSTORE DUP1 SWAP3 SWAP2 SWAP1 DUP2 DUP2 MSTORE PUSH1 0x20 ADD PUSH1 0x0 SWAP1 JUMPDEST DUP3 DUP3 LT ISZERO PUSH2 0x16D7 JUMPI DUP4 DUP3 SWAP1 PUSH1 0x0 MSTORE PUSH1 0x20 PUSH1 0x0 KECCAK256 ADD DUP1 SLOAD PUSH2 0x164A SWAP1 PUSH2 0x37C7 JUMP JUMPDEST DUP1 PUSH1 0x1F ADD PUSH1 0x20 DUP1 SWAP2 DIV MUL PUSH1 0x20 ADD PUSH1 0x40 MLOAD SWAP1 DUP2 ADD PUSH1 0x40 MSTORE DUP1 SWAP3 SWAP2 SWAP1 DUP2 DUP2 MSTORE PUSH1 0x20 ADD DUP3 DUP1 SLOAD PUSH2 0x1676 SWAP1 PUSH2 0x37C7 JUMP JUMPDEST DUP1 ISZERO PUSH2 0x16C3 JUMPI DUP1 PUSH1 0x1F LT PUSH2 0x1698 JUMPI PUSH2 0x100 DUP1 DUP4 SLOAD DIV MUL DUP4 MSTORE SWAP2 PUSH1 0x20 ADD SWAP2 PUSH2 0x16C3 JUMP JUMPDEST DUP3 ADD SWAP2 SWAP1 PUSH1 0x0 MSTORE PUSH1 0x20 PUSH1 0x0 KECCAK256 SWAP1 JUMPDEST DUP2 SLOAD DUP2 MSTORE SWAP1 PUSH1 0x1 ADD SWAP1 PUSH1 0x20 ADD DUP1 DUP4 GT PUSH2 0x16A6 JUMPI DUP3 SWAP1 SUB PUSH1 0x1F AND DUP3 ADD SWAP2 JUMPDEST POP POP POP POP POP DUP2 MSTORE PUSH1 0x20 ADD SWAP1 PUSH1 0x1 ADD SWAP1 PUSH2 0x162B JUMP JUMPDEST POP POP POP POP DUP2 MSTORE POP POP DUP2 MSTORE PUSH1 0x20 ADD SWAP1 PUSH1 0x1 ADD SWAP1 PUSH2 0x13F8 JUMP JUMPDEST POP SWAP2 SWAP1 POP JUMP JUMPDEST CALLER PUSH1 0x0 SWAP1 DUP2 MSTORE PUSH1 0x3 PUSH1 0x20 MSTORE PUSH1 0x40 SWAP1 KECCAK256 SLOAD PUSH1 0x1 PUSH1 0x1 PUSH1 0xA0 SHL SUB AND PUSH2 0x1729 JUMPI PUSH1 0x40 MLOAD PUSH3 0x461BCD PUSH1 0xE5 SHL DUP2 MSTORE PUSH1 0x4 ADD PUSH2 0x388 SWAP1 PUSH2 0x3695 JUMP JUMPDEST PUSH1 0x1 PUSH1 0x1 PUSH1 0xA0 SHL SUB DUP1 DUP3 AND PUSH1 0x0 SWAP1 DUP2 MSTORE PUSH1 0x3 PUSH1 0x20 MSTORE PUSH1 0x40 SWAP1 KECCAK256 SLOAD DUP3 SWAP2 AND PUSH2 0x1762 JUMPI PUSH1 0x40 MLOAD PUSH3 0x461BCD PUSH1 0xE5 SHL DUP2 MSTORE PUSH1 0x4 ADD PUSH2 0x388 SWAP1 PUSH2 0x36EA JUMP JUMPDEST DUP2 PUSH1 0x1 PUSH1 0x1 PUSH1 0xA0 SHL SUB DUP2 AND CALLER SUB PUSH2 0x178B JUMPI PUSH1 0x40 MLOAD PUSH3 0x461BCD PUSH1 0xE5 SHL DUP2 MSTORE PUSH1 0x4 ADD PUSH2 0x388 SWAP1 PUSH2 0x3721 JUMP JUMPDEST CALLER PUSH1 0x0 SWAP1 DUP2 MSTORE PUSH1 0x5 PUSH1 0x20 SWAP1 DUP2 MSTORE PUSH1 0x40 DUP1 DUP4 KECCAK256 PUSH1 0x1 PUSH1 0x1 PUSH1 0xA0 SHL SUB DUP8 DUP2 AND DUP6 MSTORE SWAP3 MSTORE SWAP1 SWAP2 KECCAK256 SLOAD AND ISZERO PUSH2 0x180F JUMPI PUSH1 0x40 MLOAD PUSH3 0x461BCD PUSH1 0xE5 SHL DUP2 MSTORE PUSH1 0x20 PUSH1 0x4 DUP3 ADD MSTORE PUSH1 0x28 PUSH1 0x24 DUP3 ADD MSTORE PUSH32 0x4552524F523A203C596F7520616C726561647920666F6C6C6F77207468697320 PUSH1 0x44 DUP3 ADD MSTORE PUSH8 0x383937B334B6329F PUSH1 0xC1 SHL PUSH1 0x64 DUP3 ADD MSTORE PUSH1 0x84 ADD PUSH2 0x388 JUMP JUMPDEST CALLER PUSH1 0x0 DUP2 DUP2 MSTORE PUSH1 0x3 PUSH1 0x20 SWAP1 DUP2 MSTORE PUSH1 0x40 DUP1 DUP4 KECCAK256 PUSH1 0x1 PUSH1 0x1 PUSH1 0xA0 SHL SUB DUP9 DUP2 AND DUP6 MSTORE PUSH1 0x4 DUP5 MSTORE DUP3 DUP6 KECCAK256 SWAP6 DUP6 MSTORE SWAP5 SWAP1 SWAP3 MSTORE SWAP1 SWAP2 KECCAK256 DUP2 SLOAD DUP2 SLOAD PUSH1 0x1 PUSH1 0x1 PUSH1 0xA0 SHL SUB NOT AND SWAP4 AND SWAP3 SWAP1 SWAP3 OR DUP3 SSTORE SWAP1 PUSH1 0x1 DUP1 DUP3 ADD SWAP1 PUSH2 0x1868 SWAP1 DUP5 ADD DUP3 PUSH2 0x3952 JUMP JUMPDEST POP PUSH1 0x2 DUP3 ADD SLOAD DUP2 PUSH1 0x2 ADD SSTORE PUSH1 0x3 DUP3 ADD SLOAD DUP2 PUSH1 0x3 ADD SSTORE PUSH1 0x4 DUP3 ADD SLOAD DUP2 PUSH1 0x4 ADD SSTORE PUSH1 0x5 DUP3 ADD SLOAD DUP2 PUSH1 0x5 ADD SSTORE PUSH1 0x6 DUP3 ADD SLOAD DUP2 PUSH1 0x6 ADD SSTORE PUSH1 0x7 DUP3 ADD DUP2 PUSH1 0x7 ADD SWAP1 DUP1 SLOAD PUSH2 0x18B1 SWAP3 SWAP2 SWAP1 PUSH2 0x2F75 JUMP JUMPDEST POP PUSH1 0x8 DUP3 DUP2 ADD DUP1 SLOAD PUSH2 0x18C6 SWAP3 DUP5 ADD SWAP2 SWAP1 PUSH2 0x2F75 JUMP JUMPDEST POP POP POP PUSH1 0x1 PUSH1 0x1 PUSH1 0xA0 SHL SUB DUP1 DUP5 AND PUSH1 0x0 DUP2 DUP2 MSTORE PUSH1 0x3 PUSH1 0x20 SWAP1 DUP2 MSTORE PUSH1 0x40 DUP1 DUP4 KECCAK256 CALLER DUP5 MSTORE PUSH1 0x5 DUP4 MSTORE DUP2 DUP5 KECCAK256 SWAP5 DUP5 MSTORE SWAP4 SWAP1 SWAP2 MSTORE SWAP1 KECCAK256 DUP2 SLOAD DUP2 SLOAD PUSH1 0x1 PUSH1 0x1 PUSH1 0xA0 SHL SUB NOT AND SWAP4 AND SWAP3 SWAP1 SWAP3 OR DUP3 SSTORE SWAP1 PUSH1 0x1 DUP1 DUP3 ADD SWAP1 PUSH2 0x1921 SWAP1 DUP5 ADD DUP3 PUSH2 0x3952 JUMP JUMPDEST POP PUSH1 0x2 DUP3 ADD SLOAD DUP2 PUSH1 0x2 ADD SSTORE PUSH1 0x3 DUP3 ADD SLOAD DUP2 PUSH1 0x3 ADD SSTORE PUSH1 0x4 DUP3 ADD SLOAD DUP2 PUSH1 0x4 ADD SSTORE PUSH1 0x5 DUP3 ADD SLOAD DUP2 PUSH1 0x5 ADD SSTORE PUSH1 0x6 DUP3 ADD SLOAD DUP2 PUSH1 0x6 ADD SSTORE PUSH1 0x7 DUP3 ADD DUP2 PUSH1 0x7 ADD SWAP1 DUP1 SLOAD PUSH2 0x196A SWAP3 SWAP2 SWAP1 PUSH2 0x2F75 JUMP JUMPDEST POP PUSH1 0x8 DUP3 DUP2 ADD DUP1 SLOAD PUSH2 0x197F SWAP3 DUP5 ADD SWAP2 SWAP1 PUSH2 0x2F75 JUMP JUMPDEST POP POP POP PUSH1 0x1 PUSH1 0x1 PUSH1 0xA0 SHL SUB DUP4 AND PUSH1 0x0 DUP2 DUP2 MSTORE PUSH1 0x3 PUSH1 0x20 SWAP1 DUP2 MSTORE PUSH1 0x40 DUP1 DUP4 KECCAK256 PUSH1 0x7 DUP2 ADD DUP1 SLOAD PUSH1 0x1 DUP1 DUP3 ADD DUP4 SSTORE SWAP2 DUP7 MSTORE DUP5 DUP7 KECCAK256 ADD DUP1 SLOAD CALLER PUSH1 0x1 PUSH1 0x1 PUSH1 0xA0 SHL SUB NOT SWAP2 DUP3 AND DUP2 OR SWAP1 SWAP3 SSTORE SWAP1 DUP7 MSTORE SWAP3 DUP6 KECCAK256 PUSH1 0x8 ADD DUP1 SLOAD SWAP2 DUP3 ADD DUP2 SSTORE DUP6 MSTORE SWAP3 DUP5 KECCAK256 SWAP1 SWAP3 ADD DUP1 SLOAD SWAP1 SWAP2 AND DUP5 OR SWAP1 SSTORE SWAP2 DUP2 MSTORE PUSH1 0x5 SWAP1 SWAP2 ADD DUP1 SLOAD SWAP2 PUSH2 0x19FA DUP4 PUSH2 0x37AE JUMP JUMPDEST SWAP1 SWAP2 SSTORE POP POP CALLER PUSH1 0x0 SWAP1 DUP2 MSTORE PUSH1 0x3 PUSH1 0x20 MSTORE PUSH1 0x40 DUP2 KECCAK256 PUSH1 0x6 ADD DUP1 SLOAD SWAP2 PUSH2 0x1A1D DUP4 PUSH2 0x37AE JUMP JUMPDEST SWAP2 SWAP1 POP SSTORE POP POP POP POP JUMP JUMPDEST CALLER PUSH1 0x0 SWAP1 DUP2 MSTORE PUSH1 0x3 PUSH1 0x20 MSTORE PUSH1 0x40 SWAP1 KECCAK256 SLOAD PUSH1 0x1 PUSH1 0x1 PUSH1 0xA0 SHL SUB AND PUSH2 0x1A5C JUMPI PUSH1 0x40 MLOAD PUSH3 0x461BCD PUSH1 0xE5 SHL DUP2 MSTORE PUSH1 0x4 ADD PUSH2 0x388 SWAP1 PUSH2 0x3695 JUMP JUMPDEST PUSH1 0x0 JUMPDEST PUSH1 0x1 SLOAD DUP2 LT ISZERO PUSH2 0x1BAE JUMPI PUSH1 0x0 JUMPDEST PUSH1 0x6 PUSH1 0x0 PUSH1 0x1 DUP5 DUP2 SLOAD DUP2 LT PUSH2 0x1A83 JUMPI PUSH2 0x1A83 PUSH2 0x376B JUMP JUMPDEST PUSH1 0x0 SWAP2 DUP3 MSTORE PUSH1 0x20 DUP1 DUP4 KECCAK256 SWAP1 SWAP2 ADD SLOAD PUSH1 0x1 PUSH1 0x1 PUSH1 0xA0 SHL SUB AND DUP4 MSTORE DUP3 ADD SWAP3 SWAP1 SWAP3 MSTORE PUSH1 0x40 ADD SWAP1 KECCAK256 SLOAD DUP2 LT ISZERO PUSH2 0x1B9B JUMPI DUP3 PUSH1 0x6 PUSH1 0x0 PUSH1 0x1 DUP6 DUP2 SLOAD DUP2 LT PUSH2 0x1AC7 JUMPI PUSH2 0x1AC7 PUSH2 0x376B JUMP JUMPDEST PUSH1 0x0 SWAP2 DUP3 MSTORE PUSH1 0x20 DUP1 DUP4 KECCAK256 SWAP1 SWAP2 ADD SLOAD PUSH1 0x1 PUSH1 0x1 PUSH1 0xA0 SHL SUB AND DUP4 MSTORE DUP3 ADD SWAP3 SWAP1 SWAP3 MSTORE PUSH1 0x40 ADD SWAP1 KECCAK256 DUP1 SLOAD DUP4 SWAP1 DUP2 LT PUSH2 0x1AFD JUMPI PUSH2 0x1AFD PUSH2 0x376B JUMP JUMPDEST SWAP1 PUSH1 0x0 MSTORE PUSH1 0x20 PUSH1 0x0 KECCAK256 SWAP1 PUSH1 0x8 MUL ADD PUSH1 0x5 ADD SLOAD SUB PUSH2 0x1B89 JUMPI PUSH1 0x6 PUSH1 0x0 PUSH1 0x1 DUP5 DUP2 SLOAD DUP2 LT PUSH2 0x1B2B JUMPI PUSH2 0x1B2B PUSH2 0x376B JUMP JUMPDEST PUSH1 0x0 SWAP2 DUP3 MSTORE PUSH1 0x20 DUP1 DUP4 KECCAK256 SWAP1 SWAP2 ADD SLOAD PUSH1 0x1 PUSH1 0x1 PUSH1 0xA0 SHL SUB AND DUP4 MSTORE DUP3 ADD SWAP3 SWAP1 SWAP3 MSTORE PUSH1 0x40 ADD SWAP1 KECCAK256 DUP1 SLOAD DUP3 SWAP1 DUP2 LT PUSH2 0x1B61 JUMPI PUSH2 0x1B61 PUSH2 0x376B JUMP JUMPDEST PUSH1 0x0 SWAP2 DUP3 MSTORE PUSH1 0x20 DUP3 KECCAK256 PUSH1 0x6 PUSH1 0x8 SWAP1 SWAP3 MUL ADD ADD DUP1 SLOAD SWAP2 PUSH2 0x1B7F DUP4 PUSH2 0x37AE JUMP JUMPDEST SWAP2 SWAP1 POP SSTORE POP PUSH2 0x1B9B JUMP JUMPDEST DUP1 PUSH2 0x1B93 DUP2 PUSH2 0x37AE JUMP JUMPDEST SWAP2 POP POP PUSH2 0x1A6C JUMP JUMPDEST POP DUP1 PUSH2 0x1BA6 DUP2 PUSH2 0x37AE JUMP JUMPDEST SWAP2 POP POP PUSH2 0x1A5F JUMP JUMPDEST POP POP JUMP JUMPDEST PUSH1 0x0 JUMPDEST PUSH1 0x1 SLOAD DUP2 LT ISZERO PUSH2 0x75F JUMPI PUSH1 0x0 JUMPDEST PUSH1 0x6 PUSH1 0x0 PUSH1 0x1 DUP5 DUP2 SLOAD DUP2 LT PUSH2 0x1BD9 JUMPI PUSH2 0x1BD9 PUSH2 0x376B JUMP JUMPDEST PUSH1 0x0 SWAP2 DUP3 MSTORE PUSH1 0x20 DUP1 DUP4 KECCAK256 SWAP1 SWAP2 ADD SLOAD PUSH1 0x1 PUSH1 0x1 PUSH1 0xA0 SHL SUB AND DUP4 MSTORE DUP3 ADD SWAP3 SWAP1 SWAP3 MSTORE PUSH1 0x40 ADD SWAP1 KECCAK256 SLOAD DUP2 LT ISZERO PUSH2 0x1CFE JUMPI DUP3 PUSH1 0x6 PUSH1 0x0 PUSH1 0x1 DUP6 DUP2 SLOAD DUP2 LT PUSH2 0x1C1D JUMPI PUSH2 0x1C1D PUSH2 0x376B JUMP JUMPDEST PUSH1 0x0 SWAP2 DUP3 MSTORE PUSH1 0x20 DUP1 DUP4 KECCAK256 SWAP1 SWAP2 ADD SLOAD PUSH1 0x1 PUSH1 0x1 PUSH1 0xA0 SHL SUB AND DUP4 MSTORE DUP3 ADD SWAP3 SWAP1 SWAP3 MSTORE PUSH1 0x40 ADD SWAP1 KECCAK256 DUP1 SLOAD DUP4 SWAP1 DUP2 LT PUSH2 0x1C53 JUMPI PUSH2 0x1C53 PUSH2 0x376B JUMP JUMPDEST SWAP1 PUSH1 0x0 MSTORE PUSH1 0x20 PUSH1 0x0 KECCAK256 SWAP1 PUSH1 0x8 MUL ADD PUSH1 0x5 ADD SLOAD SUB PUSH2 0x1CEC JUMPI PUSH1 0x6 PUSH1 0x0 PUSH1 0x1 DUP5 DUP2 SLOAD DUP2 LT PUSH2 0x1C81 JUMPI PUSH2 0x1C81 PUSH2 0x376B JUMP JUMPDEST PUSH1 0x0 SWAP2 DUP3 MSTORE PUSH1 0x20 DUP1 DUP4 KECCAK256 SWAP1 SWAP2 ADD SLOAD PUSH1 0x1 PUSH1 0x1 PUSH1 0xA0 SHL SUB AND DUP4 MSTORE DUP3 ADD SWAP3 SWAP1 SWAP3 MSTORE PUSH1 0x40 ADD SWAP1 KECCAK256 DUP1 SLOAD DUP3 SWAP1 DUP2 LT PUSH2 0x1CB7 JUMPI PUSH2 0x1CB7 PUSH2 0x376B JUMP JUMPDEST PUSH1 0x0 SWAP2 DUP3 MSTORE PUSH1 0x20 DUP1 DUP4 KECCAK256 PUSH1 0x7 PUSH1 0x8 SWAP1 SWAP4 MUL ADD SWAP2 SWAP1 SWAP2 ADD DUP1 SLOAD PUSH1 0x1 DUP2 ADD DUP3 SSTORE SWAP1 DUP4 MSTORE SWAP2 KECCAK256 ADD PUSH2 0x1CE6 DUP6 DUP8 DUP4 PUSH2 0x3A27 JUMP JUMPDEST POP PUSH2 0x1CFE JUMP JUMPDEST DUP1 PUSH2 0x1CF6 DUP2 PUSH2 0x37AE JUMP JUMPDEST SWAP2 POP POP PUSH2 0x1BC2 JUMP JUMPDEST POP DUP1 PUSH2 0x1D09 DUP2 PUSH2 0x37AE JUMP JUMPDEST SWAP2 POP POP PUSH2 0x1BB5 JUMP JUMPDEST PUSH1 0x60 PUSH1 0xA DUP1 SLOAD DUP1 PUSH1 0x20 MUL PUSH1 0x20 ADD PUSH1 0x40 MLOAD SWAP1 DUP2 ADD PUSH1 0x40 MSTORE DUP1 SWAP3 SWAP2 SWAP1 DUP2 DUP2 MSTORE PUSH1 0x20 ADD PUSH1 0x0 SWAP1 JUMPDEST DUP3 DUP3 LT ISZERO PUSH2 0x1E41 JUMPI PUSH1 0x0 DUP5 DUP2 MSTORE PUSH1 0x20 SWAP1 DUP2 SWAP1 KECCAK256 PUSH1 0x40 DUP1 MLOAD PUSH1 0xE0 DUP2 ADD SWAP1 SWAP2 MSTORE PUSH1 0x7 DUP6 MUL SWAP1 SWAP2 ADD DUP1 SLOAD PUSH1 0x1 PUSH1 0x1 PUSH1 0xA0 SHL SUB AND DUP3 MSTORE PUSH1 0x1 DUP2 ADD DUP1 SLOAD SWAP3 SWAP4 SWAP2 SWAP3 SWAP2 DUP5 ADD SWAP2 PUSH2 0x1D7E SWAP1 PUSH2 0x37C7 JUMP JUMPDEST DUP1 PUSH1 0x1F ADD PUSH1 0x20 DUP1 SWAP2 DIV MUL PUSH1 0x20 ADD PUSH1 0x40 MLOAD SWAP1 DUP2 ADD PUSH1 0x40 MSTORE DUP1 SWAP3 SWAP2 SWAP1 DUP2 DUP2 MSTORE PUSH1 0x20 ADD DUP3 DUP1 SLOAD PUSH2 0x1DAA SWAP1 PUSH2 0x37C7 JUMP JUMPDEST DUP1 ISZERO PUSH2 0x1DF7 JUMPI DUP1 PUSH1 0x1F LT PUSH2 0x1DCC JUMPI PUSH2 0x100 DUP1 DUP4 SLOAD DIV MUL DUP4 MSTORE SWAP2 PUSH1 0x20 ADD SWAP2 PUSH2 0x1DF7 JUMP JUMPDEST DUP3 ADD SWAP2 SWAP1 PUSH1 0x0 MSTORE PUSH1 0x20 PUSH1 0x0 KECCAK256 SWAP1 JUMPDEST DUP2 SLOAD DUP2 MSTORE SWAP1 PUSH1 0x1 ADD SWAP1 PUSH1 0x20 ADD DUP1 DUP4 GT PUSH2 0x1DDA JUMPI DUP3 SWAP1 SUB PUSH1 0x1F AND DUP3 ADD SWAP2 JUMPDEST POP POP POP POP POP DUP2 MSTORE PUSH1 0x20 ADD PUSH1 0x2 DUP3 ADD SLOAD DUP2 MSTORE PUSH1 0x20 ADD PUSH1 0x3 DUP3 ADD SLOAD DUP2 MSTORE PUSH1 0x20 ADD PUSH1 0x4 DUP3 ADD SLOAD DUP2 MSTORE PUSH1 0x20 ADD PUSH1 0x5 DUP3 ADD SLOAD DUP2 MSTORE PUSH1 0x20 ADD PUSH1 0x6 DUP3 ADD SLOAD DUP2 MSTORE POP POP DUP2 MSTORE PUSH1 0x20 ADD SWAP1 PUSH1 0x1 ADD SWAP1 PUSH2 0x1D35 JUMP JUMPDEST POP POP POP POP SWAP1 POP SWAP1 JUMP JUMPDEST PUSH1 0x60 PUSH1 0x1 DUP1 SLOAD DUP1 PUSH1 0x20 MUL PUSH1 0x20 ADD PUSH1 0x40 MLOAD SWAP1 DUP2 ADD PUSH1 0x40 MSTORE DUP1 SWAP3 SWAP2 SWAP1 DUP2 DUP2 MSTORE PUSH1 0x20 ADD DUP3 DUP1 SLOAD DUP1 ISZERO PUSH2 0x1EA2 JUMPI PUSH1 0x20 MUL DUP3 ADD SWAP2 SWAP1 PUSH1 0x0 MSTORE PUSH1 0x20 PUSH1 0x0 KECCAK256 SWAP1 JUMPDEST DUP2 SLOAD PUSH1 0x1 PUSH1 0x1 PUSH1 0xA0 SHL SUB AND DUP2 MSTORE PUSH1 0x1 SWAP1 SWAP2 ADD SWAP1 PUSH1 0x20 ADD DUP1 DUP4 GT PUSH2 0x1E84 JUMPI JUMPDEST POP POP POP POP POP SWAP1 POP SWAP1 JUMP JUMPDEST PUSH1 0x0 PUSH1 0x60 DUP1 PUSH1 0x60 PUSH1 0x0 DUP1 PUSH1 0x0 PUSH1 0x60 PUSH1 0x0 JUMPDEST PUSH1 0x1 SLOAD DUP2 LT ISZERO PUSH2 0x252C JUMPI PUSH1 0x0 JUMPDEST PUSH1 0x6 PUSH1 0x0 PUSH1 0x1 DUP5 DUP2 SLOAD DUP2 LT PUSH2 0x1EE1 JUMPI PUSH2 0x1EE1 PUSH2 0x376B JUMP JUMPDEST PUSH1 0x0 SWAP2 DUP3 MSTORE PUSH1 0x20 DUP1 DUP4 KECCAK256 SWAP1 SWAP2 ADD SLOAD PUSH1 0x1 PUSH1 0x1 PUSH1 0xA0 SHL SUB AND DUP4 MSTORE DUP3 ADD SWAP3 SWAP1 SWAP3 MSTORE PUSH1 0x40 ADD SWAP1 KECCAK256 SLOAD DUP2 LT ISZERO PUSH2 0x2519 JUMPI DUP11 PUSH1 0x6 PUSH1 0x0 PUSH1 0x1 DUP6 DUP2 SLOAD DUP2 LT PUSH2 0x1F25 JUMPI PUSH2 0x1F25 PUSH2 0x376B JUMP JUMPDEST PUSH1 0x0 SWAP2 DUP3 MSTORE PUSH1 0x20 DUP1 DUP4 KECCAK256 SWAP1 SWAP2 ADD SLOAD PUSH1 0x1 PUSH1 0x1 PUSH1 0xA0 SHL SUB AND DUP4 MSTORE DUP3 ADD SWAP3 SWAP1 SWAP3 MSTORE PUSH1 0x40 ADD SWAP1 KECCAK256 DUP1 SLOAD DUP4 SWAP1 DUP2 LT PUSH2 0x1F5B JUMPI PUSH2 0x1F5B PUSH2 0x376B JUMP JUMPDEST SWAP1 PUSH1 0x0 MSTORE PUSH1 0x20 PUSH1 0x0 KECCAK256 SWAP1 PUSH1 0x8 MUL ADD PUSH1 0x5 ADD SLOAD SUB PUSH2 0x2507 JUMPI PUSH1 0x6 PUSH1 0x0 PUSH1 0x1 DUP5 DUP2 SLOAD DUP2 LT PUSH2 0x1F89 JUMPI PUSH2 0x1F89 PUSH2 0x376B JUMP JUMPDEST PUSH1 0x0 SWAP2 DUP3 MSTORE PUSH1 0x20 DUP1 DUP4 KECCAK256 SWAP1 SWAP2 ADD SLOAD PUSH1 0x1 PUSH1 0x1 PUSH1 0xA0 SHL SUB AND DUP4 MSTORE DUP3 ADD SWAP3 SWAP1 SWAP3 MSTORE PUSH1 0x40 ADD SWAP1 KECCAK256 DUP1 SLOAD DUP3 SWAP1 DUP2 LT PUSH2 0x1FBF JUMPI PUSH2 0x1FBF PUSH2 0x376B JUMP JUMPDEST SWAP1 PUSH1 0x0 MSTORE PUSH1 0x20 PUSH1 0x0 KECCAK256 SWAP1 PUSH1 0x8 MUL ADD PUSH1 0x0 ADD PUSH1 0x0 SWAP1 SLOAD SWAP1 PUSH2 0x100 EXP SWAP1 DIV PUSH1 0x1 PUSH1 0x1 PUSH1 0xA0 SHL SUB AND PUSH1 0x6 PUSH1 0x0 PUSH1 0x1 DUP6 DUP2 SLOAD DUP2 LT PUSH2 0x1FFB JUMPI PUSH2 0x1FFB PUSH2 0x376B JUMP JUMPDEST PUSH1 0x0 SWAP2 DUP3 MSTORE PUSH1 0x20 DUP1 DUP4 KECCAK256 SWAP1 SWAP2 ADD SLOAD PUSH1 0x1 PUSH1 0x1 PUSH1 0xA0 SHL SUB AND DUP4 MSTORE DUP3 ADD SWAP3 SWAP1 SWAP3 MSTORE PUSH1 0x40 ADD SWAP1 KECCAK256 DUP1 SLOAD DUP4 SWAP1 DUP2 LT PUSH2 0x2031 JUMPI PUSH2 0x2031 PUSH2 0x376B JUMP JUMPDEST SWAP1 PUSH1 0x0 MSTORE PUSH1 0x20 PUSH1 0x0 KECCAK256 SWAP1 PUSH1 0x8 MUL ADD PUSH1 0x1 ADD PUSH1 0x6 PUSH1 0x0 PUSH1 0x1 DUP7 DUP2 SLOAD DUP2 LT PUSH2 0x2059 JUMPI PUSH2 0x2059 PUSH2 0x376B JUMP JUMPDEST PUSH1 0x0 SWAP2 DUP3 MSTORE PUSH1 0x20 DUP1 DUP4 KECCAK256 SWAP1 SWAP2 ADD SLOAD PUSH1 0x1 PUSH1 0x1 PUSH1 0xA0 SHL SUB AND DUP4 MSTORE DUP3 ADD SWAP3 SWAP1 SWAP3 MSTORE PUSH1 0x40 ADD SWAP1 KECCAK256 DUP1 SLOAD DUP5 SWAP1 DUP2 LT PUSH2 0x208F JUMPI PUSH2 0x208F PUSH2 0x376B JUMP JUMPDEST SWAP1 PUSH1 0x0 MSTORE PUSH1 0x20 PUSH1 0x0 KECCAK256 SWAP1 PUSH1 0x8 MUL ADD PUSH1 0x2 ADD PUSH1 0x6 PUSH1 0x0 PUSH1 0x1 DUP8 DUP2 SLOAD DUP2 LT PUSH2 0x20B7 JUMPI PUSH2 0x20B7 PUSH2 0x376B JUMP JUMPDEST PUSH1 0x0 SWAP2 DUP3 MSTORE PUSH1 0x20 DUP1 DUP4 KECCAK256 SWAP1 SWAP2 ADD SLOAD PUSH1 0x1 PUSH1 0x1 PUSH1 0xA0 SHL SUB AND DUP4 MSTORE DUP3 ADD SWAP3 SWAP1 SWAP3 MSTORE PUSH1 0x40 ADD SWAP1 KECCAK256 DUP1 SLOAD DUP6 SWAP1 DUP2 LT PUSH2 0x20ED JUMPI PUSH2 0x20ED PUSH2 0x376B JUMP JUMPDEST SWAP1 PUSH1 0x0 MSTORE PUSH1 0x20 PUSH1 0x0 KECCAK256 SWAP1 PUSH1 0x8 MUL ADD PUSH1 0x3 ADD PUSH1 0x6 PUSH1 0x0 PUSH1 0x1 DUP9 DUP2 SLOAD DUP2 LT PUSH2 0x2115 JUMPI PUSH2 0x2115 PUSH2 0x376B JUMP JUMPDEST PUSH1 0x0 SWAP2 DUP3 MSTORE PUSH1 0x20 DUP1 DUP4 KECCAK256 SWAP1 SWAP2 ADD SLOAD PUSH1 0x1 PUSH1 0x1 PUSH1 0xA0 SHL SUB AND DUP4 MSTORE DUP3 ADD SWAP3 SWAP1 SWAP3 MSTORE PUSH1 0x40 ADD SWAP1 KECCAK256 DUP1 SLOAD DUP7 SWAP1 DUP2 LT PUSH2 0x214B JUMPI PUSH2 0x214B PUSH2 0x376B JUMP JUMPDEST SWAP1 PUSH1 0x0 MSTORE PUSH1 0x20 PUSH1 0x0 KECCAK256 SWAP1 PUSH1 0x8 MUL ADD PUSH1 0x4 ADD SLOAD PUSH1 0x6 PUSH1 0x0 PUSH1 0x1 DUP10 DUP2 SLOAD DUP2 LT PUSH2 0x2174 JUMPI PUSH2 0x2174 PUSH2 0x376B JUMP JUMPDEST PUSH1 0x0 SWAP2 DUP3 MSTORE PUSH1 0x20 DUP1 DUP4 KECCAK256 SWAP1 SWAP2 ADD SLOAD PUSH1 0x1 PUSH1 0x1 PUSH1 0xA0 SHL SUB AND DUP4 MSTORE DUP3 ADD SWAP3 SWAP1 SWAP3 MSTORE PUSH1 0x40 ADD SWAP1 KECCAK256 DUP1 SLOAD DUP8 SWAP1 DUP2 LT PUSH2 0x21AA JUMPI PUSH2 0x21AA PUSH2 0x376B JUMP JUMPDEST SWAP1 PUSH1 0x0 MSTORE PUSH1 0x20 PUSH1 0x0 KECCAK256 SWAP1 PUSH1 0x8 MUL ADD PUSH1 0x5 ADD SLOAD PUSH1 0x6 PUSH1 0x0 PUSH1 0x1 DUP11 DUP2 SLOAD DUP2 LT PUSH2 0x21D3 JUMPI PUSH2 0x21D3 PUSH2 0x376B JUMP JUMPDEST PUSH1 0x0 SWAP2 DUP3 MSTORE PUSH1 0x20 DUP1 DUP4 KECCAK256 SWAP1 SWAP2 ADD SLOAD PUSH1 0x1 PUSH1 0x1 PUSH1 0xA0 SHL SUB AND DUP4 MSTORE DUP3 ADD SWAP3 SWAP1 SWAP3 MSTORE PUSH1 0x40 ADD SWAP1 KECCAK256 DUP1 SLOAD DUP9 SWAP1 DUP2 LT PUSH2 0x2209 JUMPI PUSH2 0x2209 PUSH2 0x376B JUMP JUMPDEST SWAP1 PUSH1 0x0 MSTORE PUSH1 0x20 PUSH1 0x0 KECCAK256 SWAP1 PUSH1 0x8 MUL ADD PUSH1 0x6 ADD SLOAD PUSH1 0x6 PUSH1 0x0 PUSH1 0x1 DUP12 DUP2 SLOAD DUP2 LT PUSH2 0x2232 JUMPI PUSH2 0x2232 PUSH2 0x376B JUMP JUMPDEST PUSH1 0x0 SWAP2 DUP3 MSTORE PUSH1 0x20 DUP1 DUP4 KECCAK256 SWAP1 SWAP2 ADD SLOAD PUSH1 0x1 PUSH1 0x1 PUSH1 0xA0 SHL SUB AND DUP4 MSTORE DUP3 ADD SWAP3 SWAP1 SWAP3 MSTORE PUSH1 0x40 ADD SWAP1 KECCAK256 DUP1 SLOAD DUP10 SWAP1 DUP2 LT PUSH2 0x2268 JUMPI PUSH2 0x2268 PUSH2 0x376B JUMP JUMPDEST SWAP1 PUSH1 0x0 MSTORE PUSH1 0x20 PUSH1 0x0 KECCAK256 SWAP1 PUSH1 0x8 MUL ADD PUSH1 0x7 ADD DUP7 DUP1 SLOAD PUSH2 0x2285 SWAP1 PUSH2 0x37C7 JUMP JUMPDEST DUP1 PUSH1 0x1F ADD PUSH1 0x20 DUP1 SWAP2 DIV MUL PUSH1 0x20 ADD PUSH1 0x40 MLOAD SWAP1 DUP2 ADD PUSH1 0x40 MSTORE DUP1 SWAP3 SWAP2 SWAP1 DUP2 DUP2 MSTORE PUSH1 0x20 ADD DUP3 DUP1 SLOAD PUSH2 0x22B1 SWAP1 PUSH2 0x37C7 JUMP JUMPDEST DUP1 ISZERO PUSH2 0x22FE JUMPI DUP1 PUSH1 0x1F LT PUSH2 0x22D3 JUMPI PUSH2 0x100 DUP1 DUP4 SLOAD DIV MUL DUP4 MSTORE SWAP2 PUSH1 0x20 ADD SWAP2 PUSH2 0x22FE JUMP JUMPDEST DUP3 ADD SWAP2 SWAP1 PUSH1 0x0 MSTORE PUSH1 0x20 PUSH1 0x0 KECCAK256 SWAP1 JUMPDEST DUP2 SLOAD DUP2 MSTORE SWAP1 PUSH1 0x1 ADD SWAP1 PUSH1 0x20 ADD DUP1 DUP4 GT PUSH2 0x22E1 JUMPI DUP3 SWAP1 SUB PUSH1 0x1F AND DUP3 ADD SWAP2 JUMPDEST POP POP POP POP POP SWAP7 POP DUP6 DUP1 SLOAD PUSH2 0x2311 SWAP1 PUSH2 0x37C7 JUMP JUMPDEST DUP1 PUSH1 0x1F ADD PUSH1 0x20 DUP1 SWAP2 DIV MUL PUSH1 0x20 ADD PUSH1 0x40 MLOAD SWAP1 DUP2 ADD PUSH1 0x40 MSTORE DUP1 SWAP3 SWAP2 SWAP1 DUP2 DUP2 MSTORE PUSH1 0x20 ADD DUP3 DUP1 SLOAD PUSH2 0x233D SWAP1 PUSH2 0x37C7 JUMP JUMPDEST DUP1 ISZERO PUSH2 0x238A JUMPI DUP1 PUSH1 0x1F LT PUSH2 0x235F JUMPI PUSH2 0x100 DUP1 DUP4 SLOAD DIV MUL DUP4 MSTORE SWAP2 PUSH1 0x20 ADD SWAP2 PUSH2 0x238A JUMP JUMPDEST DUP3 ADD SWAP2 SWAP1 PUSH1 0x0 MSTORE PUSH1 0x20 PUSH1 0x0 KECCAK256 SWAP1 JUMPDEST DUP2 SLOAD DUP2 MSTORE SWAP1 PUSH1 0x1 ADD SWAP1 PUSH1 0x20 ADD DUP1 DUP4 GT PUSH2 0x236D JUMPI DUP3 SWAP1 SUB PUSH1 0x1F AND DUP3 ADD SWAP2 JUMPDEST POP POP POP POP POP SWAP6 POP DUP5 DUP1 SLOAD PUSH2 0x239D SWAP1 PUSH2 0x37C7 JUMP JUMPDEST DUP1 PUSH1 0x1F ADD PUSH1 0x20 DUP1 SWAP2 DIV MUL PUSH1 0x20 ADD PUSH1 0x40 MLOAD SWAP1 DUP2 ADD PUSH1 0x40 MSTORE DUP1 SWAP3 SWAP2 SWAP1 DUP2 DUP2 MSTORE PUSH1 0x20 ADD DUP3 DUP1 SLOAD PUSH2 0x23C9 SWAP1 PUSH2 0x37C7 JUMP JUMPDEST DUP1 ISZERO PUSH2 0x2416 JUMPI DUP1 PUSH1 0x1F LT PUSH2 0x23EB JUMPI PUSH2 0x100 DUP1 DUP4 SLOAD DIV MUL DUP4 MSTORE SWAP2 PUSH1 0x20 ADD SWAP2 PUSH2 0x2416 JUMP JUMPDEST DUP3 ADD SWAP2 SWAP1 PUSH1 0x0 MSTORE PUSH1 0x20 PUSH1 0x0 KECCAK256 SWAP1 JUMPDEST DUP2 SLOAD DUP2 MSTORE SWAP1 PUSH1 0x1 ADD SWAP1 PUSH1 0x20 ADD DUP1 DUP4 GT PUSH2 0x23F9 JUMPI DUP3 SWAP1 SUB PUSH1 0x1F AND DUP3 ADD SWAP2 JUMPDEST POP POP POP POP POP SWAP5 POP DUP1 DUP1 SLOAD DUP1 PUSH1 0x20 MUL PUSH1 0x20 ADD PUSH1 0x40 MLOAD SWAP1 DUP2 ADD PUSH1 0x40 MSTORE DUP1 SWAP3 SWAP2 SWAP1 DUP2 DUP2 MSTORE PUSH1 0x20 ADD PUSH1 0x0 SWAP1 JUMPDEST DUP3 DUP3 LT ISZERO PUSH2 0x24EA JUMPI DUP4 DUP3 SWAP1 PUSH1 0x0 MSTORE PUSH1 0x20 PUSH1 0x0 KECCAK256 ADD DUP1 SLOAD PUSH2 0x245D SWAP1 PUSH2 0x37C7 JUMP JUMPDEST DUP1 PUSH1 0x1F ADD PUSH1 0x20 DUP1 SWAP2 DIV MUL PUSH1 0x20 ADD PUSH1 0x40 MLOAD SWAP1 DUP2 ADD PUSH1 0x40 MSTORE DUP1 SWAP3 SWAP2 SWAP1 DUP2 DUP2 MSTORE PUSH1 0x20 ADD DUP3 DUP1 SLOAD PUSH2 0x2489 SWAP1 PUSH2 0x37C7 JUMP JUMPDEST DUP1 ISZERO PUSH2 0x24D6 JUMPI DUP1 PUSH1 0x1F LT PUSH2 0x24AB JUMPI PUSH2 0x100 DUP1 DUP4 SLOAD DIV MUL DUP4 MSTORE SWAP2 PUSH1 0x20 ADD SWAP2 PUSH2 0x24D6 JUMP JUMPDEST DUP3 ADD SWAP2 SWAP1 PUSH1 0x0 MSTORE PUSH1 0x20 PUSH1 0x0 KECCAK256 SWAP1 JUMPDEST DUP2 SLOAD DUP2 MSTORE SWAP1 PUSH1 0x1 ADD SWAP1 PUSH1 0x20 ADD DUP1 DUP4 GT PUSH2 0x24B9 JUMPI DUP3 SWAP1 SUB PUSH1 0x1F AND DUP3 ADD SWAP2 JUMPDEST POP POP POP POP POP DUP2 MSTORE PUSH1 0x20 ADD SWAP1 PUSH1 0x1 ADD SWAP1 PUSH2 0x243E JUMP JUMPDEST POP POP POP POP SWAP1 POP SWAP10 POP SWAP10 POP SWAP10 POP SWAP10 POP SWAP10 POP SWAP10 POP SWAP10 POP SWAP10 POP POP POP PUSH2 0x252E JUMP JUMPDEST DUP1 PUSH2 0x2511 DUP2 PUSH2 0x37AE JUMP JUMPDEST SWAP2 POP POP PUSH2 0x1ECA JUMP JUMPDEST POP DUP1 PUSH2 0x2524 DUP2 PUSH2 0x37AE JUMP JUMPDEST SWAP2 POP POP PUSH2 0x1EBD JUMP JUMPDEST POP JUMPDEST SWAP2 SWAP4 SWAP6 SWAP8 POP SWAP2 SWAP4 SWAP6 SWAP8 JUMP JUMPDEST PUSH1 0x3 PUSH1 0x20 MSTORE PUSH1 0x0 SWAP1 DUP2 MSTORE PUSH1 0x40 SWAP1 KECCAK256 DUP1 SLOAD PUSH1 0x1 DUP3 ADD DUP1 SLOAD PUSH1 0x1 PUSH1 0x1 PUSH1 0xA0 SHL SUB SWAP1 SWAP3 AND SWAP3 SWAP2 PUSH2 0x2565 SWAP1 PUSH2 0x37C7 JUMP JUMPDEST DUP1 PUSH1 0x1F ADD PUSH1 0x20 DUP1 SWAP2 DIV MUL PUSH1 0x20 ADD PUSH1 0x40 MLOAD SWAP1 DUP2 ADD PUSH1 0x40 MSTORE DUP1 SWAP3 SWAP2 SWAP1 DUP2 DUP2 MSTORE PUSH1 0x20 ADD DUP3 DUP1 SLOAD PUSH2 0x2591 SWAP1 PUSH2 0x37C7 JUMP JUMPDEST DUP1 ISZERO PUSH2 0x25DE JUMPI DUP1 PUSH1 0x1F LT PUSH2 0x25B3 JUMPI PUSH2 0x100 DUP1 DUP4 SLOAD DIV MUL DUP4 MSTORE SWAP2 PUSH1 0x20 ADD SWAP2 PUSH2 0x25DE JUMP JUMPDEST DUP3 ADD SWAP2 SWAP1 PUSH1 0x0 MSTORE PUSH1 0x20 PUSH1 0x0 KECCAK256 SWAP1 JUMPDEST DUP2 SLOAD DUP2 MSTORE SWAP1 PUSH1 0x1 ADD SWAP1 PUSH1 0x20 ADD DUP1 DUP4 GT PUSH2 0x25C1 JUMPI DUP3 SWAP1 SUB PUSH1 0x1F AND DUP3 ADD SWAP2 JUMPDEST POP POP POP POP POP SWAP1 DUP1 PUSH1 0x2 ADD SLOAD SWAP1 DUP1 PUSH1 0x3 ADD SLOAD SWAP1 DUP1 PUSH1 0x4 ADD SLOAD SWAP1 DUP1 PUSH1 0x5 ADD SLOAD SWAP1 DUP1 PUSH1 0x6 ADD SLOAD SWAP1 POP DUP8 JUMP JUMPDEST PUSH1 0x1 PUSH1 0x1 PUSH1 0xA0 SHL SUB DUP1 DUP3 AND PUSH1 0x0 SWAP1 DUP2 MSTORE PUSH1 0x3 PUSH1 0x20 MSTORE PUSH1 0x40 SWAP1 KECCAK256 SLOAD PUSH1 0x60 SWAP2 DUP4 SWAP2 AND PUSH2 0x2642 JUMPI PUSH1 0x40 MLOAD PUSH3 0x461BCD PUSH1 0xE5 SHL DUP2 MSTORE PUSH1 0x4 ADD PUSH2 0x388 SWAP1 PUSH2 0x36EA JUMP JUMPDEST PUSH1 0x1 PUSH1 0x1 PUSH1 0xA0 SHL SUB DUP4 AND PUSH1 0x0 SWAP1 DUP2 MSTORE PUSH1 0x3 PUSH1 0x20 SWAP1 DUP2 MSTORE PUSH1 0x40 SWAP2 DUP3 SWAP1 KECCAK256 PUSH1 0x7 ADD DUP1 SLOAD DUP4 MLOAD DUP2 DUP5 MUL DUP2 ADD DUP5 ADD SWAP1 SWAP5 MSTORE DUP1 DUP5 MSTORE SWAP1 SWAP2 DUP4 ADD DUP3 DUP3 DUP1 ISZERO PUSH2 0x26AD JUMPI PUSH1 0x20 MUL DUP3 ADD SWAP2 SWAP1 PUSH1 0x0 MSTORE PUSH1 0x20 PUSH1 0x0 KECCAK256 SWAP1 JUMPDEST DUP2 SLOAD PUSH1 0x1 PUSH1 0x1 PUSH1 0xA0 SHL SUB AND DUP2 MSTORE PUSH1 0x1 SWAP1 SWAP2 ADD SWAP1 PUSH1 0x20 ADD DUP1 DUP4 GT PUSH2 0x268F JUMPI JUMPDEST POP POP POP POP POP SWAP2 POP POP SWAP2 SWAP1 POP JUMP JUMPDEST PUSH1 0x1 PUSH1 0x1 PUSH1 0xA0 SHL SUB DUP2 AND PUSH1 0x0 SWAP1 DUP2 MSTORE PUSH1 0x3 PUSH1 0x20 SWAP1 DUP2 MSTORE PUSH1 0x40 SWAP2 DUP3 SWAP1 KECCAK256 PUSH1 0x8 ADD DUP1 SLOAD DUP4 MLOAD DUP2 DUP5 MUL DUP2 ADD DUP5 ADD SWAP1 SWAP5 MSTORE DUP1 DUP5 MSTORE PUSH1 0x60 SWAP4 SWAP3 DUP4 ADD DUP3 DUP3 DUP1 ISZERO PUSH2 0x2727 JUMPI PUSH1 0x20 MUL DUP3 ADD SWAP2 SWAP1 PUSH1 0x0 MSTORE PUSH1 0x20 PUSH1 0x0 KECCAK256 SWAP1 JUMPDEST DUP2 SLOAD PUSH1 0x1 PUSH1 0x1 PUSH1 0xA0 SHL SUB AND DUP2 MSTORE PUSH1 0x1 SWAP1 SWAP2 ADD SWAP1 PUSH1 0x20 ADD DUP1 DUP4 GT PUSH2 0x2709 JUMPI JUMPDEST POP POP POP POP POP SWAP1 POP SWAP2 SWAP1 POP JUMP JUMPDEST PUSH1 0x0 PUSH2 0x273F CALLER DUP6 PUSH2 0x2E00 JUMP JUMPDEST SWAP1 POP PUSH1 0x0 PUSH1 0x40 MLOAD DUP1 PUSH1 0x60 ADD PUSH1 0x40 MSTORE DUP1 CALLER PUSH1 0x1 PUSH1 0x1 PUSH1 0xA0 SHL SUB AND DUP2 MSTORE PUSH1 0x20 ADD TIMESTAMP DUP2 MSTORE PUSH1 0x20 ADD DUP6 DUP6 DUP1 DUP1 PUSH1 0x1F ADD PUSH1 0x20 DUP1 SWAP2 DIV MUL PUSH1 0x20 ADD PUSH1 0x40 MLOAD SWAP1 DUP2 ADD PUSH1 0x40 MSTORE DUP1 SWAP4 SWAP3 SWAP2 SWAP1 DUP2 DUP2 MSTORE PUSH1 0x20 ADD DUP4 DUP4 DUP1 DUP3 DUP5 CALLDATACOPY PUSH1 0x0 SWAP3 ADD DUP3 SWAP1 MSTORE POP SWAP4 SWAP1 SWAP5 MSTORE POP POP DUP5 DUP2 MSTORE PUSH1 0x9 PUSH1 0x20 SWAP1 DUP2 MSTORE PUSH1 0x40 DUP1 DUP4 KECCAK256 DUP1 SLOAD PUSH1 0x1 DUP1 DUP3 ADD DUP4 SSTORE SWAP2 DUP6 MSTORE SWAP4 DUP4 SWAP1 KECCAK256 DUP7 MLOAD PUSH1 0x3 SWAP1 SWAP6 MUL ADD DUP1 SLOAD PUSH1 0x1 PUSH1 0x1 PUSH1 0xA0 SHL SUB NOT AND PUSH1 0x1 PUSH1 0x1 PUSH1 0xA0 SHL SUB SWAP1 SWAP6 AND SWAP5 SWAP1 SWAP5 OR DUP5 SSTORE SWAP2 DUP6 ADD MLOAD SWAP2 DUP4 ADD SWAP2 SWAP1 SWAP2 SSTORE DUP4 ADD MLOAD SWAP3 SWAP4 POP DUP4 SWAP3 SWAP1 SWAP2 POP PUSH1 0x2 DUP3 ADD SWAP1 PUSH2 0x2804 SWAP1 DUP3 PUSH2 0x3898 JUMP JUMPDEST POP POP POP POP POP POP POP POP JUMP JUMPDEST CALLER PUSH1 0x0 SWAP1 DUP2 MSTORE PUSH1 0x3 PUSH1 0x20 MSTORE PUSH1 0x40 SWAP1 KECCAK256 SLOAD PUSH1 0x1 PUSH1 0x1 PUSH1 0xA0 SHL SUB AND PUSH2 0x2843 JUMPI PUSH1 0x40 MLOAD PUSH3 0x461BCD PUSH1 0xE5 SHL DUP2 MSTORE PUSH1 0x4 ADD PUSH2 0x388 SWAP1 PUSH2 0x3695 JUMP JUMPDEST PUSH1 0x40 DUP1 MLOAD PUSH1 0x0 DUP2 MSTORE PUSH1 0x20 DUP2 ADD DUP1 DUP4 MSTORE DUP2 MLOAD SWAP1 KECCAK256 DUP9 SWAP3 DUP9 SWAP3 PUSH2 0x2868 SWAP2 DUP6 SWAP2 DUP6 SWAP2 ADD PUSH2 0x3824 JUMP JUMPDEST PUSH1 0x40 MLOAD PUSH1 0x20 DUP2 DUP4 SUB SUB DUP2 MSTORE SWAP1 PUSH1 0x40 MSTORE DUP1 MLOAD SWAP1 PUSH1 0x20 ADD KECCAK256 SUB PUSH2 0x28CB JUMPI PUSH1 0x40 MLOAD PUSH3 0x461BCD PUSH1 0xE5 SHL DUP2 MSTORE PUSH1 0x20 PUSH1 0x4 DUP3 ADD MSTORE PUSH1 0x1E PUSH1 0x24 DUP3 ADD MSTORE PUSH32 0x4552524F523A203C496E7075742063616E6E6F7420626520656D7074793E0000 PUSH1 0x44 DUP3 ADD MSTORE PUSH1 0x64 ADD PUSH2 0x388 JUMP JUMPDEST PUSH1 0x7 DUP1 SLOAD SWAP1 PUSH1 0x0 PUSH2 0x28DB DUP4 PUSH2 0x37AE JUMP JUMPDEST SWAP1 SWAP2 SSTORE POP POP PUSH1 0x7 SLOAD PUSH1 0x40 DUP1 MLOAD PUSH2 0x100 DUP2 ADD DUP3 MSTORE CALLER DUP2 MSTORE DUP2 MLOAD PUSH1 0x20 PUSH1 0x1F DUP13 ADD DUP2 SWAP1 DIV DUP2 MUL DUP3 ADD DUP2 ADD SWAP1 SWAP4 MSTORE DUP11 DUP2 MSTORE PUSH1 0x0 SWAP3 DUP1 DUP4 ADD SWAP2 SWAP1 DUP14 SWAP1 DUP14 SWAP1 DUP2 SWAP1 DUP5 ADD DUP4 DUP3 DUP1 DUP3 DUP5 CALLDATACOPY PUSH1 0x0 SWAP3 ADD SWAP2 SWAP1 SWAP2 MSTORE POP POP POP SWAP1 DUP3 MSTORE POP PUSH1 0x40 DUP1 MLOAD PUSH1 0x20 PUSH1 0x1F DUP13 ADD DUP2 SWAP1 DIV DUP2 MUL DUP3 ADD DUP2 ADD SWAP1 SWAP3 MSTORE DUP11 DUP2 MSTORE SWAP2 DUP2 ADD SWAP2 SWAP1 DUP12 SWAP1 DUP12 SWAP1 DUP2 SWAP1 DUP5 ADD DUP4 DUP3 DUP1 DUP3 DUP5 CALLDATACOPY PUSH1 0x0 SWAP3 ADD SWAP2 SWAP1 SWAP2 MSTORE POP POP POP SWAP1 DUP3 MSTORE POP PUSH1 0x40 DUP1 MLOAD PUSH1 0x20 PUSH1 0x1F DUP11 ADD DUP2 SWAP1 DIV DUP2 MUL DUP3 ADD DUP2 ADD SWAP1 SWAP3 MSTORE DUP9 DUP2 MSTORE SWAP2 DUP2 ADD SWAP2 SWAP1 DUP10 SWAP1 DUP10 SWAP1 DUP2 SWAP1 DUP5 ADD DUP4 DUP3 DUP1 DUP3 DUP5 CALLDATACOPY PUSH1 0x0 SWAP3 ADD DUP3 SWAP1 MSTORE POP SWAP4 DUP6 MSTORE POP POP TIMESTAMP PUSH1 0x20 DUP5 ADD MSTORE POP PUSH1 0x40 DUP3 ADD DUP6 SWAP1 MSTORE PUSH1 0x60 DUP3 ADD DUP2 SWAP1 MSTORE PUSH1 0x80 SWAP1 SWAP2 ADD SWAP1 PUSH1 0x40 MLOAD SWAP1 DUP1 DUP3 MSTORE DUP1 PUSH1 0x20 MUL PUSH1 0x20 ADD DUP3 ADD PUSH1 0x40 MSTORE DUP1 ISZERO PUSH2 0x29EF JUMPI DUP2 PUSH1 0x20 ADD JUMPDEST PUSH1 0x60 DUP2 MSTORE PUSH1 0x20 ADD SWAP1 PUSH1 0x1 SWAP1 SUB SWAP1 DUP2 PUSH2 0x29DA JUMPI SWAP1 POP JUMPDEST POP SWAP1 MSTORE DUP1 MLOAD PUSH1 0x1 PUSH1 0x1 PUSH1 0xA0 SHL SUB SWAP1 DUP2 AND PUSH1 0x0 SWAP1 DUP2 MSTORE PUSH1 0x6 PUSH1 0x20 SWAP1 DUP2 MSTORE PUSH1 0x40 DUP3 KECCAK256 DUP1 SLOAD PUSH1 0x1 DUP1 DUP3 ADD DUP4 SSTORE SWAP2 DUP5 MSTORE SWAP3 DUP3 SWAP1 KECCAK256 DUP6 MLOAD PUSH1 0x8 SWAP1 SWAP5 MUL ADD DUP1 SLOAD PUSH1 0x1 PUSH1 0x1 PUSH1 0xA0 SHL SUB NOT AND SWAP4 SWAP1 SWAP5 AND SWAP3 SWAP1 SWAP3 OR DUP4 SSTORE DUP4 ADD MLOAD SWAP3 SWAP4 POP DUP4 SWAP3 SWAP1 DUP3 ADD SWAP1 PUSH2 0x2A53 SWAP1 DUP3 PUSH2 0x3898 JUMP JUMPDEST POP PUSH1 0x40 DUP3 ADD MLOAD PUSH1 0x2 DUP3 ADD SWAP1 PUSH2 0x2A68 SWAP1 DUP3 PUSH2 0x3898 JUMP JUMPDEST POP PUSH1 0x60 DUP3 ADD MLOAD PUSH1 0x3 DUP3 ADD SWAP1 PUSH2 0x2A7D SWAP1 DUP3 PUSH2 0x3898 JUMP JUMPDEST POP PUSH1 0x80 DUP3 ADD MLOAD PUSH1 0x4 DUP3 ADD SSTORE PUSH1 0xA0 DUP3 ADD MLOAD PUSH1 0x5 DUP3 ADD SSTORE PUSH1 0xC0 DUP3 ADD MLOAD PUSH1 0x6 DUP3 ADD SSTORE PUSH1 0xE0 DUP3 ADD MLOAD DUP1 MLOAD PUSH2 0x2AB7 SWAP2 PUSH1 0x7 DUP5 ADD SWAP2 PUSH1 0x20 SWAP1 SWAP2 ADD SWAP1 PUSH2 0x2FB5 JUMP JUMPDEST POP POP DUP2 MLOAD PUSH1 0x1 PUSH1 0x1 PUSH1 0xA0 SHL SUB AND PUSH1 0x0 SWAP1 DUP2 MSTORE PUSH1 0x3 PUSH1 0x20 MSTORE PUSH1 0x40 DUP2 KECCAK256 PUSH1 0x4 ADD DUP1 SLOAD SWAP3 POP SWAP1 PUSH2 0x2AE3 DUP4 PUSH2 0x37AE JUMP JUMPDEST SWAP2 SWAP1 POP SSTORE POP POP POP POP POP POP POP POP POP POP POP JUMP JUMPDEST CALLER PUSH1 0x0 SWAP1 DUP2 MSTORE PUSH1 0x3 PUSH1 0x20 MSTORE PUSH1 0x40 SWAP1 KECCAK256 SLOAD PUSH1 0x1 PUSH1 0x1 PUSH1 0xA0 SHL SUB AND PUSH2 0x2B29 JUMPI PUSH1 0x40 MLOAD PUSH3 0x461BCD PUSH1 0xE5 SHL DUP2 MSTORE PUSH1 0x4 ADD PUSH2 0x388 SWAP1 PUSH2 0x3695 JUMP JUMPDEST PUSH1 0x0 JUMPDEST PUSH1 0x1 SLOAD DUP2 LT ISZERO PUSH2 0x1BAE JUMPI PUSH1 0x0 JUMPDEST PUSH1 0x6 PUSH1 0x0 PUSH1 0x1 DUP5 DUP2 SLOAD DUP2 LT PUSH2 0x2B50 JUMPI PUSH2 0x2B50 PUSH2 0x376B JUMP JUMPDEST PUSH1 0x0 SWAP2 DUP3 MSTORE PUSH1 0x20 DUP1 DUP4 KECCAK256 SWAP1 SWAP2 ADD SLOAD PUSH1 0x1 PUSH1 0x1 PUSH1 0xA0 SHL SUB AND DUP4 MSTORE DUP3 ADD SWAP3 SWAP1 SWAP3 MSTORE PUSH1 0x40 ADD SWAP1 KECCAK256 SLOAD DUP2 LT ISZERO PUSH2 0x2C68 JUMPI DUP3 PUSH1 0x6 PUSH1 0x0 PUSH1 0x1 DUP6 DUP2 SLOAD DUP2 LT PUSH2 0x2B94 JUMPI PUSH2 0x2B94 PUSH2 0x376B JUMP JUMPDEST PUSH1 0x0 SWAP2 DUP3 MSTORE PUSH1 0x20 DUP1 DUP4 KECCAK256 SWAP1 SWAP2 ADD SLOAD PUSH1 0x1 PUSH1 0x1 PUSH1 0xA0 SHL SUB AND DUP4 MSTORE DUP3 ADD SWAP3 SWAP1 SWAP3 MSTORE PUSH1 0x40 ADD SWAP1 KECCAK256 DUP1 SLOAD DUP4 SWAP1 DUP2 LT PUSH2 0x2BCA JUMPI PUSH2 0x2BCA PUSH2 0x376B JUMP JUMPDEST SWAP1 PUSH1 0x0 MSTORE PUSH1 0x20 PUSH1 0x0 KECCAK256 SWAP1 PUSH1 0x8 MUL ADD PUSH1 0x5 ADD SLOAD SUB PUSH2 0x2C56 JUMPI PUSH1 0x6 PUSH1 0x0 PUSH1 0x1 DUP5 DUP2 SLOAD DUP2 LT PUSH2 0x2BF8 JUMPI PUSH2 0x2BF8 PUSH2 0x376B JUMP JUMPDEST PUSH1 0x0 SWAP2 DUP3 MSTORE PUSH1 0x20 DUP1 DUP4 KECCAK256 SWAP1 SWAP2 ADD SLOAD PUSH1 0x1 PUSH1 0x1 PUSH1 0xA0 SHL SUB AND DUP4 MSTORE DUP3 ADD SWAP3 SWAP1 SWAP3 MSTORE PUSH1 0x40 ADD SWAP1 KECCAK256 DUP1 SLOAD DUP3 SWAP1 DUP2 LT PUSH2 0x2C2E JUMPI PUSH2 0x2C2E PUSH2 0x376B JUMP JUMPDEST PUSH1 0x0 SWAP2 DUP3 MSTORE PUSH1 0x20 DUP3 KECCAK256 PUSH1 0x6 PUSH1 0x8 SWAP1 SWAP3 MUL ADD ADD DUP1 SLOAD SWAP2 PUSH2 0x2C4C DUP4 PUSH2 0x3797 JUMP JUMPDEST SWAP2 SWAP1 POP SSTORE POP PUSH2 0x2C68 JUMP JUMPDEST DUP1 PUSH2 0x2C60 DUP2 PUSH2 0x37AE JUMP JUMPDEST SWAP2 POP POP PUSH2 0x2B39 JUMP JUMPDEST POP DUP1 PUSH2 0x2C73 DUP2 PUSH2 0x37AE JUMP JUMPDEST SWAP2 POP POP PUSH2 0x2B2C JUMP JUMPDEST CALLER PUSH1 0x0 SWAP1 DUP2 MSTORE PUSH1 0x3 PUSH1 0x20 MSTORE PUSH1 0x40 SWAP1 KECCAK256 SLOAD PUSH1 0x1 PUSH1 0x1 PUSH1 0xA0 SHL SUB AND PUSH2 0x2CB0 JUMPI PUSH1 0x40 MLOAD PUSH3 0x461BCD PUSH1 0xE5 SHL DUP2 MSTORE PUSH1 0x4 ADD PUSH2 0x388 SWAP1 PUSH2 0x3695 JUMP JUMPDEST PUSH1 0x0 JUMPDEST PUSH1 0x1 SLOAD DUP2 LT ISZERO PUSH2 0x75F JUMPI PUSH1 0x0 JUMPDEST PUSH1 0x6 PUSH1 0x0 PUSH1 0x1 DUP5 DUP2 SLOAD DUP2 LT PUSH2 0x2CD7 JUMPI PUSH2 0x2CD7 PUSH2 0x376B JUMP JUMPDEST PUSH1 0x0 SWAP2 DUP3 MSTORE PUSH1 0x20 DUP1 DUP4 KECCAK256 SWAP1 SWAP2 ADD SLOAD PUSH1 0x1 PUSH1 0x1 PUSH1 0xA0 SHL SUB AND DUP4 MSTORE DUP3 ADD SWAP3 SWAP1 SWAP3 MSTORE PUSH1 0x40 ADD SWAP1 KECCAK256 SLOAD DUP2 LT ISZERO PUSH2 0x2DED JUMPI DUP5 PUSH1 0x6 PUSH1 0x0 PUSH1 0x1 DUP6 DUP2 SLOAD DUP2 LT PUSH2 0x2D1B JUMPI PUSH2 0x2D1B PUSH2 0x376B JUMP JUMPDEST PUSH1 0x0 SWAP2 DUP3 MSTORE PUSH1 0x20 DUP1 DUP4 KECCAK256 SWAP1 SWAP2 ADD SLOAD PUSH1 0x1 PUSH1 0x1 PUSH1 0xA0 SHL SUB AND DUP4 MSTORE DUP3 ADD SWAP3 SWAP1 SWAP3 MSTORE PUSH1 0x40 ADD SWAP1 KECCAK256 DUP1 SLOAD DUP4 SWAP1 DUP2 LT PUSH2 0x2D51 JUMPI PUSH2 0x2D51 PUSH2 0x376B JUMP JUMPDEST SWAP1 PUSH1 0x0 MSTORE PUSH1 0x20 PUSH1 0x0 KECCAK256 SWAP1 PUSH1 0x8 MUL ADD PUSH1 0x5 ADD SLOAD SUB PUSH2 0x2DDB JUMPI DUP4 DUP4 PUSH1 0x6 PUSH1 0x0 PUSH1 0x1 DUP7 DUP2 SLOAD DUP2 LT PUSH2 0x2D81 JUMPI PUSH2 0x2D81 PUSH2 0x376B JUMP JUMPDEST PUSH1 0x0 SWAP2 DUP3 MSTORE PUSH1 0x20 DUP1 DUP4 KECCAK256 SWAP1 SWAP2 ADD SLOAD PUSH1 0x1 PUSH1 0x1 PUSH1 0xA0 SHL SUB AND DUP4 MSTORE DUP3 ADD SWAP3 SWAP1 SWAP3 MSTORE PUSH1 0x40 ADD SWAP1 KECCAK256 DUP1 SLOAD DUP5 SWAP1 DUP2 LT PUSH2 0x2DB7 JUMPI PUSH2 0x2DB7 PUSH2 0x376B JUMP JUMPDEST SWAP1 PUSH1 0x0 MSTORE PUSH1 0x20 PUSH1 0x0 KECCAK256 SWAP1 PUSH1 0x8 MUL ADD PUSH1 0x2 ADD SWAP2 DUP3 PUSH2 0x2DD5 SWAP3 SWAP2 SWAP1 PUSH2 0x3A27 JUMP JUMPDEST POP PUSH2 0x2DED JUMP JUMPDEST DUP1 PUSH2 0x2DE5 DUP2 PUSH2 0x37AE JUMP JUMPDEST SWAP2 POP POP PUSH2 0x2CC0 JUMP JUMPDEST POP DUP1 PUSH2 0x2DF8 DUP2 PUSH2 0x37AE JUMP JUMPDEST SWAP2 POP POP PUSH2 0x2CB3 JUMP JUMPDEST PUSH1 0x0 DUP2 PUSH1 0x1 PUSH1 0x1 PUSH1 0xA0 SHL SUB AND DUP4 PUSH1 0x1 PUSH1 0x1 PUSH1 0xA0 SHL SUB AND LT ISZERO PUSH2 0x2E63 JUMPI PUSH1 0x40 MLOAD PUSH12 0xFFFFFFFFFFFFFFFFFFFFFFFF NOT PUSH1 0x60 DUP6 DUP2 SHL DUP3 AND PUSH1 0x20 DUP5 ADD MSTORE DUP5 SWAP1 SHL AND PUSH1 0x34 DUP3 ADD MSTORE PUSH1 0x48 ADD JUMPDEST PUSH1 0x40 MLOAD PUSH1 0x20 DUP2 DUP4 SUB SUB DUP2 MSTORE SWAP1 PUSH1 0x40 MSTORE DUP1 MLOAD SWAP1 PUSH1 0x20 ADD KECCAK256 SWAP1 POP PUSH2 0x2E91 JUMP JUMPDEST PUSH1 0x40 MLOAD PUSH12 0xFFFFFFFFFFFFFFFFFFFFFFFF NOT PUSH1 0x60 DUP5 DUP2 SHL DUP3 AND PUSH1 0x20 DUP5 ADD MSTORE DUP6 SWAP1 SHL AND PUSH1 0x34 DUP3 ADD MSTORE PUSH1 0x48 ADD PUSH2 0x2E46 JUMP JUMPDEST SWAP3 SWAP2 POP POP JUMP JUMPDEST POP DUP1 SLOAD PUSH2 0x2EA3 SWAP1 PUSH2 0x37C7 JUMP JUMPDEST PUSH1 0x0 DUP3 SSTORE DUP1 PUSH1 0x1F LT PUSH2 0x2EB3 JUMPI POP POP JUMP JUMPDEST PUSH1 0x1F ADD PUSH1 0x20 SWAP1 DIV SWAP1 PUSH1 0x0 MSTORE PUSH1 0x20 PUSH1 0x0 KECCAK256 SWAP1 DUP2 ADD SWAP1 PUSH2 0x2ED1 SWAP2 SWAP1 PUSH2 0x3007 JUMP JUMPDEST POP JUMP JUMPDEST POP DUP1 SLOAD PUSH1 0x0 DUP3 SSTORE SWAP1 PUSH1 0x0 MSTORE PUSH1 0x20 PUSH1 0x0 KECCAK256 SWAP1 DUP2 ADD SWAP1 PUSH2 0x2ED1 SWAP2 SWAP1 PUSH2 0x3007 JUMP JUMPDEST POP DUP1 SLOAD PUSH1 0x0 DUP3 SSTORE SWAP1 PUSH1 0x0 MSTORE PUSH1 0x20 PUSH1 0x0 KECCAK256 SWAP1 DUP2 ADD SWAP1 PUSH2 0x2ED1 SWAP2 SWAP1 PUSH2 0x301C JUMP JUMPDEST DUP3 DUP1 SLOAD DUP3 DUP3 SSTORE SWAP1 PUSH1 0x0 MSTORE PUSH1 0x20 PUSH1 0x0 KECCAK256 SWAP1 DUP2 ADD SWAP3 DUP3 ISZERO PUSH2 0x2F65 JUMPI SWAP2 PUSH1 0x20 MUL DUP3 ADD JUMPDEST DUP3 DUP2 GT ISZERO PUSH2 0x2F65 JUMPI DUP3 MLOAD DUP3 SLOAD PUSH1 0x1 PUSH1 0x1 PUSH1 0xA0 SHL SUB NOT AND PUSH1 0x1 PUSH1 0x1 PUSH1 0xA0 SHL SUB SWAP1 SWAP2 AND OR DUP3 SSTORE PUSH1 0x20 SWAP1 SWAP3 ADD SWAP2 PUSH1 0x1 SWAP1 SWAP2 ADD SWAP1 PUSH2 0x2F30 JUMP JUMPDEST POP PUSH2 0x2F71 SWAP3 SWAP2 POP PUSH2 0x3007 JUMP JUMPDEST POP SWAP1 JUMP JUMPDEST DUP3 DUP1 SLOAD DUP3 DUP3 SSTORE SWAP1 PUSH1 0x0 MSTORE PUSH1 0x20 PUSH1 0x0 KECCAK256 SWAP1 DUP2 ADD SWAP3 DUP3 ISZERO PUSH2 0x2F65 JUMPI PUSH1 0x0 MSTORE PUSH1 0x20 PUSH1 0x0 KECCAK256 SWAP2 DUP3 ADD JUMPDEST DUP3 DUP2 GT ISZERO PUSH2 0x2F65 JUMPI DUP3 SLOAD DUP3 SSTORE SWAP2 PUSH1 0x1 ADD SWAP2 SWAP1 PUSH1 0x1 ADD SWAP1 PUSH2 0x2F9A JUMP JUMPDEST DUP3 DUP1 SLOAD DUP3 DUP3 SSTORE SWAP1 PUSH1 0x0 MSTORE PUSH1 0x20 PUSH1 0x0 KECCAK256 SWAP1 DUP2 ADD SWAP3 DUP3 ISZERO PUSH2 0x2FFB JUMPI SWAP2 PUSH1 0x20 MUL DUP3 ADD JUMPDEST DUP3 DUP2 GT ISZERO PUSH2 0x2FFB JUMPI DUP3 MLOAD DUP3 SWAP1 PUSH2 0x2FEB SWAP1 DUP3 PUSH2 0x3898 JUMP JUMPDEST POP SWAP2 PUSH1 0x20 ADD SWAP2 SWAP1 PUSH1 0x1 ADD SWAP1 PUSH2 0x2FD5 JUMP JUMPDEST POP PUSH2 0x2F71 SWAP3 SWAP2 POP PUSH2 0x301C JUMP JUMPDEST JUMPDEST DUP1 DUP3 GT ISZERO PUSH2 0x2F71 JUMPI PUSH1 0x0 DUP2 SSTORE PUSH1 0x1 ADD PUSH2 0x3008 JUMP JUMPDEST DUP1 DUP3 GT ISZERO PUSH2 0x2F71 JUMPI PUSH1 0x0 PUSH2 0x3030 DUP3 DUP3 PUSH2 0x2E97 JUMP JUMPDEST POP PUSH1 0x1 ADD PUSH2 0x301C JUMP JUMPDEST DUP1 CALLDATALOAD PUSH1 0x1 PUSH1 0x1 PUSH1 0xA0 SHL SUB DUP2 AND DUP2 EQ PUSH2 0x3050 JUMPI PUSH1 0x0 DUP1 REVERT JUMPDEST SWAP2 SWAP1 POP JUMP JUMPDEST PUSH1 0x0 PUSH1 0x20 DUP3 DUP5 SUB SLT ISZERO PUSH2 0x3067 JUMPI PUSH1 0x0 DUP1 REVERT JUMPDEST PUSH2 0x3070 DUP3 PUSH2 0x3039 JUMP JUMPDEST SWAP4 SWAP3 POP POP POP JUMP JUMPDEST PUSH1 0x0 PUSH1 0x20 DUP3 DUP5 SUB SLT ISZERO PUSH2 0x3089 JUMPI PUSH1 0x0 DUP1 REVERT JUMPDEST POP CALLDATALOAD SWAP2 SWAP1 POP JUMP JUMPDEST PUSH1 0x0 DUP2 MLOAD DUP1 DUP5 MSTORE PUSH1 0x0 JUMPDEST DUP2 DUP2 LT ISZERO PUSH2 0x30B6 JUMPI PUSH1 0x20 DUP2 DUP6 ADD DUP2 ADD MLOAD DUP7 DUP4 ADD DUP3 ADD MSTORE ADD PUSH2 0x309A JUMP JUMPDEST POP PUSH1 0x0 PUSH1 0x20 DUP3 DUP7 ADD ADD MSTORE PUSH1 0x20 PUSH1 0x1F NOT PUSH1 0x1F DUP4 ADD AND DUP6 ADD ADD SWAP2 POP POP SWAP3 SWAP2 POP POP JUMP JUMPDEST PUSH1 0x0 PUSH1 0x20 DUP1 DUP4 ADD DUP2 DUP5 MSTORE DUP1 DUP6 MLOAD DUP1 DUP4 MSTORE PUSH1 0x40 SWAP3 POP DUP3 DUP7 ADD SWAP2 POP DUP3 DUP2 PUSH1 0x5 SHL DUP8 ADD ADD DUP5 DUP9 ADD PUSH1 0x0 JUMPDEST DUP4 DUP2 LT ISZERO PUSH2 0x3150 JUMPI DUP9 DUP4 SUB PUSH1 0x3F NOT ADD DUP6 MSTORE DUP2 MLOAD DUP1 MLOAD PUSH1 0x1 PUSH1 0x1 PUSH1 0xA0 SHL SUB AND DUP5 MSTORE DUP8 DUP2 ADD MLOAD DUP9 DUP6 ADD MSTORE DUP7 ADD MLOAD PUSH1 0x60 DUP8 DUP6 ADD DUP2 SWAP1 MSTORE PUSH2 0x313C DUP2 DUP7 ADD DUP4 PUSH2 0x3090 JUMP JUMPDEST SWAP7 DUP10 ADD SWAP7 SWAP5 POP POP POP SWAP1 DUP7 ADD SWAP1 PUSH1 0x1 ADD PUSH2 0x30FD JUMP JUMPDEST POP SWAP1 SWAP9 SWAP8 POP POP POP POP POP POP POP POP JUMP JUMPDEST PUSH1 0x0 DUP2 MLOAD DUP1 DUP5 MSTORE PUSH1 0x20 DUP1 DUP6 ADD DUP1 DUP2 SWAP7 POP DUP4 PUSH1 0x5 SHL DUP2 ADD SWAP2 POP DUP3 DUP7 ADD PUSH1 0x0 JUMPDEST DUP6 DUP2 LT ISZERO PUSH2 0x31A6 JUMPI DUP3 DUP5 SUB DUP10 MSTORE PUSH2 0x3194 DUP5 DUP4 MLOAD PUSH2 0x3090 JUMP JUMPDEST SWAP9 DUP6 ADD SWAP9 SWAP4 POP SWAP1 DUP5 ADD SWAP1 PUSH1 0x1 ADD PUSH2 0x317C JUMP JUMPDEST POP SWAP2 SWAP8 SWAP7 POP POP POP POP POP POP POP JUMP JUMPDEST PUSH1 0x0 PUSH1 0x20 DUP1 DUP4 ADD DUP2 DUP5 MSTORE DUP1 DUP6 MLOAD DUP1 DUP4 MSTORE PUSH1 0x40 SWAP3 POP DUP3 DUP7 ADD SWAP2 POP DUP3 DUP2 PUSH1 0x5 SHL DUP8 ADD ADD DUP5 DUP9 ADD PUSH1 0x0 JUMPDEST DUP4 DUP2 LT ISZERO PUSH2 0x3150 JUMPI DUP9 DUP4 SUB PUSH1 0x3F NOT ADD DUP6 MSTORE DUP2 MLOAD DUP1 MLOAD PUSH1 0x1 PUSH1 0x1 PUSH1 0xA0 SHL SUB AND DUP5 MSTORE PUSH2 0x100 DUP9 DUP3 ADD MLOAD DUP2 DUP11 DUP8 ADD MSTORE PUSH2 0x3212 DUP3 DUP8 ADD DUP3 PUSH2 0x3090 JUMP JUMPDEST SWAP2 POP POP DUP8 DUP3 ADD MLOAD DUP6 DUP3 SUB DUP10 DUP8 ADD MSTORE PUSH2 0x322A DUP3 DUP3 PUSH2 0x3090 JUMP JUMPDEST SWAP2 POP POP PUSH1 0x60 DUP1 DUP4 ADD MLOAD DUP7 DUP4 SUB DUP3 DUP9 ADD MSTORE PUSH2 0x3244 DUP4 DUP3 PUSH2 0x3090 JUMP JUMPDEST PUSH1 0x80 DUP6 DUP2 ADD MLOAD SWAP1 DUP10 ADD MSTORE PUSH1 0xA0 DUP1 DUP7 ADD MLOAD SWAP1 DUP10 ADD MSTORE PUSH1 0xC0 DUP1 DUP7 ADD MLOAD SWAP1 DUP10 ADD MSTORE PUSH1 0xE0 SWAP5 DUP6 ADD MLOAD DUP9 DUP3 SUB SWAP6 DUP10 ADD SWAP6 SWAP1 SWAP6 MSTORE SWAP3 POP PUSH2 0x3282 SWAP2 POP DUP3 SWAP1 POP DUP4 PUSH2 0x315E JUMP JUMPDEST SWAP7 DUP10 ADD SWAP7 SWAP5 POP POP POP SWAP1 DUP7 ADD SWAP1 PUSH1 0x1 ADD PUSH2 0x31DA JUMP JUMPDEST PUSH1 0x0 DUP1 DUP4 PUSH1 0x1F DUP5 ADD SLT PUSH2 0x32A8 JUMPI PUSH1 0x0 DUP1 REVERT JUMPDEST POP DUP2 CALLDATALOAD PUSH8 0xFFFFFFFFFFFFFFFF DUP2 GT ISZERO PUSH2 0x32C0 JUMPI PUSH1 0x0 DUP1 REVERT JUMPDEST PUSH1 0x20 DUP4 ADD SWAP2 POP DUP4 PUSH1 0x20 DUP3 DUP6 ADD ADD GT ISZERO PUSH2 0x32D8 JUMPI PUSH1 0x0 DUP1 REVERT JUMPDEST SWAP3 POP SWAP3 SWAP1 POP JUMP JUMPDEST PUSH1 0x0 DUP1 PUSH1 0x20 DUP4 DUP6 SUB SLT ISZERO PUSH2 0x32F2 JUMPI PUSH1 0x0 DUP1 REVERT JUMPDEST DUP3 CALLDATALOAD PUSH8 0xFFFFFFFFFFFFFFFF DUP2 GT ISZERO PUSH2 0x3309 JUMPI PUSH1 0x0 DUP1 REVERT JUMPDEST PUSH2 0x3315 DUP6 DUP3 DUP7 ADD PUSH2 0x3296 JUMP JUMPDEST SWAP1 SWAP7 SWAP1 SWAP6 POP SWAP4 POP POP POP POP JUMP JUMPDEST PUSH1 0x0 DUP1 PUSH1 0x0 PUSH1 0x40 DUP5 DUP7 SUB SLT ISZERO PUSH2 0x3336 JUMPI PUSH1 0x0 DUP1 REVERT JUMPDEST DUP4 CALLDATALOAD PUSH8 0xFFFFFFFFFFFFFFFF DUP2 GT ISZERO PUSH2 0x334D JUMPI PUSH1 0x0 DUP1 REVERT JUMPDEST PUSH2 0x3359 DUP7 DUP3 DUP8 ADD PUSH2 0x3296 JUMP JUMPDEST SWAP1 SWAP8 SWAP1 SWAP7 POP PUSH1 0x20 SWAP6 SWAP1 SWAP6 ADD CALLDATALOAD SWAP5 SWAP4 POP POP POP POP JUMP JUMPDEST PUSH1 0x0 PUSH1 0x20 DUP1 DUP4 ADD DUP2 DUP5 MSTORE DUP1 DUP6 MLOAD DUP1 DUP4 MSTORE PUSH1 0x40 SWAP3 POP DUP3 DUP7 ADD SWAP2 POP DUP3 DUP2 PUSH1 0x5 SHL DUP8 ADD ADD DUP5 DUP9 ADD PUSH1 0x0 JUMPDEST DUP4 DUP2 LT ISZERO PUSH2 0x3150 JUMPI DUP9 DUP4 SUB PUSH1 0x3F NOT ADD DUP6 MSTORE DUP2 MLOAD DUP1 MLOAD PUSH1 0x1 PUSH1 0x1 PUSH1 0xA0 SHL SUB AND DUP5 MSTORE DUP8 DUP2 ADD MLOAD PUSH1 0xE0 DUP10 DUP7 ADD DUP2 SWAP1 MSTORE SWAP1 PUSH2 0x33CD DUP3 DUP8 ADD DUP3 PUSH2 0x3090 JUMP JUMPDEST DUP4 DUP11 ADD MLOAD DUP8 DUP12 ADD MSTORE PUSH1 0x60 DUP1 DUP6 ADD MLOAD SWAP1 DUP9 ADD MSTORE PUSH1 0x80 DUP1 DUP6 ADD MLOAD SWAP1 DUP9 ADD MSTORE PUSH1 0xA0 DUP1 DUP6 ADD MLOAD SWAP1 DUP9 ADD MSTORE PUSH1 0xC0 SWAP4 DUP5 ADD MLOAD SWAP4 SWAP1 SWAP7 ADD SWAP3 SWAP1 SWAP3 MSTORE POP POP SWAP4 DUP7 ADD SWAP4 SWAP1 DUP7 ADD SWAP1 PUSH1 0x1 ADD PUSH2 0x3394 JUMP JUMPDEST PUSH1 0x20 DUP1 DUP3 MSTORE DUP3 MLOAD DUP3 DUP3 ADD DUP2 SWAP1 MSTORE PUSH1 0x0 SWAP2 SWAP1 DUP5 DUP3 ADD SWAP1 PUSH1 0x40 DUP6 ADD SWAP1 DUP5 JUMPDEST DUP2 DUP2 LT ISZERO PUSH2 0x3454 JUMPI DUP4 MLOAD PUSH1 0x1 PUSH1 0x1 PUSH1 0xA0 SHL SUB AND DUP4 MSTORE SWAP3 DUP5 ADD SWAP3 SWAP2 DUP5 ADD SWAP2 PUSH1 0x1 ADD PUSH2 0x342F JUMP JUMPDEST POP SWAP1 SWAP7 SWAP6 POP POP POP POP POP POP JUMP JUMPDEST PUSH1 0x1 PUSH1 0x1 PUSH1 0xA0 SHL SUB DUP10 AND DUP2 MSTORE PUSH2 0x100 PUSH1 0x20 DUP1 DUP4 ADD DUP3 SWAP1 MSTORE PUSH1 0x0 SWAP2 SWAP1 PUSH2 0x3487 DUP5 DUP4 ADD DUP13 PUSH2 0x3090 JUMP JUMPDEST SWAP2 POP DUP4 DUP3 SUB PUSH1 0x40 DUP6 ADD MSTORE PUSH2 0x349B DUP3 DUP12 PUSH2 0x3090 JUMP JUMPDEST SWAP2 POP DUP4 DUP3 SUB PUSH1 0x60 DUP6 ADD MSTORE PUSH2 0x34AF DUP3 DUP11 PUSH2 0x3090 JUMP JUMPDEST SWAP2 POP DUP8 PUSH1 0x80 DUP6 ADD MSTORE DUP7 PUSH1 0xA0 DUP6 ADD MSTORE DUP6 PUSH1 0xC0 DUP6 ADD MSTORE DUP4 DUP3 SUB PUSH1 0xE0 DUP6 ADD MSTORE DUP2 DUP6 MLOAD DUP1 DUP5 MSTORE DUP3 DUP5 ADD SWAP2 POP DUP3 DUP2 PUSH1 0x5 SHL DUP6 ADD ADD DUP4 DUP9 ADD PUSH1 0x0 JUMPDEST DUP4 DUP2 LT ISZERO PUSH2 0x3512 JUMPI PUSH1 0x1F NOT DUP8 DUP5 SUB ADD DUP6 MSTORE PUSH2 0x3500 DUP4 DUP4 MLOAD PUSH2 0x3090 JUMP JUMPDEST SWAP5 DUP7 ADD SWAP5 SWAP3 POP SWAP1 DUP6 ADD SWAP1 PUSH1 0x1 ADD PUSH2 0x34E4 JUMP JUMPDEST POP SWAP1 SWAP16 SWAP15 POP POP POP POP POP POP POP POP POP POP POP POP POP POP POP JUMP JUMPDEST PUSH1 0x1 PUSH1 0x1 PUSH1 0xA0 SHL SUB DUP9 AND DUP2 MSTORE PUSH1 0xE0 PUSH1 0x20 DUP3 ADD DUP2 SWAP1 MSTORE PUSH1 0x0 SWAP1 PUSH2 0x354B SWAP1 DUP4 ADD DUP10 PUSH2 0x3090 JUMP JUMPDEST PUSH1 0x40 DUP4 ADD SWAP8 SWAP1 SWAP8 MSTORE POP PUSH1 0x60 DUP2 ADD SWAP5 SWAP1 SWAP5 MSTORE PUSH1 0x80 DUP5 ADD SWAP3 SWAP1 SWAP3 MSTORE PUSH1 0xA0 DUP4 ADD MSTORE PUSH1 0xC0 SWAP1 SWAP2 ADD MSTORE SWAP3 SWAP2 POP POP JUMP JUMPDEST PUSH1 0x0 DUP1 PUSH1 0x0 PUSH1 0x40 DUP5 DUP7 SUB SLT ISZERO PUSH2 0x358A JUMPI PUSH1 0x0 DUP1 REVERT JUMPDEST PUSH2 0x3593 DUP5 PUSH2 0x3039 JUMP JUMPDEST SWAP3 POP PUSH1 0x20 DUP5 ADD CALLDATALOAD PUSH8 0xFFFFFFFFFFFFFFFF DUP2 GT ISZERO PUSH2 0x35AF JUMPI PUSH1 0x0 DUP1 REVERT JUMPDEST PUSH2 0x35BB DUP7 DUP3 DUP8 ADD PUSH2 0x3296 JUMP JUMPDEST SWAP5 SWAP8 SWAP1 SWAP7 POP SWAP4 SWAP5 POP POP POP POP JUMP JUMPDEST PUSH1 0x0 DUP1 PUSH1 0x0 DUP1 PUSH1 0x0 DUP1 PUSH1 0x60 DUP8 DUP10 SUB SLT ISZERO PUSH2 0x35E1 JUMPI PUSH1 0x0 DUP1 REVERT JUMPDEST DUP7 CALLDATALOAD PUSH8 0xFFFFFFFFFFFFFFFF DUP1 DUP3 GT ISZERO PUSH2 0x35F9 JUMPI PUSH1 0x0 DUP1 REVERT JUMPDEST PUSH2 0x3605 DUP11 DUP4 DUP12 ADD PUSH2 0x3296 JUMP JUMPDEST SWAP1 SWAP9 POP SWAP7 POP PUSH1 0x20 DUP10 ADD CALLDATALOAD SWAP2 POP DUP1 DUP3 GT ISZERO PUSH2 0x361E JUMPI PUSH1 0x0 DUP1 REVERT JUMPDEST PUSH2 0x362A DUP11 DUP4 DUP12 ADD PUSH2 0x3296 JUMP JUMPDEST SWAP1 SWAP7 POP SWAP5 POP PUSH1 0x40 DUP10 ADD CALLDATALOAD SWAP2 POP DUP1 DUP3 GT ISZERO PUSH2 0x3643 JUMPI PUSH1 0x0 DUP1 REVERT JUMPDEST POP PUSH2 0x3650 DUP10 DUP3 DUP11 ADD PUSH2 0x3296 JUMP JUMPDEST SWAP8 SWAP11 SWAP7 SWAP10 POP SWAP5 SWAP8 POP SWAP3 SWAP6 SWAP4 SWAP5 SWAP3 POP POP POP JUMP JUMPDEST PUSH1 0x0 DUP1 PUSH1 0x0 PUSH1 0x40 DUP5 DUP7 SUB SLT ISZERO PUSH2 0x3677 JUMPI PUSH1 0x0 DUP1 REVERT JUMPDEST DUP4 CALLDATALOAD SWAP3 POP PUSH1 0x20 DUP5 ADD CALLDATALOAD PUSH8 0xFFFFFFFFFFFFFFFF DUP2 GT ISZERO PUSH2 0x35AF JUMPI PUSH1 0x0 DUP1 REVERT JUMPDEST PUSH1 0x20 DUP1 DUP3 MSTORE PUSH1 0x35 SWAP1 DUP3 ADD MSTORE PUSH32 0x4552524F523A203C4D7573742063726561746520612070726F66696C6520746F PUSH1 0x40 DUP3 ADD MSTORE PUSH21 0x103832B93337B936903A3434B99030B1BA34B7B71F PUSH1 0x59 SHL PUSH1 0x60 DUP3 ADD MSTORE PUSH1 0x80 ADD SWAP1 JUMP JUMPDEST PUSH1 0x20 DUP1 DUP3 MSTORE PUSH1 0x1F SWAP1 DUP3 ADD MSTORE PUSH32 0x4552524F523A203C50726F66696C6520646F6573206E6F742065786973743E00 PUSH1 0x40 DUP3 ADD MSTORE PUSH1 0x60 ADD SWAP1 JUMP JUMPDEST PUSH1 0x20 DUP1 DUP3 MSTORE PUSH1 0x2A SWAP1 DUP3 ADD MSTORE PUSH32 0x4552524F52203C596F752063616E6E6F7420666F6C6C6F772F756E666F6C6C6F PUSH1 0x40 DUP3 ADD MSTORE PUSH10 0x3B903CB7BAB939B2B633 PUSH1 0xB1 SHL PUSH1 0x60 DUP3 ADD MSTORE PUSH1 0x80 ADD SWAP1 JUMP JUMPDEST PUSH4 0x4E487B71 PUSH1 0xE0 SHL PUSH1 0x0 MSTORE PUSH1 0x32 PUSH1 0x4 MSTORE PUSH1 0x24 PUSH1 0x0 REVERT JUMPDEST PUSH4 0x4E487B71 PUSH1 0xE0 SHL PUSH1 0x0 MSTORE PUSH1 0x11 PUSH1 0x4 MSTORE PUSH1 0x24 PUSH1 0x0 REVERT JUMPDEST PUSH1 0x0 DUP2 PUSH2 0x37A6 JUMPI PUSH2 0x37A6 PUSH2 0x3781 JUMP JUMPDEST POP PUSH1 0x0 NOT ADD SWAP1 JUMP JUMPDEST PUSH1 0x0 PUSH1 0x1 DUP3 ADD PUSH2 0x37C0 JUMPI PUSH2 0x37C0 PUSH2 0x3781 JUMP JUMPDEST POP PUSH1 0x1 ADD SWAP1 JUMP JUMPDEST PUSH1 0x1 DUP2 DUP2 SHR SWAP1 DUP3 AND DUP1 PUSH2 0x37DB JUMPI PUSH1 0x7F DUP3 AND SWAP2 POP JUMPDEST PUSH1 0x20 DUP3 LT DUP2 SUB PUSH2 0x16EE JUMPI PUSH4 0x4E487B71 PUSH1 0xE0 SHL PUSH1 0x0 MSTORE PUSH1 0x22 PUSH1 0x4 MSTORE PUSH1 0x24 PUSH1 0x0 REVERT JUMPDEST DUP1 DUP3 ADD DUP1 DUP3 GT ISZERO PUSH2 0x2E91 JUMPI PUSH2 0x2E91 PUSH2 0x3781 JUMP JUMPDEST PUSH4 0x4E487B71 PUSH1 0xE0 SHL PUSH1 0x0 MSTORE PUSH1 0x41 PUSH1 0x4 MSTORE PUSH1 0x24 PUSH1 0x0 REVERT JUMPDEST DUP2 DUP4 DUP3 CALLDATACOPY PUSH1 0x0 SWAP2 ADD SWAP1 DUP2 MSTORE SWAP2 SWAP1 POP JUMP JUMPDEST PUSH1 0x1F DUP3 GT ISZERO PUSH2 0x387E JUMPI PUSH1 0x0 DUP2 DUP2 MSTORE PUSH1 0x20 DUP2 KECCAK256 PUSH1 0x1F DUP6 ADD PUSH1 0x5 SHR DUP2 ADD PUSH1 0x20 DUP7 LT ISZERO PUSH2 0x385B JUMPI POP DUP1 JUMPDEST PUSH1 0x1F DUP6 ADD PUSH1 0x5 SHR DUP3 ADD SWAP2 POP JUMPDEST DUP2 DUP2 LT ISZERO PUSH2 0x387A JUMPI DUP3 DUP2 SSTORE PUSH1 0x1 ADD PUSH2 0x3867 JUMP JUMPDEST POP POP POP JUMPDEST POP POP POP JUMP JUMPDEST PUSH1 0x0 NOT PUSH1 0x3 DUP4 SWAP1 SHL SHR NOT AND PUSH1 0x1 SWAP2 SWAP1 SWAP2 SHL OR SWAP1 JUMP JUMPDEST DUP2 MLOAD PUSH8 0xFFFFFFFFFFFFFFFF DUP2 GT ISZERO PUSH2 0x38B2 JUMPI PUSH2 0x38B2 PUSH2 0x380E JUMP JUMPDEST PUSH2 0x38C6 DUP2 PUSH2 0x38C0 DUP5 SLOAD PUSH2 0x37C7 JUMP JUMPDEST DUP5 PUSH2 0x3834 JUMP JUMPDEST PUSH1 0x20 DUP1 PUSH1 0x1F DUP4 GT PUSH1 0x1 DUP2 EQ PUSH2 0x38F5 JUMPI PUSH1 0x0 DUP5 ISZERO PUSH2 0x38E3 JUMPI POP DUP6 DUP4 ADD MLOAD JUMPDEST PUSH2 0x38ED DUP6 DUP3 PUSH2 0x3883 JUMP JUMPDEST DUP7 SSTORE POP PUSH2 0x387A JUMP JUMPDEST PUSH1 0x0 DUP6 DUP2 MSTORE PUSH1 0x20 DUP2 KECCAK256 PUSH1 0x1F NOT DUP7 AND SWAP2 JUMPDEST DUP3 DUP2 LT ISZERO PUSH2 0x3924 JUMPI DUP9 DUP7 ADD MLOAD DUP3 SSTORE SWAP5 DUP5 ADD SWAP5 PUSH1 0x1 SWAP1 SWAP2 ADD SWAP1 DUP5 ADD PUSH2 0x3905 JUMP JUMPDEST POP DUP6 DUP3 LT ISZERO PUSH2 0x3942 JUMPI DUP8 DUP6 ADD MLOAD PUSH1 0x0 NOT PUSH1 0x3 DUP9 SWAP1 SHL PUSH1 0xF8 AND SHR NOT AND DUP2 SSTORE JUMPDEST POP POP POP POP POP PUSH1 0x1 SWAP1 DUP2 SHL ADD SWAP1 SSTORE POP JUMP JUMPDEST DUP2 DUP2 SUB PUSH2 0x395D JUMPI POP POP JUMP JUMPDEST PUSH2 0x3967 DUP3 SLOAD PUSH2 0x37C7 JUMP JUMPDEST PUSH8 0xFFFFFFFFFFFFFFFF DUP2 GT ISZERO PUSH2 0x397F JUMPI PUSH2 0x397F PUSH2 0x380E JUMP JUMPDEST PUSH2 0x398D DUP2 PUSH2 0x38C0 DUP5 SLOAD PUSH2 0x37C7 JUMP JUMPDEST PUSH1 0x0 PUSH1 0x1F DUP3 GT PUSH1 0x1 DUP2 EQ PUSH2 0x39BB JUMPI PUSH1 0x0 DUP4 ISZERO PUSH2 0x39A9 JUMPI POP DUP5 DUP3 ADD SLOAD JUMPDEST PUSH2 0x39B3 DUP5 DUP3 PUSH2 0x3883 JUMP JUMPDEST DUP6 SSTORE POP PUSH2 0x3A20 JUMP JUMPDEST PUSH1 0x0 DUP6 DUP2 MSTORE PUSH1 0x20 SWAP1 KECCAK256 PUSH1 0x1F NOT DUP5 AND SWAP1 PUSH1 0x0 DUP7 DUP2 MSTORE PUSH1 0x20 SWAP1 KECCAK256 DUP5 JUMPDEST DUP4 DUP2 LT ISZERO PUSH2 0x39F5 JUMPI DUP3 DUP7 ADD SLOAD DUP3 SSTORE PUSH1 0x1 SWAP6 DUP7 ADD SWAP6 SWAP1 SWAP2 ADD SWAP1 PUSH1 0x20 ADD PUSH2 0x39D5 JUMP JUMPDEST POP DUP6 DUP4 LT ISZERO PUSH2 0x3A13 JUMPI DUP2 DUP6 ADD SLOAD PUSH1 0x0 NOT PUSH1 0x3 DUP9 SWAP1 SHL PUSH1 0xF8 AND SHR NOT AND DUP2 SSTORE JUMPDEST POP POP POP PUSH1 0x1 DUP4 PUSH1 0x1 SHL ADD DUP5 SSTORE JUMPDEST POP POP POP POP POP JUMP JUMPDEST PUSH8 0xFFFFFFFFFFFFFFFF DUP4 GT ISZERO PUSH2 0x3A3F JUMPI PUSH2 0x3A3F PUSH2 0x380E JUMP JUMPDEST PUSH2 0x3A53 DUP4 PUSH2 0x3A4D DUP4 SLOAD PUSH2 0x37C7 JUMP JUMPDEST DUP4 PUSH2 0x3834 JUMP JUMPDEST PUSH1 0x0 PUSH1 0x1F DUP5 GT PUSH1 0x1 DUP2 EQ PUSH2 0x3A81 JUMPI PUSH1 0x0 DUP6 ISZERO PUSH2 0x3A6F JUMPI POP DUP4 DUP3 ADD CALLDATALOAD JUMPDEST PUSH2 0x3A79 DUP7 DUP3 PUSH2 0x3883 JUMP JUMPDEST DUP5 SSTORE POP PUSH2 0x3A20 JUMP JUMPDEST PUSH1 0x0 DUP4 DUP2 MSTORE PUSH1 0x20 SWAP1 KECCAK256 PUSH1 0x1F NOT DUP7 AND SWAP1 DUP4 JUMPDEST DUP3 DUP2 LT ISZERO PUSH2 0x3AB2 JUMPI DUP7 DUP6 ADD CALLDATALOAD DUP3 SSTORE PUSH1 0x20 SWAP5 DUP6 ADD SWAP5 PUSH1 0x1 SWAP1 SWAP3 ADD SWAP2 ADD PUSH2 0x3A92 JUMP JUMPDEST POP DUP7 DUP3 LT ISZERO PUSH2 0x3ACF JUMPI PUSH1 0x0 NOT PUSH1 0xF8 DUP9 PUSH1 0x3 SHL AND SHR NOT DUP5 DUP8 ADD CALLDATALOAD AND DUP2 SSTORE JUMPDEST POP POP PUSH1 0x1 DUP6 PUSH1 0x1 SHL ADD DUP4 SSTORE POP POP POP POP POP JUMP INVALID LOG2 PUSH5 0x6970667358 0x22 SLT KECCAK256 AND 0x2C SLOAD 0x26 0xCD LOG3 PUSH7 0x63CAA485D885F RETURN 0xC CODECOPY SMOD SLT MSTORE DELEGATECALL 0xDE SWAP1 RETURNDATACOPY JUMPDEST 0xC5 LOG4 0xC 0xBD 0x5E CALLDATASIZE GASLIMIT PUSH5 0x736F6C6343 STOP ADDMOD EQ STOP CALLER "},"methodIdentifiers":{"_postID()":"eea3ae91","_userID()":"8865fb75","addComment(string,uint256)":"96a3d8d7","admin()":"f851a440","createPost(string,string,string)":"e8a4a1eb","createProfile(string)":"334c3f0e","deletePost(uint256)":"094cd5ee","editPost(uint256,string)":"fa99654a","follow(address)":"4dbf27cc","getAddresses()":"a39fac12","getAllAppUser()":"a24d41de","getAllPosts()":"30561100","getFollowers(address)":"c2fe2022","getFollowing(address)":"d8236dff","getPosts(address)":"4caf9d0b","getSinglePost(uint256)":"b86e6f09","getUserCount()":"b5cb15f7","likePost(uint256)":"725009d3","profiles(address)":"bbe15627","readMessage(address)":"255e9c11","sendMessage(address,string)":"de6f24bb","unfollow(address)":"015a4ead","unlikePost(uint256)":"fa188de9"}}}}}