{"contracts/SocialNetwork.sol":{"SocialNetwork":{"abi":[{"inputs":[],"stateMutability":"nonpayable","type":"constructor"},{"inputs":[{"internalType":"address","name":"owner","type":"address"}],"name":"OwnableInvalidOwner","type":"error"},{"inputs":[{"internalType":"address","name":"account","type":"address"}],"name":"OwnableUnauthorizedAccount","type":"error"},{"anonymous":false,"inputs":[{"indexed":true,"internalType":"address","name":"owner","type":"address"},{"indexed":false,"internalType":"uint256","name":"amount","type":"uint256"},{"indexed":false,"internalType":"uint256","name":"timestamp","type":"uint256"}],"name":"EtherWithdrawn","type":"event"},{"anonymous":false,"inputs":[{"indexed":true,"internalType":"address","name":"previousOwner","type":"address"},{"indexed":true,"internalType":"address","name":"newOwner","type":"address"}],"name":"OwnershipTransferred","type":"event"},{"anonymous":false,"inputs":[{"indexed":true,"internalType":"address","name":"updater","type":"address"},{"indexed":false,"internalType":"string","name":"newMessage","type":"string"},{"indexed":false,"internalType":"bool","name":"premiumUser","type":"bool"},{"indexed":false,"internalType":"uint256","name":"value","type":"uint256"},{"indexed":false,"internalType":"uint256","name":"timestamp","type":"uint256"}],"name":"PlatformMessageUpdated","type":"event"},{"anonymous":false,"inputs":[{"indexed":true,"internalType":"address","name":"userAddress","type":"address"},{"indexed":false,"internalType":"string","name":"content","type":"string"},{"indexed":false,"internalType":"uint256","name":"timestamp","type":"uint256"}],"name":"UserPostCreated","type":"event"},{"anonymous":false,"inputs":[{"indexed":true,"internalType":"address","name":"userAddress","type":"address"},{"indexed":false,"internalType":"string","name":"username","type":"string"},{"indexed":false,"internalType":"string","name":"bio","type":"string"},{"indexed":false,"internalType":"uint256","name":"timestamp","type":"uint256"}],"name":"UserProfileCreated","type":"event"},{"inputs":[{"internalType":"string","name":"_content","type":"string"}],"name":"createUserPost","outputs":[],"stateMutability":"nonpayable","type":"function"},{"inputs":[{"internalType":"string","name":"_username","type":"string"},{"internalType":"string","name":"_bio","type":"string"}],"name":"createUserProfile","outputs":[],"stateMutability":"nonpayable","type":"function"},{"inputs":[{"internalType":"address","name":"_userAddress","type":"address"}],"name":"getUserPosts","outputs":[{"components":[{"internalType":"address","name":"userAddress","type":"address"},{"internalType":"string","name":"content","type":"string"},{"internalType":"uint256","name":"timestamp","type":"uint256"}],"internalType":"struct SocialNetwork.UserPost[]","name":"","type":"tuple[]"}],"stateMutability":"view","type":"function"},{"inputs":[{"internalType":"address","name":"_userAddress","type":"address"}],"name":"getUserProfile","outputs":[{"components":[{"internalType":"address","name":"userAddress","type":"address"},{"internalType":"string","name":"username","type":"string"},{"internalType":"string","name":"bio","type":"string"},{"internalType":"uint256","name":"createdAt","type":"uint256"}],"internalType":"struct SocialNetwork.UserProfile","name":"","type":"tuple"}],"stateMutability":"view","type":"function"},{"inputs":[],"name":"interactionCounter","outputs":[{"internalType":"uint256","name":"","type":"uint256"}],"stateMutability":"view","type":"function"},{"inputs":[],"name":"owner","outputs":[{"internalType":"address","name":"","type":"address"}],"stateMutability":"view","type":"function"},{"inputs":[],"name":"platformMessage","outputs":[{"internalType":"string","name":"","type":"string"}],"stateMutability":"view","type":"function"},{"inputs":[],"name":"premiumUser","outputs":[{"internalType":"bool","name":"","type":"bool"}],"stateMutability":"view","type":"function"},{"inputs":[],"name":"renounceOwnership","outputs":[],"stateMutability":"nonpayable","type":"function"},{"inputs":[{"internalType":"address","name":"newOwner","type":"address"}],"name":"transferOwnership","outputs":[],"stateMutability":"nonpayable","type":"function"},{"inputs":[{"internalType":"string","name":"_newMessage","type":"string"}],"name":"updatePlatformMessage","outputs":[],"stateMutability":"payable","type":"function"},{"inputs":[{"internalType":"address","name":"","type":"address"}],"name":"userInteractionCounter","outputs":[{"internalType":"uint256","name":"","type":"uint256"}],"stateMutability":"view","type":"function"},{"inputs":[{"internalType":"uint256","name":"","type":"uint256"}],"name":"userPosts","outputs":[{"internalType":"address","name":"userAddress","type":"address"},{"internalType":"string","name":"content","type":"string"},{"internalType":"uint256","name":"timestamp","type":"uint256"}],"stateMutability":"view","type":"function"},{"inputs":[{"internalType":"uint256","name":"","type":"uint256"}],"name":"userProfiles","outputs":[{"internalType":"address","name":"userAddress","type":"address"},{"internalType":"string","name":"username","type":"string"},{"internalType":"string","name":"bio","type":"string"},{"internalType":"uint256","name":"createdAt","type":"uint256"}],"stateMutability":"view","type":"function"},{"inputs":[],"name":"withdrawEther","outputs":[],"stateMutability":"nonpayable","type":"function"},{"stateMutability":"payable","type":"receive"}],"evm":{"bytecode":{"linkReferences":{},"object":"60806040526040518060600160405280602c815260200162002896602c9139600190816200002e9190620005a6565b506000600260006101000a81548160ff02191690831515021790555060006003553480156200005c57600080fd5b5033600073ffffffffffffffffffffffffffffffffffffffff168173ffffffffffffffffffffffffffffffffffffffff1603620000d35760006040517f1e4fbdf7000000000000000000000000000000000000000000000000000000008152600401620000ca9190620006d2565b60405180910390fd5b620000e481620000fc60201b60201c565b50620000f633620001c060201b60201c565b620006ef565b60008060009054906101000a900473ffffffffffffffffffffffffffffffffffffffff169050816000806101000a81548173ffffffffffffffffffffffffffffffffffffffff021916908373ffffffffffffffffffffffffffffffffffffffff1602179055508173ffffffffffffffffffffffffffffffffffffffff168173ffffffffffffffffffffffffffffffffffffffff167f8be0079c531659141344cd1fd0a4f28419497f9722a3daafe3b4186f6b6457e060405160405180910390a35050565b620001d06200025960201b60201c565b600073ffffffffffffffffffffffffffffffffffffffff168173ffffffffffffffffffffffffffffffffffffffff1603620002455760006040517f1e4fbdf70000000000000000000000000000000000000000000000000000000081526004016200023c9190620006d2565b60405180910390fd5b6200025681620000fc60201b60201c565b50565b62000269620002fb60201b60201c565b73ffffffffffffffffffffffffffffffffffffffff166200028f6200030360201b60201c565b73ffffffffffffffffffffffffffffffffffffffff1614620002f957620002bb620002fb60201b60201c565b6040517f118cdaa7000000000000000000000000000000000000000000000000000000008152600401620002f09190620006d2565b60405180910390fd5b565b600033905090565b60008060009054906101000a900473ffffffffffffffffffffffffffffffffffffffff16905090565b600081519050919050565b7f4e487b7100000000000000000000000000000000000000000000000000000000600052604160045260246000fd5b7f4e487b7100000000000000000000000000000000000000000000000000000000600052602260045260246000fd5b60006002820490506001821680620003ae57607f821691505b602082108103620003c457620003c362000366565b5b50919050565b60008190508160005260206000209050919050565b60006020601f8301049050919050565b600082821b905092915050565b6000600883026200042e7fffffffffffffffffffffffffffffffffffffffffffffffffffffffffffffffff82620003ef565b6200043a8683620003ef565b95508019841693508086168417925050509392505050565b6000819050919050565b6000819050919050565b600062000487620004816200047b8462000452565b6200045c565b62000452565b9050919050565b6000819050919050565b620004a38362000466565b620004bb620004b2826200048e565b848454620003fc565b825550505050565b600090565b620004d2620004c3565b620004df81848462000498565b505050565b5b818110156200050757620004fb600082620004c8565b600181019050620004e5565b5050565b601f82111562000556576200052081620003ca565b6200052b84620003df565b810160208510156200053b578190505b620005536200054a85620003df565b830182620004e4565b50505b505050565b600082821c905092915050565b60006200057b600019846008026200055b565b1980831691505092915050565b600062000596838362000568565b9150826002028217905092915050565b620005b1826200032c565b67ffffffffffffffff811115620005cd57620005cc62000337565b5b620005d9825462000395565b620005e68282856200050b565b600060209050601f8311600181146200061e576000841562000609578287015190505b62000615858262000588565b86555062000685565b601f1984166200062e86620003ca565b60005b82811015620006585784890151825560018201915060208501945060208101905062000631565b8683101562000678578489015162000674601f89168262000568565b8355505b6001600288020188555050505b505050505050565b600073ffffffffffffffffffffffffffffffffffffffff82169050919050565b6000620006ba826200068d565b9050919050565b620006cc81620006ad565b82525050565b6000602082019050620006e96000830184620006c1565b92915050565b61219780620006ff6000396000f3fe6080604052600436106100ec5760003560e01c80638da5cb5b1161008a578063b439a03711610059578063b439a037146102d1578063dcc2179b1461030e578063f2fde38b14610337578063fdd6ea7114610360576100f3565b80638da5cb5b146102015780638e5298551461022c578063987ee156146102575780639a2194a914610294576100f3565b80635cf10d88116100c65780635cf10d881461017f578063715018a6146101a85780637362377b146101bf5780637dde8dae146101d6576100f3565b806318d4a12d146100f857806344c7c85e14610138578063570fa50614610163576100f3565b366100f357005b600080fd5b34801561010457600080fd5b5061011f600480360381019061011a91906113ba565b61039f565b60405161012f94939291906114c7565b60405180910390f35b34801561014457600080fd5b5061014d61050f565b60405161015a919061151a565b60405180910390f35b61017d60048036038101906101789190611671565b61059d565b005b34801561018b57600080fd5b506101a660048036038101906101a19190611671565b6106a1565b005b3480156101b457600080fd5b506101bd610803565b005b3480156101cb57600080fd5b506101d4610817565b005b3480156101e257600080fd5b506101eb610932565b6040516101f891906116ba565b60405180910390f35b34801561020d57600080fd5b50610216610938565b60405161022391906116d5565b60405180910390f35b34801561023857600080fd5b50610241610961565b60405161024e919061170b565b60405180910390f35b34801561026357600080fd5b5061027e60048036038101906102799190611752565b610974565b60405161028b9190611851565b60405180910390f35b3480156102a057600080fd5b506102bb60048036038101906102b69190611752565b610c11565b6040516102c89190611985565b60405180910390f35b3480156102dd57600080fd5b506102f860048036038101906102f39190611752565b610e63565b60405161030591906116ba565b60405180910390f35b34801561031a57600080fd5b50610335600480360381019061033091906119a7565b610e7b565b005b34801561034357600080fd5b5061035e60048036038101906103599190611752565b611040565b005b34801561036c57600080fd5b50610387600480360381019061038291906113ba565b6110c6565b60405161039693929190611a1f565b60405180910390f35b600581815481106103af57600080fd5b90600052602060002090600402016000915090508060000160009054906101000a900473ffffffffffffffffffffffffffffffffffffffff16908060010180546103f890611a8c565b80601f016020809104026020016040519081016040528092919081815260200182805461042490611a8c565b80156104715780601f1061044657610100808354040283529160200191610471565b820191906000526020600020905b81548152906001019060200180831161045457829003601f168201915b50505050509080600201805461048690611a8c565b80601f01602080910402602001604051908101604052809291908181526020018280546104b290611a8c565b80156104ff5780601f106104d4576101008083540402835291602001916104ff565b820191906000526020600020905b8154815290600101906020018083116104e257829003601f168201915b5050505050908060030154905084565b6001805461051c90611a8c565b80601f016020809104026020016040519081016040528092919081815260200182805461054890611a8c565b80156105955780601f1061056a57610100808354040283529160200191610595565b820191906000526020600020905b81548152906001019060200180831161057857829003601f168201915b505050505081565b80600190816105ac9190611c69565b506001600360008282546105c09190611d6a565b925050819055506001600460003373ffffffffffffffffffffffffffffffffffffffff1673ffffffffffffffffffffffffffffffffffffffff16815260200190815260200160002060008282546106179190611d6a565b9250508190555060003411600260006101000a81548160ff0219169083151502179055503373ffffffffffffffffffffffffffffffffffffffff167f9162d6b6c588b8575b805c5b6a18dbd33f5bca63d5fdd64616be57c1320518a582600260009054906101000a900460ff1634426040516106969493929190611d9e565b60405180910390a250565b60008151116106e5576040517f08c379a00000000000000000000000000000000000000000000000000000000081526004016106dc90611e36565b60405180910390fd5b600060405180606001604052803373ffffffffffffffffffffffffffffffffffffffff168152602001838152602001428152509050600681908060018154018082558091505060019003906000526020600020906003020160009091909190915060008201518160000160006101000a81548173ffffffffffffffffffffffffffffffffffffffff021916908373ffffffffffffffffffffffffffffffffffffffff16021790555060208201518160010190816107a29190611c69565b506040820151816002015550503373ffffffffffffffffffffffffffffffffffffffff167f0582b2cc9f79067ae3ab4542438bffd12793c90bdf82c749da53095ceee81e8b83426040516107f7929190611e56565b60405180910390a25050565b61080b6111a8565b610815600061122f565b565b61081f6111a8565b6000479050600061082e610938565b73ffffffffffffffffffffffffffffffffffffffff168260405161085190611eb7565b60006040518083038185875af1925050503d806000811461088e576040519150601f19603f3d011682016040523d82523d6000602084013e610893565b606091505b50509050806108d7576040517f08c379a00000000000000000000000000000000000000000000000000000000081526004016108ce90611f18565b60405180910390fd5b6108df610938565b73ffffffffffffffffffffffffffffffffffffffff167fd5ca65e1ec4f4864fea7b9c5cb1ec3087a0dbf9c74641db3f6458edf445c40518342604051610926929190611f38565b60405180910390a25050565b60035481565b60008060009054906101000a900473ffffffffffffffffffffffffffffffffffffffff16905090565b600260009054906101000a900460ff1681565b61097c6112fb565b60005b600580549050811015610bd0578273ffffffffffffffffffffffffffffffffffffffff16600582815481106109b7576109b6611f61565b5b906000526020600020906004020160000160009054906101000a900473ffffffffffffffffffffffffffffffffffffffff1673ffffffffffffffffffffffffffffffffffffffff1603610bbd5760058181548110610a1857610a17611f61565b5b90600052602060002090600402016040518060800160405290816000820160009054906101000a900473ffffffffffffffffffffffffffffffffffffffff1673ffffffffffffffffffffffffffffffffffffffff1673ffffffffffffffffffffffffffffffffffffffff168152602001600182018054610a9790611a8c565b80601f0160208091040260200160405190810160405280929190818152602001828054610ac390611a8c565b8015610b105780601f10610ae557610100808354040283529160200191610b10565b820191906000526020600020905b815481529060010190602001808311610af357829003601f168201915b50505050508152602001600282018054610b2990611a8c565b80601f0160208091040260200160405190810160405280929190818152602001828054610b5590611a8c565b8015610ba25780601f10610b7757610100808354040283529160200191610ba2565b820191906000526020600020905b815481529060010190602001808311610b8557829003601f168201915b50505050508152602001600382015481525050915050610c0c565b8080610bc890611f90565b91505061097f565b506040517f08c379a0000000000000000000000000000000000000000000000000000000008152600401610c0390612024565b60405180910390fd5b919050565b6060600060068054905067ffffffffffffffff811115610c3457610c33611546565b5b604051908082528060200260200182016040528015610c6d57816020015b610c5a611339565b815260200190600190039081610c525790505b5090506000805b600680549050811015610e58578473ffffffffffffffffffffffffffffffffffffffff1660068281548110610cac57610cab611f61565b5b906000526020600020906003020160000160009054906101000a900473ffffffffffffffffffffffffffffffffffffffff1673ffffffffffffffffffffffffffffffffffffffff1603610e455760068181548110610d0d57610d0c611f61565b5b90600052602060002090600302016040518060600160405290816000820160009054906101000a900473ffffffffffffffffffffffffffffffffffffffff1673ffffffffffffffffffffffffffffffffffffffff1673ffffffffffffffffffffffffffffffffffffffff168152602001600182018054610d8c90611a8c565b80601f0160208091040260200160405190810160405280929190818152602001828054610db890611a8c565b8015610e055780601f10610dda57610100808354040283529160200191610e05565b820191906000526020600020905b815481529060010190602001808311610de857829003601f168201915b50505050508152602001600282015481525050838381518110610e2b57610e2a611f61565b5b60200260200101819052508180610e4190611f90565b9250505b8080610e5090611f90565b915050610c74565b508192505050919050565b60046020528060005260406000206000915090505481565b6000825111610ebf576040517f08c379a0000000000000000000000000000000000000000000000000000000008152600401610eb690612090565b60405180910390fd5b6000815111610f03576040517f08c379a0000000000000000000000000000000000000000000000000000000008152600401610efa906120fc565b60405180910390fd5b600060405180608001604052803373ffffffffffffffffffffffffffffffffffffffff168152602001848152602001838152602001428152509050600581908060018154018082558091505060019003906000526020600020906004020160009091909190915060008201518160000160006101000a81548173ffffffffffffffffffffffffffffffffffffffff021916908373ffffffffffffffffffffffffffffffffffffffff1602179055506020820151816001019081610fc69190611c69565b506040820151816002019081610fdc9190611c69565b506060820151816003015550503373ffffffffffffffffffffffffffffffffffffffff167fedd2b109112c6076587898e8db8e57a2e0f710071c6244a847d093b235cc0ff78484426040516110339392919061211c565b60405180910390a2505050565b6110486111a8565b600073ffffffffffffffffffffffffffffffffffffffff168173ffffffffffffffffffffffffffffffffffffffff16036110ba5760006040517f1e4fbdf70000000000000000000000000000000000000000000000000000000081526004016110b191906116d5565b60405180910390fd5b6110c38161122f565b50565b600681815481106110d657600080fd5b90600052602060002090600302016000915090508060000160009054906101000a900473ffffffffffffffffffffffffffffffffffffffff169080600101805461111f90611a8c565b80601f016020809104026020016040519081016040528092919081815260200182805461114b90611a8c565b80156111985780601f1061116d57610100808354040283529160200191611198565b820191906000526020600020905b81548152906001019060200180831161117b57829003601f168201915b5050505050908060020154905083565b6111b06112f3565b73ffffffffffffffffffffffffffffffffffffffff166111ce610938565b73ffffffffffffffffffffffffffffffffffffffff161461122d576111f16112f3565b6040517f118cdaa700000000000000000000000000000000000000000000000000000000815260040161122491906116d5565b60405180910390fd5b565b60008060009054906101000a900473ffffffffffffffffffffffffffffffffffffffff169050816000806101000a81548173ffffffffffffffffffffffffffffffffffffffff021916908373ffffffffffffffffffffffffffffffffffffffff1602179055508173ffffffffffffffffffffffffffffffffffffffff168173ffffffffffffffffffffffffffffffffffffffff167f8be0079c531659141344cd1fd0a4f28419497f9722a3daafe3b4186f6b6457e060405160405180910390a35050565b600033905090565b6040518060800160405280600073ffffffffffffffffffffffffffffffffffffffff1681526020016060815260200160608152602001600081525090565b6040518060600160405280600073ffffffffffffffffffffffffffffffffffffffff16815260200160608152602001600081525090565b6000604051905090565b600080fd5b600080fd5b6000819050919050565b61139781611384565b81146113a257600080fd5b50565b6000813590506113b48161138e565b92915050565b6000602082840312156113d0576113cf61137a565b5b60006113de848285016113a5565b91505092915050565b600073ffffffffffffffffffffffffffffffffffffffff82169050919050565b6000611412826113e7565b9050919050565b61142281611407565b82525050565b600081519050919050565b600082825260208201905092915050565b60005b83811015611462578082015181840152602081019050611447565b60008484015250505050565b6000601f19601f8301169050919050565b600061148a82611428565b6114948185611433565b93506114a4818560208601611444565b6114ad8161146e565b840191505092915050565b6114c181611384565b82525050565b60006080820190506114dc6000830187611419565b81810360208301526114ee818661147f565b90508181036040830152611502818561147f565b905061151160608301846114b8565b95945050505050565b60006020820190508181036000830152611534818461147f565b905092915050565b600080fd5b600080fd5b7f4e487b7100000000000000000000000000000000000000000000000000000000600052604160045260246000fd5b61157e8261146e565b810181811067ffffffffffffffff8211171561159d5761159c611546565b5b80604052505050565b60006115b0611370565b90506115bc8282611575565b919050565b600067ffffffffffffffff8211156115dc576115db611546565b5b6115e58261146e565b9050602081019050919050565b82818337600083830152505050565b600061161461160f846115c1565b6115a6565b9050828152602081018484840111156116305761162f611541565b5b61163b8482856115f2565b509392505050565b600082601f8301126116585761165761153c565b5b8135611668848260208601611601565b91505092915050565b6000602082840312156116875761168661137a565b5b600082013567ffffffffffffffff8111156116a5576116a461137f565b5b6116b184828501611643565b91505092915050565b60006020820190506116cf60008301846114b8565b92915050565b60006020820190506116ea6000830184611419565b92915050565b60008115159050919050565b611705816116f0565b82525050565b600060208201905061172060008301846116fc565b92915050565b61172f81611407565b811461173a57600080fd5b50565b60008135905061174c81611726565b92915050565b6000602082840312156117685761176761137a565b5b60006117768482850161173d565b91505092915050565b61178881611407565b82525050565b600082825260208201905092915050565b60006117aa82611428565b6117b4818561178e565b93506117c4818560208601611444565b6117cd8161146e565b840191505092915050565b6117e181611384565b82525050565b60006080830160008301516117ff600086018261177f565b5060208301518482036020860152611817828261179f565b91505060408301518482036040860152611831828261179f565b915050606083015161184660608601826117d8565b508091505092915050565b6000602082019050818103600083015261186b81846117e7565b905092915050565b600081519050919050565b600082825260208201905092915050565b6000819050602082019050919050565b60006060830160008301516118b7600086018261177f565b50602083015184820360208601526118cf828261179f565b91505060408301516118e460408601826117d8565b508091505092915050565b60006118fb838361189f565b905092915050565b6000602082019050919050565b600061191b82611873565b611925818561187e565b9350836020820285016119378561188f565b8060005b85811015611973578484038952815161195485826118ef565b945061195f83611903565b925060208a0199505060018101905061193b565b50829750879550505050505092915050565b6000602082019050818103600083015261199f8184611910565b905092915050565b600080604083850312156119be576119bd61137a565b5b600083013567ffffffffffffffff8111156119dc576119db61137f565b5b6119e885828601611643565b925050602083013567ffffffffffffffff811115611a0957611a0861137f565b5b611a1585828601611643565b9150509250929050565b6000606082019050611a346000830186611419565b8181036020830152611a46818561147f565b9050611a5560408301846114b8565b949350505050565b7f4e487b7100000000000000000000000000000000000000000000000000000000600052602260045260246000fd5b60006002820490506001821680611aa457607f821691505b602082108103611ab757611ab6611a5d565b5b50919050565b60008190508160005260206000209050919050565b60006020601f8301049050919050565b600082821b905092915050565b600060088302611b1f7fffffffffffffffffffffffffffffffffffffffffffffffffffffffffffffffff82611ae2565b611b298683611ae2565b95508019841693508086168417925050509392505050565b6000819050919050565b6000611b66611b61611b5c84611384565b611b41565b611384565b9050919050565b6000819050919050565b611b8083611b4b565b611b94611b8c82611b6d565b848454611aef565b825550505050565b600090565b611ba9611b9c565b611bb4818484611b77565b505050565b5b81811015611bd857611bcd600082611ba1565b600181019050611bba565b5050565b601f821115611c1d57611bee81611abd565b611bf784611ad2565b81016020851015611c06578190505b611c1a611c1285611ad2565b830182611bb9565b50505b505050565b600082821c905092915050565b6000611c4060001984600802611c22565b1980831691505092915050565b6000611c598383611c2f565b9150826002028217905092915050565b611c7282611428565b67ffffffffffffffff811115611c8b57611c8a611546565b5b611c958254611a8c565b611ca0828285611bdc565b600060209050601f831160018114611cd35760008415611cc1578287015190505b611ccb8582611c4d565b865550611d33565b601f198416611ce186611abd565b60005b82811015611d0957848901518255600182019150602085019450602081019050611ce4565b86831015611d265784890151611d22601f891682611c2f565b8355505b6001600288020188555050505b505050505050565b7f4e487b7100000000000000000000000000000000000000000000000000000000600052601160045260246000fd5b6000611d7582611384565b9150611d8083611384565b9250828201905080821115611d9857611d97611d3b565b5b92915050565b60006080820190508181036000830152611db8818761147f565b9050611dc760208301866116fc565b611dd460408301856114b8565b611de160608301846114b8565b95945050505050565b7f436f6e74656e742063616e6e6f7420626520656d707479000000000000000000600082015250565b6000611e20601783611433565b9150611e2b82611dea565b602082019050919050565b60006020820190508181036000830152611e4f81611e13565b9050919050565b60006040820190508181036000830152611e70818561147f565b9050611e7f60208301846114b8565b9392505050565b600081905092915050565b50565b6000611ea1600083611e86565b9150611eac82611e91565b600082019050919050565b6000611ec282611e94565b9150819050919050565b7f4661696c656420746f2073656e64204574686572000000000000000000000000600082015250565b6000611f02601483611433565b9150611f0d82611ecc565b602082019050919050565b60006020820190508181036000830152611f3181611ef5565b9050919050565b6000604082019050611f4d60008301856114b8565b611f5a60208301846114b8565b9392505050565b7f4e487b7100000000000000000000000000000000000000000000000000000000600052603260045260246000fd5b6000611f9b82611384565b91507fffffffffffffffffffffffffffffffffffffffffffffffffffffffffffffffff8203611fcd57611fcc611d3b565b5b600182019050919050565b7f557365722070726f66696c65206e6f7420666f756e6400000000000000000000600082015250565b600061200e601683611433565b915061201982611fd8565b602082019050919050565b6000602082019050818103600083015261203d81612001565b9050919050565b7f557365726e616d652063616e6e6f7420626520656d7074790000000000000000600082015250565b600061207a601883611433565b915061208582612044565b602082019050919050565b600060208201905081810360008301526120a98161206d565b9050919050565b7f42696f2063616e6e6f7420626520656d70747900000000000000000000000000600082015250565b60006120e6601383611433565b91506120f1826120b0565b602082019050919050565b60006020820190508181036000830152612115816120d9565b9050919050565b60006060820190508181036000830152612136818661147f565b9050818103602083015261214a818561147f565b905061215960408301846114b8565b94935050505056fea26469706673582212208070a06ee2f6c0d2373b00b47ad20df3c1de35d9abec644af4b7a054c762b34764736f6c6343000814003357656c636f6d6520746f2074686520446563656e7472616c697a656420536f6369616c204e6574776f726b21","opcodes":"PUSH1 0x80 PUSH1 0x40 MSTORE PUSH1 0x40 MLOAD DUP1 PUSH1 0x60 ADD PUSH1 0x40 MSTORE DUP1 PUSH1 0x2C DUP2 MSTORE PUSH1 0x20 ADD PUSH3 0x2896 PUSH1 0x2C SWAP2 CODECOPY PUSH1 0x1 SWAP1 DUP2 PUSH3 0x2E SWAP2 SWAP1 PUSH3 0x5A6 JUMP JUMPDEST POP PUSH1 0x0 PUSH1 0x2 PUSH1 0x0 PUSH2 0x100 EXP DUP2 SLOAD DUP2 PUSH1 0xFF MUL NOT AND SWAP1 DUP4 ISZERO ISZERO MUL OR SWAP1 SSTORE POP PUSH1 0x0 PUSH1 0x3 SSTORE CALLVALUE DUP1 ISZERO PUSH3 0x5C JUMPI PUSH1 0x0 DUP1 REVERT JUMPDEST POP CALLER PUSH1 0x0 PUSH20 0xFFFFFFFFFFFFFFFFFFFFFFFFFFFFFFFFFFFFFFFF AND DUP2 PUSH20 0xFFFFFFFFFFFFFFFFFFFFFFFFFFFFFFFFFFFFFFFF AND SUB PUSH3 0xD3 JUMPI PUSH1 0x0 PUSH1 0x40 MLOAD PUSH32 0x1E4FBDF700000000000000000000000000000000000000000000000000000000 DUP2 MSTORE PUSH1 0x4 ADD PUSH3 0xCA SWAP2 SWAP1 PUSH3 0x6D2 JUMP JUMPDEST PUSH1 0x40 MLOAD DUP1 SWAP2 SUB SWAP1 REVERT JUMPDEST PUSH3 0xE4 DUP2 PUSH3 0xFC PUSH1 0x20 SHL PUSH1 0x20 SHR JUMP JUMPDEST POP PUSH3 0xF6 CALLER PUSH3 0x1C0 PUSH1 0x20 SHL PUSH1 0x20 SHR JUMP JUMPDEST PUSH3 0x6EF JUMP JUMPDEST PUSH1 0x0 DUP1 PUSH1 0x0 SWAP1 SLOAD SWAP1 PUSH2 0x100 EXP SWAP1 DIV PUSH20 0xFFFFFFFFFFFFFFFFFFFFFFFFFFFFFFFFFFFFFFFF AND SWAP1 POP DUP2 PUSH1 0x0 DUP1 PUSH2 0x100 EXP DUP2 SLOAD DUP2 PUSH20 0xFFFFFFFFFFFFFFFFFFFFFFFFFFFFFFFFFFFFFFFF MUL NOT AND SWAP1 DUP4 PUSH20 0xFFFFFFFFFFFFFFFFFFFFFFFFFFFFFFFFFFFFFFFF AND MUL OR SWAP1 SSTORE POP DUP2 PUSH20 0xFFFFFFFFFFFFFFFFFFFFFFFFFFFFFFFFFFFFFFFF AND DUP2 PUSH20 0xFFFFFFFFFFFFFFFFFFFFFFFFFFFFFFFFFFFFFFFF AND PUSH32 0x8BE0079C531659141344CD1FD0A4F28419497F9722A3DAAFE3B4186F6B6457E0 PUSH1 0x40 MLOAD PUSH1 0x40 MLOAD DUP1 SWAP2 SUB SWAP1 LOG3 POP POP JUMP JUMPDEST PUSH3 0x1D0 PUSH3 0x259 PUSH1 0x20 SHL PUSH1 0x20 SHR JUMP JUMPDEST PUSH1 0x0 PUSH20 0xFFFFFFFFFFFFFFFFFFFFFFFFFFFFFFFFFFFFFFFF AND DUP2 PUSH20 0xFFFFFFFFFFFFFFFFFFFFFFFFFFFFFFFFFFFFFFFF AND SUB PUSH3 0x245 JUMPI PUSH1 0x0 PUSH1 0x40 MLOAD PUSH32 0x1E4FBDF700000000000000000000000000000000000000000000000000000000 DUP2 MSTORE PUSH1 0x4 ADD PUSH3 0x23C SWAP2 SWAP1 PUSH3 0x6D2 JUMP JUMPDEST PUSH1 0x40 MLOAD DUP1 SWAP2 SUB SWAP1 REVERT JUMPDEST PUSH3 0x256 DUP2 PUSH3 0xFC PUSH1 0x20 SHL PUSH1 0x20 SHR JUMP JUMPDEST POP JUMP JUMPDEST PUSH3 0x269 PUSH3 0x2FB PUSH1 0x20 SHL PUSH1 0x20 SHR JUMP JUMPDEST PUSH20 0xFFFFFFFFFFFFFFFFFFFFFFFFFFFFFFFFFFFFFFFF AND PUSH3 0x28F PUSH3 0x303 PUSH1 0x20 SHL PUSH1 0x20 SHR JUMP JUMPDEST PUSH20 0xFFFFFFFFFFFFFFFFFFFFFFFFFFFFFFFFFFFFFFFF AND EQ PUSH3 0x2F9 JUMPI PUSH3 0x2BB PUSH3 0x2FB PUSH1 0x20 SHL PUSH1 0x20 SHR JUMP JUMPDEST PUSH1 0x40 MLOAD PUSH32 0x118CDAA700000000000000000000000000000000000000000000000000000000 DUP2 MSTORE PUSH1 0x4 ADD PUSH3 0x2F0 SWAP2 SWAP1 PUSH3 0x6D2 JUMP JUMPDEST PUSH1 0x40 MLOAD DUP1 SWAP2 SUB SWAP1 REVERT JUMPDEST JUMP JUMPDEST PUSH1 0x0 CALLER SWAP1 POP SWAP1 JUMP JUMPDEST PUSH1 0x0 DUP1 PUSH1 0x0 SWAP1 SLOAD SWAP1 PUSH2 0x100 EXP SWAP1 DIV PUSH20 0xFFFFFFFFFFFFFFFFFFFFFFFFFFFFFFFFFFFFFFFF AND SWAP1 POP SWAP1 JUMP JUMPDEST PUSH1 0x0 DUP2 MLOAD SWAP1 POP SWAP2 SWAP1 POP JUMP JUMPDEST PUSH32 0x4E487B7100000000000000000000000000000000000000000000000000000000 PUSH1 0x0 MSTORE PUSH1 0x41 PUSH1 0x4 MSTORE PUSH1 0x24 PUSH1 0x0 REVERT JUMPDEST PUSH32 0x4E487B7100000000000000000000000000000000000000000000000000000000 PUSH1 0x0 MSTORE PUSH1 0x22 PUSH1 0x4 MSTORE PUSH1 0x24 PUSH1 0x0 REVERT JUMPDEST PUSH1 0x0 PUSH1 0x2 DUP3 DIV SWAP1 POP PUSH1 0x1 DUP3 AND DUP1 PUSH3 0x3AE JUMPI PUSH1 0x7F DUP3 AND SWAP2 POP JUMPDEST PUSH1 0x20 DUP3 LT DUP2 SUB PUSH3 0x3C4 JUMPI PUSH3 0x3C3 PUSH3 0x366 JUMP JUMPDEST JUMPDEST POP SWAP2 SWAP1 POP JUMP JUMPDEST PUSH1 0x0 DUP2 SWAP1 POP DUP2 PUSH1 0x0 MSTORE PUSH1 0x20 PUSH1 0x0 KECCAK256 SWAP1 POP SWAP2 SWAP1 POP JUMP JUMPDEST PUSH1 0x0 PUSH1 0x20 PUSH1 0x1F DUP4 ADD DIV SWAP1 POP SWAP2 SWAP1 POP JUMP JUMPDEST PUSH1 0x0 DUP3 DUP3 SHL SWAP1 POP SWAP3 SWAP2 POP POP JUMP JUMPDEST PUSH1 0x0 PUSH1 0x8 DUP4 MUL PUSH3 0x42E PUSH32 0xFFFFFFFFFFFFFFFFFFFFFFFFFFFFFFFFFFFFFFFFFFFFFFFFFFFFFFFFFFFFFFFF DUP3 PUSH3 0x3EF JUMP JUMPDEST PUSH3 0x43A DUP7 DUP4 PUSH3 0x3EF JUMP JUMPDEST SWAP6 POP DUP1 NOT DUP5 AND SWAP4 POP DUP1 DUP7 AND DUP5 OR SWAP3 POP POP POP SWAP4 SWAP3 POP POP POP JUMP JUMPDEST PUSH1 0x0 DUP2 SWAP1 POP SWAP2 SWAP1 POP JUMP JUMPDEST PUSH1 0x0 DUP2 SWAP1 POP SWAP2 SWAP1 POP JUMP JUMPDEST PUSH1 0x0 PUSH3 0x487 PUSH3 0x481 PUSH3 0x47B DUP5 PUSH3 0x452 JUMP JUMPDEST PUSH3 0x45C JUMP JUMPDEST PUSH3 0x452 JUMP JUMPDEST SWAP1 POP SWAP2 SWAP1 POP JUMP JUMPDEST PUSH1 0x0 DUP2 SWAP1 POP SWAP2 SWAP1 POP JUMP JUMPDEST PUSH3 0x4A3 DUP4 PUSH3 0x466 JUMP JUMPDEST PUSH3 0x4BB PUSH3 0x4B2 DUP3 PUSH3 0x48E JUMP JUMPDEST DUP5 DUP5 SLOAD PUSH3 0x3FC JUMP JUMPDEST DUP3 SSTORE POP POP POP POP JUMP JUMPDEST PUSH1 0x0 SWAP1 JUMP JUMPDEST PUSH3 0x4D2 PUSH3 0x4C3 JUMP JUMPDEST PUSH3 0x4DF DUP2 DUP5 DUP5 PUSH3 0x498 JUMP JUMPDEST POP POP POP JUMP JUMPDEST JUMPDEST DUP2 DUP2 LT ISZERO PUSH3 0x507 JUMPI PUSH3 0x4FB PUSH1 0x0 DUP3 PUSH3 0x4C8 JUMP JUMPDEST PUSH1 0x1 DUP2 ADD SWAP1 POP PUSH3 0x4E5 JUMP JUMPDEST POP POP JUMP JUMPDEST PUSH1 0x1F DUP3 GT ISZERO PUSH3 0x556 JUMPI PUSH3 0x520 DUP2 PUSH3 0x3CA JUMP JUMPDEST PUSH3 0x52B DUP5 PUSH3 0x3DF JUMP JUMPDEST DUP2 ADD PUSH1 0x20 DUP6 LT ISZERO PUSH3 0x53B JUMPI DUP2 SWAP1 POP JUMPDEST PUSH3 0x553 PUSH3 0x54A DUP6 PUSH3 0x3DF JUMP JUMPDEST DUP4 ADD DUP3 PUSH3 0x4E4 JUMP JUMPDEST POP POP JUMPDEST POP POP POP JUMP JUMPDEST PUSH1 0x0 DUP3 DUP3 SHR SWAP1 POP SWAP3 SWAP2 POP POP JUMP JUMPDEST PUSH1 0x0 PUSH3 0x57B PUSH1 0x0 NOT DUP5 PUSH1 0x8 MUL PUSH3 0x55B JUMP JUMPDEST NOT DUP1 DUP4 AND SWAP2 POP POP SWAP3 SWAP2 POP POP JUMP JUMPDEST PUSH1 0x0 PUSH3 0x596 DUP4 DUP4 PUSH3 0x568 JUMP JUMPDEST SWAP2 POP DUP3 PUSH1 0x2 MUL DUP3 OR SWAP1 POP SWAP3 SWAP2 POP POP JUMP JUMPDEST PUSH3 0x5B1 DUP3 PUSH3 0x32C JUMP JUMPDEST PUSH8 0xFFFFFFFFFFFFFFFF DUP2 GT ISZERO PUSH3 0x5CD JUMPI PUSH3 0x5CC PUSH3 0x337 JUMP JUMPDEST JUMPDEST PUSH3 0x5D9 DUP3 SLOAD PUSH3 0x395 JUMP JUMPDEST PUSH3 0x5E6 DUP3 DUP3 DUP6 PUSH3 0x50B JUMP JUMPDEST PUSH1 0x0 PUSH1 0x20 SWAP1 POP PUSH1 0x1F DUP4 GT PUSH1 0x1 DUP2 EQ PUSH3 0x61E JUMPI PUSH1 0x0 DUP5 ISZERO PUSH3 0x609 JUMPI DUP3 DUP8 ADD MLOAD SWAP1 POP JUMPDEST PUSH3 0x615 DUP6 DUP3 PUSH3 0x588 JUMP JUMPDEST DUP7 SSTORE POP PUSH3 0x685 JUMP JUMPDEST PUSH1 0x1F NOT DUP5 AND PUSH3 0x62E DUP7 PUSH3 0x3CA JUMP JUMPDEST PUSH1 0x0 JUMPDEST DUP3 DUP2 LT ISZERO PUSH3 0x658 JUMPI DUP5 DUP10 ADD MLOAD DUP3 SSTORE PUSH1 0x1 DUP3 ADD SWAP2 POP PUSH1 0x20 DUP6 ADD SWAP5 POP PUSH1 0x20 DUP2 ADD SWAP1 POP PUSH3 0x631 JUMP JUMPDEST DUP7 DUP4 LT ISZERO PUSH3 0x678 JUMPI DUP5 DUP10 ADD MLOAD PUSH3 0x674 PUSH1 0x1F DUP10 AND DUP3 PUSH3 0x568 JUMP JUMPDEST DUP4 SSTORE POP JUMPDEST PUSH1 0x1 PUSH1 0x2 DUP9 MUL ADD DUP9 SSTORE POP POP POP JUMPDEST POP POP POP POP POP POP JUMP JUMPDEST PUSH1 0x0 PUSH20 0xFFFFFFFFFFFFFFFFFFFFFFFFFFFFFFFFFFFFFFFF DUP3 AND SWAP1 POP SWAP2 SWAP1 POP JUMP JUMPDEST PUSH1 0x0 PUSH3 0x6BA DUP3 PUSH3 0x68D JUMP JUMPDEST SWAP1 POP SWAP2 SWAP1 POP JUMP JUMPDEST PUSH3 0x6CC DUP2 PUSH3 0x6AD JUMP JUMPDEST DUP3 MSTORE POP POP JUMP JUMPDEST PUSH1 0x0 PUSH1 0x20 DUP3 ADD SWAP1 POP PUSH3 0x6E9 PUSH1 0x0 DUP4 ADD DUP5 PUSH3 0x6C1 JUMP JUMPDEST SWAP3 SWAP2 POP POP JUMP JUMPDEST PUSH2 0x2197 DUP1 PUSH3 0x6FF PUSH1 0x0 CODECOPY PUSH1 0x0 RETURN INVALID PUSH1 0x80 PUSH1 0x40 MSTORE PUSH1 0x4 CALLDATASIZE LT PUSH2 0xEC JUMPI PUSH1 0x0 CALLDATALOAD PUSH1 0xE0 SHR DUP1 PUSH4 0x8DA5CB5B GT PUSH2 0x8A JUMPI DUP1 PUSH4 0xB439A037 GT PUSH2 0x59 JUMPI DUP1 PUSH4 0xB439A037 EQ PUSH2 0x2D1 JUMPI DUP1 PUSH4 0xDCC2179B EQ PUSH2 0x30E JUMPI DUP1 PUSH4 0xF2FDE38B EQ PUSH2 0x337 JUMPI DUP1 PUSH4 0xFDD6EA71 EQ PUSH2 0x360 JUMPI PUSH2 0xF3 JUMP JUMPDEST DUP1 PUSH4 0x8DA5CB5B EQ PUSH2 0x201 JUMPI DUP1 PUSH4 0x8E529855 EQ PUSH2 0x22C JUMPI DUP1 PUSH4 0x987EE156 EQ PUSH2 0x257 JUMPI DUP1 PUSH4 0x9A2194A9 EQ PUSH2 0x294 JUMPI PUSH2 0xF3 JUMP JUMPDEST DUP1 PUSH4 0x5CF10D88 GT PUSH2 0xC6 JUMPI DUP1 PUSH4 0x5CF10D88 EQ PUSH2 0x17F JUMPI DUP1 PUSH4 0x715018A6 EQ PUSH2 0x1A8 JUMPI DUP1 PUSH4 0x7362377B EQ PUSH2 0x1BF JUMPI DUP1 PUSH4 0x7DDE8DAE EQ PUSH2 0x1D6 JUMPI PUSH2 0xF3 JUMP JUMPDEST DUP1 PUSH4 0x18D4A12D EQ PUSH2 0xF8 JUMPI DUP1 PUSH4 0x44C7C85E EQ PUSH2 0x138 JUMPI DUP1 PUSH4 0x570FA506 EQ PUSH2 0x163 JUMPI PUSH2 0xF3 JUMP JUMPDEST CALLDATASIZE PUSH2 0xF3 JUMPI STOP JUMPDEST PUSH1 0x0 DUP1 REVERT JUMPDEST CALLVALUE DUP1 ISZERO PUSH2 0x104 JUMPI PUSH1 0x0 DUP1 REVERT JUMPDEST POP PUSH2 0x11F PUSH1 0x4 DUP1 CALLDATASIZE SUB DUP2 ADD SWAP1 PUSH2 0x11A SWAP2 SWAP1 PUSH2 0x13BA JUMP JUMPDEST PUSH2 0x39F JUMP JUMPDEST PUSH1 0x40 MLOAD PUSH2 0x12F SWAP5 SWAP4 SWAP3 SWAP2 SWAP1 PUSH2 0x14C7 JUMP JUMPDEST PUSH1 0x40 MLOAD DUP1 SWAP2 SUB SWAP1 RETURN JUMPDEST CALLVALUE DUP1 ISZERO PUSH2 0x144 JUMPI PUSH1 0x0 DUP1 REVERT JUMPDEST POP PUSH2 0x14D PUSH2 0x50F JUMP JUMPDEST PUSH1 0x40 MLOAD PUSH2 0x15A SWAP2 SWAP1 PUSH2 0x151A JUMP JUMPDEST PUSH1 0x40 MLOAD DUP1 SWAP2 SUB SWAP1 RETURN JUMPDEST PUSH2 0x17D PUSH1 0x4 DUP1 CALLDATASIZE SUB DUP2 ADD SWAP1 PUSH2 0x178 SWAP2 SWAP1 PUSH2 0x1671 JUMP JUMPDEST PUSH2 0x59D JUMP JUMPDEST STOP JUMPDEST CALLVALUE DUP1 ISZERO PUSH2 0x18B JUMPI PUSH1 0x0 DUP1 REVERT JUMPDEST POP PUSH2 0x1A6 PUSH1 0x4 DUP1 CALLDATASIZE SUB DUP2 ADD SWAP1 PUSH2 0x1A1 SWAP2 SWAP1 PUSH2 0x1671 JUMP JUMPDEST PUSH2 0x6A1 JUMP JUMPDEST STOP JUMPDEST CALLVALUE DUP1 ISZERO PUSH2 0x1B4 JUMPI PUSH1 0x0 DUP1 REVERT JUMPDEST POP PUSH2 0x1BD PUSH2 0x803 JUMP JUMPDEST STOP JUMPDEST CALLVALUE DUP1 ISZERO PUSH2 0x1CB JUMPI PUSH1 0x0 DUP1 REVERT JUMPDEST POP PUSH2 0x1D4 PUSH2 0x817 JUMP JUMPDEST STOP JUMPDEST CALLVALUE DUP1 ISZERO PUSH2 0x1E2 JUMPI PUSH1 0x0 DUP1 REVERT JUMPDEST POP PUSH2 0x1EB PUSH2 0x932 JUMP JUMPDEST PUSH1 0x40 MLOAD PUSH2 0x1F8 SWAP2 SWAP1 PUSH2 0x16BA JUMP JUMPDEST PUSH1 0x40 MLOAD DUP1 SWAP2 SUB SWAP1 RETURN JUMPDEST CALLVALUE DUP1 ISZERO PUSH2 0x20D JUMPI PUSH1 0x0 DUP1 REVERT JUMPDEST POP PUSH2 0x216 PUSH2 0x938 JUMP JUMPDEST PUSH1 0x40 MLOAD PUSH2 0x223 SWAP2 SWAP1 PUSH2 0x16D5 JUMP JUMPDEST PUSH1 0x40 MLOAD DUP1 SWAP2 SUB SWAP1 RETURN JUMPDEST CALLVALUE DUP1 ISZERO PUSH2 0x238 JUMPI PUSH1 0x0 DUP1 REVERT JUMPDEST POP PUSH2 0x241 PUSH2 0x961 JUMP JUMPDEST PUSH1 0x40 MLOAD PUSH2 0x24E SWAP2 SWAP1 PUSH2 0x170B JUMP JUMPDEST PUSH1 0x40 MLOAD DUP1 SWAP2 SUB SWAP1 RETURN JUMPDEST CALLVALUE DUP1 ISZERO PUSH2 0x263 JUMPI PUSH1 0x0 DUP1 REVERT JUMPDEST POP PUSH2 0x27E PUSH1 0x4 DUP1 CALLDATASIZE SUB DUP2 ADD SWAP1 PUSH2 0x279 SWAP2 SWAP1 PUSH2 0x1752 JUMP JUMPDEST PUSH2 0x974 JUMP JUMPDEST PUSH1 0x40 MLOAD PUSH2 0x28B SWAP2 SWAP1 PUSH2 0x1851 JUMP JUMPDEST PUSH1 0x40 MLOAD DUP1 SWAP2 SUB SWAP1 RETURN JUMPDEST CALLVALUE DUP1 ISZERO PUSH2 0x2A0 JUMPI PUSH1 0x0 DUP1 REVERT JUMPDEST POP PUSH2 0x2BB PUSH1 0x4 DUP1 CALLDATASIZE SUB DUP2 ADD SWAP1 PUSH2 0x2B6 SWAP2 SWAP1 PUSH2 0x1752 JUMP JUMPDEST PUSH2 0xC11 JUMP JUMPDEST PUSH1 0x40 MLOAD PUSH2 0x2C8 SWAP2 SWAP1 PUSH2 0x1985 JUMP JUMPDEST PUSH1 0x40 MLOAD DUP1 SWAP2 SUB SWAP1 RETURN JUMPDEST CALLVALUE DUP1 ISZERO PUSH2 0x2DD JUMPI PUSH1 0x0 DUP1 REVERT JUMPDEST POP PUSH2 0x2F8 PUSH1 0x4 DUP1 CALLDATASIZE SUB DUP2 ADD SWAP1 PUSH2 0x2F3 SWAP2 SWAP1 PUSH2 0x1752 JUMP JUMPDEST PUSH2 0xE63 JUMP JUMPDEST PUSH1 0x40 MLOAD PUSH2 0x305 SWAP2 SWAP1 PUSH2 0x16BA JUMP JUMPDEST PUSH1 0x40 MLOAD DUP1 SWAP2 SUB SWAP1 RETURN JUMPDEST CALLVALUE DUP1 ISZERO PUSH2 0x31A JUMPI PUSH1 0x0 DUP1 REVERT JUMPDEST POP PUSH2 0x335 PUSH1 0x4 DUP1 CALLDATASIZE SUB DUP2 ADD SWAP1 PUSH2 0x330 SWAP2 SWAP1 PUSH2 0x19A7 JUMP JUMPDEST PUSH2 0xE7B JUMP JUMPDEST STOP JUMPDEST CALLVALUE DUP1 ISZERO PUSH2 0x343 JUMPI PUSH1 0x0 DUP1 REVERT JUMPDEST POP PUSH2 0x35E PUSH1 0x4 DUP1 CALLDATASIZE SUB DUP2 ADD SWAP1 PUSH2 0x359 SWAP2 SWAP1 PUSH2 0x1752 JUMP JUMPDEST PUSH2 0x1040 JUMP JUMPDEST STOP JUMPDEST CALLVALUE DUP1 ISZERO PUSH2 0x36C JUMPI PUSH1 0x0 DUP1 REVERT JUMPDEST POP PUSH2 0x387 PUSH1 0x4 DUP1 CALLDATASIZE SUB DUP2 ADD SWAP1 PUSH2 0x382 SWAP2 SWAP1 PUSH2 0x13BA JUMP JUMPDEST PUSH2 0x10C6 JUMP JUMPDEST PUSH1 0x40 MLOAD PUSH2 0x396 SWAP4 SWAP3 SWAP2 SWAP1 PUSH2 0x1A1F JUMP JUMPDEST PUSH1 0x40 MLOAD DUP1 SWAP2 SUB SWAP1 RETURN JUMPDEST PUSH1 0x5 DUP2 DUP2 SLOAD DUP2 LT PUSH2 0x3AF JUMPI PUSH1 0x0 DUP1 REVERT JUMPDEST SWAP1 PUSH1 0x0 MSTORE PUSH1 0x20 PUSH1 0x0 KECCAK256 SWAP1 PUSH1 0x4 MUL ADD PUSH1 0x0 SWAP2 POP SWAP1 POP DUP1 PUSH1 0x0 ADD PUSH1 0x0 SWAP1 SLOAD SWAP1 PUSH2 0x100 EXP SWAP1 DIV PUSH20 0xFFFFFFFFFFFFFFFFFFFFFFFFFFFFFFFFFFFFFFFF AND SWAP1 DUP1 PUSH1 0x1 ADD DUP1 SLOAD PUSH2 0x3F8 SWAP1 PUSH2 0x1A8C JUMP JUMPDEST DUP1 PUSH1 0x1F ADD PUSH1 0x20 DUP1 SWAP2 DIV MUL PUSH1 0x20 ADD PUSH1 0x40 MLOAD SWAP1 DUP2 ADD PUSH1 0x40 MSTORE DUP1 SWAP3 SWAP2 SWAP1 DUP2 DUP2 MSTORE PUSH1 0x20 ADD DUP3 DUP1 SLOAD PUSH2 0x424 SWAP1 PUSH2 0x1A8C JUMP JUMPDEST DUP1 ISZERO PUSH2 0x471 JUMPI DUP1 PUSH1 0x1F LT PUSH2 0x446 JUMPI PUSH2 0x100 DUP1 DUP4 SLOAD DIV MUL DUP4 MSTORE SWAP2 PUSH1 0x20 ADD SWAP2 PUSH2 0x471 JUMP JUMPDEST DUP3 ADD SWAP2 SWAP1 PUSH1 0x0 MSTORE PUSH1 0x20 PUSH1 0x0 KECCAK256 SWAP1 JUMPDEST DUP2 SLOAD DUP2 MSTORE SWAP1 PUSH1 0x1 ADD SWAP1 PUSH1 0x20 ADD DUP1 DUP4 GT PUSH2 0x454 JUMPI DUP3 SWAP1 SUB PUSH1 0x1F AND DUP3 ADD SWAP2 JUMPDEST POP POP POP POP POP SWAP1 DUP1 PUSH1 0x2 ADD DUP1 SLOAD PUSH2 0x486 SWAP1 PUSH2 0x1A8C JUMP JUMPDEST DUP1 PUSH1 0x1F ADD PUSH1 0x20 DUP1 SWAP2 DIV MUL PUSH1 0x20 ADD PUSH1 0x40 MLOAD SWAP1 DUP2 ADD PUSH1 0x40 MSTORE DUP1 SWAP3 SWAP2 SWAP1 DUP2 DUP2 MSTORE PUSH1 0x20 ADD DUP3 DUP1 SLOAD PUSH2 0x4B2 SWAP1 PUSH2 0x1A8C JUMP JUMPDEST DUP1 ISZERO PUSH2 0x4FF JUMPI DUP1 PUSH1 0x1F LT PUSH2 0x4D4 JUMPI PUSH2 0x100 DUP1 DUP4 SLOAD DIV MUL DUP4 MSTORE SWAP2 PUSH1 0x20 ADD SWAP2 PUSH2 0x4FF JUMP JUMPDEST DUP3 ADD SWAP2 SWAP1 PUSH1 0x0 MSTORE PUSH1 0x20 PUSH1 0x0 KECCAK256 SWAP1 JUMPDEST DUP2 SLOAD DUP2 MSTORE SWAP1 PUSH1 0x1 ADD SWAP1 PUSH1 0x20 ADD DUP1 DUP4 GT PUSH2 0x4E2 JUMPI DUP3 SWAP1 SUB PUSH1 0x1F AND DUP3 ADD SWAP2 JUMPDEST POP POP POP POP POP SWAP1 DUP1 PUSH1 0x3 ADD SLOAD SWAP1 POP DUP5 JUMP JUMPDEST PUSH1 0x1 DUP1 SLOAD PUSH2 0x51C SWAP1 PUSH2 0x1A8C JUMP JUMPDEST DUP1 PUSH1 0x1F ADD PUSH1 0x20 DUP1 SWAP2 DIV MUL PUSH1 0x20 ADD PUSH1 0x40 MLOAD SWAP1 DUP2 ADD PUSH1 0x40 MSTORE DUP1 SWAP3 SWAP2 SWAP1 DUP2 DUP2 MSTORE PUSH1 0x20 ADD DUP3 DUP1 SLOAD PUSH2 0x548 SWAP1 PUSH2 0x1A8C JUMP JUMPDEST DUP1 ISZERO PUSH2 0x595 JUMPI DUP1 PUSH1 0x1F LT PUSH2 0x56A JUMPI PUSH2 0x100 DUP1 DUP4 SLOAD DIV MUL DUP4 MSTORE SWAP2 PUSH1 0x20 ADD SWAP2 PUSH2 0x595 JUMP JUMPDEST DUP3 ADD SWAP2 SWAP1 PUSH1 0x0 MSTORE PUSH1 0x20 PUSH1 0x0 KECCAK256 SWAP1 JUMPDEST DUP2 SLOAD DUP2 MSTORE SWAP1 PUSH1 0x1 ADD SWAP1 PUSH1 0x20 ADD DUP1 DUP4 GT PUSH2 0x578 JUMPI DUP3 SWAP1 SUB PUSH1 0x1F AND DUP3 ADD SWAP2 JUMPDEST POP POP POP POP POP DUP2 JUMP JUMPDEST DUP1 PUSH1 0x1 SWAP1 DUP2 PUSH2 0x5AC SWAP2 SWAP1 PUSH2 0x1C69 JUMP JUMPDEST POP PUSH1 0x1 PUSH1 0x3 PUSH1 0x0 DUP3 DUP3 SLOAD PUSH2 0x5C0 SWAP2 SWAP1 PUSH2 0x1D6A JUMP JUMPDEST SWAP3 POP POP DUP2 SWAP1 SSTORE POP PUSH1 0x1 PUSH1 0x4 PUSH1 0x0 CALLER PUSH20 0xFFFFFFFFFFFFFFFFFFFFFFFFFFFFFFFFFFFFFFFF AND PUSH20 0xFFFFFFFFFFFFFFFFFFFFFFFFFFFFFFFFFFFFFFFF AND DUP2 MSTORE PUSH1 0x20 ADD SWAP1 DUP2 MSTORE PUSH1 0x20 ADD PUSH1 0x0 KECCAK256 PUSH1 0x0 DUP3 DUP3 SLOAD PUSH2 0x617 SWAP2 SWAP1 PUSH2 0x1D6A JUMP JUMPDEST SWAP3 POP POP DUP2 SWAP1 SSTORE POP PUSH1 0x0 CALLVALUE GT PUSH1 0x2 PUSH1 0x0 PUSH2 0x100 EXP DUP2 SLOAD DUP2 PUSH1 0xFF MUL NOT AND SWAP1 DUP4 ISZERO ISZERO MUL OR SWAP1 SSTORE POP CALLER PUSH20 0xFFFFFFFFFFFFFFFFFFFFFFFFFFFFFFFFFFFFFFFF AND PUSH32 0x9162D6B6C588B8575B805C5B6A18DBD33F5BCA63D5FDD64616BE57C1320518A5 DUP3 PUSH1 0x2 PUSH1 0x0 SWAP1 SLOAD SWAP1 PUSH2 0x100 EXP SWAP1 DIV PUSH1 0xFF AND CALLVALUE TIMESTAMP PUSH1 0x40 MLOAD PUSH2 0x696 SWAP5 SWAP4 SWAP3 SWAP2 SWAP1 PUSH2 0x1D9E JUMP JUMPDEST PUSH1 0x40 MLOAD DUP1 SWAP2 SUB SWAP1 LOG2 POP JUMP JUMPDEST PUSH1 0x0 DUP2 MLOAD GT PUSH2 0x6E5 JUMPI PUSH1 0x40 MLOAD PUSH32 0x8C379A000000000000000000000000000000000000000000000000000000000 DUP2 MSTORE PUSH1 0x4 ADD PUSH2 0x6DC SWAP1 PUSH2 0x1E36 JUMP JUMPDEST PUSH1 0x40 MLOAD DUP1 SWAP2 SUB SWAP1 REVERT JUMPDEST PUSH1 0x0 PUSH1 0x40 MLOAD DUP1 PUSH1 0x60 ADD PUSH1 0x40 MSTORE DUP1 CALLER PUSH20 0xFFFFFFFFFFFFFFFFFFFFFFFFFFFFFFFFFFFFFFFF AND DUP2 MSTORE PUSH1 0x20 ADD DUP4 DUP2 MSTORE PUSH1 0x20 ADD TIMESTAMP DUP2 MSTORE POP SWAP1 POP PUSH1 0x6 DUP2 SWAP1 DUP1 PUSH1 0x1 DUP2 SLOAD ADD DUP1 DUP3 SSTORE DUP1 SWAP2 POP POP PUSH1 0x1 SWAP1 SUB SWAP1 PUSH1 0x0 MSTORE PUSH1 0x20 PUSH1 0x0 KECCAK256 SWAP1 PUSH1 0x3 MUL ADD PUSH1 0x0 SWAP1 SWAP2 SWAP1 SWAP2 SWAP1 SWAP2 POP PUSH1 0x0 DUP3 ADD MLOAD DUP2 PUSH1 0x0 ADD PUSH1 0x0 PUSH2 0x100 EXP DUP2 SLOAD DUP2 PUSH20 0xFFFFFFFFFFFFFFFFFFFFFFFFFFFFFFFFFFFFFFFF MUL NOT AND SWAP1 DUP4 PUSH20 0xFFFFFFFFFFFFFFFFFFFFFFFFFFFFFFFFFFFFFFFF AND MUL OR SWAP1 SSTORE POP PUSH1 0x20 DUP3 ADD MLOAD DUP2 PUSH1 0x1 ADD SWAP1 DUP2 PUSH2 0x7A2 SWAP2 SWAP1 PUSH2 0x1C69 JUMP JUMPDEST POP PUSH1 0x40 DUP3 ADD MLOAD DUP2 PUSH1 0x2 ADD SSTORE POP POP CALLER PUSH20 0xFFFFFFFFFFFFFFFFFFFFFFFFFFFFFFFFFFFFFFFF AND PUSH32 0x582B2CC9F79067AE3AB4542438BFFD12793C90BDF82C749DA53095CEEE81E8B DUP4 TIMESTAMP PUSH1 0x40 MLOAD PUSH2 0x7F7 SWAP3 SWAP2 SWAP1 PUSH2 0x1E56 JUMP JUMPDEST PUSH1 0x40 MLOAD DUP1 SWAP2 SUB SWAP1 LOG2 POP POP JUMP JUMPDEST PUSH2 0x80B PUSH2 0x11A8 JUMP JUMPDEST PUSH2 0x815 PUSH1 0x0 PUSH2 0x122F JUMP JUMPDEST JUMP JUMPDEST PUSH2 0x81F PUSH2 0x11A8 JUMP JUMPDEST PUSH1 0x0 SELFBALANCE SWAP1 POP PUSH1 0x0 PUSH2 0x82E PUSH2 0x938 JUMP JUMPDEST PUSH20 0xFFFFFFFFFFFFFFFFFFFFFFFFFFFFFFFFFFFFFFFF AND DUP3 PUSH1 0x40 MLOAD PUSH2 0x851 SWAP1 PUSH2 0x1EB7 JUMP JUMPDEST PUSH1 0x0 PUSH1 0x40 MLOAD DUP1 DUP4 SUB DUP2 DUP6 DUP8 GAS CALL SWAP3 POP POP POP RETURNDATASIZE DUP1 PUSH1 0x0 DUP2 EQ PUSH2 0x88E JUMPI PUSH1 0x40 MLOAD SWAP2 POP PUSH1 0x1F NOT PUSH1 0x3F RETURNDATASIZE ADD AND DUP3 ADD PUSH1 0x40 MSTORE RETURNDATASIZE DUP3 MSTORE RETURNDATASIZE PUSH1 0x0 PUSH1 0x20 DUP5 ADD RETURNDATACOPY PUSH2 0x893 JUMP JUMPDEST PUSH1 0x60 SWAP2 POP JUMPDEST POP POP SWAP1 POP DUP1 PUSH2 0x8D7 JUMPI PUSH1 0x40 MLOAD PUSH32 0x8C379A000000000000000000000000000000000000000000000000000000000 DUP2 MSTORE PUSH1 0x4 ADD PUSH2 0x8CE SWAP1 PUSH2 0x1F18 JUMP JUMPDEST PUSH1 0x40 MLOAD DUP1 SWAP2 SUB SWAP1 REVERT JUMPDEST PUSH2 0x8DF PUSH2 0x938 JUMP JUMPDEST PUSH20 0xFFFFFFFFFFFFFFFFFFFFFFFFFFFFFFFFFFFFFFFF AND PUSH32 0xD5CA65E1EC4F4864FEA7B9C5CB1EC3087A0DBF9C74641DB3F6458EDF445C4051 DUP4 TIMESTAMP PUSH1 0x40 MLOAD PUSH2 0x926 SWAP3 SWAP2 SWAP1 PUSH2 0x1F38 JUMP JUMPDEST PUSH1 0x40 MLOAD DUP1 SWAP2 SUB SWAP1 LOG2 POP POP JUMP JUMPDEST PUSH1 0x3 SLOAD DUP2 JUMP JUMPDEST PUSH1 0x0 DUP1 PUSH1 0x0 SWAP1 SLOAD SWAP1 PUSH2 0x100 EXP SWAP1 DIV PUSH20 0xFFFFFFFFFFFFFFFFFFFFFFFFFFFFFFFFFFFFFFFF AND SWAP1 POP SWAP1 JUMP JUMPDEST PUSH1 0x2 PUSH1 0x0 SWAP1 SLOAD SWAP1 PUSH2 0x100 EXP SWAP1 DIV PUSH1 0xFF AND DUP2 JUMP JUMPDEST PUSH2 0x97C PUSH2 0x12FB JUMP JUMPDEST PUSH1 0x0 JUMPDEST PUSH1 0x5 DUP1 SLOAD SWAP1 POP DUP2 LT ISZERO PUSH2 0xBD0 JUMPI DUP3 PUSH20 0xFFFFFFFFFFFFFFFFFFFFFFFFFFFFFFFFFFFFFFFF AND PUSH1 0x5 DUP3 DUP2 SLOAD DUP2 LT PUSH2 0x9B7 JUMPI PUSH2 0x9B6 PUSH2 0x1F61 JUMP JUMPDEST JUMPDEST SWAP1 PUSH1 0x0 MSTORE PUSH1 0x20 PUSH1 0x0 KECCAK256 SWAP1 PUSH1 0x4 MUL ADD PUSH1 0x0 ADD PUSH1 0x0 SWAP1 SLOAD SWAP1 PUSH2 0x100 EXP SWAP1 DIV PUSH20 0xFFFFFFFFFFFFFFFFFFFFFFFFFFFFFFFFFFFFFFFF AND PUSH20 0xFFFFFFFFFFFFFFFFFFFFFFFFFFFFFFFFFFFFFFFF AND SUB PUSH2 0xBBD JUMPI PUSH1 0x5 DUP2 DUP2 SLOAD DUP2 LT PUSH2 0xA18 JUMPI PUSH2 0xA17 PUSH2 0x1F61 JUMP JUMPDEST JUMPDEST SWAP1 PUSH1 0x0 MSTORE PUSH1 0x20 PUSH1 0x0 KECCAK256 SWAP1 PUSH1 0x4 MUL ADD PUSH1 0x40 MLOAD DUP1 PUSH1 0x80 ADD PUSH1 0x40 MSTORE SWAP1 DUP2 PUSH1 0x0 DUP3 ADD PUSH1 0x0 SWAP1 SLOAD SWAP1 PUSH2 0x100 EXP SWAP1 DIV PUSH20 0xFFFFFFFFFFFFFFFFFFFFFFFFFFFFFFFFFFFFFFFF AND PUSH20 0xFFFFFFFFFFFFFFFFFFFFFFFFFFFFFFFFFFFFFFFF AND PUSH20 0xFFFFFFFFFFFFFFFFFFFFFFFFFFFFFFFFFFFFFFFF AND DUP2 MSTORE PUSH1 0x20 ADD PUSH1 0x1 DUP3 ADD DUP1 SLOAD PUSH2 0xA97 SWAP1 PUSH2 0x1A8C JUMP JUMPDEST DUP1 PUSH1 0x1F ADD PUSH1 0x20 DUP1 SWAP2 DIV MUL PUSH1 0x20 ADD PUSH1 0x40 MLOAD SWAP1 DUP2 ADD PUSH1 0x40 MSTORE DUP1 SWAP3 SWAP2 SWAP1 DUP2 DUP2 MSTORE PUSH1 0x20 ADD DUP3 DUP1 SLOAD PUSH2 0xAC3 SWAP1 PUSH2 0x1A8C JUMP JUMPDEST DUP1 ISZERO PUSH2 0xB10 JUMPI DUP1 PUSH1 0x1F LT PUSH2 0xAE5 JUMPI PUSH2 0x100 DUP1 DUP4 SLOAD DIV MUL DUP4 MSTORE SWAP2 PUSH1 0x20 ADD SWAP2 PUSH2 0xB10 JUMP JUMPDEST DUP3 ADD SWAP2 SWAP1 PUSH1 0x0 MSTORE PUSH1 0x20 PUSH1 0x0 KECCAK256 SWAP1 JUMPDEST DUP2 SLOAD DUP2 MSTORE SWAP1 PUSH1 0x1 ADD SWAP1 PUSH1 0x20 ADD DUP1 DUP4 GT PUSH2 0xAF3 JUMPI DUP3 SWAP1 SUB PUSH1 0x1F AND DUP3 ADD SWAP2 JUMPDEST POP POP POP POP POP DUP2 MSTORE PUSH1 0x20 ADD PUSH1 0x2 DUP3 ADD DUP1 SLOAD PUSH2 0xB29 SWAP1 PUSH2 0x1A8C JUMP JUMPDEST DUP1 PUSH1 0x1F ADD PUSH1 0x20 DUP1 SWAP2 DIV MUL PUSH1 0x20 ADD PUSH1 0x40 MLOAD SWAP1 DUP2 ADD PUSH1 0x40 MSTORE DUP1 SWAP3 SWAP2 SWAP1 DUP2 DUP2 MSTORE PUSH1 0x20 ADD DUP3 DUP1 SLOAD PUSH2 0xB55 SWAP1 PUSH2 0x1A8C JUMP JUMPDEST DUP1 ISZERO PUSH2 0xBA2 JUMPI DUP1 PUSH1 0x1F LT PUSH2 0xB77 JUMPI PUSH2 0x100 DUP1 DUP4 SLOAD DIV MUL DUP4 MSTORE SWAP2 PUSH1 0x20 ADD SWAP2 PUSH2 0xBA2 JUMP JUMPDEST DUP3 ADD SWAP2 SWAP1 PUSH1 0x0 MSTORE PUSH1 0x20 PUSH1 0x0 KECCAK256 SWAP1 JUMPDEST DUP2 SLOAD DUP2 MSTORE SWAP1 PUSH1 0x1 ADD SWAP1 PUSH1 0x20 ADD DUP1 DUP4 GT PUSH2 0xB85 JUMPI DUP3 SWAP1 SUB PUSH1 0x1F AND DUP3 ADD SWAP2 JUMPDEST POP POP POP POP POP DUP2 MSTORE PUSH1 0x20 ADD PUSH1 0x3 DUP3 ADD SLOAD DUP2 MSTORE POP POP SWAP2 POP POP PUSH2 0xC0C JUMP JUMPDEST DUP1 DUP1 PUSH2 0xBC8 SWAP1 PUSH2 0x1F90 JUMP JUMPDEST SWAP2 POP POP PUSH2 0x97F JUMP JUMPDEST POP PUSH1 0x40 MLOAD PUSH32 0x8C379A000000000000000000000000000000000000000000000000000000000 DUP2 MSTORE PUSH1 0x4 ADD PUSH2 0xC03 SWAP1 PUSH2 0x2024 JUMP JUMPDEST PUSH1 0x40 MLOAD DUP1 SWAP2 SUB SWAP1 REVERT JUMPDEST SWAP2 SWAP1 POP JUMP JUMPDEST PUSH1 0x60 PUSH1 0x0 PUSH1 0x6 DUP1 SLOAD SWAP1 POP PUSH8 0xFFFFFFFFFFFFFFFF DUP2 GT ISZERO PUSH2 0xC34 JUMPI PUSH2 0xC33 PUSH2 0x1546 JUMP JUMPDEST JUMPDEST PUSH1 0x40 MLOAD SWAP1 DUP1 DUP3 MSTORE DUP1 PUSH1 0x20 MUL PUSH1 0x20 ADD DUP3 ADD PUSH1 0x40 MSTORE DUP1 ISZERO PUSH2 0xC6D JUMPI DUP2 PUSH1 0x20 ADD JUMPDEST PUSH2 0xC5A PUSH2 0x1339 JUMP JUMPDEST DUP2 MSTORE PUSH1 0x20 ADD SWAP1 PUSH1 0x1 SWAP1 SUB SWAP1 DUP2 PUSH2 0xC52 JUMPI SWAP1 POP JUMPDEST POP SWAP1 POP PUSH1 0x0 DUP1 JUMPDEST PUSH1 0x6 DUP1 SLOAD SWAP1 POP DUP2 LT ISZERO PUSH2 0xE58 JUMPI DUP5 PUSH20 0xFFFFFFFFFFFFFFFFFFFFFFFFFFFFFFFFFFFFFFFF AND PUSH1 0x6 DUP3 DUP2 SLOAD DUP2 LT PUSH2 0xCAC JUMPI PUSH2 0xCAB PUSH2 0x1F61 JUMP JUMPDEST JUMPDEST SWAP1 PUSH1 0x0 MSTORE PUSH1 0x20 PUSH1 0x0 KECCAK256 SWAP1 PUSH1 0x3 MUL ADD PUSH1 0x0 ADD PUSH1 0x0 SWAP1 SLOAD SWAP1 PUSH2 0x100 EXP SWAP1 DIV PUSH20 0xFFFFFFFFFFFFFFFFFFFFFFFFFFFFFFFFFFFFFFFF AND PUSH20 0xFFFFFFFFFFFFFFFFFFFFFFFFFFFFFFFFFFFFFFFF AND SUB PUSH2 0xE45 JUMPI PUSH1 0x6 DUP2 DUP2 SLOAD DUP2 LT PUSH2 0xD0D JUMPI PUSH2 0xD0C PUSH2 0x1F61 JUMP JUMPDEST JUMPDEST SWAP1 PUSH1 0x0 MSTORE PUSH1 0x20 PUSH1 0x0 KECCAK256 SWAP1 PUSH1 0x3 MUL ADD PUSH1 0x40 MLOAD DUP1 PUSH1 0x60 ADD PUSH1 0x40 MSTORE SWAP1 DUP2 PUSH1 0x0 DUP3 ADD PUSH1 0x0 SWAP1 SLOAD SWAP1 PUSH2 0x100 EXP SWAP1 DIV PUSH20 0xFFFFFFFFFFFFFFFFFFFFFFFFFFFFFFFFFFFFFFFF AND PUSH20 0xFFFFFFFFFFFFFFFFFFFFFFFFFFFFFFFFFFFFFFFF AND PUSH20 0xFFFFFFFFFFFFFFFFFFFFFFFFFFFFFFFFFFFFFFFF AND DUP2 MSTORE PUSH1 0x20 ADD PUSH1 0x1 DUP3 ADD DUP1 SLOAD PUSH2 0xD8C SWAP1 PUSH2 0x1A8C JUMP JUMPDEST DUP1 PUSH1 0x1F ADD PUSH1 0x20 DUP1 SWAP2 DIV MUL PUSH1 0x20 ADD PUSH1 0x40 MLOAD SWAP1 DUP2 ADD PUSH1 0x40 MSTORE DUP1 SWAP3 SWAP2 SWAP1 DUP2 DUP2 MSTORE PUSH1 0x20 ADD DUP3 DUP1 SLOAD PUSH2 0xDB8 SWAP1 PUSH2 0x1A8C JUMP JUMPDEST DUP1 ISZERO PUSH2 0xE05 JUMPI DUP1 PUSH1 0x1F LT PUSH2 0xDDA JUMPI PUSH2 0x100 DUP1 DUP4 SLOAD DIV MUL DUP4 MSTORE SWAP2 PUSH1 0x20 ADD SWAP2 PUSH2 0xE05 JUMP JUMPDEST DUP3 ADD SWAP2 SWAP1 PUSH1 0x0 MSTORE PUSH1 0x20 PUSH1 0x0 KECCAK256 SWAP1 JUMPDEST DUP2 SLOAD DUP2 MSTORE SWAP1 PUSH1 0x1 ADD SWAP1 PUSH1 0x20 ADD DUP1 DUP4 GT PUSH2 0xDE8 JUMPI DUP3 SWAP1 SUB PUSH1 0x1F AND DUP3 ADD SWAP2 JUMPDEST POP POP POP POP POP DUP2 MSTORE PUSH1 0x20 ADD PUSH1 0x2 DUP3 ADD SLOAD DUP2 MSTORE POP POP DUP4 DUP4 DUP2 MLOAD DUP2 LT PUSH2 0xE2B JUMPI PUSH2 0xE2A PUSH2 0x1F61 JUMP JUMPDEST JUMPDEST PUSH1 0x20 MUL PUSH1 0x20 ADD ADD DUP2 SWAP1 MSTORE POP DUP2 DUP1 PUSH2 0xE41 SWAP1 PUSH2 0x1F90 JUMP JUMPDEST SWAP3 POP POP JUMPDEST DUP1 DUP1 PUSH2 0xE50 SWAP1 PUSH2 0x1F90 JUMP JUMPDEST SWAP2 POP POP PUSH2 0xC74 JUMP JUMPDEST POP DUP2 SWAP3 POP POP POP SWAP2 SWAP1 POP JUMP JUMPDEST PUSH1 0x4 PUSH1 0x20 MSTORE DUP1 PUSH1 0x0 MSTORE PUSH1 0x40 PUSH1 0x0 KECCAK256 PUSH1 0x0 SWAP2 POP SWAP1 POP SLOAD DUP2 JUMP JUMPDEST PUSH1 0x0 DUP3 MLOAD GT PUSH2 0xEBF JUMPI PUSH1 0x40 MLOAD PUSH32 0x8C379A000000000000000000000000000000000000000000000000000000000 DUP2 MSTORE PUSH1 0x4 ADD PUSH2 0xEB6 SWAP1 PUSH2 0x2090 JUMP JUMPDEST PUSH1 0x40 MLOAD DUP1 SWAP2 SUB SWAP1 REVERT JUMPDEST PUSH1 0x0 DUP2 MLOAD GT PUSH2 0xF03 JUMPI PUSH1 0x40 MLOAD PUSH32 0x8C379A000000000000000000000000000000000000000000000000000000000 DUP2 MSTORE PUSH1 0x4 ADD PUSH2 0xEFA SWAP1 PUSH2 0x20FC JUMP JUMPDEST PUSH1 0x40 MLOAD DUP1 SWAP2 SUB SWAP1 REVERT JUMPDEST PUSH1 0x0 PUSH1 0x40 MLOAD DUP1 PUSH1 0x80 ADD PUSH1 0x40 MSTORE DUP1 CALLER PUSH20 0xFFFFFFFFFFFFFFFFFFFFFFFFFFFFFFFFFFFFFFFF AND DUP2 MSTORE PUSH1 0x20 ADD DUP5 DUP2 MSTORE PUSH1 0x20 ADD DUP4 DUP2 MSTORE PUSH1 0x20 ADD TIMESTAMP DUP2 MSTORE POP SWAP1 POP PUSH1 0x5 DUP2 SWAP1 DUP1 PUSH1 0x1 DUP2 SLOAD ADD DUP1 DUP3 SSTORE DUP1 SWAP2 POP POP PUSH1 0x1 SWAP1 SUB SWAP1 PUSH1 0x0 MSTORE PUSH1 0x20 PUSH1 0x0 KECCAK256 SWAP1 PUSH1 0x4 MUL ADD PUSH1 0x0 SWAP1 SWAP2 SWAP1 SWAP2 SWAP1 SWAP2 POP PUSH1 0x0 DUP3 ADD MLOAD DUP2 PUSH1 0x0 ADD PUSH1 0x0 PUSH2 0x100 EXP DUP2 SLOAD DUP2 PUSH20 0xFFFFFFFFFFFFFFFFFFFFFFFFFFFFFFFFFFFFFFFF MUL NOT AND SWAP1 DUP4 PUSH20 0xFFFFFFFFFFFFFFFFFFFFFFFFFFFFFFFFFFFFFFFF AND MUL OR SWAP1 SSTORE POP PUSH1 0x20 DUP3 ADD MLOAD DUP2 PUSH1 0x1 ADD SWAP1 DUP2 PUSH2 0xFC6 SWAP2 SWAP1 PUSH2 0x1C69 JUMP JUMPDEST POP PUSH1 0x40 DUP3 ADD MLOAD DUP2 PUSH1 0x2 ADD SWAP1 DUP2 PUSH2 0xFDC SWAP2 SWAP1 PUSH2 0x1C69 JUMP JUMPDEST POP PUSH1 0x60 DUP3 ADD MLOAD DUP2 PUSH1 0x3 ADD SSTORE POP POP CALLER PUSH20 0xFFFFFFFFFFFFFFFFFFFFFFFFFFFFFFFFFFFFFFFF AND PUSH32 0xEDD2B109112C6076587898E8DB8E57A2E0F710071C6244A847D093B235CC0FF7 DUP5 DUP5 TIMESTAMP PUSH1 0x40 MLOAD PUSH2 0x1033 SWAP4 SWAP3 SWAP2 SWAP1 PUSH2 0x211C JUMP JUMPDEST PUSH1 0x40 MLOAD DUP1 SWAP2 SUB SWAP1 LOG2 POP POP POP JUMP JUMPDEST PUSH2 0x1048 PUSH2 0x11A8 JUMP JUMPDEST PUSH1 0x0 PUSH20 0xFFFFFFFFFFFFFFFFFFFFFFFFFFFFFFFFFFFFFFFF AND DUP2 PUSH20 0xFFFFFFFFFFFFFFFFFFFFFFFFFFFFFFFFFFFFFFFF AND SUB PUSH2 0x10BA JUMPI PUSH1 0x0 PUSH1 0x40 MLOAD PUSH32 0x1E4FBDF700000000000000000000000000000000000000000000000000000000 DUP2 MSTORE PUSH1 0x4 ADD PUSH2 0x10B1 SWAP2 SWAP1 PUSH2 0x16D5 JUMP JUMPDEST PUSH1 0x40 MLOAD DUP1 SWAP2 SUB SWAP1 REVERT JUMPDEST PUSH2 0x10C3 DUP2 PUSH2 0x122F JUMP JUMPDEST POP JUMP JUMPDEST PUSH1 0x6 DUP2 DUP2 SLOAD DUP2 LT PUSH2 0x10D6 JUMPI PUSH1 0x0 DUP1 REVERT JUMPDEST SWAP1 PUSH1 0x0 MSTORE PUSH1 0x20 PUSH1 0x0 KECCAK256 SWAP1 PUSH1 0x3 MUL ADD PUSH1 0x0 SWAP2 POP SWAP1 POP DUP1 PUSH1 0x0 ADD PUSH1 0x0 SWAP1 SLOAD SWAP1 PUSH2 0x100 EXP SWAP1 DIV PUSH20 0xFFFFFFFFFFFFFFFFFFFFFFFFFFFFFFFFFFFFFFFF AND SWAP1 DUP1 PUSH1 0x1 ADD DUP1 SLOAD PUSH2 0x111F SWAP1 PUSH2 0x1A8C JUMP JUMPDEST DUP1 PUSH1 0x1F ADD PUSH1 0x20 DUP1 SWAP2 DIV MUL PUSH1 0x20 ADD PUSH1 0x40 MLOAD SWAP1 DUP2 ADD PUSH1 0x40 MSTORE DUP1 SWAP3 SWAP2 SWAP1 DUP2 DUP2 MSTORE PUSH1 0x20 ADD DUP3 DUP1 SLOAD PUSH2 0x114B SWAP1 PUSH2 0x1A8C JUMP JUMPDEST DUP1 ISZERO PUSH2 0x1198 JUMPI DUP1 PUSH1 0x1F LT PUSH2 0x116D JUMPI PUSH2 0x100 DUP1 DUP4 SLOAD DIV MUL DUP4 MSTORE SWAP2 PUSH1 0x20 ADD SWAP2 PUSH2 0x1198 JUMP JUMPDEST DUP3 ADD SWAP2 SWAP1 PUSH1 0x0 MSTORE PUSH1 0x20 PUSH1 0x0 KECCAK256 SWAP1 JUMPDEST DUP2 SLOAD DUP2 MSTORE SWAP1 PUSH1 0x1 ADD SWAP1 PUSH1 0x20 ADD DUP1 DUP4 GT PUSH2 0x117B JUMPI DUP3 SWAP1 SUB PUSH1 0x1F AND DUP3 ADD SWAP2 JUMPDEST POP POP POP POP POP SWAP1 DUP1 PUSH1 0x2 ADD SLOAD SWAP1 POP DUP4 JUMP JUMPDEST PUSH2 0x11B0 PUSH2 0x12F3 JUMP JUMPDEST PUSH20 0xFFFFFFFFFFFFFFFFFFFFFFFFFFFFFFFFFFFFFFFF AND PUSH2 0x11CE PUSH2 0x938 JUMP JUMPDEST PUSH20 0xFFFFFFFFFFFFFFFFFFFFFFFFFFFFFFFFFFFFFFFF AND EQ PUSH2 0x122D JUMPI PUSH2 0x11F1 PUSH2 0x12F3 JUMP JUMPDEST PUSH1 0x40 MLOAD PUSH32 0x118CDAA700000000000000000000000000000000000000000000000000000000 DUP2 MSTORE PUSH1 0x4 ADD PUSH2 0x1224 SWAP2 SWAP1 PUSH2 0x16D5 JUMP JUMPDEST PUSH1 0x40 MLOAD DUP1 SWAP2 SUB SWAP1 REVERT JUMPDEST JUMP JUMPDEST PUSH1 0x0 DUP1 PUSH1 0x0 SWAP1 SLOAD SWAP1 PUSH2 0x100 EXP SWAP1 DIV PUSH20 0xFFFFFFFFFFFFFFFFFFFFFFFFFFFFFFFFFFFFFFFF AND SWAP1 POP DUP2 PUSH1 0x0 DUP1 PUSH2 0x100 EXP DUP2 SLOAD DUP2 PUSH20 0xFFFFFFFFFFFFFFFFFFFFFFFFFFFFFFFFFFFFFFFF MUL NOT AND SWAP1 DUP4 PUSH20 0xFFFFFFFFFFFFFFFFFFFFFFFFFFFFFFFFFFFFFFFF AND MUL OR SWAP1 SSTORE POP DUP2 PUSH20 0xFFFFFFFFFFFFFFFFFFFFFFFFFFFFFFFFFFFFFFFF AND DUP2 PUSH20 0xFFFFFFFFFFFFFFFFFFFFFFFFFFFFFFFFFFFFFFFF AND PUSH32 0x8BE0079C531659141344CD1FD0A4F28419497F9722A3DAAFE3B4186F6B6457E0 PUSH1 0x40 MLOAD PUSH1 0x40 MLOAD DUP1 SWAP2 SUB SWAP1 LOG3 POP POP JUMP JUMPDEST PUSH1 0x0 CALLER SWAP1 POP SWAP1 JUMP JUMPDEST PUSH1 0x40 MLOAD DUP1 PUSH1 0x80 ADD PUSH1 0x40 MSTORE DUP1 PUSH1 0x0 PUSH20 0xFFFFFFFFFFFFFFFFFFFFFFFFFFFFFFFFFFFFFFFF AND DUP2 MSTORE PUSH1 0x20 ADD PUSH1 0x60 DUP2 MSTORE PUSH1 0x20 ADD PUSH1 0x60 DUP2 MSTORE PUSH1 0x20 ADD PUSH1 0x0 DUP2 MSTORE POP SWAP1 JUMP JUMPDEST PUSH1 0x40 MLOAD DUP1 PUSH1 0x60 ADD PUSH1 0x40 MSTORE DUP1 PUSH1 0x0 PUSH20 0xFFFFFFFFFFFFFFFFFFFFFFFFFFFFFFFFFFFFFFFF AND DUP2 MSTORE PUSH1 0x20 ADD PUSH1 0x60 DUP2 MSTORE PUSH1 0x20 ADD PUSH1 0x0 DUP2 MSTORE POP SWAP1 JUMP JUMPDEST PUSH1 0x0 PUSH1 0x40 MLOAD SWAP1 POP SWAP1 JUMP JUMPDEST PUSH1 0x0 DUP1 REVERT JUMPDEST PUSH1 0x0 DUP1 REVERT JUMPDEST PUSH1 0x0 DUP2 SWAP1 POP SWAP2 SWAP1 POP JUMP JUMPDEST PUSH2 0x1397 DUP2 PUSH2 0x1384 JUMP JUMPDEST DUP2 EQ PUSH2 0x13A2 JUMPI PUSH1 0x0 DUP1 REVERT JUMPDEST POP JUMP JUMPDEST PUSH1 0x0 DUP2 CALLDATALOAD SWAP1 POP PUSH2 0x13B4 DUP2 PUSH2 0x138E JUMP JUMPDEST SWAP3 SWAP2 POP POP JUMP JUMPDEST PUSH1 0x0 PUSH1 0x20 DUP3 DUP5 SUB SLT ISZERO PUSH2 0x13D0 JUMPI PUSH2 0x13CF PUSH2 0x137A JUMP JUMPDEST JUMPDEST PUSH1 0x0 PUSH2 0x13DE DUP5 DUP3 DUP6 ADD PUSH2 0x13A5 JUMP JUMPDEST SWAP2 POP POP SWAP3 SWAP2 POP POP JUMP JUMPDEST PUSH1 0x0 PUSH20 0xFFFFFFFFFFFFFFFFFFFFFFFFFFFFFFFFFFFFFFFF DUP3 AND SWAP1 POP SWAP2 SWAP1 POP JUMP JUMPDEST PUSH1 0x0 PUSH2 0x1412 DUP3 PUSH2 0x13E7 JUMP JUMPDEST SWAP1 POP SWAP2 SWAP1 POP JUMP JUMPDEST PUSH2 0x1422 DUP2 PUSH2 0x1407 JUMP JUMPDEST DUP3 MSTORE POP POP JUMP JUMPDEST PUSH1 0x0 DUP2 MLOAD SWAP1 POP SWAP2 SWAP1 POP JUMP JUMPDEST PUSH1 0x0 DUP3 DUP3 MSTORE PUSH1 0x20 DUP3 ADD SWAP1 POP SWAP3 SWAP2 POP POP JUMP JUMPDEST PUSH1 0x0 JUMPDEST DUP4 DUP2 LT ISZERO PUSH2 0x1462 JUMPI DUP1 DUP3 ADD MLOAD DUP2 DUP5 ADD MSTORE PUSH1 0x20 DUP2 ADD SWAP1 POP PUSH2 0x1447 JUMP JUMPDEST PUSH1 0x0 DUP5 DUP5 ADD MSTORE POP POP POP POP JUMP JUMPDEST PUSH1 0x0 PUSH1 0x1F NOT PUSH1 0x1F DUP4 ADD AND SWAP1 POP SWAP2 SWAP1 POP JUMP JUMPDEST PUSH1 0x0 PUSH2 0x148A DUP3 PUSH2 0x1428 JUMP JUMPDEST PUSH2 0x1494 DUP2 DUP6 PUSH2 0x1433 JUMP JUMPDEST SWAP4 POP PUSH2 0x14A4 DUP2 DUP6 PUSH1 0x20 DUP7 ADD PUSH2 0x1444 JUMP JUMPDEST PUSH2 0x14AD DUP2 PUSH2 0x146E JUMP JUMPDEST DUP5 ADD SWAP2 POP POP SWAP3 SWAP2 POP POP JUMP JUMPDEST PUSH2 0x14C1 DUP2 PUSH2 0x1384 JUMP JUMPDEST DUP3 MSTORE POP POP JUMP JUMPDEST PUSH1 0x0 PUSH1 0x80 DUP3 ADD SWAP1 POP PUSH2 0x14DC PUSH1 0x0 DUP4 ADD DUP8 PUSH2 0x1419 JUMP JUMPDEST DUP2 DUP2 SUB PUSH1 0x20 DUP4 ADD MSTORE PUSH2 0x14EE DUP2 DUP7 PUSH2 0x147F JUMP JUMPDEST SWAP1 POP DUP2 DUP2 SUB PUSH1 0x40 DUP4 ADD MSTORE PUSH2 0x1502 DUP2 DUP6 PUSH2 0x147F JUMP JUMPDEST SWAP1 POP PUSH2 0x1511 PUSH1 0x60 DUP4 ADD DUP5 PUSH2 0x14B8 JUMP JUMPDEST SWAP6 SWAP5 POP POP POP POP POP JUMP JUMPDEST PUSH1 0x0 PUSH1 0x20 DUP3 ADD SWAP1 POP DUP2 DUP2 SUB PUSH1 0x0 DUP4 ADD MSTORE PUSH2 0x1534 DUP2 DUP5 PUSH2 0x147F JUMP JUMPDEST SWAP1 POP SWAP3 SWAP2 POP POP JUMP JUMPDEST PUSH1 0x0 DUP1 REVERT JUMPDEST PUSH1 0x0 DUP1 REVERT JUMPDEST PUSH32 0x4E487B7100000000000000000000000000000000000000000000000000000000 PUSH1 0x0 MSTORE PUSH1 0x41 PUSH1 0x4 MSTORE PUSH1 0x24 PUSH1 0x0 REVERT JUMPDEST PUSH2 0x157E DUP3 PUSH2 0x146E JUMP JUMPDEST DUP2 ADD DUP2 DUP2 LT PUSH8 0xFFFFFFFFFFFFFFFF DUP3 GT OR ISZERO PUSH2 0x159D JUMPI PUSH2 0x159C PUSH2 0x1546 JUMP JUMPDEST JUMPDEST DUP1 PUSH1 0x40 MSTORE POP POP POP JUMP JUMPDEST PUSH1 0x0 PUSH2 0x15B0 PUSH2 0x1370 JUMP JUMPDEST SWAP1 POP PUSH2 0x15BC DUP3 DUP3 PUSH2 0x1575 JUMP JUMPDEST SWAP2 SWAP1 POP JUMP JUMPDEST PUSH1 0x0 PUSH8 0xFFFFFFFFFFFFFFFF DUP3 GT ISZERO PUSH2 0x15DC JUMPI PUSH2 0x15DB PUSH2 0x1546 JUMP JUMPDEST JUMPDEST PUSH2 0x15E5 DUP3 PUSH2 0x146E JUMP JUMPDEST SWAP1 POP PUSH1 0x20 DUP2 ADD SWAP1 POP SWAP2 SWAP1 POP JUMP JUMPDEST DUP3 DUP2 DUP4 CALLDATACOPY PUSH1 0x0 DUP4 DUP4 ADD MSTORE POP POP POP JUMP JUMPDEST PUSH1 0x0 PUSH2 0x1614 PUSH2 0x160F DUP5 PUSH2 0x15C1 JUMP JUMPDEST PUSH2 0x15A6 JUMP JUMPDEST SWAP1 POP DUP3 DUP2 MSTORE PUSH1 0x20 DUP2 ADD DUP5 DUP5 DUP5 ADD GT ISZERO PUSH2 0x1630 JUMPI PUSH2 0x162F PUSH2 0x1541 JUMP JUMPDEST JUMPDEST PUSH2 0x163B DUP5 DUP3 DUP6 PUSH2 0x15F2 JUMP JUMPDEST POP SWAP4 SWAP3 POP POP POP JUMP JUMPDEST PUSH1 0x0 DUP3 PUSH1 0x1F DUP4 ADD SLT PUSH2 0x1658 JUMPI PUSH2 0x1657 PUSH2 0x153C JUMP JUMPDEST JUMPDEST DUP2 CALLDATALOAD PUSH2 0x1668 DUP5 DUP3 PUSH1 0x20 DUP7 ADD PUSH2 0x1601 JUMP JUMPDEST SWAP2 POP POP SWAP3 SWAP2 POP POP JUMP JUMPDEST PUSH1 0x0 PUSH1 0x20 DUP3 DUP5 SUB SLT ISZERO PUSH2 0x1687 JUMPI PUSH2 0x1686 PUSH2 0x137A JUMP JUMPDEST JUMPDEST PUSH1 0x0 DUP3 ADD CALLDATALOAD PUSH8 0xFFFFFFFFFFFFFFFF DUP2 GT ISZERO PUSH2 0x16A5 JUMPI PUSH2 0x16A4 PUSH2 0x137F JUMP JUMPDEST JUMPDEST PUSH2 0x16B1 DUP5 DUP3 DUP6 ADD PUSH2 0x1643 JUMP JUMPDEST SWAP2 POP POP SWAP3 SWAP2 POP POP JUMP JUMPDEST PUSH1 0x0 PUSH1 0x20 DUP3 ADD SWAP1 POP PUSH2 0x16CF PUSH1 0x0 DUP4 ADD DUP5 PUSH2 0x14B8 JUMP JUMPDEST SWAP3 SWAP2 POP POP JUMP JUMPDEST PUSH1 0x0 PUSH1 0x20 DUP3 ADD SWAP1 POP PUSH2 0x16EA PUSH1 0x0 DUP4 ADD DUP5 PUSH2 0x1419 JUMP JUMPDEST SWAP3 SWAP2 POP POP JUMP JUMPDEST PUSH1 0x0 DUP2 ISZERO ISZERO SWAP1 POP SWAP2 SWAP1 POP JUMP JUMPDEST PUSH2 0x1705 DUP2 PUSH2 0x16F0 JUMP JUMPDEST DUP3 MSTORE POP POP JUMP JUMPDEST PUSH1 0x0 PUSH1 0x20 DUP3 ADD SWAP1 POP PUSH2 0x1720 PUSH1 0x0 DUP4 ADD DUP5 PUSH2 0x16FC JUMP JUMPDEST SWAP3 SWAP2 POP POP JUMP JUMPDEST PUSH2 0x172F DUP2 PUSH2 0x1407 JUMP JUMPDEST DUP2 EQ PUSH2 0x173A JUMPI PUSH1 0x0 DUP1 REVERT JUMPDEST POP JUMP JUMPDEST PUSH1 0x0 DUP2 CALLDATALOAD SWAP1 POP PUSH2 0x174C DUP2 PUSH2 0x1726 JUMP JUMPDEST SWAP3 SWAP2 POP POP JUMP JUMPDEST PUSH1 0x0 PUSH1 0x20 DUP3 DUP5 SUB SLT ISZERO PUSH2 0x1768 JUMPI PUSH2 0x1767 PUSH2 0x137A JUMP JUMPDEST JUMPDEST PUSH1 0x0 PUSH2 0x1776 DUP5 DUP3 DUP6 ADD PUSH2 0x173D JUMP JUMPDEST SWAP2 POP POP SWAP3 SWAP2 POP POP JUMP JUMPDEST PUSH2 0x1788 DUP2 PUSH2 0x1407 JUMP JUMPDEST DUP3 MSTORE POP POP JUMP JUMPDEST PUSH1 0x0 DUP3 DUP3 MSTORE PUSH1 0x20 DUP3 ADD SWAP1 POP SWAP3 SWAP2 POP POP JUMP JUMPDEST PUSH1 0x0 PUSH2 0x17AA DUP3 PUSH2 0x1428 JUMP JUMPDEST PUSH2 0x17B4 DUP2 DUP6 PUSH2 0x178E JUMP JUMPDEST SWAP4 POP PUSH2 0x17C4 DUP2 DUP6 PUSH1 0x20 DUP7 ADD PUSH2 0x1444 JUMP JUMPDEST PUSH2 0x17CD DUP2 PUSH2 0x146E JUMP JUMPDEST DUP5 ADD SWAP2 POP POP SWAP3 SWAP2 POP POP JUMP JUMPDEST PUSH2 0x17E1 DUP2 PUSH2 0x1384 JUMP JUMPDEST DUP3 MSTORE POP POP JUMP JUMPDEST PUSH1 0x0 PUSH1 0x80 DUP4 ADD PUSH1 0x0 DUP4 ADD MLOAD PUSH2 0x17FF PUSH1 0x0 DUP7 ADD DUP3 PUSH2 0x177F JUMP JUMPDEST POP PUSH1 0x20 DUP4 ADD MLOAD DUP5 DUP3 SUB PUSH1 0x20 DUP7 ADD MSTORE PUSH2 0x1817 DUP3 DUP3 PUSH2 0x179F JUMP JUMPDEST SWAP2 POP POP PUSH1 0x40 DUP4 ADD MLOAD DUP5 DUP3 SUB PUSH1 0x40 DUP7 ADD MSTORE PUSH2 0x1831 DUP3 DUP3 PUSH2 0x179F JUMP JUMPDEST SWAP2 POP POP PUSH1 0x60 DUP4 ADD MLOAD PUSH2 0x1846 PUSH1 0x60 DUP7 ADD DUP3 PUSH2 0x17D8 JUMP JUMPDEST POP DUP1 SWAP2 POP POP SWAP3 SWAP2 POP POP JUMP JUMPDEST PUSH1 0x0 PUSH1 0x20 DUP3 ADD SWAP1 POP DUP2 DUP2 SUB PUSH1 0x0 DUP4 ADD MSTORE PUSH2 0x186B DUP2 DUP5 PUSH2 0x17E7 JUMP JUMPDEST SWAP1 POP SWAP3 SWAP2 POP POP JUMP JUMPDEST PUSH1 0x0 DUP2 MLOAD SWAP1 POP SWAP2 SWAP1 POP JUMP JUMPDEST PUSH1 0x0 DUP3 DUP3 MSTORE PUSH1 0x20 DUP3 ADD SWAP1 POP SWAP3 SWAP2 POP POP JUMP JUMPDEST PUSH1 0x0 DUP2 SWAP1 POP PUSH1 0x20 DUP3 ADD SWAP1 POP SWAP2 SWAP1 POP JUMP JUMPDEST PUSH1 0x0 PUSH1 0x60 DUP4 ADD PUSH1 0x0 DUP4 ADD MLOAD PUSH2 0x18B7 PUSH1 0x0 DUP7 ADD DUP3 PUSH2 0x177F JUMP JUMPDEST POP PUSH1 0x20 DUP4 ADD MLOAD DUP5 DUP3 SUB PUSH1 0x20 DUP7 ADD MSTORE PUSH2 0x18CF DUP3 DUP3 PUSH2 0x179F JUMP JUMPDEST SWAP2 POP POP PUSH1 0x40 DUP4 ADD MLOAD PUSH2 0x18E4 PUSH1 0x40 DUP7 ADD DUP3 PUSH2 0x17D8 JUMP JUMPDEST POP DUP1 SWAP2 POP POP SWAP3 SWAP2 POP POP JUMP JUMPDEST PUSH1 0x0 PUSH2 0x18FB DUP4 DUP4 PUSH2 0x189F JUMP JUMPDEST SWAP1 POP SWAP3 SWAP2 POP POP JUMP JUMPDEST PUSH1 0x0 PUSH1 0x20 DUP3 ADD SWAP1 POP SWAP2 SWAP1 POP JUMP JUMPDEST PUSH1 0x0 PUSH2 0x191B DUP3 PUSH2 0x1873 JUMP JUMPDEST PUSH2 0x1925 DUP2 DUP6 PUSH2 0x187E JUMP JUMPDEST SWAP4 POP DUP4 PUSH1 0x20 DUP3 MUL DUP6 ADD PUSH2 0x1937 DUP6 PUSH2 0x188F JUMP JUMPDEST DUP1 PUSH1 0x0 JUMPDEST DUP6 DUP2 LT ISZERO PUSH2 0x1973 JUMPI DUP5 DUP5 SUB DUP10 MSTORE DUP2 MLOAD PUSH2 0x1954 DUP6 DUP3 PUSH2 0x18EF JUMP JUMPDEST SWAP5 POP PUSH2 0x195F DUP4 PUSH2 0x1903 JUMP JUMPDEST SWAP3 POP PUSH1 0x20 DUP11 ADD SWAP10 POP POP PUSH1 0x1 DUP2 ADD SWAP1 POP PUSH2 0x193B JUMP JUMPDEST POP DUP3 SWAP8 POP DUP8 SWAP6 POP POP POP POP POP POP SWAP3 SWAP2 POP POP JUMP JUMPDEST PUSH1 0x0 PUSH1 0x20 DUP3 ADD SWAP1 POP DUP2 DUP2 SUB PUSH1 0x0 DUP4 ADD MSTORE PUSH2 0x199F DUP2 DUP5 PUSH2 0x1910 JUMP JUMPDEST SWAP1 POP SWAP3 SWAP2 POP POP JUMP JUMPDEST PUSH1 0x0 DUP1 PUSH1 0x40 DUP4 DUP6 SUB SLT ISZERO PUSH2 0x19BE JUMPI PUSH2 0x19BD PUSH2 0x137A JUMP JUMPDEST JUMPDEST PUSH1 0x0 DUP4 ADD CALLDATALOAD PUSH8 0xFFFFFFFFFFFFFFFF DUP2 GT ISZERO PUSH2 0x19DC JUMPI PUSH2 0x19DB PUSH2 0x137F JUMP JUMPDEST JUMPDEST PUSH2 0x19E8 DUP6 DUP3 DUP7 ADD PUSH2 0x1643 JUMP JUMPDEST SWAP3 POP POP PUSH1 0x20 DUP4 ADD CALLDATALOAD PUSH8 0xFFFFFFFFFFFFFFFF DUP2 GT ISZERO PUSH2 0x1A09 JUMPI PUSH2 0x1A08 PUSH2 0x137F JUMP JUMPDEST JUMPDEST PUSH2 0x1A15 DUP6 DUP3 DUP7 ADD PUSH2 0x1643 JUMP JUMPDEST SWAP2 POP POP SWAP3 POP SWAP3 SWAP1 POP JUMP JUMPDEST PUSH1 0x0 PUSH1 0x60 DUP3 ADD SWAP1 POP PUSH2 0x1A34 PUSH1 0x0 DUP4 ADD DUP7 PUSH2 0x1419 JUMP JUMPDEST DUP2 DUP2 SUB PUSH1 0x20 DUP4 ADD MSTORE PUSH2 0x1A46 DUP2 DUP6 PUSH2 0x147F JUMP JUMPDEST SWAP1 POP PUSH2 0x1A55 PUSH1 0x40 DUP4 ADD DUP5 PUSH2 0x14B8 JUMP JUMPDEST SWAP5 SWAP4 POP POP POP POP JUMP JUMPDEST PUSH32 0x4E487B7100000000000000000000000000000000000000000000000000000000 PUSH1 0x0 MSTORE PUSH1 0x22 PUSH1 0x4 MSTORE PUSH1 0x24 PUSH1 0x0 REVERT JUMPDEST PUSH1 0x0 PUSH1 0x2 DUP3 DIV SWAP1 POP PUSH1 0x1 DUP3 AND DUP1 PUSH2 0x1AA4 JUMPI PUSH1 0x7F DUP3 AND SWAP2 POP JUMPDEST PUSH1 0x20 DUP3 LT DUP2 SUB PUSH2 0x1AB7 JUMPI PUSH2 0x1AB6 PUSH2 0x1A5D JUMP JUMPDEST JUMPDEST POP SWAP2 SWAP1 POP JUMP JUMPDEST PUSH1 0x0 DUP2 SWAP1 POP DUP2 PUSH1 0x0 MSTORE PUSH1 0x20 PUSH1 0x0 KECCAK256 SWAP1 POP SWAP2 SWAP1 POP JUMP JUMPDEST PUSH1 0x0 PUSH1 0x20 PUSH1 0x1F DUP4 ADD DIV SWAP1 POP SWAP2 SWAP1 POP JUMP JUMPDEST PUSH1 0x0 DUP3 DUP3 SHL SWAP1 POP SWAP3 SWAP2 POP POP JUMP JUMPDEST PUSH1 0x0 PUSH1 0x8 DUP4 MUL PUSH2 0x1B1F PUSH32 0xFFFFFFFFFFFFFFFFFFFFFFFFFFFFFFFFFFFFFFFFFFFFFFFFFFFFFFFFFFFFFFFF DUP3 PUSH2 0x1AE2 JUMP JUMPDEST PUSH2 0x1B29 DUP7 DUP4 PUSH2 0x1AE2 JUMP JUMPDEST SWAP6 POP DUP1 NOT DUP5 AND SWAP4 POP DUP1 DUP7 AND DUP5 OR SWAP3 POP POP POP SWAP4 SWAP3 POP POP POP JUMP JUMPDEST PUSH1 0x0 DUP2 SWAP1 POP SWAP2 SWAP1 POP JUMP JUMPDEST PUSH1 0x0 PUSH2 0x1B66 PUSH2 0x1B61 PUSH2 0x1B5C DUP5 PUSH2 0x1384 JUMP JUMPDEST PUSH2 0x1B41 JUMP JUMPDEST PUSH2 0x1384 JUMP JUMPDEST SWAP1 POP SWAP2 SWAP1 POP JUMP JUMPDEST PUSH1 0x0 DUP2 SWAP1 POP SWAP2 SWAP1 POP JUMP JUMPDEST PUSH2 0x1B80 DUP4 PUSH2 0x1B4B JUMP JUMPDEST PUSH2 0x1B94 PUSH2 0x1B8C DUP3 PUSH2 0x1B6D JUMP JUMPDEST DUP5 DUP5 SLOAD PUSH2 0x1AEF JUMP JUMPDEST DUP3 SSTORE POP POP POP POP JUMP JUMPDEST PUSH1 0x0 SWAP1 JUMP JUMPDEST PUSH2 0x1BA9 PUSH2 0x1B9C JUMP JUMPDEST PUSH2 0x1BB4 DUP2 DUP5 DUP5 PUSH2 0x1B77 JUMP JUMPDEST POP POP POP JUMP JUMPDEST JUMPDEST DUP2 DUP2 LT ISZERO PUSH2 0x1BD8 JUMPI PUSH2 0x1BCD PUSH1 0x0 DUP3 PUSH2 0x1BA1 JUMP JUMPDEST PUSH1 0x1 DUP2 ADD SWAP1 POP PUSH2 0x1BBA JUMP JUMPDEST POP POP JUMP JUMPDEST PUSH1 0x1F DUP3 GT ISZERO PUSH2 0x1C1D JUMPI PUSH2 0x1BEE DUP2 PUSH2 0x1ABD JUMP JUMPDEST PUSH2 0x1BF7 DUP5 PUSH2 0x1AD2 JUMP JUMPDEST DUP2 ADD PUSH1 0x20 DUP6 LT ISZERO PUSH2 0x1C06 JUMPI DUP2 SWAP1 POP JUMPDEST PUSH2 0x1C1A PUSH2 0x1C12 DUP6 PUSH2 0x1AD2 JUMP JUMPDEST DUP4 ADD DUP3 PUSH2 0x1BB9 JUMP JUMPDEST POP POP JUMPDEST POP POP POP JUMP JUMPDEST PUSH1 0x0 DUP3 DUP3 SHR SWAP1 POP SWAP3 SWAP2 POP POP JUMP JUMPDEST PUSH1 0x0 PUSH2 0x1C40 PUSH1 0x0 NOT DUP5 PUSH1 0x8 MUL PUSH2 0x1C22 JUMP JUMPDEST NOT DUP1 DUP4 AND SWAP2 POP POP SWAP3 SWAP2 POP POP JUMP JUMPDEST PUSH1 0x0 PUSH2 0x1C59 DUP4 DUP4 PUSH2 0x1C2F JUMP JUMPDEST SWAP2 POP DUP3 PUSH1 0x2 MUL DUP3 OR SWAP1 POP SWAP3 SWAP2 POP POP JUMP JUMPDEST PUSH2 0x1C72 DUP3 PUSH2 0x1428 JUMP JUMPDEST PUSH8 0xFFFFFFFFFFFFFFFF DUP2 GT ISZERO PUSH2 0x1C8B JUMPI PUSH2 0x1C8A PUSH2 0x1546 JUMP JUMPDEST JUMPDEST PUSH2 0x1C95 DUP3 SLOAD PUSH2 0x1A8C JUMP JUMPDEST PUSH2 0x1CA0 DUP3 DUP3 DUP6 PUSH2 0x1BDC JUMP JUMPDEST PUSH1 0x0 PUSH1 0x20 SWAP1 POP PUSH1 0x1F DUP4 GT PUSH1 0x1 DUP2 EQ PUSH2 0x1CD3 JUMPI PUSH1 0x0 DUP5 ISZERO PUSH2 0x1CC1 JUMPI DUP3 DUP8 ADD MLOAD SWAP1 POP JUMPDEST PUSH2 0x1CCB DUP6 DUP3 PUSH2 0x1C4D JUMP JUMPDEST DUP7 SSTORE POP PUSH2 0x1D33 JUMP JUMPDEST PUSH1 0x1F NOT DUP5 AND PUSH2 0x1CE1 DUP7 PUSH2 0x1ABD JUMP JUMPDEST PUSH1 0x0 JUMPDEST DUP3 DUP2 LT ISZERO PUSH2 0x1D09 JUMPI DUP5 DUP10 ADD MLOAD DUP3 SSTORE PUSH1 0x1 DUP3 ADD SWAP2 POP PUSH1 0x20 DUP6 ADD SWAP5 POP PUSH1 0x20 DUP2 ADD SWAP1 POP PUSH2 0x1CE4 JUMP JUMPDEST DUP7 DUP4 LT ISZERO PUSH2 0x1D26 JUMPI DUP5 DUP10 ADD MLOAD PUSH2 0x1D22 PUSH1 0x1F DUP10 AND DUP3 PUSH2 0x1C2F JUMP JUMPDEST DUP4 SSTORE POP JUMPDEST PUSH1 0x1 PUSH1 0x2 DUP9 MUL ADD DUP9 SSTORE POP POP POP JUMPDEST POP POP POP POP POP POP JUMP JUMPDEST PUSH32 0x4E487B7100000000000000000000000000000000000000000000000000000000 PUSH1 0x0 MSTORE PUSH1 0x11 PUSH1 0x4 MSTORE PUSH1 0x24 PUSH1 0x0 REVERT JUMPDEST PUSH1 0x0 PUSH2 0x1D75 DUP3 PUSH2 0x1384 JUMP JUMPDEST SWAP2 POP PUSH2 0x1D80 DUP4 PUSH2 0x1384 JUMP JUMPDEST SWAP3 POP DUP3 DUP3 ADD SWAP1 POP DUP1 DUP3 GT ISZERO PUSH2 0x1D98 JUMPI PUSH2 0x1D97 PUSH2 0x1D3B JUMP JUMPDEST JUMPDEST SWAP3 SWAP2 POP POP JUMP JUMPDEST PUSH1 0x0 PUSH1 0x80 DUP3 ADD SWAP1 POP DUP2 DUP2 SUB PUSH1 0x0 DUP4 ADD MSTORE PUSH2 0x1DB8 DUP2 DUP8 PUSH2 0x147F JUMP JUMPDEST SWAP1 POP PUSH2 0x1DC7 PUSH1 0x20 DUP4 ADD DUP7 PUSH2 0x16FC JUMP JUMPDEST PUSH2 0x1DD4 PUSH1 0x40 DUP4 ADD DUP6 PUSH2 0x14B8 JUMP JUMPDEST PUSH2 0x1DE1 PUSH1 0x60 DUP4 ADD DUP5 PUSH2 0x14B8 JUMP JUMPDEST SWAP6 SWAP5 POP POP POP POP POP JUMP JUMPDEST PUSH32 0x436F6E74656E742063616E6E6F7420626520656D707479000000000000000000 PUSH1 0x0 DUP3 ADD MSTORE POP JUMP JUMPDEST PUSH1 0x0 PUSH2 0x1E20 PUSH1 0x17 DUP4 PUSH2 0x1433 JUMP JUMPDEST SWAP2 POP PUSH2 0x1E2B DUP3 PUSH2 0x1DEA JUMP JUMPDEST PUSH1 0x20 DUP3 ADD SWAP1 POP SWAP2 SWAP1 POP JUMP JUMPDEST PUSH1 0x0 PUSH1 0x20 DUP3 ADD SWAP1 POP DUP2 DUP2 SUB PUSH1 0x0 DUP4 ADD MSTORE PUSH2 0x1E4F DUP2 PUSH2 0x1E13 JUMP JUMPDEST SWAP1 POP SWAP2 SWAP1 POP JUMP JUMPDEST PUSH1 0x0 PUSH1 0x40 DUP3 ADD SWAP1 POP DUP2 DUP2 SUB PUSH1 0x0 DUP4 ADD MSTORE PUSH2 0x1E70 DUP2 DUP6 PUSH2 0x147F JUMP JUMPDEST SWAP1 POP PUSH2 0x1E7F PUSH1 0x20 DUP4 ADD DUP5 PUSH2 0x14B8 JUMP JUMPDEST SWAP4 SWAP3 POP POP POP JUMP JUMPDEST PUSH1 0x0 DUP2 SWAP1 POP SWAP3 SWAP2 POP POP JUMP JUMPDEST POP JUMP JUMPDEST PUSH1 0x0 PUSH2 0x1EA1 PUSH1 0x0 DUP4 PUSH2 0x1E86 JUMP JUMPDEST SWAP2 POP PUSH2 0x1EAC DUP3 PUSH2 0x1E91 JUMP JUMPDEST PUSH1 0x0 DUP3 ADD SWAP1 POP SWAP2 SWAP1 POP JUMP JUMPDEST PUSH1 0x0 PUSH2 0x1EC2 DUP3 PUSH2 0x1E94 JUMP JUMPDEST SWAP2 POP DUP2 SWAP1 POP SWAP2 SWAP1 POP JUMP JUMPDEST PUSH32 0x4661696C656420746F2073656E64204574686572000000000000000000000000 PUSH1 0x0 DUP3 ADD MSTORE POP JUMP JUMPDEST PUSH1 0x0 PUSH2 0x1F02 PUSH1 0x14 DUP4 PUSH2 0x1433 JUMP JUMPDEST SWAP2 POP PUSH2 0x1F0D DUP3 PUSH2 0x1ECC JUMP JUMPDEST PUSH1 0x20 DUP3 ADD SWAP1 POP SWAP2 SWAP1 POP JUMP JUMPDEST PUSH1 0x0 PUSH1 0x20 DUP3 ADD SWAP1 POP DUP2 DUP2 SUB PUSH1 0x0 DUP4 ADD MSTORE PUSH2 0x1F31 DUP2 PUSH2 0x1EF5 JUMP JUMPDEST SWAP1 POP SWAP2 SWAP1 POP JUMP JUMPDEST PUSH1 0x0 PUSH1 0x40 DUP3 ADD SWAP1 POP PUSH2 0x1F4D PUSH1 0x0 DUP4 ADD DUP6 PUSH2 0x14B8 JUMP JUMPDEST PUSH2 0x1F5A PUSH1 0x20 DUP4 ADD DUP5 PUSH2 0x14B8 JUMP JUMPDEST SWAP4 SWAP3 POP POP POP JUMP JUMPDEST PUSH32 0x4E487B7100000000000000000000000000000000000000000000000000000000 PUSH1 0x0 MSTORE PUSH1 0x32 PUSH1 0x4 MSTORE PUSH1 0x24 PUSH1 0x0 REVERT JUMPDEST PUSH1 0x0 PUSH2 0x1F9B DUP3 PUSH2 0x1384 JUMP JUMPDEST SWAP2 POP PUSH32 0xFFFFFFFFFFFFFFFFFFFFFFFFFFFFFFFFFFFFFFFFFFFFFFFFFFFFFFFFFFFFFFFF DUP3 SUB PUSH2 0x1FCD JUMPI PUSH2 0x1FCC PUSH2 0x1D3B JUMP JUMPDEST JUMPDEST PUSH1 0x1 DUP3 ADD SWAP1 POP SWAP2 SWAP1 POP JUMP JUMPDEST PUSH32 0x557365722070726F66696C65206E6F7420666F756E6400000000000000000000 PUSH1 0x0 DUP3 ADD MSTORE POP JUMP JUMPDEST PUSH1 0x0 PUSH2 0x200E PUSH1 0x16 DUP4 PUSH2 0x1433 JUMP JUMPDEST SWAP2 POP PUSH2 0x2019 DUP3 PUSH2 0x1FD8 JUMP JUMPDEST PUSH1 0x20 DUP3 ADD SWAP1 POP SWAP2 SWAP1 POP JUMP JUMPDEST PUSH1 0x0 PUSH1 0x20 DUP3 ADD SWAP1 POP DUP2 DUP2 SUB PUSH1 0x0 DUP4 ADD MSTORE PUSH2 0x203D DUP2 PUSH2 0x2001 JUMP JUMPDEST SWAP1 POP SWAP2 SWAP1 POP JUMP JUMPDEST PUSH32 0x557365726E616D652063616E6E6F7420626520656D7074790000000000000000 PUSH1 0x0 DUP3 ADD MSTORE POP JUMP JUMPDEST PUSH1 0x0 PUSH2 0x207A PUSH1 0x18 DUP4 PUSH2 0x1433 JUMP JUMPDEST SWAP2 POP PUSH2 0x2085 DUP3 PUSH2 0x2044 JUMP JUMPDEST PUSH1 0x20 DUP3 ADD SWAP1 POP SWAP2 SWAP1 POP JUMP JUMPDEST PUSH1 0x0 PUSH1 0x20 DUP3 ADD SWAP1 POP DUP2 DUP2 SUB PUSH1 0x0 DUP4 ADD MSTORE PUSH2 0x20A9 DUP2 PUSH2 0x206D JUMP JUMPDEST SWAP1 POP SWAP2 SWAP1 POP JUMP JUMPDEST PUSH32 0x42696F2063616E6E6F7420626520656D70747900000000000000000000000000 PUSH1 0x0 DUP3 ADD MSTORE POP JUMP JUMPDEST PUSH1 0x0 PUSH2 0x20E6 PUSH1 0x13 DUP4 PUSH2 0x1433 JUMP JUMPDEST SWAP2 POP PUSH2 0x20F1 DUP3 PUSH2 0x20B0 JUMP JUMPDEST PUSH1 0x20 DUP3 ADD SWAP1 POP SWAP2 SWAP1 POP JUMP JUMPDEST PUSH1 0x0 PUSH1 0x20 DUP3 ADD SWAP1 POP DUP2 DUP2 SUB PUSH1 0x0 DUP4 ADD MSTORE PUSH2 0x2115 DUP2 PUSH2 0x20D9 JUMP JUMPDEST SWAP1 POP SWAP2 SWAP1 POP JUMP JUMPDEST PUSH1 0x0 PUSH1 0x60 DUP3 ADD SWAP1 POP DUP2 DUP2 SUB PUSH1 0x0 DUP4 ADD MSTORE PUSH2 0x2136 DUP2 DUP7 PUSH2 0x147F JUMP JUMPDEST SWAP1 POP DUP2 DUP2 SUB PUSH1 0x20 DUP4 ADD MSTORE PUSH2 0x214A DUP2 DUP6 PUSH2 0x147F JUMP JUMPDEST SWAP1 POP PUSH2 0x2159 PUSH1 0x40 DUP4 ADD DUP5 PUSH2 0x14B8 JUMP JUMPDEST SWAP5 SWAP4 POP POP POP POP JUMP INVALID LOG2 PUSH5 0x6970667358 0x22 SLT KECCAK256 DUP1 PUSH17 0xA06EE2F6C0D2373B00B47AD20DF3C1DE35 0xD9 0xAB 0xEC PUSH5 0x4AF4B7A054 0xC7 PUSH3 0xB34764 PUSH20 0x6F6C6343000814003357656C636F6D6520746F20 PUSH21 0x686520446563656E7472616C697A656420536F6369 PUSH2 0x6C20 0x4E PUSH6 0x74776F726B21 "},"methodIdentifiers":{"createUserPost(string)":"5cf10d88","createUserProfile(string,string)":"dcc2179b","getUserPosts(address)":"9a2194a9","getUserProfile(address)":"987ee156","interactionCounter()":"7dde8dae","owner()":"8da5cb5b","platformMessage()":"44c7c85e","premiumUser()":"8e529855","renounceOwnership()":"715018a6","transferOwnership(address)":"f2fde38b","updatePlatformMessage(string)":"570fa506","userInteractionCounter(address)":"b439a037","userPosts(uint256)":"fdd6ea71","userProfiles(uint256)":"18d4a12d","withdrawEther()":"7362377b"}}}}}